{
  "abi": [
    {
      "inputs": [
        {
          "internalType": "string",
          "name": "_baseTokenURI",
          "type": "string"
        }
      ],
      "stateMutability": "nonpayable",
      "type": "constructor"
    },
    {
      "anonymous": false,
      "inputs": [
        {
          "indexed": true,
          "internalType": "address",
          "name": "previousOwner",
          "type": "address"
        },
        {
          "indexed": true,
          "internalType": "address",
          "name": "newOwner",
          "type": "address"
        }
      ],
      "name": "OwnershipTransferred",
      "type": "event"
    },
    {
      "inputs": [],
      "name": "baseTokenURI",
      "outputs": [
        {
          "internalType": "string",
          "name": "",
          "type": "string"
        }
      ],
      "stateMutability": "view",
      "type": "function"
    },
    {
      "inputs": [],
      "name": "owner",
      "outputs": [
        {
          "internalType": "address",
          "name": "",
          "type": "address"
        }
      ],
      "stateMutability": "view",
      "type": "function"
    },
    {
      "inputs": [],
      "name": "renounceOwnership",
      "outputs": [],
      "stateMutability": "nonpayable",
      "type": "function"
    },
    {
      "inputs": [
        {
          "internalType": "string",
          "name": "_baseTokenURI",
          "type": "string"
        }
      ],
      "name": "setBaseTokenURI",
      "outputs": [],
      "stateMutability": "nonpayable",
      "type": "function"
    },
    {
      "inputs": [
        {
          "internalType": "address",
          "name": "newOwner",
          "type": "address"
        }
      ],
      "name": "transferOwnership",
      "outputs": [],
      "stateMutability": "nonpayable",
      "type": "function"
    }
  ],
  "bytecode": "608060405234801561001057600080fd5b506040516108b93803806108b983398101604081905261002f91610125565b61003833610047565b61004181610097565b5061033c565b600080546001600160a01b038381166001600160a01b0319831681178455604051919092169283917f8be0079c531659141344cd1fd0a4f28419497f9722a3daafe3b4186f6b6457e09190a35050565b61009f6100af565b60016100ab828261027d565b5050565b6000546001600160a01b0316331461010d5760405162461bcd60e51b815260206004820181905260248201527f4f776e61626c653a2063616c6c6572206973206e6f7420746865206f776e6572604482015260640160405180910390fd5b565b634e487b7160e01b600052604160045260246000fd5b6000602080838503121561013857600080fd5b82516001600160401b038082111561014f57600080fd5b818501915085601f83011261016357600080fd5b8151818111156101755761017561010f565b604051601f8201601f19908116603f0116810190838211818310171561019d5761019d61010f565b8160405282815288868487010111156101b557600080fd5b600093505b828410156101d757848401860151818501870152928501926101ba565b828411156101e85760008684830101525b98975050505050505050565b600181811c9082168061020857607f821691505b60208210810361022857634e487b7160e01b600052602260045260246000fd5b50919050565b601f82111561027857600081815260208120601f850160051c810160208610156102555750805b601f850160051c820191505b8181101561027457828155600101610261565b5050505b505050565b81516001600160401b038111156102965761029661010f565b6102aa816102a484546101f4565b8461022e565b602080601f8311600181146102df57600084156102c75750858301515b600019600386901b1c1916600185901b178555610274565b600085815260208120601f198616915b8281101561030e578886015182559484019460019091019084016102ef565b508582101561032c5787850151600019600388901b60f8161c191681555b5050505050600190811b01905550565b61056e8061034b6000396000f3fe608060405234801561001057600080fd5b50600436106100575760003560e01c806330176e131461005c578063715018a6146100715780638da5cb5b14610079578063d547cfb714610099578063f2fde38b146100ae575b600080fd5b61006f61006a3660046102b9565b6100c1565b005b61006f6100d9565b6000546040516001600160a01b0390911681526020015b60405180910390f35b6100a16100ed565b604051610090919061036a565b61006f6100bc3660046103bf565b61017b565b6100c96101f9565b60016100d58282610478565b5050565b6100e16101f9565b6100eb6000610253565b565b600180546100fa906103ef565b80601f0160208091040260200160405190810160405280929190818152602001828054610126906103ef565b80156101735780601f1061014857610100808354040283529160200191610173565b820191906000526020600020905b81548152906001019060200180831161015657829003601f168201915b505050505081565b6101836101f9565b6001600160a01b0381166101ed5760405162461bcd60e51b815260206004820152602660248201527f4f776e61626c653a206e6577206f776e657220697320746865207a65726f206160448201526564647265737360d01b60648201526084015b60405180910390fd5b6101f681610253565b50565b6000546001600160a01b031633146100eb5760405162461bcd60e51b815260206004820181905260248201527f4f776e61626c653a2063616c6c6572206973206e6f7420746865206f776e657260448201526064016101e4565b600080546001600160a01b038381166001600160a01b0319831681178455604051919092169283917f8be0079c531659141344cd1fd0a4f28419497f9722a3daafe3b4186f6b6457e09190a35050565b634e487b7160e01b600052604160045260246000fd5b6000602082840312156102cb57600080fd5b813567ffffffffffffffff808211156102e357600080fd5b818401915084601f8301126102f757600080fd5b813581811115610309576103096102a3565b604051601f8201601f19908116603f01168101908382118183101715610331576103316102a3565b8160405282815287602084870101111561034a57600080fd5b826020860160208301376000928101602001929092525095945050505050565b600060208083528351808285015260005b818110156103975785810183015185820160400152820161037b565b818111156103a9576000604083870101525b50601f01601f1916929092016040019392505050565b6000602082840312156103d157600080fd5b81356001600160a01b03811681146103e857600080fd5b9392505050565b600181811c9082168061040357607f821691505b60208210810361042357634e487b7160e01b600052602260045260246000fd5b50919050565b601f82111561047357600081815260208120601f850160051c810160208610156104505750805b601f850160051c820191505b8181101561046f5782815560010161045c565b5050505b505050565b815167ffffffffffffffff811115610492576104926102a3565b6104a6816104a084546103ef565b84610429565b602080601f8311600181146104db57600084156104c35750858301515b600019600386901b1c1916600185901b17855561046f565b600085815260208120601f198616915b8281101561050a578886015182559484019460019091019084016104eb565b50858210156105285787850151600019600388901b60f8161c191681555b5050505050600190811b0190555056fea2646970667358221220f0b8e39c368ffb3a104a145c852a53a85c02c3ceb86f4731fafa01182c518e8d64736f6c634300080f0033",
  "bytecodeSha1": "7254e2483319fbd750cfa7561a5eabcee4680ea6",
  "compiler": {
    "evm_version": "istanbul",
    "optimizer": {
      "enabled": true,
      "runs": 200
    },
    "version": "0.8.15+commit.e14f2714"
  },
  "contractName": "BaseTokenURI",
  "language": "Solidity",
  "natspec": {
    "kind": "dev",
    "methods": {
      "baseTokenURI()": {
        "notice": "Base token URI used as a prefix by tokenURI()."
      },
      "owner()": {
        "details": "Returns the address of the current owner."
      },
      "renounceOwnership()": {
        "details": "Leaves the contract without owner. It will not be possible to call `onlyOwner` functions anymore. Can only be called by the current owner. NOTE: Renouncing ownership will leave the contract without an owner, thereby removing any functionality that is only available to the owner."
      },
      "setBaseTokenURI(string)": {
        "notice": "Sets the base token URI prefix."
      },
      "transferOwnership(address)": {
        "details": "Transfers ownership of the contract to a new account (`newOwner`). Can only be called by the current owner."
      }
    },
    "notice": "ERC721 extension that overrides the OpenZeppelin _baseURI() function to return a prefix that can be set by the contract owner.",
    "version": 1
  },
  "opcodes": "PUSH1 0x80 PUSH1 0x40 MSTORE CALLVALUE DUP1 ISZERO PUSH2 0x10 JUMPI PUSH1 0x0 DUP1 REVERT JUMPDEST POP PUSH1 0x4 CALLDATASIZE LT PUSH2 0x57 JUMPI PUSH1 0x0 CALLDATALOAD PUSH1 0xE0 SHR DUP1 PUSH4 0x30176E13 EQ PUSH2 0x5C JUMPI DUP1 PUSH4 0x715018A6 EQ PUSH2 0x71 JUMPI DUP1 PUSH4 0x8DA5CB5B EQ PUSH2 0x79 JUMPI DUP1 PUSH4 0xD547CFB7 EQ PUSH2 0x99 JUMPI DUP1 PUSH4 0xF2FDE38B EQ PUSH2 0xAE JUMPI JUMPDEST PUSH1 0x0 DUP1 REVERT JUMPDEST PUSH2 0x6F PUSH2 0x6A CALLDATASIZE PUSH1 0x4 PUSH2 0x2B9 JUMP JUMPDEST PUSH2 0xC1 JUMP JUMPDEST STOP JUMPDEST PUSH2 0x6F PUSH2 0xD9 JUMP JUMPDEST PUSH1 0x0 SLOAD PUSH1 0x40 MLOAD PUSH1 0x1 PUSH1 0x1 PUSH1 0xA0 SHL SUB SWAP1 SWAP2 AND DUP2 MSTORE PUSH1 0x20 ADD JUMPDEST PUSH1 0x40 MLOAD DUP1 SWAP2 SUB SWAP1 RETURN JUMPDEST PUSH2 0xA1 PUSH2 0xED JUMP JUMPDEST PUSH1 0x40 MLOAD PUSH2 0x90 SWAP2 SWAP1 PUSH2 0x36A JUMP JUMPDEST PUSH2 0x6F PUSH2 0xBC CALLDATASIZE PUSH1 0x4 PUSH2 0x3BF JUMP JUMPDEST PUSH2 0x17B JUMP JUMPDEST PUSH2 0xC9 PUSH2 0x1F9 JUMP JUMPDEST PUSH1 0x1 PUSH2 0xD5 DUP3 DUP3 PUSH2 0x478 JUMP JUMPDEST POP POP JUMP JUMPDEST PUSH2 0xE1 PUSH2 0x1F9 JUMP JUMPDEST PUSH2 0xEB PUSH1 0x0 PUSH2 0x253 JUMP JUMPDEST JUMP JUMPDEST PUSH1 0x1 DUP1 SLOAD PUSH2 0xFA SWAP1 PUSH2 0x3EF JUMP JUMPDEST DUP1 PUSH1 0x1F ADD PUSH1 0x20 DUP1 SWAP2 DIV MUL PUSH1 0x20 ADD PUSH1 0x40 MLOAD SWAP1 DUP2 ADD PUSH1 0x40 MSTORE DUP1 SWAP3 SWAP2 SWAP1 DUP2 DUP2 MSTORE PUSH1 0x20 ADD DUP3 DUP1 SLOAD PUSH2 0x126 SWAP1 PUSH2 0x3EF JUMP JUMPDEST DUP1 ISZERO PUSH2 0x173 JUMPI DUP1 PUSH1 0x1F LT PUSH2 0x148 JUMPI PUSH2 0x100 DUP1 DUP4 SLOAD DIV MUL DUP4 MSTORE SWAP2 PUSH1 0x20 ADD SWAP2 PUSH2 0x173 JUMP JUMPDEST DUP3 ADD SWAP2 SWAP1 PUSH1 0x0 MSTORE PUSH1 0x20 PUSH1 0x0 KECCAK256 SWAP1 JUMPDEST DUP2 SLOAD DUP2 MSTORE SWAP1 PUSH1 0x1 ADD SWAP1 PUSH1 0x20 ADD DUP1 DUP4 GT PUSH2 0x156 JUMPI DUP3 SWAP1 SUB PUSH1 0x1F AND DUP3 ADD SWAP2 JUMPDEST POP POP POP POP POP DUP2 JUMP JUMPDEST PUSH2 0x183 PUSH2 0x1F9 JUMP JUMPDEST PUSH1 0x1 PUSH1 0x1 PUSH1 0xA0 SHL SUB DUP2 AND PUSH2 0x1ED JUMPI PUSH1 0x40 MLOAD PUSH3 0x461BCD PUSH1 0xE5 SHL DUP2 MSTORE PUSH1 0x20 PUSH1 0x4 DUP3 ADD MSTORE PUSH1 0x26 PUSH1 0x24 DUP3 ADD MSTORE PUSH32 0x4F776E61626C653A206E6577206F776E657220697320746865207A65726F2061 PUSH1 0x44 DUP3 ADD MSTORE PUSH6 0x646472657373 PUSH1 0xD0 SHL PUSH1 0x64 DUP3 ADD MSTORE PUSH1 0x84 ADD JUMPDEST PUSH1 0x40 MLOAD DUP1 SWAP2 SUB SWAP1 REVERT JUMPDEST PUSH2 0x1F6 DUP2 PUSH2 0x253 JUMP JUMPDEST POP JUMP JUMPDEST PUSH1 0x0 SLOAD PUSH1 0x1 PUSH1 0x1 PUSH1 0xA0 SHL SUB AND CALLER EQ PUSH2 0xEB JUMPI PUSH1 0x40 MLOAD PUSH3 0x461BCD PUSH1 0xE5 SHL DUP2 MSTORE PUSH1 0x20 PUSH1 0x4 DUP3 ADD DUP2 SWAP1 MSTORE PUSH1 0x24 DUP3 ADD MSTORE PUSH32 0x4F776E61626C653A2063616C6C6572206973206E6F7420746865206F776E6572 PUSH1 0x44 DUP3 ADD MSTORE PUSH1 0x64 ADD PUSH2 0x1E4 JUMP JUMPDEST PUSH1 0x0 DUP1 SLOAD PUSH1 0x1 PUSH1 0x1 PUSH1 0xA0 SHL SUB DUP4 DUP2 AND PUSH1 0x1 PUSH1 0x1 PUSH1 0xA0 SHL SUB NOT DUP4 AND DUP2 OR DUP5 SSTORE PUSH1 0x40 MLOAD SWAP2 SWAP1 SWAP3 AND SWAP3 DUP4 SWAP2 PUSH32 0x8BE0079C531659141344CD1FD0A4F28419497F9722A3DAAFE3B4186F6B6457E0 SWAP2 SWAP1 LOG3 POP POP JUMP JUMPDEST PUSH4 0x4E487B71 PUSH1 0xE0 SHL PUSH1 0x0 MSTORE PUSH1 0x41 PUSH1 0x4 MSTORE PUSH1 0x24 PUSH1 0x0 REVERT JUMPDEST PUSH1 0x0 PUSH1 0x20 DUP3 DUP5 SUB SLT ISZERO PUSH2 0x2CB JUMPI PUSH1 0x0 DUP1 REVERT JUMPDEST DUP2 CALLDATALOAD PUSH8 0xFFFFFFFFFFFFFFFF DUP1 DUP3 GT ISZERO PUSH2 0x2E3 JUMPI PUSH1 0x0 DUP1 REVERT JUMPDEST DUP2 DUP5 ADD SWAP2 POP DUP5 PUSH1 0x1F DUP4 ADD SLT PUSH2 0x2F7 JUMPI PUSH1 0x0 DUP1 REVERT JUMPDEST DUP2 CALLDATALOAD DUP2 DUP2 GT ISZERO PUSH2 0x309 JUMPI PUSH2 0x309 PUSH2 0x2A3 JUMP JUMPDEST PUSH1 0x40 MLOAD PUSH1 0x1F DUP3 ADD PUSH1 0x1F NOT SWAP1 DUP2 AND PUSH1 0x3F ADD AND DUP2 ADD SWAP1 DUP4 DUP3 GT DUP2 DUP4 LT OR ISZERO PUSH2 0x331 JUMPI PUSH2 0x331 PUSH2 0x2A3 JUMP JUMPDEST DUP2 PUSH1 0x40 MSTORE DUP3 DUP2 MSTORE DUP8 PUSH1 0x20 DUP5 DUP8 ADD ADD GT ISZERO PUSH2 0x34A JUMPI PUSH1 0x0 DUP1 REVERT JUMPDEST DUP3 PUSH1 0x20 DUP7 ADD PUSH1 0x20 DUP4 ADD CALLDATACOPY PUSH1 0x0 SWAP3 DUP2 ADD PUSH1 0x20 ADD SWAP3 SWAP1 SWAP3 MSTORE POP SWAP6 SWAP5 POP POP POP POP POP JUMP JUMPDEST PUSH1 0x0 PUSH1 0x20 DUP1 DUP4 MSTORE DUP4 MLOAD DUP1 DUP3 DUP6 ADD MSTORE PUSH1 0x0 JUMPDEST DUP2 DUP2 LT ISZERO PUSH2 0x397 JUMPI DUP6 DUP2 ADD DUP4 ADD MLOAD DUP6 DUP3 ADD PUSH1 0x40 ADD MSTORE DUP3 ADD PUSH2 0x37B JUMP JUMPDEST DUP2 DUP2 GT ISZERO PUSH2 0x3A9 JUMPI PUSH1 0x0 PUSH1 0x40 DUP4 DUP8 ADD ADD MSTORE JUMPDEST POP PUSH1 0x1F ADD PUSH1 0x1F NOT AND SWAP3 SWAP1 SWAP3 ADD PUSH1 0x40 ADD SWAP4 SWAP3 POP POP POP JUMP JUMPDEST PUSH1 0x0 PUSH1 0x20 DUP3 DUP5 SUB SLT ISZERO PUSH2 0x3D1 JUMPI PUSH1 0x0 DUP1 REVERT JUMPDEST DUP2 CALLDATALOAD PUSH1 0x1 PUSH1 0x1 PUSH1 0xA0 SHL SUB DUP2 AND DUP2 EQ PUSH2 0x3E8 JUMPI PUSH1 0x0 DUP1 REVERT JUMPDEST SWAP4 SWAP3 POP POP POP JUMP JUMPDEST PUSH1 0x1 DUP2 DUP2 SHR SWAP1 DUP3 AND DUP1 PUSH2 0x403 JUMPI PUSH1 0x7F DUP3 AND SWAP2 POP JUMPDEST PUSH1 0x20 DUP3 LT DUP2 SUB PUSH2 0x423 JUMPI PUSH4 0x4E487B71 PUSH1 0xE0 SHL PUSH1 0x0 MSTORE PUSH1 0x22 PUSH1 0x4 MSTORE PUSH1 0x24 PUSH1 0x0 REVERT JUMPDEST POP SWAP2 SWAP1 POP JUMP JUMPDEST PUSH1 0x1F DUP3 GT ISZERO PUSH2 0x473 JUMPI PUSH1 0x0 DUP2 DUP2 MSTORE PUSH1 0x20 DUP2 KECCAK256 PUSH1 0x1F DUP6 ADD PUSH1 0x5 SHR DUP2 ADD PUSH1 0x20 DUP7 LT ISZERO PUSH2 0x450 JUMPI POP DUP1 JUMPDEST PUSH1 0x1F DUP6 ADD PUSH1 0x5 SHR DUP3 ADD SWAP2 POP JUMPDEST DUP2 DUP2 LT ISZERO PUSH2 0x46F JUMPI DUP3 DUP2 SSTORE PUSH1 0x1 ADD PUSH2 0x45C JUMP JUMPDEST POP POP POP JUMPDEST POP POP POP JUMP JUMPDEST DUP2 MLOAD PUSH8 0xFFFFFFFFFFFFFFFF DUP2 GT ISZERO PUSH2 0x492 JUMPI PUSH2 0x492 PUSH2 0x2A3 JUMP JUMPDEST PUSH2 0x4A6 DUP2 PUSH2 0x4A0 DUP5 SLOAD PUSH2 0x3EF JUMP JUMPDEST DUP5 PUSH2 0x429 JUMP JUMPDEST PUSH1 0x20 DUP1 PUSH1 0x1F DUP4 GT PUSH1 0x1 DUP2 EQ PUSH2 0x4DB JUMPI PUSH1 0x0 DUP5 ISZERO PUSH2 0x4C3 JUMPI POP DUP6 DUP4 ADD MLOAD JUMPDEST PUSH1 0x0 NOT PUSH1 0x3 DUP7 SWAP1 SHL SHR NOT AND PUSH1 0x1 DUP6 SWAP1 SHL OR DUP6 SSTORE PUSH2 0x46F JUMP JUMPDEST PUSH1 0x0 DUP6 DUP2 MSTORE PUSH1 0x20 DUP2 KECCAK256 PUSH1 0x1F NOT DUP7 AND SWAP2 JUMPDEST DUP3 DUP2 LT ISZERO PUSH2 0x50A JUMPI DUP9 DUP7 ADD MLOAD DUP3 SSTORE SWAP5 DUP5 ADD SWAP5 PUSH1 0x1 SWAP1 SWAP2 ADD SWAP1 DUP5 ADD PUSH2 0x4EB JUMP JUMPDEST POP DUP6 DUP3 LT ISZERO PUSH2 0x528 JUMPI DUP8 DUP6 ADD MLOAD PUSH1 0x0 NOT PUSH1 0x3 DUP9 SWAP1 SHL PUSH1 0xF8 AND SHR NOT AND DUP2 SSTORE JUMPDEST POP POP POP POP POP PUSH1 0x1 SWAP1 DUP2 SHL ADD SWAP1 SSTORE POP JUMP INVALID LOG2 PUSH5 0x6970667358 0x22 SLT KECCAK256 CREATE 0xB8 0xE3 SWAP13 CALLDATASIZE DUP16 0xFB GASPRICE LT 0x4A EQ 0x5C DUP6 0x2A MSTORE8 0xA8 0x5C MUL 0xC3 0xCE 0xB8 PUSH16 0x4731FAFA01182C518E8D64736F6C6343 STOP ADDMOD 0xF STOP CALLER ",
  "sha1": "214e7c2bd55027e0a8674cdc5d15d7affe38e02c",
  "source": "// SPDX-License-Identifier: MIT\n// Copyright (c) 2021 the ethier authors (github.com/divergencetech/ethier)\npragma solidity >=0.8.0 <0.9.0;\n\nimport \"@openzeppelin/contracts/access/Ownable.sol\";\n\n/**\n@notice ERC721 extension that overrides the OpenZeppelin _baseURI() function to\nreturn a prefix that can be set by the contract owner.\n */\ncontract BaseTokenURI is Ownable {\n    /// @notice Base token URI used as a prefix by tokenURI().\n    string public baseTokenURI;\n\n    constructor(string memory _baseTokenURI) {\n        setBaseTokenURI(_baseTokenURI);\n    }\n\n    /// @notice Sets the base token URI prefix.\n    function setBaseTokenURI(string memory _baseTokenURI) public onlyOwner {\n        baseTokenURI = _baseTokenURI;\n    }\n\n    /**\n    @notice Concatenates and returns the base token URI and the token ID without\n    any additional characters (e.g. a slash).\n    @dev This requires that an inheriting contract that also inherits from OZ's\n    ERC721 will have to override both contracts; although we could simply\n    require that users implement their own _baseURI() as here, this can easily\n    be forgotten and the current approach guides them with compiler errors. This\n    favours the latter half of \"APIs should be easy to use and hard to misuse\"\n    from https://www.infoq.com/articles/API-Design-Joshua-Bloch/.\n     */\n    function _baseURI() internal view virtual returns (string memory) {\n        return baseTokenURI;\n    }\n}\n",
  "sourcePath": "/Users/feliperamos/.brownie/packages/divergencetech/ethier@0.31.0/contracts/erc721/BaseTokenURI.sol",
  "type": "contract"
}