{
  "abi": [
    {
      "inputs": [
        {
          "internalType": "address",
          "name": "_VRFCoordinator",
          "type": "address"
        },
        {
          "internalType": "bytes32",
          "name": "_gasLane",
          "type": "bytes32"
        },
        {
          "internalType": "uint64",
          "name": "_subscriptionId",
          "type": "uint64"
        },
        {
          "internalType": "uint32",
          "name": "_callbackGasLimit",
          "type": "uint32"
        },
        {
          "internalType": "address payable",
          "name": "beneficiary",
          "type": "address"
        }
      ],
      "stateMutability": "nonpayable",
      "type": "constructor"
    },
    {
      "inputs": [
        {
          "internalType": "address",
          "name": "have",
          "type": "address"
        },
        {
          "internalType": "address",
          "name": "want",
          "type": "address"
        }
      ],
      "name": "OnlyCoordinatorCanFulfill",
      "type": "error"
    },
    {
      "anonymous": false,
      "inputs": [
        {
          "indexed": true,
          "internalType": "address",
          "name": "owner",
          "type": "address"
        },
        {
          "indexed": true,
          "internalType": "address",
          "name": "approved",
          "type": "address"
        },
        {
          "indexed": true,
          "internalType": "uint256",
          "name": "tokenId",
          "type": "uint256"
        }
      ],
      "name": "Approval",
      "type": "event"
    },
    {
      "anonymous": false,
      "inputs": [
        {
          "indexed": true,
          "internalType": "address",
          "name": "owner",
          "type": "address"
        },
        {
          "indexed": true,
          "internalType": "address",
          "name": "operator",
          "type": "address"
        },
        {
          "indexed": false,
          "internalType": "bool",
          "name": "approved",
          "type": "bool"
        }
      ],
      "name": "ApprovalForAll",
      "type": "event"
    },
    {
      "anonymous": false,
      "inputs": [
        {
          "indexed": true,
          "internalType": "uint256",
          "name": "tokenId",
          "type": "uint256"
        }
      ],
      "name": "FrogxelMinted",
      "type": "event"
    },
    {
      "anonymous": false,
      "inputs": [
        {
          "indexed": true,
          "internalType": "address",
          "name": "previousOwner",
          "type": "address"
        },
        {
          "indexed": true,
          "internalType": "address",
          "name": "newOwner",
          "type": "address"
        }
      ],
      "name": "OwnershipTransferred",
      "type": "event"
    },
    {
      "anonymous": false,
      "inputs": [
        {
          "indexed": false,
          "internalType": "address",
          "name": "account",
          "type": "address"
        }
      ],
      "name": "Paused",
      "type": "event"
    },
    {
      "anonymous": false,
      "inputs": [
        {
          "indexed": true,
          "internalType": "address",
          "name": "buyer",
          "type": "address"
        },
        {
          "indexed": false,
          "internalType": "uint256",
          "name": "amount",
          "type": "uint256"
        }
      ],
      "name": "Refund",
      "type": "event"
    },
    {
      "anonymous": false,
      "inputs": [
        {
          "indexed": true,
          "internalType": "uint256",
          "name": "requestId",
          "type": "uint256"
        }
      ],
      "name": "RequestedMint",
      "type": "event"
    },
    {
      "anonymous": false,
      "inputs": [
        {
          "indexed": true,
          "internalType": "address",
          "name": "beneficiary",
          "type": "address"
        },
        {
          "indexed": false,
          "internalType": "uint256",
          "name": "numPurchased",
          "type": "uint256"
        },
        {
          "indexed": false,
          "internalType": "uint256",
          "name": "amount",
          "type": "uint256"
        }
      ],
      "name": "Revenue",
      "type": "event"
    },
    {
      "anonymous": false,
      "inputs": [
        {
          "indexed": true,
          "internalType": "address",
          "name": "from",
          "type": "address"
        },
        {
          "indexed": true,
          "internalType": "address",
          "name": "to",
          "type": "address"
        },
        {
          "indexed": true,
          "internalType": "uint256",
          "name": "tokenId",
          "type": "uint256"
        }
      ],
      "name": "Transfer",
      "type": "event"
    },
    {
      "anonymous": false,
      "inputs": [
        {
          "indexed": false,
          "internalType": "address",
          "name": "account",
          "type": "address"
        }
      ],
      "name": "Unpaused",
      "type": "event"
    },
    {
      "inputs": [
        {
          "internalType": "address",
          "name": "to",
          "type": "address"
        },
        {
          "internalType": "uint256",
          "name": "tokenId",
          "type": "uint256"
        }
      ],
      "name": "approve",
      "outputs": [],
      "stateMutability": "nonpayable",
      "type": "function"
    },
    {
      "inputs": [
        {
          "internalType": "address",
          "name": "owner",
          "type": "address"
        }
      ],
      "name": "balanceOf",
      "outputs": [
        {
          "internalType": "uint256",
          "name": "",
          "type": "uint256"
        }
      ],
      "stateMutability": "view",
      "type": "function"
    },
    {
      "inputs": [],
      "name": "beneficiary",
      "outputs": [
        {
          "internalType": "address payable",
          "name": "",
          "type": "address"
        }
      ],
      "stateMutability": "view",
      "type": "function"
    },
    {
      "inputs": [
        {
          "internalType": "uint256",
          "name": "n",
          "type": "uint256"
        },
        {
          "internalType": "uint256",
          "name": "",
          "type": "uint256"
        }
      ],
      "name": "cost",
      "outputs": [
        {
          "internalType": "uint256",
          "name": "",
          "type": "uint256"
        }
      ],
      "stateMutability": "view",
      "type": "function"
    },
    {
      "inputs": [
        {
          "internalType": "uint256",
          "name": "tokenId",
          "type": "uint256"
        }
      ],
      "name": "getApproved",
      "outputs": [
        {
          "internalType": "address",
          "name": "",
          "type": "address"
        }
      ],
      "stateMutability": "view",
      "type": "function"
    },
    {
      "inputs": [
        {
          "internalType": "uint256",
          "name": "",
          "type": "uint256"
        }
      ],
      "name": "ids",
      "outputs": [
        {
          "internalType": "uint16",
          "name": "",
          "type": "uint16"
        }
      ],
      "stateMutability": "view",
      "type": "function"
    },
    {
      "inputs": [
        {
          "internalType": "address",
          "name": "owner",
          "type": "address"
        },
        {
          "internalType": "address",
          "name": "operator",
          "type": "address"
        }
      ],
      "name": "isApprovedForAll",
      "outputs": [
        {
          "internalType": "bool",
          "name": "",
          "type": "bool"
        }
      ],
      "stateMutability": "view",
      "type": "function"
    },
    {
      "inputs": [
        {
          "internalType": "address",
          "name": "to",
          "type": "address"
        }
      ],
      "name": "mintFrogxel",
      "outputs": [],
      "stateMutability": "payable",
      "type": "function"
    },
    {
      "inputs": [],
      "name": "name",
      "outputs": [
        {
          "internalType": "string",
          "name": "",
          "type": "string"
        }
      ],
      "stateMutability": "view",
      "type": "function"
    },
    {
      "inputs": [],
      "name": "owner",
      "outputs": [
        {
          "internalType": "address",
          "name": "",
          "type": "address"
        }
      ],
      "stateMutability": "view",
      "type": "function"
    },
    {
      "inputs": [
        {
          "internalType": "uint256",
          "name": "tokenId",
          "type": "uint256"
        }
      ],
      "name": "ownerOf",
      "outputs": [
        {
          "internalType": "address",
          "name": "",
          "type": "address"
        }
      ],
      "stateMutability": "view",
      "type": "function"
    },
    {
      "inputs": [],
      "name": "pause",
      "outputs": [],
      "stateMutability": "nonpayable",
      "type": "function"
    },
    {
      "inputs": [],
      "name": "paused",
      "outputs": [
        {
          "internalType": "bool",
          "name": "",
          "type": "bool"
        }
      ],
      "stateMutability": "view",
      "type": "function"
    },
    {
      "inputs": [],
      "name": "price",
      "outputs": [
        {
          "internalType": "uint256",
          "name": "",
          "type": "uint256"
        }
      ],
      "stateMutability": "view",
      "type": "function"
    },
    {
      "inputs": [
        {
          "internalType": "address",
          "name": "to",
          "type": "address"
        },
        {
          "internalType": "uint256",
          "name": "n",
          "type": "uint256"
        }
      ],
      "name": "purchaseFreeOfCharge",
      "outputs": [],
      "stateMutability": "nonpayable",
      "type": "function"
    },
    {
      "inputs": [
        {
          "internalType": "uint256",
          "name": "requestId",
          "type": "uint256"
        },
        {
          "internalType": "uint256[]",
          "name": "randomWords",
          "type": "uint256[]"
        }
      ],
      "name": "rawFulfillRandomWords",
      "outputs": [],
      "stateMutability": "nonpayable",
      "type": "function"
    },
    {
      "inputs": [],
      "name": "renounceOwnership",
      "outputs": [],
      "stateMutability": "nonpayable",
      "type": "function"
    },
    {
      "inputs": [
        {
          "internalType": "uint256",
          "name": "",
          "type": "uint256"
        }
      ],
      "name": "requestIdToMinter",
      "outputs": [
        {
          "internalType": "address",
          "name": "",
          "type": "address"
        }
      ],
      "stateMutability": "view",
      "type": "function"
    },
    {
      "inputs": [
        {
          "internalType": "address",
          "name": "from",
          "type": "address"
        },
        {
          "internalType": "address",
          "name": "to",
          "type": "address"
        },
        {
          "internalType": "uint256",
          "name": "tokenId",
          "type": "uint256"
        }
      ],
      "name": "safeTransferFrom",
      "outputs": [],
      "stateMutability": "nonpayable",
      "type": "function"
    },
    {
      "inputs": [
        {
          "internalType": "address",
          "name": "from",
          "type": "address"
        },
        {
          "internalType": "address",
          "name": "to",
          "type": "address"
        },
        {
          "internalType": "uint256",
          "name": "tokenId",
          "type": "uint256"
        },
        {
          "internalType": "bytes",
          "name": "data",
          "type": "bytes"
        }
      ],
      "name": "safeTransferFrom",
      "outputs": [],
      "stateMutability": "nonpayable",
      "type": "function"
    },
    {
      "inputs": [],
      "name": "sellerConfig",
      "outputs": [
        {
          "internalType": "uint256",
          "name": "totalInventory",
          "type": "uint256"
        },
        {
          "internalType": "uint256",
          "name": "maxPerAddress",
          "type": "uint256"
        },
        {
          "internalType": "uint256",
          "name": "maxPerTx",
          "type": "uint256"
        },
        {
          "internalType": "uint248",
          "name": "freeQuota",
          "type": "uint248"
        },
        {
          "internalType": "bool",
          "name": "reserveFreeQuota",
          "type": "bool"
        },
        {
          "internalType": "bool",
          "name": "lockFreeQuota",
          "type": "bool"
        },
        {
          "internalType": "bool",
          "name": "lockTotalInventory",
          "type": "bool"
        }
      ],
      "stateMutability": "view",
      "type": "function"
    },
    {
      "inputs": [
        {
          "internalType": "address",
          "name": "operator",
          "type": "address"
        },
        {
          "internalType": "bool",
          "name": "approved",
          "type": "bool"
        }
      ],
      "name": "setApprovalForAll",
      "outputs": [],
      "stateMutability": "nonpayable",
      "type": "function"
    },
    {
      "inputs": [
        {
          "internalType": "address payable",
          "name": "_beneficiary",
          "type": "address"
        }
      ],
      "name": "setBeneficiary",
      "outputs": [],
      "stateMutability": "nonpayable",
      "type": "function"
    },
    {
      "inputs": [
        {
          "internalType": "uint256",
          "name": "_price",
          "type": "uint256"
        }
      ],
      "name": "setPrice",
      "outputs": [],
      "stateMutability": "nonpayable",
      "type": "function"
    },
    {
      "inputs": [
        {
          "components": [
            {
              "internalType": "uint256",
              "name": "totalInventory",
              "type": "uint256"
            },
            {
              "internalType": "uint256",
              "name": "maxPerAddress",
              "type": "uint256"
            },
            {
              "internalType": "uint256",
              "name": "maxPerTx",
              "type": "uint256"
            },
            {
              "internalType": "uint248",
              "name": "freeQuota",
              "type": "uint248"
            },
            {
              "internalType": "bool",
              "name": "reserveFreeQuota",
              "type": "bool"
            },
            {
              "internalType": "bool",
              "name": "lockFreeQuota",
              "type": "bool"
            },
            {
              "internalType": "bool",
              "name": "lockTotalInventory",
              "type": "bool"
            }
          ],
          "internalType": "struct Seller.SellerConfig",
          "name": "config",
          "type": "tuple"
        }
      ],
      "name": "setSellerConfig",
      "outputs": [],
      "stateMutability": "nonpayable",
      "type": "function"
    },
    {
      "inputs": [
        {
          "internalType": "bytes4",
          "name": "interfaceId",
          "type": "bytes4"
        }
      ],
      "name": "supportsInterface",
      "outputs": [
        {
          "internalType": "bool",
          "name": "",
          "type": "bool"
        }
      ],
      "stateMutability": "view",
      "type": "function"
    },
    {
      "inputs": [],
      "name": "symbol",
      "outputs": [
        {
          "internalType": "string",
          "name": "",
          "type": "string"
        }
      ],
      "stateMutability": "view",
      "type": "function"
    },
    {
      "inputs": [
        {
          "internalType": "uint256",
          "name": "tokenId",
          "type": "uint256"
        }
      ],
      "name": "tokenURI",
      "outputs": [
        {
          "internalType": "string",
          "name": "",
          "type": "string"
        }
      ],
      "stateMutability": "view",
      "type": "function"
    },
    {
      "inputs": [],
      "name": "totalSold",
      "outputs": [
        {
          "internalType": "uint256",
          "name": "",
          "type": "uint256"
        }
      ],
      "stateMutability": "view",
      "type": "function"
    },
    {
      "inputs": [
        {
          "internalType": "address",
          "name": "from",
          "type": "address"
        },
        {
          "internalType": "address",
          "name": "to",
          "type": "address"
        },
        {
          "internalType": "uint256",
          "name": "tokenId",
          "type": "uint256"
        }
      ],
      "name": "transferFrom",
      "outputs": [],
      "stateMutability": "nonpayable",
      "type": "function"
    },
    {
      "inputs": [
        {
          "internalType": "address",
          "name": "newOwner",
          "type": "address"
        }
      ],
      "name": "transferOwnership",
      "outputs": [],
      "stateMutability": "nonpayable",
      "type": "function"
    },
    {
      "inputs": [],
      "name": "unpause",
      "outputs": [],
      "stateMutability": "nonpayable",
      "type": "function"
    }
  ],
  "bytecode": "6101206040523480156200001257600080fd5b50604051620031a1380380620031a183398101604081905262000035916200047b565b662386f26fc100006040518060e00160405280600a8152602001600a81526020016001815260200160016001600160f81b0316815260200160011515815260200160001515815260200160011515815250828181896040518060400160405280600a81526020016946726f6778566572736560b01b81525060405180604001604052806007815260200166119493d1d6115360ca1b8152508160009081620000de9190620005a7565b506001620000ed8282620005a7565b5050506001600160a01b0316608052620001073362000171565b6006805460ff60a01b1916905560016007556200012482620001c3565b6200012f81620003c5565b506200013d905083620003f1565b5050506001600160a01b0390941660a05260c0929092526001600160401b031660e05263ffffffff16610100525062000673565b600680546001600160a01b038381166001600160a01b0319831681179093556040519116919082907f8be0079c531659141344cd1fd0a4f28419497f9722a3daafe3b4186f6b6457e090600090a35050565b620001cd62000400565b80606001516001600160f81b031681600001511015620002345760405162461bcd60e51b815260206004820152601c60248201527f53656c6c65723a2065786365737369766520667265652071756f74610000000060448201526064015b60405180910390fd5b6200024b600e6200045e60201b62000f7a1760201c565b815110156200029d5760405162461bcd60e51b815260206004820181905260248201527f53656c6c65723a20696e76656e746f7279203c20616c726561647920736f6c6460448201526064016200022b565b620002b460106200045e60201b62000f7a1760201c565b81606001516001600160f81b031610156200031c5760405162461bcd60e51b815260206004820152602160248201527f53656c6c65723a20667265652071756f7461203c20616c7265616479207573656044820152601960fa1b60648201526084016200022b565b600c54610100900460ff16156200033a57600160c082015260085481525b600c5460ff16156200035f57600160a0820152600b546001600160f81b031660608201525b805160085560208101516009556040810151600a55606081015160808201511515600160f81b026001600160f81b0390911617600b5560a0810151600c805460c09093015115156101000261ff00199215159290921661ffff1990931692909217179055565b620003cf62000400565b600d80546001600160a01b0319166001600160a01b0392909216919091179055565b620003fb62000400565b601155565b6006546001600160a01b031633146200045c5760405162461bcd60e51b815260206004820181905260248201527f4f776e61626c653a2063616c6c6572206973206e6f7420746865206f776e657260448201526064016200022b565b565b5490565b6001600160a01b03811681146200047857600080fd5b50565b600080600080600060a086880312156200049457600080fd5b8551620004a18162000462565b6020870151604088015191965094506001600160401b0381168114620004c657600080fd5b606087015190935063ffffffff81168114620004e157600080fd5b6080870151909250620004f48162000462565b809150509295509295909350565b634e487b7160e01b600052604160045260246000fd5b600181811c908216806200052d57607f821691505b6020821081036200054e57634e487b7160e01b600052602260045260246000fd5b50919050565b601f821115620005a257600081815260208120601f850160051c810160208610156200057d5750805b601f850160051c820191505b818110156200059e5782815560010162000589565b5050505b505050565b81516001600160401b03811115620005c357620005c362000502565b620005db81620005d4845462000518565b8462000554565b602080601f831160018114620006135760008415620005fa5750858301515b600019600386901b1c1916600185901b1785556200059e565b600085815260208120601f198616915b82811015620006445788860151825594840194600190910190840162000623565b5085821015620006635787850151600019600388901b60f8161c191681555b5050505050600190811b01905550565b60805160a05160c05160e05161010051612ae2620006bf600039600061183e0152600061180b015260006117dc0152600061186f0152600081816108ee01526109300152612ae26000f3fe6080604052600436106101e35760003560e01c806370a0823111610102578063a22cb46511610095578063c87b56dd11610064578063c87b56dd146105d8578063e985e9c5146105f8578063f2fde38b14610641578063fac333ac1461066157600080fd5b8063a22cb465146104ed578063b88d4fde1461050d578063bb69b7ef1461052d578063bf62e21d146105b857600080fd5b80639106d7ba116100d15780639106d7ba1461048d57806391b7f5ed146104a257806395d89b41146104c2578063a035b1fe146104d757600080fd5b806370a0823114610425578063715018a6146104455780638456cb591461045a5780638da5cb5b1461046f57600080fd5b80632f274bd41161017a57806342842e0e1161014957806342842e0e1461038f5780635c975abb146103af5780635e2fcca5146103ce5780636352211e1461040557600080fd5b80632f274bd41461030c57806338af3eed1461032c5780633ec02e141461034c5780633f4ba83a1461037a57600080fd5b80631c31f710116101b65780631c31f710146102995780631fe543e3146102b957806323b872dd146102d95780632961cd03146102f957600080fd5b806301ffc9a7146101e857806306fdde031461021d578063081812fc1461023f578063095ea7b314610277575b600080fd5b3480156101f457600080fd5b5061020861020336600461235d565b610694565b60405190151581526020015b60405180910390f35b34801561022957600080fd5b506102326106e6565b60405161021491906123d2565b34801561024b57600080fd5b5061025f61025a3660046123e5565b610778565b6040516001600160a01b039091168152602001610214565b34801561028357600080fd5b50610297610292366004612413565b61079f565b005b3480156102a557600080fd5b506102976102b436600461243f565b6108b9565b3480156102c557600080fd5b506102976102d43660046124cc565b6108e3565b3480156102e557600080fd5b506102976102f436600461257e565b61096b565b61029761030736600461243f565b61099c565b34801561031857600080fd5b506102976103273660046125d4565b6109aa565b34801561033857600080fd5b50600d5461025f906001600160a01b031681565b34801561035857600080fd5b5061036c61036736600461265f565b610b76565b604051908152602001610214565b34801561038657600080fd5b50610297610b8d565b34801561039b57600080fd5b506102976103aa36600461257e565b610b9f565b3480156103bb57600080fd5b50600654600160a01b900460ff16610208565b3480156103da57600080fd5b5061025f6103e93660046123e5565b610284602052600090815260409020546001600160a01b031681565b34801561041157600080fd5b5061025f6104203660046123e5565b610bba565b34801561043157600080fd5b5061036c61044036600461243f565b610c1a565b34801561045157600080fd5b50610297610ca0565b34801561046657600080fd5b50610297610cb2565b34801561047b57600080fd5b506006546001600160a01b031661025f565b34801561049957600080fd5b5061036c610cc2565b3480156104ae57600080fd5b506102976104bd3660046123e5565b610cd2565b3480156104ce57600080fd5b50610232610cdf565b3480156104e357600080fd5b5061036c60115481565b3480156104f957600080fd5b50610297610508366004612681565b610cee565b34801561051957600080fd5b506102976105283660046126b6565b610cf9565b34801561053957600080fd5b50600854600954600a54600b54600c54610575949392916001600160f81b0381169160ff600160f81b9092048216918181169161010090041687565b604080519788526020880196909652948601939093526001600160f81b03909116606085015215156080840152151560a0830152151560c082015260e001610214565b3480156105c457600080fd5b506102976105d3366004612413565b610d31565b3480156105e457600080fd5b506102326105f33660046123e5565b610e62565b34801561060457600080fd5b5061020861061336600461277a565b6001600160a01b03918216600090815260056020908152604080832093909416825291909152205460ff1690565b34801561064d57600080fd5b5061029761065c36600461243f565b610ed5565b34801561066d57600080fd5b5061068161067c3660046123e5565b610f4b565b60405161ffff9091168152602001610214565b60006001600160e01b031982166380ac58cd60e01b14806106c557506001600160e01b03198216635b5e139f60e01b145b806106e057506301ffc9a760e01b6001600160e01b03198316145b92915050565b6060600080546106f5906127b3565b80601f0160208091040260200160405190810160405280929190818152602001828054610721906127b3565b801561076e5780601f106107435761010080835404028352916020019161076e565b820191906000526020600020905b81548152906001019060200180831161075157829003601f168201915b5050505050905090565b600061078382610f7e565b506000908152600460205260409020546001600160a01b031690565b60006107aa82610bba565b9050806001600160a01b0316836001600160a01b03160361081c5760405162461bcd60e51b815260206004820152602160248201527f4552433732313a20617070726f76616c20746f2063757272656e74206f776e656044820152603960f91b60648201526084015b60405180910390fd5b336001600160a01b038216148061083857506108388133610613565b6108aa5760405162461bcd60e51b815260206004820152603e60248201527f4552433732313a20617070726f76652063616c6c6572206973206e6f7420746f60448201527f6b656e206f776e6572206e6f7220617070726f76656420666f7220616c6c00006064820152608401610813565b6108b48383610fdd565b505050565b6108c161104b565b600d80546001600160a01b0319166001600160a01b0392909216919091179055565b336001600160a01b037f0000000000000000000000000000000000000000000000000000000000000000161461095d5760405163073e64fd60e21b81523360048201526001600160a01b037f0000000000000000000000000000000000000000000000000000000000000000166024820152604401610813565b61096782826110a5565b5050565b610975338261133b565b6109915760405162461bcd60e51b8152600401610813906127ed565b6108b48383836113ba565b6109a7816001611556565b50565b6109b261104b565b80606001516001600160f81b031681600001511015610a135760405162461bcd60e51b815260206004820152601c60248201527f53656c6c65723a2065786365737369766520667265652071756f7461000000006044820152606401610813565b600e5481511015610a665760405162461bcd60e51b815260206004820181905260248201527f53656c6c65723a20696e76656e746f7279203c20616c726561647920736f6c646044820152606401610813565b60105481606001516001600160f81b03161015610acf5760405162461bcd60e51b815260206004820152602160248201527f53656c6c65723a20667265652071756f7461203c20616c7265616479207573656044820152601960fa1b6064820152608401610813565b600c54610100900460ff1615610aec57600160c082015260085481525b600c5460ff1615610b1057600160a0820152600b546001600160f81b031660608201525b805160085560208101516009556040810151600a55606081015160808201511515600160f81b026001600160f81b0390911617600b5560a0810151600c805460c09093015115156101000261ff00199215159290921661ffff1990931692909217179055565b600060115483610b869190612851565b9392505050565b610b9561104b565b610b9d611562565b565b6108b483838360405180602001604052806000815250610cf9565b6000818152600260205260408120546001600160a01b0316806106e05760405162461bcd60e51b8152602060048201526018602482015277115490cdcc8c4e881a5b9d985b1a59081d1bdad95b88125160421b6044820152606401610813565b60006001600160a01b038216610c845760405162461bcd60e51b815260206004820152602960248201527f4552433732313a2061646472657373207a65726f206973206e6f7420612076616044820152683634b21037bbb732b960b91b6064820152608401610813565b506001600160a01b031660009081526003602052604090205490565b610ca861104b565b610b9d60006115b7565b610cba61104b565b610b9d611609565b6000610ccd600e5490565b905090565b610cda61104b565b601155565b6060600180546106f5906127b3565b61096733838361164c565b610d03338361133b565b610d1f5760405162461bcd60e51b8152600401610813906127ed565b610d2b8484848461171a565b50505050565b610d3961104b565b610d4161174d565b600b546001600160f81b0316610d6982610d5a60105490565b610d649084612870565b61179a565b915060008211610dbb5760405162461bcd60e51b815260206004820152601b60248201527f53656c6c65723a20467265652071756f746120657863656564656400000000006044820152606401610813565b600854610dcb83610d5a600e5490565b925060008311610e105760405162461bcd60e51b815260206004820152601060248201526f14d95b1b195c8e8814dbdb19081bdd5d60821b6044820152606401610813565b610e1b600e846117b0565b610e266010846117b0565b610e32848460016117cd565b80610e3c600e5490565b1115610e4a57610e4a612887565b81610e5460105490565b1115610d2b57610d2b612887565b6060610e6d82610f7e565b6000610e8460408051602081019091526000815290565b90506000815111610ea45760405180602001604052806000815250610b86565b80610eae8461193d565b604051602001610ebf92919061289d565b6040516020818303038152906040529392505050565b610edd61104b565b6001600160a01b038116610f425760405162461bcd60e51b815260206004820152602660248201527f4f776e61626c653a206e6577206f776e657220697320746865207a65726f206160448201526564647265737360d01b6064820152608401610813565b6109a7816115b7565b6012816127108110610f5c57600080fd5b60109182820401919006600202915054906101000a900461ffff1681565b5490565b6000818152600260205260409020546001600160a01b03166109a75760405162461bcd60e51b8152602060048201526018602482015277115490cdcc8c4e881a5b9d985b1a59081d1bdad95b88125160421b6044820152606401610813565b600081815260046020526040902080546001600160a01b0319166001600160a01b038416908117909155819061101282610bba565b6001600160a01b03167f8c5be1e5ebec7d5bd14f71427d1e84f3dd0314c0f7b2291e5b200ac8c7c3b92560405160405180910390a45050565b6006546001600160a01b03163314610b9d5760405162461bcd60e51b815260206004820181905260248201527f4f776e61626c653a2063616c6c6572206973206e6f7420746865206f776e65726044820152606401610813565b610283805460009161ffff90911690826110be836128cc565b91906101000a81548161ffff021916908361ffff16021790555061ffff166127106110e99190612870565b90506000811161112e5760405162461bcd60e51b815260206004820152601060248201526f139bc8119c9bd9de195b1cc81b19599d60821b6044820152606401610813565b60008183600081518110611144576111446128ed565b60200260200101516111569190612919565b90506000601282612710811061116e5761116e6128ed565b601091828204019190066002029054906101000a900461ffff1661ffff1660000361119957816111cc565b60128261271081106111ad576111ad6128ed565b601091828204019190066002029054906101000a900461ffff1661ffff165b905060126111db600185612870565b61271081106111ec576111ec6128ed565b601081049190910154600f9091166002026101000a900461ffff161561124d576012611219600185612870565b612710811061122a5761122a6128ed565b601091828204019190066002029054906101000a900461ffff1661ffff16611258565b611258600184612870565b601283612710811061126c5761126c6128ed565b601091828204019190066002026101000a81548161ffff021916908361ffff160217905550600060126001856112a29190612870565b61271081106112b3576112b36128ed565b601091828204019190066002026101000a81548161ffff021916908361ffff160217905550611309610284600087815260200190815260200160002060009054906101000a90046001600160a01b031682611a3e565b60405181907ffa129704cd590eed28accb1bac82f9ba5617ad81e6af279ae13b5ac63a5b322490600090a25050505050565b60008061134783610bba565b9050806001600160a01b0316846001600160a01b0316148061138e57506001600160a01b0380821660009081526005602090815260408083209388168352929052205460ff165b806113b25750836001600160a01b03166113a784610778565b6001600160a01b0316145b949350505050565b826001600160a01b03166113cd82610bba565b6001600160a01b0316146114315760405162461bcd60e51b815260206004820152602560248201527f4552433732313a207472616e736665722066726f6d20696e636f72726563742060448201526437bbb732b960d91b6064820152608401610813565b6001600160a01b0382166114935760405162461bcd60e51b8152602060048201526024808201527f4552433732313a207472616e7366657220746f20746865207a65726f206164646044820152637265737360e01b6064820152608401610813565b61149e600082610fdd565b6001600160a01b03831660009081526003602052604081208054600192906114c7908490612870565b90915550506001600160a01b03821660009081526003602052604081208054600192906114f590849061292d565b909155505060008181526002602052604080822080546001600160a01b0319166001600160a01b0386811691821790925591518493918716917fddf252ad1be2c89b69c2b068fc378daa952ba7f163c4a11628f55a4df523b3ef91a4505050565b61096782826000611a58565b61156a611f13565b6006805460ff60a01b191690557f5db9ee0a495bf2e6ff9c91a7834c1ba4fdd244a5e8aa4e537bd38aeae4b073aa335b6040516001600160a01b03909116815260200160405180910390a1565b600680546001600160a01b038381166001600160a01b0319831681179093556040519116919082907f8be0079c531659141344cd1fd0a4f28419497f9722a3daafe3b4186f6b6457e090600090a35050565b61161161174d565b6006805460ff60a01b1916600160a01b1790557f62e78cea01bee320cd4e420270b5ea74000d11b0c9f74754ebdbfc544b05a25861159a3390565b816001600160a01b0316836001600160a01b0316036116ad5760405162461bcd60e51b815260206004820152601960248201527f4552433732313a20617070726f766520746f2063616c6c6572000000000000006044820152606401610813565b6001600160a01b03838116600081815260056020908152604080832094871680845294825291829020805460ff191686151590811790915591519182527f17307eab39ab6107e8899845ad3d59bd9653f200f220920489ca2b5937696c31910160405180910390a3505050565b6117258484846113ba565b61173184848484611f63565b610d2b5760405162461bcd60e51b815260040161081390612945565b600654600160a01b900460ff1615610b9d5760405162461bcd60e51b815260206004820152601060248201526f14185d5cd8589b194e881c185d5cd95960821b6044820152606401610813565b60008183106117a95781610b86565b5090919050565b808260000160008282546117c4919061292d565b90915550505050565b6040516305d3b1d360e41b81527f0000000000000000000000000000000000000000000000000000000000000000600482015267ffffffffffffffff7f00000000000000000000000000000000000000000000000000000000000000001660248201526003604482015263ffffffff7f0000000000000000000000000000000000000000000000000000000000000000166064820152600160848201526000907f00000000000000000000000000000000000000000000000000000000000000006001600160a01b031690635d3b1d309060a4016020604051808303816000875af11580156118c0573d6000803e3d6000fd5b505050506040513d601f19601f820116820180604052508101906118e49190612997565b6000818152610284602052604080822080546001600160a01b0319166001600160a01b0389161790555191925082917ff76e87796e0d30d26631c878e060e8f2713f3ff6cbca914adc1535ca58fb26fc9190a250505050565b6060816000036119645750506040805180820190915260018152600360fc1b602082015290565b8160005b811561198e5780611978816129b0565b91506119879050600a836129c9565b9150611968565b60008167ffffffffffffffff8111156119a9576119a961245c565b6040519080825280601f01601f1916602001820160405280156119d3576020820181803683370190505b5090505b84156113b2576119e8600183612870565b91506119f5600a86612919565b611a0090603061292d565b60f81b818381518110611a1557611a156128ed565b60200101906001600160f81b031916908160001a905350611a37600a866129c9565b94506119d7565b610967828260405180602001604052806000815250612064565b600260075403611aaa5760405162461bcd60e51b815260206004820152601f60248201527f5265656e7472616e637947756172643a207265656e7472616e742063616c6c006044820152606401610813565b6002600755611ab761174d565b6040805160e08101825260085481526009546020820152600a54918101829052600b546001600160f81b038116606083015260ff600160f81b909104811615156080830152600c54808216151560a0840152610100900416151560c08201529060009015611b3257611b2d84836040015161179a565b611b34565b835b9050600080836080015115611b7c5760608401518451611b5d916001600160f81b031690612870565b9150611b6860105490565b600e54611b759190612870565b9050611b8c565b83519150611b89600e5490565b90505b611b9a83610d648385612870565b925060008311611bdf5760405162461bcd60e51b815260206004820152601060248201526f14d95b1b195c8e8814dbdb19081bdd5d60821b6044820152606401610813565b602084015115611d3b57336001600160a01b038816811415906000903214801590611c135750326001600160a01b038a1614155b9050611c43858a6040518060400160405280600b81526020016a109d5e595c881b1a5b5a5d60aa1b815250612097565b94508115611c7d57611c7a85336040518060400160405280600c81526020016b14d95b99195c881b1a5b5a5d60a21b815250612097565b94505b8015611cb557611cb285326040518060400160405280600c81526020016b13dc9a59da5b881b1a5b5a5d60a21b815250612097565b94505b6001600160a01b0389166000908152600f602052604081208054879290611cdd90849061292d565b90915550508115611d0d57336000908152600f602052604081208054879290611d0790849061292d565b90915550505b8015611d3857326000908152600f602052604081208054879290611d3290849061292d565b90915550505b50505b6000611d478487610b76565b905080341015611d9d57611d67611d62633b9aca00836129c9565b61193d565b604051602001611d7791906129dd565b60408051601f198184030181529082905262461bcd60e51b8252610813916004016123d2565b611da8600e856117b0565b8451600e541115611dbb57611dbb612887565b611dc7888560006117cd565b8015611e2c57600d54611de3906001600160a01b0316826120ec565b600d5460408051868152602081018490526001600160a01b03909216917f01f51b99bd1c3cca301836178e5dee13aadfe44eff06dc3ddcbf3c9d058454f8910160405180910390a25b80341115611f0457336000611e418334612870565b9050600080836001600160a01b03168360405160006040518083038185875af1925050503d8060008114611e91576040519150601f19603f3d011682016040523d82523d6000602084013e611e96565b606091505b5091509150818190611ebb5760405162461bcd60e51b815260040161081391906123d2565b50836001600160a01b03167fbb28353e4598c3b9199101a66e0989549b659a59a54d2c27fbb183f1932c8e6d84604051611ef791815260200190565b60405180910390a2505050505b50506001600755505050505050565b600654600160a01b900460ff16610b9d5760405162461bcd60e51b815260206004820152601460248201527314185d5cd8589b194e881b9bdd081c185d5cd95960621b6044820152606401610813565b60006001600160a01b0384163b1561205957604051630a85bd0160e11b81526001600160a01b0385169063150b7a0290611fa7903390899088908890600401612a22565b6020604051808303816000875af1925050508015611fe2575060408051601f3d908101601f19168201909252611fdf91810190612a5f565b60015b61203f573d808015612010576040519150601f19603f3d011682016040523d82523d6000602084013e612015565b606091505b5080516000036120375760405162461bcd60e51b815260040161081390612945565b805181602001fd5b6001600160e01b031916630a85bd0160e11b1490506113b2565b506001949350505050565b61206e8383612205565b61207b6000848484611f63565b6108b45760405162461bcd60e51b815260040161081390612945565b6001600160a01b0382166000908152600f602052604081205460095482916120be91612870565b9050806000036120d95782604051602001611d779190612a7c565b6120e3858261179a565b95945050505050565b8047101561213c5760405162461bcd60e51b815260206004820152601d60248201527f416464726573733a20696e73756666696369656e742062616c616e63650000006044820152606401610813565b6000826001600160a01b03168260405160006040518083038185875af1925050503d8060008114612189576040519150601f19603f3d011682016040523d82523d6000602084013e61218e565b606091505b50509050806108b45760405162461bcd60e51b815260206004820152603a60248201527f416464726573733a20756e61626c6520746f2073656e642076616c75652c207260448201527f6563697069656e74206d617920686176652072657665727465640000000000006064820152608401610813565b6001600160a01b03821661225b5760405162461bcd60e51b815260206004820181905260248201527f4552433732313a206d696e7420746f20746865207a65726f20616464726573736044820152606401610813565b6000818152600260205260409020546001600160a01b0316156122c05760405162461bcd60e51b815260206004820152601c60248201527f4552433732313a20746f6b656e20616c7265616479206d696e746564000000006044820152606401610813565b6001600160a01b03821660009081526003602052604081208054600192906122e990849061292d565b909155505060008181526002602052604080822080546001600160a01b0319166001600160a01b03861690811790915590518392907fddf252ad1be2c89b69c2b068fc378daa952ba7f163c4a11628f55a4df523b3ef908290a45050565b6001600160e01b0319811681146109a757600080fd5b60006020828403121561236f57600080fd5b8135610b8681612347565b60005b8381101561239557818101518382015260200161237d565b83811115610d2b5750506000910152565b600081518084526123be81602086016020860161237a565b601f01601f19169290920160200192915050565b602081526000610b8660208301846123a6565b6000602082840312156123f757600080fd5b5035919050565b6001600160a01b03811681146109a757600080fd5b6000806040838503121561242657600080fd5b8235612431816123fe565b946020939093013593505050565b60006020828403121561245157600080fd5b8135610b86816123fe565b634e487b7160e01b600052604160045260246000fd5b60405160e0810167ffffffffffffffff811182821017156124955761249561245c565b60405290565b604051601f8201601f1916810167ffffffffffffffff811182821017156124c4576124c461245c565b604052919050565b600080604083850312156124df57600080fd5b8235915060208084013567ffffffffffffffff808211156124ff57600080fd5b818601915086601f83011261251357600080fd5b8135818111156125255761252561245c565b8060051b915061253684830161249b565b818152918301840191848101908984111561255057600080fd5b938501935b8385101561256e57843582529385019390850190612555565b8096505050505050509250929050565b60008060006060848603121561259357600080fd5b833561259e816123fe565b925060208401356125ae816123fe565b929592945050506040919091013590565b803580151581146125cf57600080fd5b919050565b600060e082840312156125e657600080fd5b6125ee612472565b82358152602080840135908201526040808401359082015260608301356001600160f81b038116811461262057600080fd5b6060820152612631608084016125bf565b608082015261264260a084016125bf565b60a082015261265360c084016125bf565b60c08201529392505050565b6000806040838503121561267257600080fd5b50508035926020909101359150565b6000806040838503121561269457600080fd5b823561269f816123fe565b91506126ad602084016125bf565b90509250929050565b600080600080608085870312156126cc57600080fd5b84356126d7816123fe565b93506020858101356126e8816123fe565b935060408601359250606086013567ffffffffffffffff8082111561270c57600080fd5b818801915088601f83011261272057600080fd5b8135818111156127325761273261245c565b612744601f8201601f1916850161249b565b9150808252898482850101111561275a57600080fd5b808484018584013760008482840101525080935050505092959194509250565b6000806040838503121561278d57600080fd5b8235612798816123fe565b915060208301356127a8816123fe565b809150509250929050565b600181811c908216806127c757607f821691505b6020821081036127e757634e487b7160e01b600052602260045260246000fd5b50919050565b6020808252602e908201527f4552433732313a2063616c6c6572206973206e6f7420746f6b656e206f776e6560408201526d1c881b9bdc88185c1c1c9bdd995960921b606082015260800190565b634e487b7160e01b600052601160045260246000fd5b600081600019048311821515161561286b5761286b61283b565b500290565b6000828210156128825761288261283b565b500390565b634e487b7160e01b600052600160045260246000fd5b600083516128af81846020880161237a565b8351908301906128c381836020880161237a565b01949350505050565b600061ffff8083168181036128e3576128e361283b565b6001019392505050565b634e487b7160e01b600052603260045260246000fd5b634e487b7160e01b600052601260045260246000fd5b60008261292857612928612903565b500690565b600082198211156129405761294061283b565b500190565b60208082526032908201527f4552433732313a207472616e7366657220746f206e6f6e20455243373231526560408201527131b2b4bb32b91034b6b83632b6b2b73a32b960711b606082015260800190565b6000602082840312156129a957600080fd5b5051919050565b6000600182016129c2576129c261283b565b5060010190565b6000826129d8576129d8612903565b500490565b6d029b2b63632b91d1021b7b9ba39960951b815260008251612a0681600e85016020870161237a565b64204757656960d81b600e939091019283015250601301919050565b6001600160a01b0385811682528416602082015260408101839052608060608201819052600090612a55908301846123a6565b9695505050505050565b600060208284031215612a7157600080fd5b8151610b8681612347565b67029b2b63632b91d160c51b815260008251612a9f81600885016020870161237a565b919091016008019291505056fea264697066735822122001b35c2f74b5314428dd541838fc090ea10af71efd3a496b6fd8c1854b24c55f64736f6c634300080f0033",
  "bytecodeSha1": "31c4158d9e544621218bd07fc3c44fab57e072d9",
  "compiler": {
    "evm_version": "istanbul",
    "optimizer": {
      "enabled": true,
      "runs": 200
    },
    "version": "0.8.15+commit.e14f2714"
  },
  "contractName": "FrogxVerse",
  "language": "Solidity",
  "natspec": {
    "kind": "dev",
    "methods": {
      "approve(address,uint256)": {
        "details": "See {IERC721-approve}."
      },
      "balanceOf(address)": {
        "details": "See {IERC721-balanceOf}."
      },
      "beneficiary()": {
        "notice": "Recipient of revenues."
      },
      "cost(uint256,uint256)": {
        "details": "The second parameter, metadata propagated from the call to _purchase(), is ignored.",
        "notice": "Override of Seller.cost() with fixed price."
      },
      "getApproved(uint256)": {
        "details": "See {IERC721-getApproved}."
      },
      "isApprovedForAll(address,address)": {
        "details": "See {IERC721-isApprovedForAll}."
      },
      "name()": {
        "details": "See {IERC721Metadata-name}."
      },
      "owner()": {
        "details": "Returns the address of the current owner."
      },
      "ownerOf(uint256)": {
        "details": "See {IERC721-ownerOf}."
      },
      "pause()": {
        "notice": "Pauses the contract."
      },
      "paused()": {
        "details": "Returns true if the contract is paused, and false otherwise."
      },
      "price()": {
        "notice": "The fixed per-item price."
      },
      "purchaseFreeOfCharge(address,uint256)": {
        "notice": "Allows the contract owner to purchase without payment, within the quota enforced by the SellerConfig."
      },
      "renounceOwnership()": {
        "details": "Leaves the contract without owner. It will not be possible to call `onlyOwner` functions anymore. Can only be called by the current owner. NOTE: Renouncing ownership will leave the contract without an owner, thereby removing any functionality that is only available to the owner."
      },
      "safeTransferFrom(address,address,uint256)": {
        "details": "See {IERC721-safeTransferFrom}."
      },
      "safeTransferFrom(address,address,uint256,bytes)": {
        "details": "See {IERC721-safeTransferFrom}."
      },
      "sellerConfig()": {
        "notice": "Configuration of purchase limits."
      },
      "setApprovalForAll(address,bool)": {
        "details": "See {IERC721-setApprovalForAll}."
      },
      "setBeneficiary(address)": {
        "notice": "Sets the recipient of revenues."
      },
      "setPrice(uint256)": {
        "notice": "Sets the per-item price."
      },
      "setSellerConfig((uint256,uint256,uint256,uint248,bool,bool,bool))": {
        "notice": "Sets the seller config."
      },
      "supportsInterface(bytes4)": {
        "details": "See {IERC165-supportsInterface}."
      },
      "symbol()": {
        "details": "See {IERC721Metadata-symbol}."
      },
      "tokenURI(uint256)": {
        "details": "See {IERC721Metadata-tokenURI}."
      },
      "totalSold()": {
        "notice": "Returns the total number of items sold by this contract."
      },
      "transferFrom(address,address,uint256)": {
        "details": "See {IERC721-transferFrom}."
      },
      "transferOwnership(address)": {
        "details": "Transfers ownership of the contract to a new account (`newOwner`). Can only be called by the current owner."
      },
      "unpause()": {
        "notice": "Unpauses the contract."
      }
    },
    "version": 1
  },
  "opcodes": "PUSH1 0x80 PUSH1 0x40 MSTORE PUSH1 0x4 CALLDATASIZE LT PUSH2 0x1E3 JUMPI PUSH1 0x0 CALLDATALOAD PUSH1 0xE0 SHR DUP1 PUSH4 0x70A08231 GT PUSH2 0x102 JUMPI DUP1 PUSH4 0xA22CB465 GT PUSH2 0x95 JUMPI DUP1 PUSH4 0xC87B56DD GT PUSH2 0x64 JUMPI DUP1 PUSH4 0xC87B56DD EQ PUSH2 0x5D8 JUMPI DUP1 PUSH4 0xE985E9C5 EQ PUSH2 0x5F8 JUMPI DUP1 PUSH4 0xF2FDE38B EQ PUSH2 0x641 JUMPI DUP1 PUSH4 0xFAC333AC EQ PUSH2 0x661 JUMPI PUSH1 0x0 DUP1 REVERT JUMPDEST DUP1 PUSH4 0xA22CB465 EQ PUSH2 0x4ED JUMPI DUP1 PUSH4 0xB88D4FDE EQ PUSH2 0x50D JUMPI DUP1 PUSH4 0xBB69B7EF EQ PUSH2 0x52D JUMPI DUP1 PUSH4 0xBF62E21D EQ PUSH2 0x5B8 JUMPI PUSH1 0x0 DUP1 REVERT JUMPDEST DUP1 PUSH4 0x9106D7BA GT PUSH2 0xD1 JUMPI DUP1 PUSH4 0x9106D7BA EQ PUSH2 0x48D JUMPI DUP1 PUSH4 0x91B7F5ED EQ PUSH2 0x4A2 JUMPI DUP1 PUSH4 0x95D89B41 EQ PUSH2 0x4C2 JUMPI DUP1 PUSH4 0xA035B1FE EQ PUSH2 0x4D7 JUMPI PUSH1 0x0 DUP1 REVERT JUMPDEST DUP1 PUSH4 0x70A08231 EQ PUSH2 0x425 JUMPI DUP1 PUSH4 0x715018A6 EQ PUSH2 0x445 JUMPI DUP1 PUSH4 0x8456CB59 EQ PUSH2 0x45A JUMPI DUP1 PUSH4 0x8DA5CB5B EQ PUSH2 0x46F JUMPI PUSH1 0x0 DUP1 REVERT JUMPDEST DUP1 PUSH4 0x2F274BD4 GT PUSH2 0x17A JUMPI DUP1 PUSH4 0x42842E0E GT PUSH2 0x149 JUMPI DUP1 PUSH4 0x42842E0E EQ PUSH2 0x38F JUMPI DUP1 PUSH4 0x5C975ABB EQ PUSH2 0x3AF JUMPI DUP1 PUSH4 0x5E2FCCA5 EQ PUSH2 0x3CE JUMPI DUP1 PUSH4 0x6352211E EQ PUSH2 0x405 JUMPI PUSH1 0x0 DUP1 REVERT JUMPDEST DUP1 PUSH4 0x2F274BD4 EQ PUSH2 0x30C JUMPI DUP1 PUSH4 0x38AF3EED EQ PUSH2 0x32C JUMPI DUP1 PUSH4 0x3EC02E14 EQ PUSH2 0x34C JUMPI DUP1 PUSH4 0x3F4BA83A EQ PUSH2 0x37A JUMPI PUSH1 0x0 DUP1 REVERT JUMPDEST DUP1 PUSH4 0x1C31F710 GT PUSH2 0x1B6 JUMPI DUP1 PUSH4 0x1C31F710 EQ PUSH2 0x299 JUMPI DUP1 PUSH4 0x1FE543E3 EQ PUSH2 0x2B9 JUMPI DUP1 PUSH4 0x23B872DD EQ PUSH2 0x2D9 JUMPI DUP1 PUSH4 0x2961CD03 EQ PUSH2 0x2F9 JUMPI PUSH1 0x0 DUP1 REVERT JUMPDEST DUP1 PUSH4 0x1FFC9A7 EQ PUSH2 0x1E8 JUMPI DUP1 PUSH4 0x6FDDE03 EQ PUSH2 0x21D JUMPI DUP1 PUSH4 0x81812FC EQ PUSH2 0x23F JUMPI DUP1 PUSH4 0x95EA7B3 EQ PUSH2 0x277 JUMPI JUMPDEST PUSH1 0x0 DUP1 REVERT JUMPDEST CALLVALUE DUP1 ISZERO PUSH2 0x1F4 JUMPI PUSH1 0x0 DUP1 REVERT JUMPDEST POP PUSH2 0x208 PUSH2 0x203 CALLDATASIZE PUSH1 0x4 PUSH2 0x235D JUMP JUMPDEST PUSH2 0x694 JUMP JUMPDEST PUSH1 0x40 MLOAD SWAP1 ISZERO ISZERO DUP2 MSTORE PUSH1 0x20 ADD JUMPDEST PUSH1 0x40 MLOAD DUP1 SWAP2 SUB SWAP1 RETURN JUMPDEST CALLVALUE DUP1 ISZERO PUSH2 0x229 JUMPI PUSH1 0x0 DUP1 REVERT JUMPDEST POP PUSH2 0x232 PUSH2 0x6E6 JUMP JUMPDEST PUSH1 0x40 MLOAD PUSH2 0x214 SWAP2 SWAP1 PUSH2 0x23D2 JUMP JUMPDEST CALLVALUE DUP1 ISZERO PUSH2 0x24B JUMPI PUSH1 0x0 DUP1 REVERT JUMPDEST POP PUSH2 0x25F PUSH2 0x25A CALLDATASIZE PUSH1 0x4 PUSH2 0x23E5 JUMP JUMPDEST PUSH2 0x778 JUMP JUMPDEST PUSH1 0x40 MLOAD PUSH1 0x1 PUSH1 0x1 PUSH1 0xA0 SHL SUB SWAP1 SWAP2 AND DUP2 MSTORE PUSH1 0x20 ADD PUSH2 0x214 JUMP JUMPDEST CALLVALUE DUP1 ISZERO PUSH2 0x283 JUMPI PUSH1 0x0 DUP1 REVERT JUMPDEST POP PUSH2 0x297 PUSH2 0x292 CALLDATASIZE PUSH1 0x4 PUSH2 0x2413 JUMP JUMPDEST PUSH2 0x79F JUMP JUMPDEST STOP JUMPDEST CALLVALUE DUP1 ISZERO PUSH2 0x2A5 JUMPI PUSH1 0x0 DUP1 REVERT JUMPDEST POP PUSH2 0x297 PUSH2 0x2B4 CALLDATASIZE PUSH1 0x4 PUSH2 0x243F JUMP JUMPDEST PUSH2 0x8B9 JUMP JUMPDEST CALLVALUE DUP1 ISZERO PUSH2 0x2C5 JUMPI PUSH1 0x0 DUP1 REVERT JUMPDEST POP PUSH2 0x297 PUSH2 0x2D4 CALLDATASIZE PUSH1 0x4 PUSH2 0x24CC JUMP JUMPDEST PUSH2 0x8E3 JUMP JUMPDEST CALLVALUE DUP1 ISZERO PUSH2 0x2E5 JUMPI PUSH1 0x0 DUP1 REVERT JUMPDEST POP PUSH2 0x297 PUSH2 0x2F4 CALLDATASIZE PUSH1 0x4 PUSH2 0x257E JUMP JUMPDEST PUSH2 0x96B JUMP JUMPDEST PUSH2 0x297 PUSH2 0x307 CALLDATASIZE PUSH1 0x4 PUSH2 0x243F JUMP JUMPDEST PUSH2 0x99C JUMP JUMPDEST CALLVALUE DUP1 ISZERO PUSH2 0x318 JUMPI PUSH1 0x0 DUP1 REVERT JUMPDEST POP PUSH2 0x297 PUSH2 0x327 CALLDATASIZE PUSH1 0x4 PUSH2 0x25D4 JUMP JUMPDEST PUSH2 0x9AA JUMP JUMPDEST CALLVALUE DUP1 ISZERO PUSH2 0x338 JUMPI PUSH1 0x0 DUP1 REVERT JUMPDEST POP PUSH1 0xD SLOAD PUSH2 0x25F SWAP1 PUSH1 0x1 PUSH1 0x1 PUSH1 0xA0 SHL SUB AND DUP2 JUMP JUMPDEST CALLVALUE DUP1 ISZERO PUSH2 0x358 JUMPI PUSH1 0x0 DUP1 REVERT JUMPDEST POP PUSH2 0x36C PUSH2 0x367 CALLDATASIZE PUSH1 0x4 PUSH2 0x265F JUMP JUMPDEST PUSH2 0xB76 JUMP JUMPDEST PUSH1 0x40 MLOAD SWAP1 DUP2 MSTORE PUSH1 0x20 ADD PUSH2 0x214 JUMP JUMPDEST CALLVALUE DUP1 ISZERO PUSH2 0x386 JUMPI PUSH1 0x0 DUP1 REVERT JUMPDEST POP PUSH2 0x297 PUSH2 0xB8D JUMP JUMPDEST CALLVALUE DUP1 ISZERO PUSH2 0x39B JUMPI PUSH1 0x0 DUP1 REVERT JUMPDEST POP PUSH2 0x297 PUSH2 0x3AA CALLDATASIZE PUSH1 0x4 PUSH2 0x257E JUMP JUMPDEST PUSH2 0xB9F JUMP JUMPDEST CALLVALUE DUP1 ISZERO PUSH2 0x3BB JUMPI PUSH1 0x0 DUP1 REVERT JUMPDEST POP PUSH1 0x6 SLOAD PUSH1 0x1 PUSH1 0xA0 SHL SWAP1 DIV PUSH1 0xFF AND PUSH2 0x208 JUMP JUMPDEST CALLVALUE DUP1 ISZERO PUSH2 0x3DA JUMPI PUSH1 0x0 DUP1 REVERT JUMPDEST POP PUSH2 0x25F PUSH2 0x3E9 CALLDATASIZE PUSH1 0x4 PUSH2 0x23E5 JUMP JUMPDEST PUSH2 0x284 PUSH1 0x20 MSTORE PUSH1 0x0 SWAP1 DUP2 MSTORE PUSH1 0x40 SWAP1 KECCAK256 SLOAD PUSH1 0x1 PUSH1 0x1 PUSH1 0xA0 SHL SUB AND DUP2 JUMP JUMPDEST CALLVALUE DUP1 ISZERO PUSH2 0x411 JUMPI PUSH1 0x0 DUP1 REVERT JUMPDEST POP PUSH2 0x25F PUSH2 0x420 CALLDATASIZE PUSH1 0x4 PUSH2 0x23E5 JUMP JUMPDEST PUSH2 0xBBA JUMP JUMPDEST CALLVALUE DUP1 ISZERO PUSH2 0x431 JUMPI PUSH1 0x0 DUP1 REVERT JUMPDEST POP PUSH2 0x36C PUSH2 0x440 CALLDATASIZE PUSH1 0x4 PUSH2 0x243F JUMP JUMPDEST PUSH2 0xC1A JUMP JUMPDEST CALLVALUE DUP1 ISZERO PUSH2 0x451 JUMPI PUSH1 0x0 DUP1 REVERT JUMPDEST POP PUSH2 0x297 PUSH2 0xCA0 JUMP JUMPDEST CALLVALUE DUP1 ISZERO PUSH2 0x466 JUMPI PUSH1 0x0 DUP1 REVERT JUMPDEST POP PUSH2 0x297 PUSH2 0xCB2 JUMP JUMPDEST CALLVALUE DUP1 ISZERO PUSH2 0x47B JUMPI PUSH1 0x0 DUP1 REVERT JUMPDEST POP PUSH1 0x6 SLOAD PUSH1 0x1 PUSH1 0x1 PUSH1 0xA0 SHL SUB AND PUSH2 0x25F JUMP JUMPDEST CALLVALUE DUP1 ISZERO PUSH2 0x499 JUMPI PUSH1 0x0 DUP1 REVERT JUMPDEST POP PUSH2 0x36C PUSH2 0xCC2 JUMP JUMPDEST CALLVALUE DUP1 ISZERO PUSH2 0x4AE JUMPI PUSH1 0x0 DUP1 REVERT JUMPDEST POP PUSH2 0x297 PUSH2 0x4BD CALLDATASIZE PUSH1 0x4 PUSH2 0x23E5 JUMP JUMPDEST PUSH2 0xCD2 JUMP JUMPDEST CALLVALUE DUP1 ISZERO PUSH2 0x4CE JUMPI PUSH1 0x0 DUP1 REVERT JUMPDEST POP PUSH2 0x232 PUSH2 0xCDF JUMP JUMPDEST CALLVALUE DUP1 ISZERO PUSH2 0x4E3 JUMPI PUSH1 0x0 DUP1 REVERT JUMPDEST POP PUSH2 0x36C PUSH1 0x11 SLOAD DUP2 JUMP JUMPDEST CALLVALUE DUP1 ISZERO PUSH2 0x4F9 JUMPI PUSH1 0x0 DUP1 REVERT JUMPDEST POP PUSH2 0x297 PUSH2 0x508 CALLDATASIZE PUSH1 0x4 PUSH2 0x2681 JUMP JUMPDEST PUSH2 0xCEE JUMP JUMPDEST CALLVALUE DUP1 ISZERO PUSH2 0x519 JUMPI PUSH1 0x0 DUP1 REVERT JUMPDEST POP PUSH2 0x297 PUSH2 0x528 CALLDATASIZE PUSH1 0x4 PUSH2 0x26B6 JUMP JUMPDEST PUSH2 0xCF9 JUMP JUMPDEST CALLVALUE DUP1 ISZERO PUSH2 0x539 JUMPI PUSH1 0x0 DUP1 REVERT JUMPDEST POP PUSH1 0x8 SLOAD PUSH1 0x9 SLOAD PUSH1 0xA SLOAD PUSH1 0xB SLOAD PUSH1 0xC SLOAD PUSH2 0x575 SWAP5 SWAP4 SWAP3 SWAP2 PUSH1 0x1 PUSH1 0x1 PUSH1 0xF8 SHL SUB DUP2 AND SWAP2 PUSH1 0xFF PUSH1 0x1 PUSH1 0xF8 SHL SWAP1 SWAP3 DIV DUP3 AND SWAP2 DUP2 DUP2 AND SWAP2 PUSH2 0x100 SWAP1 DIV AND DUP8 JUMP JUMPDEST PUSH1 0x40 DUP1 MLOAD SWAP8 DUP9 MSTORE PUSH1 0x20 DUP9 ADD SWAP7 SWAP1 SWAP7 MSTORE SWAP5 DUP7 ADD SWAP4 SWAP1 SWAP4 MSTORE PUSH1 0x1 PUSH1 0x1 PUSH1 0xF8 SHL SUB SWAP1 SWAP2 AND PUSH1 0x60 DUP6 ADD MSTORE ISZERO ISZERO PUSH1 0x80 DUP5 ADD MSTORE ISZERO ISZERO PUSH1 0xA0 DUP4 ADD MSTORE ISZERO ISZERO PUSH1 0xC0 DUP3 ADD MSTORE PUSH1 0xE0 ADD PUSH2 0x214 JUMP JUMPDEST CALLVALUE DUP1 ISZERO PUSH2 0x5C4 JUMPI PUSH1 0x0 DUP1 REVERT JUMPDEST POP PUSH2 0x297 PUSH2 0x5D3 CALLDATASIZE PUSH1 0x4 PUSH2 0x2413 JUMP JUMPDEST PUSH2 0xD31 JUMP JUMPDEST CALLVALUE DUP1 ISZERO PUSH2 0x5E4 JUMPI PUSH1 0x0 DUP1 REVERT JUMPDEST POP PUSH2 0x232 PUSH2 0x5F3 CALLDATASIZE PUSH1 0x4 PUSH2 0x23E5 JUMP JUMPDEST PUSH2 0xE62 JUMP JUMPDEST CALLVALUE DUP1 ISZERO PUSH2 0x604 JUMPI PUSH1 0x0 DUP1 REVERT JUMPDEST POP PUSH2 0x208 PUSH2 0x613 CALLDATASIZE PUSH1 0x4 PUSH2 0x277A JUMP JUMPDEST PUSH1 0x1 PUSH1 0x1 PUSH1 0xA0 SHL SUB SWAP2 DUP3 AND PUSH1 0x0 SWAP1 DUP2 MSTORE PUSH1 0x5 PUSH1 0x20 SWAP1 DUP2 MSTORE PUSH1 0x40 DUP1 DUP4 KECCAK256 SWAP4 SWAP1 SWAP5 AND DUP3 MSTORE SWAP2 SWAP1 SWAP2 MSTORE KECCAK256 SLOAD PUSH1 0xFF AND SWAP1 JUMP JUMPDEST CALLVALUE DUP1 ISZERO PUSH2 0x64D JUMPI PUSH1 0x0 DUP1 REVERT JUMPDEST POP PUSH2 0x297 PUSH2 0x65C CALLDATASIZE PUSH1 0x4 PUSH2 0x243F JUMP JUMPDEST PUSH2 0xED5 JUMP JUMPDEST CALLVALUE DUP1 ISZERO PUSH2 0x66D JUMPI PUSH1 0x0 DUP1 REVERT JUMPDEST POP PUSH2 0x681 PUSH2 0x67C CALLDATASIZE PUSH1 0x4 PUSH2 0x23E5 JUMP JUMPDEST PUSH2 0xF4B JUMP JUMPDEST PUSH1 0x40 MLOAD PUSH2 0xFFFF SWAP1 SWAP2 AND DUP2 MSTORE PUSH1 0x20 ADD PUSH2 0x214 JUMP JUMPDEST PUSH1 0x0 PUSH1 0x1 PUSH1 0x1 PUSH1 0xE0 SHL SUB NOT DUP3 AND PUSH4 0x80AC58CD PUSH1 0xE0 SHL EQ DUP1 PUSH2 0x6C5 JUMPI POP PUSH1 0x1 PUSH1 0x1 PUSH1 0xE0 SHL SUB NOT DUP3 AND PUSH4 0x5B5E139F PUSH1 0xE0 SHL EQ JUMPDEST DUP1 PUSH2 0x6E0 JUMPI POP PUSH4 0x1FFC9A7 PUSH1 0xE0 SHL PUSH1 0x1 PUSH1 0x1 PUSH1 0xE0 SHL SUB NOT DUP4 AND EQ JUMPDEST SWAP3 SWAP2 POP POP JUMP JUMPDEST PUSH1 0x60 PUSH1 0x0 DUP1 SLOAD PUSH2 0x6F5 SWAP1 PUSH2 0x27B3 JUMP JUMPDEST DUP1 PUSH1 0x1F ADD PUSH1 0x20 DUP1 SWAP2 DIV MUL PUSH1 0x20 ADD PUSH1 0x40 MLOAD SWAP1 DUP2 ADD PUSH1 0x40 MSTORE DUP1 SWAP3 SWAP2 SWAP1 DUP2 DUP2 MSTORE PUSH1 0x20 ADD DUP3 DUP1 SLOAD PUSH2 0x721 SWAP1 PUSH2 0x27B3 JUMP JUMPDEST DUP1 ISZERO PUSH2 0x76E JUMPI DUP1 PUSH1 0x1F LT PUSH2 0x743 JUMPI PUSH2 0x100 DUP1 DUP4 SLOAD DIV MUL DUP4 MSTORE SWAP2 PUSH1 0x20 ADD SWAP2 PUSH2 0x76E JUMP JUMPDEST DUP3 ADD SWAP2 SWAP1 PUSH1 0x0 MSTORE PUSH1 0x20 PUSH1 0x0 KECCAK256 SWAP1 JUMPDEST DUP2 SLOAD DUP2 MSTORE SWAP1 PUSH1 0x1 ADD SWAP1 PUSH1 0x20 ADD DUP1 DUP4 GT PUSH2 0x751 JUMPI DUP3 SWAP1 SUB PUSH1 0x1F AND DUP3 ADD SWAP2 JUMPDEST POP POP POP POP POP SWAP1 POP SWAP1 JUMP JUMPDEST PUSH1 0x0 PUSH2 0x783 DUP3 PUSH2 0xF7E JUMP JUMPDEST POP PUSH1 0x0 SWAP1 DUP2 MSTORE PUSH1 0x4 PUSH1 0x20 MSTORE PUSH1 0x40 SWAP1 KECCAK256 SLOAD PUSH1 0x1 PUSH1 0x1 PUSH1 0xA0 SHL SUB AND SWAP1 JUMP JUMPDEST PUSH1 0x0 PUSH2 0x7AA DUP3 PUSH2 0xBBA JUMP JUMPDEST SWAP1 POP DUP1 PUSH1 0x1 PUSH1 0x1 PUSH1 0xA0 SHL SUB AND DUP4 PUSH1 0x1 PUSH1 0x1 PUSH1 0xA0 SHL SUB AND SUB PUSH2 0x81C JUMPI PUSH1 0x40 MLOAD PUSH3 0x461BCD PUSH1 0xE5 SHL DUP2 MSTORE PUSH1 0x20 PUSH1 0x4 DUP3 ADD MSTORE PUSH1 0x21 PUSH1 0x24 DUP3 ADD MSTORE PUSH32 0x4552433732313A20617070726F76616C20746F2063757272656E74206F776E65 PUSH1 0x44 DUP3 ADD MSTORE PUSH1 0x39 PUSH1 0xF9 SHL PUSH1 0x64 DUP3 ADD MSTORE PUSH1 0x84 ADD JUMPDEST PUSH1 0x40 MLOAD DUP1 SWAP2 SUB SWAP1 REVERT JUMPDEST CALLER PUSH1 0x1 PUSH1 0x1 PUSH1 0xA0 SHL SUB DUP3 AND EQ DUP1 PUSH2 0x838 JUMPI POP PUSH2 0x838 DUP2 CALLER PUSH2 0x613 JUMP JUMPDEST PUSH2 0x8AA JUMPI PUSH1 0x40 MLOAD PUSH3 0x461BCD PUSH1 0xE5 SHL DUP2 MSTORE PUSH1 0x20 PUSH1 0x4 DUP3 ADD MSTORE PUSH1 0x3E PUSH1 0x24 DUP3 ADD MSTORE PUSH32 0x4552433732313A20617070726F76652063616C6C6572206973206E6F7420746F PUSH1 0x44 DUP3 ADD MSTORE PUSH32 0x6B656E206F776E6572206E6F7220617070726F76656420666F7220616C6C0000 PUSH1 0x64 DUP3 ADD MSTORE PUSH1 0x84 ADD PUSH2 0x813 JUMP JUMPDEST PUSH2 0x8B4 DUP4 DUP4 PUSH2 0xFDD JUMP JUMPDEST POP POP POP JUMP JUMPDEST PUSH2 0x8C1 PUSH2 0x104B JUMP JUMPDEST PUSH1 0xD DUP1 SLOAD PUSH1 0x1 PUSH1 0x1 PUSH1 0xA0 SHL SUB NOT AND PUSH1 0x1 PUSH1 0x1 PUSH1 0xA0 SHL SUB SWAP3 SWAP1 SWAP3 AND SWAP2 SWAP1 SWAP2 OR SWAP1 SSTORE JUMP JUMPDEST CALLER PUSH1 0x1 PUSH1 0x1 PUSH1 0xA0 SHL SUB PUSH32 0x0 AND EQ PUSH2 0x95D JUMPI PUSH1 0x40 MLOAD PUSH4 0x73E64FD PUSH1 0xE2 SHL DUP2 MSTORE CALLER PUSH1 0x4 DUP3 ADD MSTORE PUSH1 0x1 PUSH1 0x1 PUSH1 0xA0 SHL SUB PUSH32 0x0 AND PUSH1 0x24 DUP3 ADD MSTORE PUSH1 0x44 ADD PUSH2 0x813 JUMP JUMPDEST PUSH2 0x967 DUP3 DUP3 PUSH2 0x10A5 JUMP JUMPDEST POP POP JUMP JUMPDEST PUSH2 0x975 CALLER DUP3 PUSH2 0x133B JUMP JUMPDEST PUSH2 0x991 JUMPI PUSH1 0x40 MLOAD PUSH3 0x461BCD PUSH1 0xE5 SHL DUP2 MSTORE PUSH1 0x4 ADD PUSH2 0x813 SWAP1 PUSH2 0x27ED JUMP JUMPDEST PUSH2 0x8B4 DUP4 DUP4 DUP4 PUSH2 0x13BA JUMP JUMPDEST PUSH2 0x9A7 DUP2 PUSH1 0x1 PUSH2 0x1556 JUMP JUMPDEST POP JUMP JUMPDEST PUSH2 0x9B2 PUSH2 0x104B JUMP JUMPDEST DUP1 PUSH1 0x60 ADD MLOAD PUSH1 0x1 PUSH1 0x1 PUSH1 0xF8 SHL SUB AND DUP2 PUSH1 0x0 ADD MLOAD LT ISZERO PUSH2 0xA13 JUMPI PUSH1 0x40 MLOAD PUSH3 0x461BCD PUSH1 0xE5 SHL DUP2 MSTORE PUSH1 0x20 PUSH1 0x4 DUP3 ADD MSTORE PUSH1 0x1C PUSH1 0x24 DUP3 ADD MSTORE PUSH32 0x53656C6C65723A2065786365737369766520667265652071756F746100000000 PUSH1 0x44 DUP3 ADD MSTORE PUSH1 0x64 ADD PUSH2 0x813 JUMP JUMPDEST PUSH1 0xE SLOAD DUP2 MLOAD LT ISZERO PUSH2 0xA66 JUMPI PUSH1 0x40 MLOAD PUSH3 0x461BCD PUSH1 0xE5 SHL DUP2 MSTORE PUSH1 0x20 PUSH1 0x4 DUP3 ADD DUP2 SWAP1 MSTORE PUSH1 0x24 DUP3 ADD MSTORE PUSH32 0x53656C6C65723A20696E76656E746F7279203C20616C726561647920736F6C64 PUSH1 0x44 DUP3 ADD MSTORE PUSH1 0x64 ADD PUSH2 0x813 JUMP JUMPDEST PUSH1 0x10 SLOAD DUP2 PUSH1 0x60 ADD MLOAD PUSH1 0x1 PUSH1 0x1 PUSH1 0xF8 SHL SUB AND LT ISZERO PUSH2 0xACF JUMPI PUSH1 0x40 MLOAD PUSH3 0x461BCD PUSH1 0xE5 SHL DUP2 MSTORE PUSH1 0x20 PUSH1 0x4 DUP3 ADD MSTORE PUSH1 0x21 PUSH1 0x24 DUP3 ADD MSTORE PUSH32 0x53656C6C65723A20667265652071756F7461203C20616C726561647920757365 PUSH1 0x44 DUP3 ADD MSTORE PUSH1 0x19 PUSH1 0xFA SHL PUSH1 0x64 DUP3 ADD MSTORE PUSH1 0x84 ADD PUSH2 0x813 JUMP JUMPDEST PUSH1 0xC SLOAD PUSH2 0x100 SWAP1 DIV PUSH1 0xFF AND ISZERO PUSH2 0xAEC JUMPI PUSH1 0x1 PUSH1 0xC0 DUP3 ADD MSTORE PUSH1 0x8 SLOAD DUP2 MSTORE JUMPDEST PUSH1 0xC SLOAD PUSH1 0xFF AND ISZERO PUSH2 0xB10 JUMPI PUSH1 0x1 PUSH1 0xA0 DUP3 ADD MSTORE PUSH1 0xB SLOAD PUSH1 0x1 PUSH1 0x1 PUSH1 0xF8 SHL SUB AND PUSH1 0x60 DUP3 ADD MSTORE JUMPDEST DUP1 MLOAD PUSH1 0x8 SSTORE PUSH1 0x20 DUP2 ADD MLOAD PUSH1 0x9 SSTORE PUSH1 0x40 DUP2 ADD MLOAD PUSH1 0xA SSTORE PUSH1 0x60 DUP2 ADD MLOAD PUSH1 0x80 DUP3 ADD MLOAD ISZERO ISZERO PUSH1 0x1 PUSH1 0xF8 SHL MUL PUSH1 0x1 PUSH1 0x1 PUSH1 0xF8 SHL SUB SWAP1 SWAP2 AND OR PUSH1 0xB SSTORE PUSH1 0xA0 DUP2 ADD MLOAD PUSH1 0xC DUP1 SLOAD PUSH1 0xC0 SWAP1 SWAP4 ADD MLOAD ISZERO ISZERO PUSH2 0x100 MUL PUSH2 0xFF00 NOT SWAP3 ISZERO ISZERO SWAP3 SWAP1 SWAP3 AND PUSH2 0xFFFF NOT SWAP1 SWAP4 AND SWAP3 SWAP1 SWAP3 OR OR SWAP1 SSTORE JUMP JUMPDEST PUSH1 0x0 PUSH1 0x11 SLOAD DUP4 PUSH2 0xB86 SWAP2 SWAP1 PUSH2 0x2851 JUMP JUMPDEST SWAP4 SWAP3 POP POP POP JUMP JUMPDEST PUSH2 0xB95 PUSH2 0x104B JUMP JUMPDEST PUSH2 0xB9D PUSH2 0x1562 JUMP JUMPDEST JUMP JUMPDEST PUSH2 0x8B4 DUP4 DUP4 DUP4 PUSH1 0x40 MLOAD DUP1 PUSH1 0x20 ADD PUSH1 0x40 MSTORE DUP1 PUSH1 0x0 DUP2 MSTORE POP PUSH2 0xCF9 JUMP JUMPDEST PUSH1 0x0 DUP2 DUP2 MSTORE PUSH1 0x2 PUSH1 0x20 MSTORE PUSH1 0x40 DUP2 KECCAK256 SLOAD PUSH1 0x1 PUSH1 0x1 PUSH1 0xA0 SHL SUB AND DUP1 PUSH2 0x6E0 JUMPI PUSH1 0x40 MLOAD PUSH3 0x461BCD PUSH1 0xE5 SHL DUP2 MSTORE PUSH1 0x20 PUSH1 0x4 DUP3 ADD MSTORE PUSH1 0x18 PUSH1 0x24 DUP3 ADD MSTORE PUSH24 0x115490CDCC8C4E881A5B9D985B1A59081D1BDAD95B881251 PUSH1 0x42 SHL PUSH1 0x44 DUP3 ADD MSTORE PUSH1 0x64 ADD PUSH2 0x813 JUMP JUMPDEST PUSH1 0x0 PUSH1 0x1 PUSH1 0x1 PUSH1 0xA0 SHL SUB DUP3 AND PUSH2 0xC84 JUMPI PUSH1 0x40 MLOAD PUSH3 0x461BCD PUSH1 0xE5 SHL DUP2 MSTORE PUSH1 0x20 PUSH1 0x4 DUP3 ADD MSTORE PUSH1 0x29 PUSH1 0x24 DUP3 ADD MSTORE PUSH32 0x4552433732313A2061646472657373207A65726F206973206E6F742061207661 PUSH1 0x44 DUP3 ADD MSTORE PUSH9 0x3634B21037BBB732B9 PUSH1 0xB9 SHL PUSH1 0x64 DUP3 ADD MSTORE PUSH1 0x84 ADD PUSH2 0x813 JUMP JUMPDEST POP PUSH1 0x1 PUSH1 0x1 PUSH1 0xA0 SHL SUB AND PUSH1 0x0 SWAP1 DUP2 MSTORE PUSH1 0x3 PUSH1 0x20 MSTORE PUSH1 0x40 SWAP1 KECCAK256 SLOAD SWAP1 JUMP JUMPDEST PUSH2 0xCA8 PUSH2 0x104B JUMP JUMPDEST PUSH2 0xB9D PUSH1 0x0 PUSH2 0x15B7 JUMP JUMPDEST PUSH2 0xCBA PUSH2 0x104B JUMP JUMPDEST PUSH2 0xB9D PUSH2 0x1609 JUMP JUMPDEST PUSH1 0x0 PUSH2 0xCCD PUSH1 0xE SLOAD SWAP1 JUMP JUMPDEST SWAP1 POP SWAP1 JUMP JUMPDEST PUSH2 0xCDA PUSH2 0x104B JUMP JUMPDEST PUSH1 0x11 SSTORE JUMP JUMPDEST PUSH1 0x60 PUSH1 0x1 DUP1 SLOAD PUSH2 0x6F5 SWAP1 PUSH2 0x27B3 JUMP JUMPDEST PUSH2 0x967 CALLER DUP4 DUP4 PUSH2 0x164C JUMP JUMPDEST PUSH2 0xD03 CALLER DUP4 PUSH2 0x133B JUMP JUMPDEST PUSH2 0xD1F JUMPI PUSH1 0x40 MLOAD PUSH3 0x461BCD PUSH1 0xE5 SHL DUP2 MSTORE PUSH1 0x4 ADD PUSH2 0x813 SWAP1 PUSH2 0x27ED JUMP JUMPDEST PUSH2 0xD2B DUP5 DUP5 DUP5 DUP5 PUSH2 0x171A JUMP JUMPDEST POP POP POP POP JUMP JUMPDEST PUSH2 0xD39 PUSH2 0x104B JUMP JUMPDEST PUSH2 0xD41 PUSH2 0x174D JUMP JUMPDEST PUSH1 0xB SLOAD PUSH1 0x1 PUSH1 0x1 PUSH1 0xF8 SHL SUB AND PUSH2 0xD69 DUP3 PUSH2 0xD5A PUSH1 0x10 SLOAD SWAP1 JUMP JUMPDEST PUSH2 0xD64 SWAP1 DUP5 PUSH2 0x2870 JUMP JUMPDEST PUSH2 0x179A JUMP JUMPDEST SWAP2 POP PUSH1 0x0 DUP3 GT PUSH2 0xDBB JUMPI PUSH1 0x40 MLOAD PUSH3 0x461BCD PUSH1 0xE5 SHL DUP2 MSTORE PUSH1 0x20 PUSH1 0x4 DUP3 ADD MSTORE PUSH1 0x1B PUSH1 0x24 DUP3 ADD MSTORE PUSH32 0x53656C6C65723A20467265652071756F74612065786365656465640000000000 PUSH1 0x44 DUP3 ADD MSTORE PUSH1 0x64 ADD PUSH2 0x813 JUMP JUMPDEST PUSH1 0x8 SLOAD PUSH2 0xDCB DUP4 PUSH2 0xD5A PUSH1 0xE SLOAD SWAP1 JUMP JUMPDEST SWAP3 POP PUSH1 0x0 DUP4 GT PUSH2 0xE10 JUMPI PUSH1 0x40 MLOAD PUSH3 0x461BCD PUSH1 0xE5 SHL DUP2 MSTORE PUSH1 0x20 PUSH1 0x4 DUP3 ADD MSTORE PUSH1 0x10 PUSH1 0x24 DUP3 ADD MSTORE PUSH16 0x14D95B1B195C8E8814DBDB19081BDD5D PUSH1 0x82 SHL PUSH1 0x44 DUP3 ADD MSTORE PUSH1 0x64 ADD PUSH2 0x813 JUMP JUMPDEST PUSH2 0xE1B PUSH1 0xE DUP5 PUSH2 0x17B0 JUMP JUMPDEST PUSH2 0xE26 PUSH1 0x10 DUP5 PUSH2 0x17B0 JUMP JUMPDEST PUSH2 0xE32 DUP5 DUP5 PUSH1 0x1 PUSH2 0x17CD JUMP JUMPDEST DUP1 PUSH2 0xE3C PUSH1 0xE SLOAD SWAP1 JUMP JUMPDEST GT ISZERO PUSH2 0xE4A JUMPI PUSH2 0xE4A PUSH2 0x2887 JUMP JUMPDEST DUP2 PUSH2 0xE54 PUSH1 0x10 SLOAD SWAP1 JUMP JUMPDEST GT ISZERO PUSH2 0xD2B JUMPI PUSH2 0xD2B PUSH2 0x2887 JUMP JUMPDEST PUSH1 0x60 PUSH2 0xE6D DUP3 PUSH2 0xF7E JUMP JUMPDEST PUSH1 0x0 PUSH2 0xE84 PUSH1 0x40 DUP1 MLOAD PUSH1 0x20 DUP2 ADD SWAP1 SWAP2 MSTORE PUSH1 0x0 DUP2 MSTORE SWAP1 JUMP JUMPDEST SWAP1 POP PUSH1 0x0 DUP2 MLOAD GT PUSH2 0xEA4 JUMPI PUSH1 0x40 MLOAD DUP1 PUSH1 0x20 ADD PUSH1 0x40 MSTORE DUP1 PUSH1 0x0 DUP2 MSTORE POP PUSH2 0xB86 JUMP JUMPDEST DUP1 PUSH2 0xEAE DUP5 PUSH2 0x193D JUMP JUMPDEST PUSH1 0x40 MLOAD PUSH1 0x20 ADD PUSH2 0xEBF SWAP3 SWAP2 SWAP1 PUSH2 0x289D JUMP JUMPDEST PUSH1 0x40 MLOAD PUSH1 0x20 DUP2 DUP4 SUB SUB DUP2 MSTORE SWAP1 PUSH1 0x40 MSTORE SWAP4 SWAP3 POP POP POP JUMP JUMPDEST PUSH2 0xEDD PUSH2 0x104B JUMP JUMPDEST PUSH1 0x1 PUSH1 0x1 PUSH1 0xA0 SHL SUB DUP2 AND PUSH2 0xF42 JUMPI PUSH1 0x40 MLOAD PUSH3 0x461BCD PUSH1 0xE5 SHL DUP2 MSTORE PUSH1 0x20 PUSH1 0x4 DUP3 ADD MSTORE PUSH1 0x26 PUSH1 0x24 DUP3 ADD MSTORE PUSH32 0x4F776E61626C653A206E6577206F776E657220697320746865207A65726F2061 PUSH1 0x44 DUP3 ADD MSTORE PUSH6 0x646472657373 PUSH1 0xD0 SHL PUSH1 0x64 DUP3 ADD MSTORE PUSH1 0x84 ADD PUSH2 0x813 JUMP JUMPDEST PUSH2 0x9A7 DUP2 PUSH2 0x15B7 JUMP JUMPDEST PUSH1 0x12 DUP2 PUSH2 0x2710 DUP2 LT PUSH2 0xF5C JUMPI PUSH1 0x0 DUP1 REVERT JUMPDEST PUSH1 0x10 SWAP2 DUP3 DUP3 DIV ADD SWAP2 SWAP1 MOD PUSH1 0x2 MUL SWAP2 POP SLOAD SWAP1 PUSH2 0x100 EXP SWAP1 DIV PUSH2 0xFFFF AND DUP2 JUMP JUMPDEST SLOAD SWAP1 JUMP JUMPDEST PUSH1 0x0 DUP2 DUP2 MSTORE PUSH1 0x2 PUSH1 0x20 MSTORE PUSH1 0x40 SWAP1 KECCAK256 SLOAD PUSH1 0x1 PUSH1 0x1 PUSH1 0xA0 SHL SUB AND PUSH2 0x9A7 JUMPI PUSH1 0x40 MLOAD PUSH3 0x461BCD PUSH1 0xE5 SHL DUP2 MSTORE PUSH1 0x20 PUSH1 0x4 DUP3 ADD MSTORE PUSH1 0x18 PUSH1 0x24 DUP3 ADD MSTORE PUSH24 0x115490CDCC8C4E881A5B9D985B1A59081D1BDAD95B881251 PUSH1 0x42 SHL PUSH1 0x44 DUP3 ADD MSTORE PUSH1 0x64 ADD PUSH2 0x813 JUMP JUMPDEST PUSH1 0x0 DUP2 DUP2 MSTORE PUSH1 0x4 PUSH1 0x20 MSTORE PUSH1 0x40 SWAP1 KECCAK256 DUP1 SLOAD PUSH1 0x1 PUSH1 0x1 PUSH1 0xA0 SHL SUB NOT AND PUSH1 0x1 PUSH1 0x1 PUSH1 0xA0 SHL SUB DUP5 AND SWAP1 DUP2 OR SWAP1 SWAP2 SSTORE DUP2 SWAP1 PUSH2 0x1012 DUP3 PUSH2 0xBBA JUMP JUMPDEST PUSH1 0x1 PUSH1 0x1 PUSH1 0xA0 SHL SUB AND PUSH32 0x8C5BE1E5EBEC7D5BD14F71427D1E84F3DD0314C0F7B2291E5B200AC8C7C3B925 PUSH1 0x40 MLOAD PUSH1 0x40 MLOAD DUP1 SWAP2 SUB SWAP1 LOG4 POP POP JUMP JUMPDEST PUSH1 0x6 SLOAD PUSH1 0x1 PUSH1 0x1 PUSH1 0xA0 SHL SUB AND CALLER EQ PUSH2 0xB9D JUMPI PUSH1 0x40 MLOAD PUSH3 0x461BCD PUSH1 0xE5 SHL DUP2 MSTORE PUSH1 0x20 PUSH1 0x4 DUP3 ADD DUP2 SWAP1 MSTORE PUSH1 0x24 DUP3 ADD MSTORE PUSH32 0x4F776E61626C653A2063616C6C6572206973206E6F7420746865206F776E6572 PUSH1 0x44 DUP3 ADD MSTORE PUSH1 0x64 ADD PUSH2 0x813 JUMP JUMPDEST PUSH2 0x283 DUP1 SLOAD PUSH1 0x0 SWAP2 PUSH2 0xFFFF SWAP1 SWAP2 AND SWAP1 DUP3 PUSH2 0x10BE DUP4 PUSH2 0x28CC JUMP JUMPDEST SWAP2 SWAP1 PUSH2 0x100 EXP DUP2 SLOAD DUP2 PUSH2 0xFFFF MUL NOT AND SWAP1 DUP4 PUSH2 0xFFFF AND MUL OR SWAP1 SSTORE POP PUSH2 0xFFFF AND PUSH2 0x2710 PUSH2 0x10E9 SWAP2 SWAP1 PUSH2 0x2870 JUMP JUMPDEST SWAP1 POP PUSH1 0x0 DUP2 GT PUSH2 0x112E JUMPI PUSH1 0x40 MLOAD PUSH3 0x461BCD PUSH1 0xE5 SHL DUP2 MSTORE PUSH1 0x20 PUSH1 0x4 DUP3 ADD MSTORE PUSH1 0x10 PUSH1 0x24 DUP3 ADD MSTORE PUSH16 0x139BC8119C9BD9DE195B1CC81B19599D PUSH1 0x82 SHL PUSH1 0x44 DUP3 ADD MSTORE PUSH1 0x64 ADD PUSH2 0x813 JUMP JUMPDEST PUSH1 0x0 DUP2 DUP4 PUSH1 0x0 DUP2 MLOAD DUP2 LT PUSH2 0x1144 JUMPI PUSH2 0x1144 PUSH2 0x28ED JUMP JUMPDEST PUSH1 0x20 MUL PUSH1 0x20 ADD ADD MLOAD PUSH2 0x1156 SWAP2 SWAP1 PUSH2 0x2919 JUMP JUMPDEST SWAP1 POP PUSH1 0x0 PUSH1 0x12 DUP3 PUSH2 0x2710 DUP2 LT PUSH2 0x116E JUMPI PUSH2 0x116E PUSH2 0x28ED JUMP JUMPDEST PUSH1 0x10 SWAP2 DUP3 DUP3 DIV ADD SWAP2 SWAP1 MOD PUSH1 0x2 MUL SWAP1 SLOAD SWAP1 PUSH2 0x100 EXP SWAP1 DIV PUSH2 0xFFFF AND PUSH2 0xFFFF AND PUSH1 0x0 SUB PUSH2 0x1199 JUMPI DUP2 PUSH2 0x11CC JUMP JUMPDEST PUSH1 0x12 DUP3 PUSH2 0x2710 DUP2 LT PUSH2 0x11AD JUMPI PUSH2 0x11AD PUSH2 0x28ED JUMP JUMPDEST PUSH1 0x10 SWAP2 DUP3 DUP3 DIV ADD SWAP2 SWAP1 MOD PUSH1 0x2 MUL SWAP1 SLOAD SWAP1 PUSH2 0x100 EXP SWAP1 DIV PUSH2 0xFFFF AND PUSH2 0xFFFF AND JUMPDEST SWAP1 POP PUSH1 0x12 PUSH2 0x11DB PUSH1 0x1 DUP6 PUSH2 0x2870 JUMP JUMPDEST PUSH2 0x2710 DUP2 LT PUSH2 0x11EC JUMPI PUSH2 0x11EC PUSH2 0x28ED JUMP JUMPDEST PUSH1 0x10 DUP2 DIV SWAP2 SWAP1 SWAP2 ADD SLOAD PUSH1 0xF SWAP1 SWAP2 AND PUSH1 0x2 MUL PUSH2 0x100 EXP SWAP1 DIV PUSH2 0xFFFF AND ISZERO PUSH2 0x124D JUMPI PUSH1 0x12 PUSH2 0x1219 PUSH1 0x1 DUP6 PUSH2 0x2870 JUMP JUMPDEST PUSH2 0x2710 DUP2 LT PUSH2 0x122A JUMPI PUSH2 0x122A PUSH2 0x28ED JUMP JUMPDEST PUSH1 0x10 SWAP2 DUP3 DUP3 DIV ADD SWAP2 SWAP1 MOD PUSH1 0x2 MUL SWAP1 SLOAD SWAP1 PUSH2 0x100 EXP SWAP1 DIV PUSH2 0xFFFF AND PUSH2 0xFFFF AND PUSH2 0x1258 JUMP JUMPDEST PUSH2 0x1258 PUSH1 0x1 DUP5 PUSH2 0x2870 JUMP JUMPDEST PUSH1 0x12 DUP4 PUSH2 0x2710 DUP2 LT PUSH2 0x126C JUMPI PUSH2 0x126C PUSH2 0x28ED JUMP JUMPDEST PUSH1 0x10 SWAP2 DUP3 DUP3 DIV ADD SWAP2 SWAP1 MOD PUSH1 0x2 MUL PUSH2 0x100 EXP DUP2 SLOAD DUP2 PUSH2 0xFFFF MUL NOT AND SWAP1 DUP4 PUSH2 0xFFFF AND MUL OR SWAP1 SSTORE POP PUSH1 0x0 PUSH1 0x12 PUSH1 0x1 DUP6 PUSH2 0x12A2 SWAP2 SWAP1 PUSH2 0x2870 JUMP JUMPDEST PUSH2 0x2710 DUP2 LT PUSH2 0x12B3 JUMPI PUSH2 0x12B3 PUSH2 0x28ED JUMP JUMPDEST PUSH1 0x10 SWAP2 DUP3 DUP3 DIV ADD SWAP2 SWAP1 MOD PUSH1 0x2 MUL PUSH2 0x100 EXP DUP2 SLOAD DUP2 PUSH2 0xFFFF MUL NOT AND SWAP1 DUP4 PUSH2 0xFFFF AND MUL OR SWAP1 SSTORE POP PUSH2 0x1309 PUSH2 0x284 PUSH1 0x0 DUP8 DUP2 MSTORE PUSH1 0x20 ADD SWAP1 DUP2 MSTORE PUSH1 0x20 ADD PUSH1 0x0 KECCAK256 PUSH1 0x0 SWAP1 SLOAD SWAP1 PUSH2 0x100 EXP SWAP1 DIV PUSH1 0x1 PUSH1 0x1 PUSH1 0xA0 SHL SUB AND DUP3 PUSH2 0x1A3E JUMP JUMPDEST PUSH1 0x40 MLOAD DUP2 SWAP1 PUSH32 0xFA129704CD590EED28ACCB1BAC82F9BA5617AD81E6AF279AE13B5AC63A5B3224 SWAP1 PUSH1 0x0 SWAP1 LOG2 POP POP POP POP POP JUMP JUMPDEST PUSH1 0x0 DUP1 PUSH2 0x1347 DUP4 PUSH2 0xBBA JUMP JUMPDEST SWAP1 POP DUP1 PUSH1 0x1 PUSH1 0x1 PUSH1 0xA0 SHL SUB AND DUP5 PUSH1 0x1 PUSH1 0x1 PUSH1 0xA0 SHL SUB AND EQ DUP1 PUSH2 0x138E JUMPI POP PUSH1 0x1 PUSH1 0x1 PUSH1 0xA0 SHL SUB DUP1 DUP3 AND PUSH1 0x0 SWAP1 DUP2 MSTORE PUSH1 0x5 PUSH1 0x20 SWAP1 DUP2 MSTORE PUSH1 0x40 DUP1 DUP4 KECCAK256 SWAP4 DUP9 AND DUP4 MSTORE SWAP3 SWAP1 MSTORE KECCAK256 SLOAD PUSH1 0xFF AND JUMPDEST DUP1 PUSH2 0x13B2 JUMPI POP DUP4 PUSH1 0x1 PUSH1 0x1 PUSH1 0xA0 SHL SUB AND PUSH2 0x13A7 DUP5 PUSH2 0x778 JUMP JUMPDEST PUSH1 0x1 PUSH1 0x1 PUSH1 0xA0 SHL SUB AND EQ JUMPDEST SWAP5 SWAP4 POP POP POP POP JUMP JUMPDEST DUP3 PUSH1 0x1 PUSH1 0x1 PUSH1 0xA0 SHL SUB AND PUSH2 0x13CD DUP3 PUSH2 0xBBA JUMP JUMPDEST PUSH1 0x1 PUSH1 0x1 PUSH1 0xA0 SHL SUB AND EQ PUSH2 0x1431 JUMPI PUSH1 0x40 MLOAD PUSH3 0x461BCD PUSH1 0xE5 SHL DUP2 MSTORE PUSH1 0x20 PUSH1 0x4 DUP3 ADD MSTORE PUSH1 0x25 PUSH1 0x24 DUP3 ADD MSTORE PUSH32 0x4552433732313A207472616E736665722066726F6D20696E636F727265637420 PUSH1 0x44 DUP3 ADD MSTORE PUSH5 0x37BBB732B9 PUSH1 0xD9 SHL PUSH1 0x64 DUP3 ADD MSTORE PUSH1 0x84 ADD PUSH2 0x813 JUMP JUMPDEST PUSH1 0x1 PUSH1 0x1 PUSH1 0xA0 SHL SUB DUP3 AND PUSH2 0x1493 JUMPI PUSH1 0x40 MLOAD PUSH3 0x461BCD PUSH1 0xE5 SHL DUP2 MSTORE PUSH1 0x20 PUSH1 0x4 DUP3 ADD MSTORE PUSH1 0x24 DUP1 DUP3 ADD MSTORE PUSH32 0x4552433732313A207472616E7366657220746F20746865207A65726F20616464 PUSH1 0x44 DUP3 ADD MSTORE PUSH4 0x72657373 PUSH1 0xE0 SHL PUSH1 0x64 DUP3 ADD MSTORE PUSH1 0x84 ADD PUSH2 0x813 JUMP JUMPDEST PUSH2 0x149E PUSH1 0x0 DUP3 PUSH2 0xFDD JUMP JUMPDEST PUSH1 0x1 PUSH1 0x1 PUSH1 0xA0 SHL SUB DUP4 AND PUSH1 0x0 SWAP1 DUP2 MSTORE PUSH1 0x3 PUSH1 0x20 MSTORE PUSH1 0x40 DUP2 KECCAK256 DUP1 SLOAD PUSH1 0x1 SWAP3 SWAP1 PUSH2 0x14C7 SWAP1 DUP5 SWAP1 PUSH2 0x2870 JUMP JUMPDEST SWAP1 SWAP2 SSTORE POP POP PUSH1 0x1 PUSH1 0x1 PUSH1 0xA0 SHL SUB DUP3 AND PUSH1 0x0 SWAP1 DUP2 MSTORE PUSH1 0x3 PUSH1 0x20 MSTORE PUSH1 0x40 DUP2 KECCAK256 DUP1 SLOAD PUSH1 0x1 SWAP3 SWAP1 PUSH2 0x14F5 SWAP1 DUP5 SWAP1 PUSH2 0x292D JUMP JUMPDEST SWAP1 SWAP2 SSTORE POP POP PUSH1 0x0 DUP2 DUP2 MSTORE PUSH1 0x2 PUSH1 0x20 MSTORE PUSH1 0x40 DUP1 DUP3 KECCAK256 DUP1 SLOAD PUSH1 0x1 PUSH1 0x1 PUSH1 0xA0 SHL SUB NOT AND PUSH1 0x1 PUSH1 0x1 PUSH1 0xA0 SHL SUB DUP7 DUP2 AND SWAP2 DUP3 OR SWAP1 SWAP3 SSTORE SWAP2 MLOAD DUP5 SWAP4 SWAP2 DUP8 AND SWAP2 PUSH32 0xDDF252AD1BE2C89B69C2B068FC378DAA952BA7F163C4A11628F55A4DF523B3EF SWAP2 LOG4 POP POP POP JUMP JUMPDEST PUSH2 0x967 DUP3 DUP3 PUSH1 0x0 PUSH2 0x1A58 JUMP JUMPDEST PUSH2 0x156A PUSH2 0x1F13 JUMP JUMPDEST PUSH1 0x6 DUP1 SLOAD PUSH1 0xFF PUSH1 0xA0 SHL NOT AND SWAP1 SSTORE PUSH32 0x5DB9EE0A495BF2E6FF9C91A7834C1BA4FDD244A5E8AA4E537BD38AEAE4B073AA CALLER JUMPDEST PUSH1 0x40 MLOAD PUSH1 0x1 PUSH1 0x1 PUSH1 0xA0 SHL SUB SWAP1 SWAP2 AND DUP2 MSTORE PUSH1 0x20 ADD PUSH1 0x40 MLOAD DUP1 SWAP2 SUB SWAP1 LOG1 JUMP JUMPDEST PUSH1 0x6 DUP1 SLOAD PUSH1 0x1 PUSH1 0x1 PUSH1 0xA0 SHL SUB DUP4 DUP2 AND PUSH1 0x1 PUSH1 0x1 PUSH1 0xA0 SHL SUB NOT DUP4 AND DUP2 OR SWAP1 SWAP4 SSTORE PUSH1 0x40 MLOAD SWAP2 AND SWAP2 SWAP1 DUP3 SWAP1 PUSH32 0x8BE0079C531659141344CD1FD0A4F28419497F9722A3DAAFE3B4186F6B6457E0 SWAP1 PUSH1 0x0 SWAP1 LOG3 POP POP JUMP JUMPDEST PUSH2 0x1611 PUSH2 0x174D JUMP JUMPDEST PUSH1 0x6 DUP1 SLOAD PUSH1 0xFF PUSH1 0xA0 SHL NOT AND PUSH1 0x1 PUSH1 0xA0 SHL OR SWAP1 SSTORE PUSH32 0x62E78CEA01BEE320CD4E420270B5EA74000D11B0C9F74754EBDBFC544B05A258 PUSH2 0x159A CALLER SWAP1 JUMP JUMPDEST DUP2 PUSH1 0x1 PUSH1 0x1 PUSH1 0xA0 SHL SUB AND DUP4 PUSH1 0x1 PUSH1 0x1 PUSH1 0xA0 SHL SUB AND SUB PUSH2 0x16AD JUMPI PUSH1 0x40 MLOAD PUSH3 0x461BCD PUSH1 0xE5 SHL DUP2 MSTORE PUSH1 0x20 PUSH1 0x4 DUP3 ADD MSTORE PUSH1 0x19 PUSH1 0x24 DUP3 ADD MSTORE PUSH32 0x4552433732313A20617070726F766520746F2063616C6C657200000000000000 PUSH1 0x44 DUP3 ADD MSTORE PUSH1 0x64 ADD PUSH2 0x813 JUMP JUMPDEST PUSH1 0x1 PUSH1 0x1 PUSH1 0xA0 SHL SUB DUP4 DUP2 AND PUSH1 0x0 DUP2 DUP2 MSTORE PUSH1 0x5 PUSH1 0x20 SWAP1 DUP2 MSTORE PUSH1 0x40 DUP1 DUP4 KECCAK256 SWAP5 DUP8 AND DUP1 DUP5 MSTORE SWAP5 DUP3 MSTORE SWAP2 DUP3 SWAP1 KECCAK256 DUP1 SLOAD PUSH1 0xFF NOT AND DUP7 ISZERO ISZERO SWAP1 DUP2 OR SWAP1 SWAP2 SSTORE SWAP2 MLOAD SWAP2 DUP3 MSTORE PUSH32 0x17307EAB39AB6107E8899845AD3D59BD9653F200F220920489CA2B5937696C31 SWAP2 ADD PUSH1 0x40 MLOAD DUP1 SWAP2 SUB SWAP1 LOG3 POP POP POP JUMP JUMPDEST PUSH2 0x1725 DUP5 DUP5 DUP5 PUSH2 0x13BA JUMP JUMPDEST PUSH2 0x1731 DUP5 DUP5 DUP5 DUP5 PUSH2 0x1F63 JUMP JUMPDEST PUSH2 0xD2B JUMPI PUSH1 0x40 MLOAD PUSH3 0x461BCD PUSH1 0xE5 SHL DUP2 MSTORE PUSH1 0x4 ADD PUSH2 0x813 SWAP1 PUSH2 0x2945 JUMP JUMPDEST PUSH1 0x6 SLOAD PUSH1 0x1 PUSH1 0xA0 SHL SWAP1 DIV PUSH1 0xFF AND ISZERO PUSH2 0xB9D JUMPI PUSH1 0x40 MLOAD PUSH3 0x461BCD PUSH1 0xE5 SHL DUP2 MSTORE PUSH1 0x20 PUSH1 0x4 DUP3 ADD MSTORE PUSH1 0x10 PUSH1 0x24 DUP3 ADD MSTORE PUSH16 0x14185D5CD8589B194E881C185D5CD959 PUSH1 0x82 SHL PUSH1 0x44 DUP3 ADD MSTORE PUSH1 0x64 ADD PUSH2 0x813 JUMP JUMPDEST PUSH1 0x0 DUP2 DUP4 LT PUSH2 0x17A9 JUMPI DUP2 PUSH2 0xB86 JUMP JUMPDEST POP SWAP1 SWAP2 SWAP1 POP JUMP JUMPDEST DUP1 DUP3 PUSH1 0x0 ADD PUSH1 0x0 DUP3 DUP3 SLOAD PUSH2 0x17C4 SWAP2 SWAP1 PUSH2 0x292D JUMP JUMPDEST SWAP1 SWAP2 SSTORE POP POP POP POP JUMP JUMPDEST PUSH1 0x40 MLOAD PUSH4 0x5D3B1D3 PUSH1 0xE4 SHL DUP2 MSTORE PUSH32 0x0 PUSH1 0x4 DUP3 ADD MSTORE PUSH8 0xFFFFFFFFFFFFFFFF PUSH32 0x0 AND PUSH1 0x24 DUP3 ADD MSTORE PUSH1 0x3 PUSH1 0x44 DUP3 ADD MSTORE PUSH4 0xFFFFFFFF PUSH32 0x0 AND PUSH1 0x64 DUP3 ADD MSTORE PUSH1 0x1 PUSH1 0x84 DUP3 ADD MSTORE PUSH1 0x0 SWAP1 PUSH32 0x0 PUSH1 0x1 PUSH1 0x1 PUSH1 0xA0 SHL SUB AND SWAP1 PUSH4 0x5D3B1D30 SWAP1 PUSH1 0xA4 ADD PUSH1 0x20 PUSH1 0x40 MLOAD DUP1 DUP4 SUB DUP2 PUSH1 0x0 DUP8 GAS CALL ISZERO DUP1 ISZERO PUSH2 0x18C0 JUMPI RETURNDATASIZE PUSH1 0x0 DUP1 RETURNDATACOPY RETURNDATASIZE PUSH1 0x0 REVERT JUMPDEST POP POP POP POP PUSH1 0x40 MLOAD RETURNDATASIZE PUSH1 0x1F NOT PUSH1 0x1F DUP3 ADD AND DUP3 ADD DUP1 PUSH1 0x40 MSTORE POP DUP2 ADD SWAP1 PUSH2 0x18E4 SWAP2 SWAP1 PUSH2 0x2997 JUMP JUMPDEST PUSH1 0x0 DUP2 DUP2 MSTORE PUSH2 0x284 PUSH1 0x20 MSTORE PUSH1 0x40 DUP1 DUP3 KECCAK256 DUP1 SLOAD PUSH1 0x1 PUSH1 0x1 PUSH1 0xA0 SHL SUB NOT AND PUSH1 0x1 PUSH1 0x1 PUSH1 0xA0 SHL SUB DUP10 AND OR SWAP1 SSTORE MLOAD SWAP2 SWAP3 POP DUP3 SWAP2 PUSH32 0xF76E87796E0D30D26631C878E060E8F2713F3FF6CBCA914ADC1535CA58FB26FC SWAP2 SWAP1 LOG2 POP POP POP POP JUMP JUMPDEST PUSH1 0x60 DUP2 PUSH1 0x0 SUB PUSH2 0x1964 JUMPI POP POP PUSH1 0x40 DUP1 MLOAD DUP1 DUP3 ADD SWAP1 SWAP2 MSTORE PUSH1 0x1 DUP2 MSTORE PUSH1 0x3 PUSH1 0xFC SHL PUSH1 0x20 DUP3 ADD MSTORE SWAP1 JUMP JUMPDEST DUP2 PUSH1 0x0 JUMPDEST DUP2 ISZERO PUSH2 0x198E JUMPI DUP1 PUSH2 0x1978 DUP2 PUSH2 0x29B0 JUMP JUMPDEST SWAP2 POP PUSH2 0x1987 SWAP1 POP PUSH1 0xA DUP4 PUSH2 0x29C9 JUMP JUMPDEST SWAP2 POP PUSH2 0x1968 JUMP JUMPDEST PUSH1 0x0 DUP2 PUSH8 0xFFFFFFFFFFFFFFFF DUP2 GT ISZERO PUSH2 0x19A9 JUMPI PUSH2 0x19A9 PUSH2 0x245C JUMP JUMPDEST PUSH1 0x40 MLOAD SWAP1 DUP1 DUP3 MSTORE DUP1 PUSH1 0x1F ADD PUSH1 0x1F NOT AND PUSH1 0x20 ADD DUP3 ADD PUSH1 0x40 MSTORE DUP1 ISZERO PUSH2 0x19D3 JUMPI PUSH1 0x20 DUP3 ADD DUP2 DUP1 CALLDATASIZE DUP4 CALLDATACOPY ADD SWAP1 POP JUMPDEST POP SWAP1 POP JUMPDEST DUP5 ISZERO PUSH2 0x13B2 JUMPI PUSH2 0x19E8 PUSH1 0x1 DUP4 PUSH2 0x2870 JUMP JUMPDEST SWAP2 POP PUSH2 0x19F5 PUSH1 0xA DUP7 PUSH2 0x2919 JUMP JUMPDEST PUSH2 0x1A00 SWAP1 PUSH1 0x30 PUSH2 0x292D JUMP JUMPDEST PUSH1 0xF8 SHL DUP2 DUP4 DUP2 MLOAD DUP2 LT PUSH2 0x1A15 JUMPI PUSH2 0x1A15 PUSH2 0x28ED JUMP JUMPDEST PUSH1 0x20 ADD ADD SWAP1 PUSH1 0x1 PUSH1 0x1 PUSH1 0xF8 SHL SUB NOT AND SWAP1 DUP2 PUSH1 0x0 BYTE SWAP1 MSTORE8 POP PUSH2 0x1A37 PUSH1 0xA DUP7 PUSH2 0x29C9 JUMP JUMPDEST SWAP5 POP PUSH2 0x19D7 JUMP JUMPDEST PUSH2 0x967 DUP3 DUP3 PUSH1 0x40 MLOAD DUP1 PUSH1 0x20 ADD PUSH1 0x40 MSTORE DUP1 PUSH1 0x0 DUP2 MSTORE POP PUSH2 0x2064 JUMP JUMPDEST PUSH1 0x2 PUSH1 0x7 SLOAD SUB PUSH2 0x1AAA JUMPI PUSH1 0x40 MLOAD PUSH3 0x461BCD PUSH1 0xE5 SHL DUP2 MSTORE PUSH1 0x20 PUSH1 0x4 DUP3 ADD MSTORE PUSH1 0x1F PUSH1 0x24 DUP3 ADD MSTORE PUSH32 0x5265656E7472616E637947756172643A207265656E7472616E742063616C6C00 PUSH1 0x44 DUP3 ADD MSTORE PUSH1 0x64 ADD PUSH2 0x813 JUMP JUMPDEST PUSH1 0x2 PUSH1 0x7 SSTORE PUSH2 0x1AB7 PUSH2 0x174D JUMP JUMPDEST PUSH1 0x40 DUP1 MLOAD PUSH1 0xE0 DUP2 ADD DUP3 MSTORE PUSH1 0x8 SLOAD DUP2 MSTORE PUSH1 0x9 SLOAD PUSH1 0x20 DUP3 ADD MSTORE PUSH1 0xA SLOAD SWAP2 DUP2 ADD DUP3 SWAP1 MSTORE PUSH1 0xB SLOAD PUSH1 0x1 PUSH1 0x1 PUSH1 0xF8 SHL SUB DUP2 AND PUSH1 0x60 DUP4 ADD MSTORE PUSH1 0xFF PUSH1 0x1 PUSH1 0xF8 SHL SWAP1 SWAP2 DIV DUP2 AND ISZERO ISZERO PUSH1 0x80 DUP4 ADD MSTORE PUSH1 0xC SLOAD DUP1 DUP3 AND ISZERO ISZERO PUSH1 0xA0 DUP5 ADD MSTORE PUSH2 0x100 SWAP1 DIV AND ISZERO ISZERO PUSH1 0xC0 DUP3 ADD MSTORE SWAP1 PUSH1 0x0 SWAP1 ISZERO PUSH2 0x1B32 JUMPI PUSH2 0x1B2D DUP5 DUP4 PUSH1 0x40 ADD MLOAD PUSH2 0x179A JUMP JUMPDEST PUSH2 0x1B34 JUMP JUMPDEST DUP4 JUMPDEST SWAP1 POP PUSH1 0x0 DUP1 DUP4 PUSH1 0x80 ADD MLOAD ISZERO PUSH2 0x1B7C JUMPI PUSH1 0x60 DUP5 ADD MLOAD DUP5 MLOAD PUSH2 0x1B5D SWAP2 PUSH1 0x1 PUSH1 0x1 PUSH1 0xF8 SHL SUB AND SWAP1 PUSH2 0x2870 JUMP JUMPDEST SWAP2 POP PUSH2 0x1B68 PUSH1 0x10 SLOAD SWAP1 JUMP JUMPDEST PUSH1 0xE SLOAD PUSH2 0x1B75 SWAP2 SWAP1 PUSH2 0x2870 JUMP JUMPDEST SWAP1 POP PUSH2 0x1B8C JUMP JUMPDEST DUP4 MLOAD SWAP2 POP PUSH2 0x1B89 PUSH1 0xE SLOAD SWAP1 JUMP JUMPDEST SWAP1 POP JUMPDEST PUSH2 0x1B9A DUP4 PUSH2 0xD64 DUP4 DUP6 PUSH2 0x2870 JUMP JUMPDEST SWAP3 POP PUSH1 0x0 DUP4 GT PUSH2 0x1BDF JUMPI PUSH1 0x40 MLOAD PUSH3 0x461BCD PUSH1 0xE5 SHL DUP2 MSTORE PUSH1 0x20 PUSH1 0x4 DUP3 ADD MSTORE PUSH1 0x10 PUSH1 0x24 DUP3 ADD MSTORE PUSH16 0x14D95B1B195C8E8814DBDB19081BDD5D PUSH1 0x82 SHL PUSH1 0x44 DUP3 ADD MSTORE PUSH1 0x64 ADD PUSH2 0x813 JUMP JUMPDEST PUSH1 0x20 DUP5 ADD MLOAD ISZERO PUSH2 0x1D3B JUMPI CALLER PUSH1 0x1 PUSH1 0x1 PUSH1 0xA0 SHL SUB DUP9 AND DUP2 EQ ISZERO SWAP1 PUSH1 0x0 SWAP1 ORIGIN EQ DUP1 ISZERO SWAP1 PUSH2 0x1C13 JUMPI POP ORIGIN PUSH1 0x1 PUSH1 0x1 PUSH1 0xA0 SHL SUB DUP11 AND EQ ISZERO JUMPDEST SWAP1 POP PUSH2 0x1C43 DUP6 DUP11 PUSH1 0x40 MLOAD DUP1 PUSH1 0x40 ADD PUSH1 0x40 MSTORE DUP1 PUSH1 0xB DUP2 MSTORE PUSH1 0x20 ADD PUSH11 0x109D5E595C881B1A5B5A5D PUSH1 0xAA SHL DUP2 MSTORE POP PUSH2 0x2097 JUMP JUMPDEST SWAP5 POP DUP2 ISZERO PUSH2 0x1C7D JUMPI PUSH2 0x1C7A DUP6 CALLER PUSH1 0x40 MLOAD DUP1 PUSH1 0x40 ADD PUSH1 0x40 MSTORE DUP1 PUSH1 0xC DUP2 MSTORE PUSH1 0x20 ADD PUSH12 0x14D95B99195C881B1A5B5A5D PUSH1 0xA2 SHL DUP2 MSTORE POP PUSH2 0x2097 JUMP JUMPDEST SWAP5 POP JUMPDEST DUP1 ISZERO PUSH2 0x1CB5 JUMPI PUSH2 0x1CB2 DUP6 ORIGIN PUSH1 0x40 MLOAD DUP1 PUSH1 0x40 ADD PUSH1 0x40 MSTORE DUP1 PUSH1 0xC DUP2 MSTORE PUSH1 0x20 ADD PUSH12 0x13DC9A59DA5B881B1A5B5A5D PUSH1 0xA2 SHL DUP2 MSTORE POP PUSH2 0x2097 JUMP JUMPDEST SWAP5 POP JUMPDEST PUSH1 0x1 PUSH1 0x1 PUSH1 0xA0 SHL SUB DUP10 AND PUSH1 0x0 SWAP1 DUP2 MSTORE PUSH1 0xF PUSH1 0x20 MSTORE PUSH1 0x40 DUP2 KECCAK256 DUP1 SLOAD DUP8 SWAP3 SWAP1 PUSH2 0x1CDD SWAP1 DUP5 SWAP1 PUSH2 0x292D JUMP JUMPDEST SWAP1 SWAP2 SSTORE POP POP DUP2 ISZERO PUSH2 0x1D0D JUMPI CALLER PUSH1 0x0 SWAP1 DUP2 MSTORE PUSH1 0xF PUSH1 0x20 MSTORE PUSH1 0x40 DUP2 KECCAK256 DUP1 SLOAD DUP8 SWAP3 SWAP1 PUSH2 0x1D07 SWAP1 DUP5 SWAP1 PUSH2 0x292D JUMP JUMPDEST SWAP1 SWAP2 SSTORE POP POP JUMPDEST DUP1 ISZERO PUSH2 0x1D38 JUMPI ORIGIN PUSH1 0x0 SWAP1 DUP2 MSTORE PUSH1 0xF PUSH1 0x20 MSTORE PUSH1 0x40 DUP2 KECCAK256 DUP1 SLOAD DUP8 SWAP3 SWAP1 PUSH2 0x1D32 SWAP1 DUP5 SWAP1 PUSH2 0x292D JUMP JUMPDEST SWAP1 SWAP2 SSTORE POP POP JUMPDEST POP POP JUMPDEST PUSH1 0x0 PUSH2 0x1D47 DUP5 DUP8 PUSH2 0xB76 JUMP JUMPDEST SWAP1 POP DUP1 CALLVALUE LT ISZERO PUSH2 0x1D9D JUMPI PUSH2 0x1D67 PUSH2 0x1D62 PUSH4 0x3B9ACA00 DUP4 PUSH2 0x29C9 JUMP JUMPDEST PUSH2 0x193D JUMP JUMPDEST PUSH1 0x40 MLOAD PUSH1 0x20 ADD PUSH2 0x1D77 SWAP2 SWAP1 PUSH2 0x29DD JUMP JUMPDEST PUSH1 0x40 DUP1 MLOAD PUSH1 0x1F NOT DUP2 DUP5 SUB ADD DUP2 MSTORE SWAP1 DUP3 SWAP1 MSTORE PUSH3 0x461BCD PUSH1 0xE5 SHL DUP3 MSTORE PUSH2 0x813 SWAP2 PUSH1 0x4 ADD PUSH2 0x23D2 JUMP JUMPDEST PUSH2 0x1DA8 PUSH1 0xE DUP6 PUSH2 0x17B0 JUMP JUMPDEST DUP5 MLOAD PUSH1 0xE SLOAD GT ISZERO PUSH2 0x1DBB JUMPI PUSH2 0x1DBB PUSH2 0x2887 JUMP JUMPDEST PUSH2 0x1DC7 DUP9 DUP6 PUSH1 0x0 PUSH2 0x17CD JUMP JUMPDEST DUP1 ISZERO PUSH2 0x1E2C JUMPI PUSH1 0xD SLOAD PUSH2 0x1DE3 SWAP1 PUSH1 0x1 PUSH1 0x1 PUSH1 0xA0 SHL SUB AND DUP3 PUSH2 0x20EC JUMP JUMPDEST PUSH1 0xD SLOAD PUSH1 0x40 DUP1 MLOAD DUP7 DUP2 MSTORE PUSH1 0x20 DUP2 ADD DUP5 SWAP1 MSTORE PUSH1 0x1 PUSH1 0x1 PUSH1 0xA0 SHL SUB SWAP1 SWAP3 AND SWAP2 PUSH32 0x1F51B99BD1C3CCA301836178E5DEE13AADFE44EFF06DC3DDCBF3C9D058454F8 SWAP2 ADD PUSH1 0x40 MLOAD DUP1 SWAP2 SUB SWAP1 LOG2 JUMPDEST DUP1 CALLVALUE GT ISZERO PUSH2 0x1F04 JUMPI CALLER PUSH1 0x0 PUSH2 0x1E41 DUP4 CALLVALUE PUSH2 0x2870 JUMP JUMPDEST SWAP1 POP PUSH1 0x0 DUP1 DUP4 PUSH1 0x1 PUSH1 0x1 PUSH1 0xA0 SHL SUB AND DUP4 PUSH1 0x40 MLOAD PUSH1 0x0 PUSH1 0x40 MLOAD DUP1 DUP4 SUB DUP2 DUP6 DUP8 GAS CALL SWAP3 POP POP POP RETURNDATASIZE DUP1 PUSH1 0x0 DUP2 EQ PUSH2 0x1E91 JUMPI PUSH1 0x40 MLOAD SWAP2 POP PUSH1 0x1F NOT PUSH1 0x3F RETURNDATASIZE ADD AND DUP3 ADD PUSH1 0x40 MSTORE RETURNDATASIZE DUP3 MSTORE RETURNDATASIZE PUSH1 0x0 PUSH1 0x20 DUP5 ADD RETURNDATACOPY PUSH2 0x1E96 JUMP JUMPDEST PUSH1 0x60 SWAP2 POP JUMPDEST POP SWAP2 POP SWAP2 POP DUP2 DUP2 SWAP1 PUSH2 0x1EBB JUMPI PUSH1 0x40 MLOAD PUSH3 0x461BCD PUSH1 0xE5 SHL DUP2 MSTORE PUSH1 0x4 ADD PUSH2 0x813 SWAP2 SWAP1 PUSH2 0x23D2 JUMP JUMPDEST POP DUP4 PUSH1 0x1 PUSH1 0x1 PUSH1 0xA0 SHL SUB AND PUSH32 0xBB28353E4598C3B9199101A66E0989549B659A59A54D2C27FBB183F1932C8E6D DUP5 PUSH1 0x40 MLOAD PUSH2 0x1EF7 SWAP2 DUP2 MSTORE PUSH1 0x20 ADD SWAP1 JUMP JUMPDEST PUSH1 0x40 MLOAD DUP1 SWAP2 SUB SWAP1 LOG2 POP POP POP POP JUMPDEST POP POP PUSH1 0x1 PUSH1 0x7 SSTORE POP POP POP POP POP POP JUMP JUMPDEST PUSH1 0x6 SLOAD PUSH1 0x1 PUSH1 0xA0 SHL SWAP1 DIV PUSH1 0xFF AND PUSH2 0xB9D JUMPI PUSH1 0x40 MLOAD PUSH3 0x461BCD PUSH1 0xE5 SHL DUP2 MSTORE PUSH1 0x20 PUSH1 0x4 DUP3 ADD MSTORE PUSH1 0x14 PUSH1 0x24 DUP3 ADD MSTORE PUSH20 0x14185D5CD8589B194E881B9BDD081C185D5CD959 PUSH1 0x62 SHL PUSH1 0x44 DUP3 ADD MSTORE PUSH1 0x64 ADD PUSH2 0x813 JUMP JUMPDEST PUSH1 0x0 PUSH1 0x1 PUSH1 0x1 PUSH1 0xA0 SHL SUB DUP5 AND EXTCODESIZE ISZERO PUSH2 0x2059 JUMPI PUSH1 0x40 MLOAD PUSH4 0xA85BD01 PUSH1 0xE1 SHL DUP2 MSTORE PUSH1 0x1 PUSH1 0x1 PUSH1 0xA0 SHL SUB DUP6 AND SWAP1 PUSH4 0x150B7A02 SWAP1 PUSH2 0x1FA7 SWAP1 CALLER SWAP1 DUP10 SWAP1 DUP9 SWAP1 DUP9 SWAP1 PUSH1 0x4 ADD PUSH2 0x2A22 JUMP JUMPDEST PUSH1 0x20 PUSH1 0x40 MLOAD DUP1 DUP4 SUB DUP2 PUSH1 0x0 DUP8 GAS CALL SWAP3 POP POP POP DUP1 ISZERO PUSH2 0x1FE2 JUMPI POP PUSH1 0x40 DUP1 MLOAD PUSH1 0x1F RETURNDATASIZE SWAP1 DUP2 ADD PUSH1 0x1F NOT AND DUP3 ADD SWAP1 SWAP3 MSTORE PUSH2 0x1FDF SWAP2 DUP2 ADD SWAP1 PUSH2 0x2A5F JUMP JUMPDEST PUSH1 0x1 JUMPDEST PUSH2 0x203F JUMPI RETURNDATASIZE DUP1 DUP1 ISZERO PUSH2 0x2010 JUMPI PUSH1 0x40 MLOAD SWAP2 POP PUSH1 0x1F NOT PUSH1 0x3F RETURNDATASIZE ADD AND DUP3 ADD PUSH1 0x40 MSTORE RETURNDATASIZE DUP3 MSTORE RETURNDATASIZE PUSH1 0x0 PUSH1 0x20 DUP5 ADD RETURNDATACOPY PUSH2 0x2015 JUMP JUMPDEST PUSH1 0x60 SWAP2 POP JUMPDEST POP DUP1 MLOAD PUSH1 0x0 SUB PUSH2 0x2037 JUMPI PUSH1 0x40 MLOAD PUSH3 0x461BCD PUSH1 0xE5 SHL DUP2 MSTORE PUSH1 0x4 ADD PUSH2 0x813 SWAP1 PUSH2 0x2945 JUMP JUMPDEST DUP1 MLOAD DUP2 PUSH1 0x20 ADD REVERT JUMPDEST PUSH1 0x1 PUSH1 0x1 PUSH1 0xE0 SHL SUB NOT AND PUSH4 0xA85BD01 PUSH1 0xE1 SHL EQ SWAP1 POP PUSH2 0x13B2 JUMP JUMPDEST POP PUSH1 0x1 SWAP5 SWAP4 POP POP POP POP JUMP JUMPDEST PUSH2 0x206E DUP4 DUP4 PUSH2 0x2205 JUMP JUMPDEST PUSH2 0x207B PUSH1 0x0 DUP5 DUP5 DUP5 PUSH2 0x1F63 JUMP JUMPDEST PUSH2 0x8B4 JUMPI PUSH1 0x40 MLOAD PUSH3 0x461BCD PUSH1 0xE5 SHL DUP2 MSTORE PUSH1 0x4 ADD PUSH2 0x813 SWAP1 PUSH2 0x2945 JUMP JUMPDEST PUSH1 0x1 PUSH1 0x1 PUSH1 0xA0 SHL SUB DUP3 AND PUSH1 0x0 SWAP1 DUP2 MSTORE PUSH1 0xF PUSH1 0x20 MSTORE PUSH1 0x40 DUP2 KECCAK256 SLOAD PUSH1 0x9 SLOAD DUP3 SWAP2 PUSH2 0x20BE SWAP2 PUSH2 0x2870 JUMP JUMPDEST SWAP1 POP DUP1 PUSH1 0x0 SUB PUSH2 0x20D9 JUMPI DUP3 PUSH1 0x40 MLOAD PUSH1 0x20 ADD PUSH2 0x1D77 SWAP2 SWAP1 PUSH2 0x2A7C JUMP JUMPDEST PUSH2 0x20E3 DUP6 DUP3 PUSH2 0x179A JUMP JUMPDEST SWAP6 SWAP5 POP POP POP POP POP JUMP JUMPDEST DUP1 SELFBALANCE LT ISZERO PUSH2 0x213C JUMPI PUSH1 0x40 MLOAD PUSH3 0x461BCD PUSH1 0xE5 SHL DUP2 MSTORE PUSH1 0x20 PUSH1 0x4 DUP3 ADD MSTORE PUSH1 0x1D PUSH1 0x24 DUP3 ADD MSTORE PUSH32 0x416464726573733A20696E73756666696369656E742062616C616E6365000000 PUSH1 0x44 DUP3 ADD MSTORE PUSH1 0x64 ADD PUSH2 0x813 JUMP JUMPDEST PUSH1 0x0 DUP3 PUSH1 0x1 PUSH1 0x1 PUSH1 0xA0 SHL SUB AND DUP3 PUSH1 0x40 MLOAD PUSH1 0x0 PUSH1 0x40 MLOAD DUP1 DUP4 SUB DUP2 DUP6 DUP8 GAS CALL SWAP3 POP POP POP RETURNDATASIZE DUP1 PUSH1 0x0 DUP2 EQ PUSH2 0x2189 JUMPI PUSH1 0x40 MLOAD SWAP2 POP PUSH1 0x1F NOT PUSH1 0x3F RETURNDATASIZE ADD AND DUP3 ADD PUSH1 0x40 MSTORE RETURNDATASIZE DUP3 MSTORE RETURNDATASIZE PUSH1 0x0 PUSH1 0x20 DUP5 ADD RETURNDATACOPY PUSH2 0x218E JUMP JUMPDEST PUSH1 0x60 SWAP2 POP JUMPDEST POP POP SWAP1 POP DUP1 PUSH2 0x8B4 JUMPI PUSH1 0x40 MLOAD PUSH3 0x461BCD PUSH1 0xE5 SHL DUP2 MSTORE PUSH1 0x20 PUSH1 0x4 DUP3 ADD MSTORE PUSH1 0x3A PUSH1 0x24 DUP3 ADD MSTORE PUSH32 0x416464726573733A20756E61626C6520746F2073656E642076616C75652C2072 PUSH1 0x44 DUP3 ADD MSTORE PUSH32 0x6563697069656E74206D61792068617665207265766572746564000000000000 PUSH1 0x64 DUP3 ADD MSTORE PUSH1 0x84 ADD PUSH2 0x813 JUMP JUMPDEST PUSH1 0x1 PUSH1 0x1 PUSH1 0xA0 SHL SUB DUP3 AND PUSH2 0x225B JUMPI PUSH1 0x40 MLOAD PUSH3 0x461BCD PUSH1 0xE5 SHL DUP2 MSTORE PUSH1 0x20 PUSH1 0x4 DUP3 ADD DUP2 SWAP1 MSTORE PUSH1 0x24 DUP3 ADD MSTORE PUSH32 0x4552433732313A206D696E7420746F20746865207A65726F2061646472657373 PUSH1 0x44 DUP3 ADD MSTORE PUSH1 0x64 ADD PUSH2 0x813 JUMP JUMPDEST PUSH1 0x0 DUP2 DUP2 MSTORE PUSH1 0x2 PUSH1 0x20 MSTORE PUSH1 0x40 SWAP1 KECCAK256 SLOAD PUSH1 0x1 PUSH1 0x1 PUSH1 0xA0 SHL SUB AND ISZERO PUSH2 0x22C0 JUMPI PUSH1 0x40 MLOAD PUSH3 0x461BCD PUSH1 0xE5 SHL DUP2 MSTORE PUSH1 0x20 PUSH1 0x4 DUP3 ADD MSTORE PUSH1 0x1C PUSH1 0x24 DUP3 ADD MSTORE PUSH32 0x4552433732313A20746F6B656E20616C7265616479206D696E74656400000000 PUSH1 0x44 DUP3 ADD MSTORE PUSH1 0x64 ADD PUSH2 0x813 JUMP JUMPDEST PUSH1 0x1 PUSH1 0x1 PUSH1 0xA0 SHL SUB DUP3 AND PUSH1 0x0 SWAP1 DUP2 MSTORE PUSH1 0x3 PUSH1 0x20 MSTORE PUSH1 0x40 DUP2 KECCAK256 DUP1 SLOAD PUSH1 0x1 SWAP3 SWAP1 PUSH2 0x22E9 SWAP1 DUP5 SWAP1 PUSH2 0x292D JUMP JUMPDEST SWAP1 SWAP2 SSTORE POP POP PUSH1 0x0 DUP2 DUP2 MSTORE PUSH1 0x2 PUSH1 0x20 MSTORE PUSH1 0x40 DUP1 DUP3 KECCAK256 DUP1 SLOAD PUSH1 0x1 PUSH1 0x1 PUSH1 0xA0 SHL SUB NOT AND PUSH1 0x1 PUSH1 0x1 PUSH1 0xA0 SHL SUB DUP7 AND SWAP1 DUP2 OR SWAP1 SWAP2 SSTORE SWAP1 MLOAD DUP4 SWAP3 SWAP1 PUSH32 0xDDF252AD1BE2C89B69C2B068FC378DAA952BA7F163C4A11628F55A4DF523B3EF SWAP1 DUP3 SWAP1 LOG4 POP POP JUMP JUMPDEST PUSH1 0x1 PUSH1 0x1 PUSH1 0xE0 SHL SUB NOT DUP2 AND DUP2 EQ PUSH2 0x9A7 JUMPI PUSH1 0x0 DUP1 REVERT JUMPDEST PUSH1 0x0 PUSH1 0x20 DUP3 DUP5 SUB SLT ISZERO PUSH2 0x236F JUMPI PUSH1 0x0 DUP1 REVERT JUMPDEST DUP2 CALLDATALOAD PUSH2 0xB86 DUP2 PUSH2 0x2347 JUMP JUMPDEST PUSH1 0x0 JUMPDEST DUP4 DUP2 LT ISZERO PUSH2 0x2395 JUMPI DUP2 DUP2 ADD MLOAD DUP4 DUP3 ADD MSTORE PUSH1 0x20 ADD PUSH2 0x237D JUMP JUMPDEST DUP4 DUP2 GT ISZERO PUSH2 0xD2B JUMPI POP POP PUSH1 0x0 SWAP2 ADD MSTORE JUMP JUMPDEST PUSH1 0x0 DUP2 MLOAD DUP1 DUP5 MSTORE PUSH2 0x23BE DUP2 PUSH1 0x20 DUP7 ADD PUSH1 0x20 DUP7 ADD PUSH2 0x237A JUMP JUMPDEST PUSH1 0x1F ADD PUSH1 0x1F NOT AND SWAP3 SWAP1 SWAP3 ADD PUSH1 0x20 ADD SWAP3 SWAP2 POP POP JUMP JUMPDEST PUSH1 0x20 DUP2 MSTORE PUSH1 0x0 PUSH2 0xB86 PUSH1 0x20 DUP4 ADD DUP5 PUSH2 0x23A6 JUMP JUMPDEST PUSH1 0x0 PUSH1 0x20 DUP3 DUP5 SUB SLT ISZERO PUSH2 0x23F7 JUMPI PUSH1 0x0 DUP1 REVERT JUMPDEST POP CALLDATALOAD SWAP2 SWAP1 POP JUMP JUMPDEST PUSH1 0x1 PUSH1 0x1 PUSH1 0xA0 SHL SUB DUP2 AND DUP2 EQ PUSH2 0x9A7 JUMPI PUSH1 0x0 DUP1 REVERT JUMPDEST PUSH1 0x0 DUP1 PUSH1 0x40 DUP4 DUP6 SUB SLT ISZERO PUSH2 0x2426 JUMPI PUSH1 0x0 DUP1 REVERT JUMPDEST DUP3 CALLDATALOAD PUSH2 0x2431 DUP2 PUSH2 0x23FE JUMP JUMPDEST SWAP5 PUSH1 0x20 SWAP4 SWAP1 SWAP4 ADD CALLDATALOAD SWAP4 POP POP POP JUMP JUMPDEST PUSH1 0x0 PUSH1 0x20 DUP3 DUP5 SUB SLT ISZERO PUSH2 0x2451 JUMPI PUSH1 0x0 DUP1 REVERT JUMPDEST DUP2 CALLDATALOAD PUSH2 0xB86 DUP2 PUSH2 0x23FE JUMP JUMPDEST PUSH4 0x4E487B71 PUSH1 0xE0 SHL PUSH1 0x0 MSTORE PUSH1 0x41 PUSH1 0x4 MSTORE PUSH1 0x24 PUSH1 0x0 REVERT JUMPDEST PUSH1 0x40 MLOAD PUSH1 0xE0 DUP2 ADD PUSH8 0xFFFFFFFFFFFFFFFF DUP2 GT DUP3 DUP3 LT OR ISZERO PUSH2 0x2495 JUMPI PUSH2 0x2495 PUSH2 0x245C JUMP JUMPDEST PUSH1 0x40 MSTORE SWAP1 JUMP JUMPDEST PUSH1 0x40 MLOAD PUSH1 0x1F DUP3 ADD PUSH1 0x1F NOT AND DUP2 ADD PUSH8 0xFFFFFFFFFFFFFFFF DUP2 GT DUP3 DUP3 LT OR ISZERO PUSH2 0x24C4 JUMPI PUSH2 0x24C4 PUSH2 0x245C JUMP JUMPDEST PUSH1 0x40 MSTORE SWAP2 SWAP1 POP JUMP JUMPDEST PUSH1 0x0 DUP1 PUSH1 0x40 DUP4 DUP6 SUB SLT ISZERO PUSH2 0x24DF JUMPI PUSH1 0x0 DUP1 REVERT JUMPDEST DUP3 CALLDATALOAD SWAP2 POP PUSH1 0x20 DUP1 DUP5 ADD CALLDATALOAD PUSH8 0xFFFFFFFFFFFFFFFF DUP1 DUP3 GT ISZERO PUSH2 0x24FF JUMPI PUSH1 0x0 DUP1 REVERT JUMPDEST DUP2 DUP7 ADD SWAP2 POP DUP7 PUSH1 0x1F DUP4 ADD SLT PUSH2 0x2513 JUMPI PUSH1 0x0 DUP1 REVERT JUMPDEST DUP2 CALLDATALOAD DUP2 DUP2 GT ISZERO PUSH2 0x2525 JUMPI PUSH2 0x2525 PUSH2 0x245C JUMP JUMPDEST DUP1 PUSH1 0x5 SHL SWAP2 POP PUSH2 0x2536 DUP5 DUP4 ADD PUSH2 0x249B JUMP JUMPDEST DUP2 DUP2 MSTORE SWAP2 DUP4 ADD DUP5 ADD SWAP2 DUP5 DUP2 ADD SWAP1 DUP10 DUP5 GT ISZERO PUSH2 0x2550 JUMPI PUSH1 0x0 DUP1 REVERT JUMPDEST SWAP4 DUP6 ADD SWAP4 JUMPDEST DUP4 DUP6 LT ISZERO PUSH2 0x256E JUMPI DUP5 CALLDATALOAD DUP3 MSTORE SWAP4 DUP6 ADD SWAP4 SWAP1 DUP6 ADD SWAP1 PUSH2 0x2555 JUMP JUMPDEST DUP1 SWAP7 POP POP POP POP POP POP POP SWAP3 POP SWAP3 SWAP1 POP JUMP JUMPDEST PUSH1 0x0 DUP1 PUSH1 0x0 PUSH1 0x60 DUP5 DUP7 SUB SLT ISZERO PUSH2 0x2593 JUMPI PUSH1 0x0 DUP1 REVERT JUMPDEST DUP4 CALLDATALOAD PUSH2 0x259E DUP2 PUSH2 0x23FE JUMP JUMPDEST SWAP3 POP PUSH1 0x20 DUP5 ADD CALLDATALOAD PUSH2 0x25AE DUP2 PUSH2 0x23FE JUMP JUMPDEST SWAP3 SWAP6 SWAP3 SWAP5 POP POP POP PUSH1 0x40 SWAP2 SWAP1 SWAP2 ADD CALLDATALOAD SWAP1 JUMP JUMPDEST DUP1 CALLDATALOAD DUP1 ISZERO ISZERO DUP2 EQ PUSH2 0x25CF JUMPI PUSH1 0x0 DUP1 REVERT JUMPDEST SWAP2 SWAP1 POP JUMP JUMPDEST PUSH1 0x0 PUSH1 0xE0 DUP3 DUP5 SUB SLT ISZERO PUSH2 0x25E6 JUMPI PUSH1 0x0 DUP1 REVERT JUMPDEST PUSH2 0x25EE PUSH2 0x2472 JUMP JUMPDEST DUP3 CALLDATALOAD DUP2 MSTORE PUSH1 0x20 DUP1 DUP5 ADD CALLDATALOAD SWAP1 DUP3 ADD MSTORE PUSH1 0x40 DUP1 DUP5 ADD CALLDATALOAD SWAP1 DUP3 ADD MSTORE PUSH1 0x60 DUP4 ADD CALLDATALOAD PUSH1 0x1 PUSH1 0x1 PUSH1 0xF8 SHL SUB DUP2 AND DUP2 EQ PUSH2 0x2620 JUMPI PUSH1 0x0 DUP1 REVERT JUMPDEST PUSH1 0x60 DUP3 ADD MSTORE PUSH2 0x2631 PUSH1 0x80 DUP5 ADD PUSH2 0x25BF JUMP JUMPDEST PUSH1 0x80 DUP3 ADD MSTORE PUSH2 0x2642 PUSH1 0xA0 DUP5 ADD PUSH2 0x25BF JUMP JUMPDEST PUSH1 0xA0 DUP3 ADD MSTORE PUSH2 0x2653 PUSH1 0xC0 DUP5 ADD PUSH2 0x25BF JUMP JUMPDEST PUSH1 0xC0 DUP3 ADD MSTORE SWAP4 SWAP3 POP POP POP JUMP JUMPDEST PUSH1 0x0 DUP1 PUSH1 0x40 DUP4 DUP6 SUB SLT ISZERO PUSH2 0x2672 JUMPI PUSH1 0x0 DUP1 REVERT JUMPDEST POP POP DUP1 CALLDATALOAD SWAP3 PUSH1 0x20 SWAP1 SWAP2 ADD CALLDATALOAD SWAP2 POP JUMP JUMPDEST PUSH1 0x0 DUP1 PUSH1 0x40 DUP4 DUP6 SUB SLT ISZERO PUSH2 0x2694 JUMPI PUSH1 0x0 DUP1 REVERT JUMPDEST DUP3 CALLDATALOAD PUSH2 0x269F DUP2 PUSH2 0x23FE JUMP JUMPDEST SWAP2 POP PUSH2 0x26AD PUSH1 0x20 DUP5 ADD PUSH2 0x25BF JUMP JUMPDEST SWAP1 POP SWAP3 POP SWAP3 SWAP1 POP JUMP JUMPDEST PUSH1 0x0 DUP1 PUSH1 0x0 DUP1 PUSH1 0x80 DUP6 DUP8 SUB SLT ISZERO PUSH2 0x26CC JUMPI PUSH1 0x0 DUP1 REVERT JUMPDEST DUP5 CALLDATALOAD PUSH2 0x26D7 DUP2 PUSH2 0x23FE JUMP JUMPDEST SWAP4 POP PUSH1 0x20 DUP6 DUP2 ADD CALLDATALOAD PUSH2 0x26E8 DUP2 PUSH2 0x23FE JUMP JUMPDEST SWAP4 POP PUSH1 0x40 DUP7 ADD CALLDATALOAD SWAP3 POP PUSH1 0x60 DUP7 ADD CALLDATALOAD PUSH8 0xFFFFFFFFFFFFFFFF DUP1 DUP3 GT ISZERO PUSH2 0x270C JUMPI PUSH1 0x0 DUP1 REVERT JUMPDEST DUP2 DUP9 ADD SWAP2 POP DUP9 PUSH1 0x1F DUP4 ADD SLT PUSH2 0x2720 JUMPI PUSH1 0x0 DUP1 REVERT JUMPDEST DUP2 CALLDATALOAD DUP2 DUP2 GT ISZERO PUSH2 0x2732 JUMPI PUSH2 0x2732 PUSH2 0x245C JUMP JUMPDEST PUSH2 0x2744 PUSH1 0x1F DUP3 ADD PUSH1 0x1F NOT AND DUP6 ADD PUSH2 0x249B JUMP JUMPDEST SWAP2 POP DUP1 DUP3 MSTORE DUP10 DUP5 DUP3 DUP6 ADD ADD GT ISZERO PUSH2 0x275A JUMPI PUSH1 0x0 DUP1 REVERT JUMPDEST DUP1 DUP5 DUP5 ADD DUP6 DUP5 ADD CALLDATACOPY PUSH1 0x0 DUP5 DUP3 DUP5 ADD ADD MSTORE POP DUP1 SWAP4 POP POP POP POP SWAP3 SWAP6 SWAP2 SWAP5 POP SWAP3 POP JUMP JUMPDEST PUSH1 0x0 DUP1 PUSH1 0x40 DUP4 DUP6 SUB SLT ISZERO PUSH2 0x278D JUMPI PUSH1 0x0 DUP1 REVERT JUMPDEST DUP3 CALLDATALOAD PUSH2 0x2798 DUP2 PUSH2 0x23FE JUMP JUMPDEST SWAP2 POP PUSH1 0x20 DUP4 ADD CALLDATALOAD PUSH2 0x27A8 DUP2 PUSH2 0x23FE JUMP JUMPDEST DUP1 SWAP2 POP POP SWAP3 POP SWAP3 SWAP1 POP JUMP JUMPDEST PUSH1 0x1 DUP2 DUP2 SHR SWAP1 DUP3 AND DUP1 PUSH2 0x27C7 JUMPI PUSH1 0x7F DUP3 AND SWAP2 POP JUMPDEST PUSH1 0x20 DUP3 LT DUP2 SUB PUSH2 0x27E7 JUMPI PUSH4 0x4E487B71 PUSH1 0xE0 SHL PUSH1 0x0 MSTORE PUSH1 0x22 PUSH1 0x4 MSTORE PUSH1 0x24 PUSH1 0x0 REVERT JUMPDEST POP SWAP2 SWAP1 POP JUMP JUMPDEST PUSH1 0x20 DUP1 DUP3 MSTORE PUSH1 0x2E SWAP1 DUP3 ADD MSTORE PUSH32 0x4552433732313A2063616C6C6572206973206E6F7420746F6B656E206F776E65 PUSH1 0x40 DUP3 ADD MSTORE PUSH14 0x1C881B9BDC88185C1C1C9BDD9959 PUSH1 0x92 SHL PUSH1 0x60 DUP3 ADD MSTORE PUSH1 0x80 ADD SWAP1 JUMP JUMPDEST PUSH4 0x4E487B71 PUSH1 0xE0 SHL PUSH1 0x0 MSTORE PUSH1 0x11 PUSH1 0x4 MSTORE PUSH1 0x24 PUSH1 0x0 REVERT JUMPDEST PUSH1 0x0 DUP2 PUSH1 0x0 NOT DIV DUP4 GT DUP3 ISZERO ISZERO AND ISZERO PUSH2 0x286B JUMPI PUSH2 0x286B PUSH2 0x283B JUMP JUMPDEST POP MUL SWAP1 JUMP JUMPDEST PUSH1 0x0 DUP3 DUP3 LT ISZERO PUSH2 0x2882 JUMPI PUSH2 0x2882 PUSH2 0x283B JUMP JUMPDEST POP SUB SWAP1 JUMP JUMPDEST PUSH4 0x4E487B71 PUSH1 0xE0 SHL PUSH1 0x0 MSTORE PUSH1 0x1 PUSH1 0x4 MSTORE PUSH1 0x24 PUSH1 0x0 REVERT JUMPDEST PUSH1 0x0 DUP4 MLOAD PUSH2 0x28AF DUP2 DUP5 PUSH1 0x20 DUP9 ADD PUSH2 0x237A JUMP JUMPDEST DUP4 MLOAD SWAP1 DUP4 ADD SWAP1 PUSH2 0x28C3 DUP2 DUP4 PUSH1 0x20 DUP9 ADD PUSH2 0x237A JUMP JUMPDEST ADD SWAP5 SWAP4 POP POP POP POP JUMP JUMPDEST PUSH1 0x0 PUSH2 0xFFFF DUP1 DUP4 AND DUP2 DUP2 SUB PUSH2 0x28E3 JUMPI PUSH2 0x28E3 PUSH2 0x283B JUMP JUMPDEST PUSH1 0x1 ADD SWAP4 SWAP3 POP POP POP JUMP JUMPDEST PUSH4 0x4E487B71 PUSH1 0xE0 SHL PUSH1 0x0 MSTORE PUSH1 0x32 PUSH1 0x4 MSTORE PUSH1 0x24 PUSH1 0x0 REVERT JUMPDEST PUSH4 0x4E487B71 PUSH1 0xE0 SHL PUSH1 0x0 MSTORE PUSH1 0x12 PUSH1 0x4 MSTORE PUSH1 0x24 PUSH1 0x0 REVERT JUMPDEST PUSH1 0x0 DUP3 PUSH2 0x2928 JUMPI PUSH2 0x2928 PUSH2 0x2903 JUMP JUMPDEST POP MOD SWAP1 JUMP JUMPDEST PUSH1 0x0 DUP3 NOT DUP3 GT ISZERO PUSH2 0x2940 JUMPI PUSH2 0x2940 PUSH2 0x283B JUMP JUMPDEST POP ADD SWAP1 JUMP JUMPDEST PUSH1 0x20 DUP1 DUP3 MSTORE PUSH1 0x32 SWAP1 DUP3 ADD MSTORE PUSH32 0x4552433732313A207472616E7366657220746F206E6F6E204552433732315265 PUSH1 0x40 DUP3 ADD MSTORE PUSH18 0x31B2B4BB32B91034B6B83632B6B2B73A32B9 PUSH1 0x71 SHL PUSH1 0x60 DUP3 ADD MSTORE PUSH1 0x80 ADD SWAP1 JUMP JUMPDEST PUSH1 0x0 PUSH1 0x20 DUP3 DUP5 SUB SLT ISZERO PUSH2 0x29A9 JUMPI PUSH1 0x0 DUP1 REVERT JUMPDEST POP MLOAD SWAP2 SWAP1 POP JUMP JUMPDEST PUSH1 0x0 PUSH1 0x1 DUP3 ADD PUSH2 0x29C2 JUMPI PUSH2 0x29C2 PUSH2 0x283B JUMP JUMPDEST POP PUSH1 0x1 ADD SWAP1 JUMP JUMPDEST PUSH1 0x0 DUP3 PUSH2 0x29D8 JUMPI PUSH2 0x29D8 PUSH2 0x2903 JUMP JUMPDEST POP DIV SWAP1 JUMP JUMPDEST PUSH14 0x29B2B63632B91D1021B7B9BA399 PUSH1 0x95 SHL DUP2 MSTORE PUSH1 0x0 DUP3 MLOAD PUSH2 0x2A06 DUP2 PUSH1 0xE DUP6 ADD PUSH1 0x20 DUP8 ADD PUSH2 0x237A JUMP JUMPDEST PUSH5 0x2047576569 PUSH1 0xD8 SHL PUSH1 0xE SWAP4 SWAP1 SWAP2 ADD SWAP3 DUP4 ADD MSTORE POP PUSH1 0x13 ADD SWAP2 SWAP1 POP JUMP JUMPDEST PUSH1 0x1 PUSH1 0x1 PUSH1 0xA0 SHL SUB DUP6 DUP2 AND DUP3 MSTORE DUP5 AND PUSH1 0x20 DUP3 ADD MSTORE PUSH1 0x40 DUP2 ADD DUP4 SWAP1 MSTORE PUSH1 0x80 PUSH1 0x60 DUP3 ADD DUP2 SWAP1 MSTORE PUSH1 0x0 SWAP1 PUSH2 0x2A55 SWAP1 DUP4 ADD DUP5 PUSH2 0x23A6 JUMP JUMPDEST SWAP7 SWAP6 POP POP POP POP POP POP JUMP JUMPDEST PUSH1 0x0 PUSH1 0x20 DUP3 DUP5 SUB SLT ISZERO PUSH2 0x2A71 JUMPI PUSH1 0x0 DUP1 REVERT JUMPDEST DUP2 MLOAD PUSH2 0xB86 DUP2 PUSH2 0x2347 JUMP JUMPDEST PUSH8 0x29B2B63632B91D1 PUSH1 0xC5 SHL DUP2 MSTORE PUSH1 0x0 DUP3 MLOAD PUSH2 0x2A9F DUP2 PUSH1 0x8 DUP6 ADD PUSH1 0x20 DUP8 ADD PUSH2 0x237A JUMP JUMPDEST SWAP2 SWAP1 SWAP2 ADD PUSH1 0x8 ADD SWAP3 SWAP2 POP POP JUMP INVALID LOG2 PUSH5 0x6970667358 0x22 SLT KECCAK256 ADD 0xB3 0x5C 0x2F PUSH21 0xB5314428DD541838FC090EA10AF71EFD3A496B6FD8 0xC1 DUP6 0x4B 0x24 0xC5 0x5F PUSH5 0x736F6C6343 STOP ADDMOD 0xF STOP CALLER ",
  "sha1": "2d4f35a5290b9a3f9bb862d42192e530751da802",
  "source": "//SPDX-License-Identifier: MIT\n\npragma solidity >=0.8.10 <0.9.0;\n\nimport \"@openzeppelin/contracts/token/ERC721/ERC721.sol\";\nimport \"@chainlink/contracts/src/v0.8/VRFConsumerBaseV2.sol\";\nimport \"@chainlink/contracts/src/v0.8/interfaces/VRFCoordinatorV2Interface.sol\";\nimport \"@divergencetech/contracts/sales/FixedPriceSeller.sol\";\n\ncontract FrogxVerse is ERC721, VRFConsumerBaseV2, FixedPriceSeller {\n    VRFCoordinatorV2Interface private immutable i_vrfCoordinator;\n    bytes32 private immutable i_gasLane;\n    uint64 private immutable i_subscriptionId;\n    uint32 private immutable i_callbackGasLimit;\n    uint16 private constant REQUEST_CONFIRMATIONS = 3;\n    uint32 private constant NUM_WORDS = 1;\n    uint16[10000] public ids;\n    uint16 private index;\n    mapping(uint256 => address) public requestIdToMinter;\n\n    event RequestedMint(uint256 indexed requestId);\n    event FrogxelMinted(uint256 indexed tokenId);\n\n    constructor(\n        address _VRFCoordinator,\n        bytes32 _gasLane,\n        uint64 _subscriptionId,\n        uint32 _callbackGasLimit,\n        address payable beneficiary\n    )\n    ERC721(\"FrogxVerse\", \"FROGXEL\")\n    VRFConsumerBaseV2(_VRFCoordinator)\n    FixedPriceSeller(\n        0.01 ether,\n        Seller.SellerConfig({\n            totalInventory: 10,\n            lockTotalInventory: true,\n            maxPerAddress: 10,\n            maxPerTx: 1,\n            freeQuota: 1,\n            lockFreeQuota: false,\n            reserveFreeQuota: true\n\n        }),\n        beneficiary\n    )\n    {\n        i_vrfCoordinator = VRFCoordinatorV2Interface(_VRFCoordinator);\n        i_gasLane = _gasLane;\n        i_subscriptionId = _subscriptionId;\n        i_callbackGasLimit = _callbackGasLimit;\n    }\n\n    function mintFrogxel(address to) public payable {\n        _purchase(to, 1);\n    }\n\n    function fulfillRandomWords(uint256 requestId, uint256[] memory randomWords) internal override{\n        uint256 len = ids.length - index++;\n        require(len > 0, \"No Frogxels left\");\n        uint256 randomIndex = randomWords[0] % len;\n        uint256 tokenId = ids[randomIndex] != 0 ? ids[randomIndex] : randomIndex;\n        ids[randomIndex] = uint16(ids[len - 1] == 0 ? len - 1 : ids[len - 1]);\n        ids[len - 1] = 0;\n        _safeMint(requestIdToMinter[requestId], tokenId);\n        emit FrogxelMinted(tokenId);\n    }\n\n    function _handlePurchase(address to, uint256 n, bool) internal override {\n        uint256 requestId = i_vrfCoordinator.requestRandomWords(i_gasLane, i_subscriptionId, REQUEST_CONFIRMATIONS, i_callbackGasLimit, NUM_WORDS);\n        requestIdToMinter[requestId] = to;\n        emit RequestedMint(requestId);\n    }\n}",
  "sourcePath": "contracts/FrogxVerse.sol",
  "type": "contract"
}