{
  "abi": [
    {
      "inputs": [
        {
          "internalType": "address",
          "name": "_VRFCoordinator",
          "type": "address"
        },
        {
          "internalType": "bytes32",
          "name": "_gasLane",
          "type": "bytes32"
        },
        {
          "internalType": "uint64",
          "name": "_subscriptionId",
          "type": "uint64"
        },
        {
          "internalType": "uint32",
          "name": "_callbackGasLimit",
          "type": "uint32"
        }
      ],
      "stateMutability": "nonpayable",
      "type": "constructor"
    },
    {
      "inputs": [
        {
          "internalType": "address",
          "name": "have",
          "type": "address"
        },
        {
          "internalType": "address",
          "name": "want",
          "type": "address"
        }
      ],
      "name": "OnlyCoordinatorCanFulfill",
      "type": "error"
    },
    {
      "anonymous": false,
      "inputs": [
        {
          "indexed": true,
          "internalType": "address",
          "name": "owner",
          "type": "address"
        },
        {
          "indexed": true,
          "internalType": "address",
          "name": "approved",
          "type": "address"
        },
        {
          "indexed": true,
          "internalType": "uint256",
          "name": "tokenId",
          "type": "uint256"
        }
      ],
      "name": "Approval",
      "type": "event"
    },
    {
      "anonymous": false,
      "inputs": [
        {
          "indexed": true,
          "internalType": "address",
          "name": "owner",
          "type": "address"
        },
        {
          "indexed": true,
          "internalType": "address",
          "name": "operator",
          "type": "address"
        },
        {
          "indexed": false,
          "internalType": "bool",
          "name": "approved",
          "type": "bool"
        }
      ],
      "name": "ApprovalForAll",
      "type": "event"
    },
    {
      "anonymous": false,
      "inputs": [
        {
          "indexed": true,
          "internalType": "uint256",
          "name": "requestId",
          "type": "uint256"
        }
      ],
      "name": "RequestedMint",
      "type": "event"
    },
    {
      "anonymous": false,
      "inputs": [
        {
          "indexed": true,
          "internalType": "address",
          "name": "from",
          "type": "address"
        },
        {
          "indexed": true,
          "internalType": "address",
          "name": "to",
          "type": "address"
        },
        {
          "indexed": true,
          "internalType": "uint256",
          "name": "tokenId",
          "type": "uint256"
        }
      ],
      "name": "Transfer",
      "type": "event"
    },
    {
      "inputs": [
        {
          "internalType": "address",
          "name": "to",
          "type": "address"
        },
        {
          "internalType": "uint256",
          "name": "tokenId",
          "type": "uint256"
        }
      ],
      "name": "approve",
      "outputs": [],
      "stateMutability": "nonpayable",
      "type": "function"
    },
    {
      "inputs": [
        {
          "internalType": "address",
          "name": "owner",
          "type": "address"
        }
      ],
      "name": "balanceOf",
      "outputs": [
        {
          "internalType": "uint256",
          "name": "",
          "type": "uint256"
        }
      ],
      "stateMutability": "view",
      "type": "function"
    },
    {
      "inputs": [
        {
          "internalType": "uint256",
          "name": "tokenId",
          "type": "uint256"
        }
      ],
      "name": "getApproved",
      "outputs": [
        {
          "internalType": "address",
          "name": "",
          "type": "address"
        }
      ],
      "stateMutability": "view",
      "type": "function"
    },
    {
      "inputs": [
        {
          "internalType": "address",
          "name": "owner",
          "type": "address"
        },
        {
          "internalType": "address",
          "name": "operator",
          "type": "address"
        }
      ],
      "name": "isApprovedForAll",
      "outputs": [
        {
          "internalType": "bool",
          "name": "",
          "type": "bool"
        }
      ],
      "stateMutability": "view",
      "type": "function"
    },
    {
      "inputs": [
        {
          "internalType": "address",
          "name": "to",
          "type": "address"
        },
        {
          "internalType": "uint256",
          "name": "tokenId",
          "type": "uint256"
        }
      ],
      "name": "mintFrogxel",
      "outputs": [],
      "stateMutability": "nonpayable",
      "type": "function"
    },
    {
      "inputs": [],
      "name": "name",
      "outputs": [
        {
          "internalType": "string",
          "name": "",
          "type": "string"
        }
      ],
      "stateMutability": "view",
      "type": "function"
    },
    {
      "inputs": [
        {
          "internalType": "uint256",
          "name": "tokenId",
          "type": "uint256"
        }
      ],
      "name": "ownerOf",
      "outputs": [
        {
          "internalType": "address",
          "name": "",
          "type": "address"
        }
      ],
      "stateMutability": "view",
      "type": "function"
    },
    {
      "inputs": [
        {
          "internalType": "uint256",
          "name": "requestId",
          "type": "uint256"
        },
        {
          "internalType": "uint256[]",
          "name": "randomWords",
          "type": "uint256[]"
        }
      ],
      "name": "rawFulfillRandomWords",
      "outputs": [],
      "stateMutability": "nonpayable",
      "type": "function"
    },
    {
      "inputs": [
        {
          "internalType": "address",
          "name": "from",
          "type": "address"
        },
        {
          "internalType": "address",
          "name": "to",
          "type": "address"
        },
        {
          "internalType": "uint256",
          "name": "tokenId",
          "type": "uint256"
        }
      ],
      "name": "safeTransferFrom",
      "outputs": [],
      "stateMutability": "nonpayable",
      "type": "function"
    },
    {
      "inputs": [
        {
          "internalType": "address",
          "name": "from",
          "type": "address"
        },
        {
          "internalType": "address",
          "name": "to",
          "type": "address"
        },
        {
          "internalType": "uint256",
          "name": "tokenId",
          "type": "uint256"
        },
        {
          "internalType": "bytes",
          "name": "data",
          "type": "bytes"
        }
      ],
      "name": "safeTransferFrom",
      "outputs": [],
      "stateMutability": "nonpayable",
      "type": "function"
    },
    {
      "inputs": [
        {
          "internalType": "address",
          "name": "operator",
          "type": "address"
        },
        {
          "internalType": "bool",
          "name": "approved",
          "type": "bool"
        }
      ],
      "name": "setApprovalForAll",
      "outputs": [],
      "stateMutability": "nonpayable",
      "type": "function"
    },
    {
      "inputs": [
        {
          "internalType": "bytes4",
          "name": "interfaceId",
          "type": "bytes4"
        }
      ],
      "name": "supportsInterface",
      "outputs": [
        {
          "internalType": "bool",
          "name": "",
          "type": "bool"
        }
      ],
      "stateMutability": "view",
      "type": "function"
    },
    {
      "inputs": [],
      "name": "symbol",
      "outputs": [
        {
          "internalType": "string",
          "name": "",
          "type": "string"
        }
      ],
      "stateMutability": "view",
      "type": "function"
    },
    {
      "inputs": [
        {
          "internalType": "uint256",
          "name": "tokenId",
          "type": "uint256"
        }
      ],
      "name": "tokenURI",
      "outputs": [
        {
          "internalType": "string",
          "name": "",
          "type": "string"
        }
      ],
      "stateMutability": "view",
      "type": "function"
    },
    {
      "inputs": [
        {
          "internalType": "address",
          "name": "from",
          "type": "address"
        },
        {
          "internalType": "address",
          "name": "to",
          "type": "address"
        },
        {
          "internalType": "uint256",
          "name": "tokenId",
          "type": "uint256"
        }
      ],
      "name": "transferFrom",
      "outputs": [],
      "stateMutability": "nonpayable",
      "type": "function"
    }
  ],
  "bytecode": "6101206040523480156200001257600080fd5b5060405162001731380380620017318339810160408190526200003591620000d3565b836040518060400160405280600a81526020016946726f6778566572736560b01b81525060405180604001604052806007815260200166119493d1d6115360ca1b81525081600090816200008a9190620001f2565b506001620000998282620001f2565b5050506001600160a01b039081166080529390931660a05260c0919091526001600160401b031660e05263ffffffff1661010052620002be565b60008060008060808587031215620000ea57600080fd5b84516001600160a01b03811681146200010257600080fd5b6020860151604087015191955093506001600160401b03811681146200012757600080fd5b606086015190925063ffffffff811681146200014257600080fd5b939692955090935050565b634e487b7160e01b600052604160045260246000fd5b600181811c908216806200017857607f821691505b6020821081036200019957634e487b7160e01b600052602260045260246000fd5b50919050565b601f821115620001ed57600081815260208120601f850160051c81016020861015620001c85750805b601f850160051c820191505b81811015620001e957828155600101620001d4565b5050505b505050565b81516001600160401b038111156200020e576200020e6200014d565b62000226816200021f845462000163565b846200019f565b602080601f8311600181146200025e5760008415620002455750858301515b600019600386901b1c1916600185901b178555620001e9565b600085815260208120601f198616915b828110156200028f578886015182559484019460019091019084016200026e565b5085821015620002ae5787850151600019600388901b60f8161c191681555b5050505050600190811b01905550565b60805160a05160c05160e051610100516114276200030a60003960006106d4015260006106a101526000610672015260006107050152600081816104a401526104e601526114276000f3fe608060405234801561001057600080fd5b50600436106100f55760003560e01c80636352211e11610097578063ab85309011610066578063ab853090146101ff578063b88d4fde14610212578063c87b56dd14610225578063e985e9c51461023857600080fd5b80636352211e146101b057806370a08231146101c357806395d89b41146101e4578063a22cb465146101ec57600080fd5b8063095ea7b3116100d3578063095ea7b3146101625780631fe543e31461017757806323b872dd1461018a57806342842e0e1461019d57600080fd5b806301ffc9a7146100fa57806306fdde0314610122578063081812fc14610137575b600080fd5b61010d610108366004610e5d565b610274565b60405190151581526020015b60405180910390f35b61012a6102c6565b6040516101199190610ed2565b61014a610145366004610ee5565b610358565b6040516001600160a01b039091168152602001610119565b610175610170366004610f1a565b61037f565b005b610175610185366004610f8b565b610499565b61017561019836600461103d565b610517565b6101756101ab36600461103d565b610548565b61014a6101be366004610ee5565b610563565b6101d66101d1366004611079565b6105c3565b604051908152602001610119565b61012a610649565b6101756101fa366004611094565b610658565b61017561020d366004610f1a565b610663565b6101756102203660046110d0565b6107ad565b61012a610233366004610ee5565b6107e5565b61010d610246366004611190565b6001600160a01b03918216600090815260056020908152604080832093909416825291909152205460ff1690565b60006001600160e01b031982166380ac58cd60e01b14806102a557506001600160e01b03198216635b5e139f60e01b145b806102c057506301ffc9a760e01b6001600160e01b03198316145b92915050565b6060600080546102d5906111c3565b80601f0160208091040260200160405190810160405280929190818152602001828054610301906111c3565b801561034e5780601f106103235761010080835404028352916020019161034e565b820191906000526020600020905b81548152906001019060200180831161033157829003601f168201915b5050505050905090565b600061036382610859565b506000908152600460205260409020546001600160a01b031690565b600061038a82610563565b9050806001600160a01b0316836001600160a01b0316036103fc5760405162461bcd60e51b815260206004820152602160248201527f4552433732313a20617070726f76616c20746f2063757272656e74206f776e656044820152603960f91b60648201526084015b60405180910390fd5b336001600160a01b038216148061041857506104188133610246565b61048a5760405162461bcd60e51b815260206004820152603e60248201527f4552433732313a20617070726f76652063616c6c6572206973206e6f7420746f60448201527f6b656e206f776e6572206e6f7220617070726f76656420666f7220616c6c000060648201526084016103f3565b61049483836108bb565b505050565b336001600160a01b037f000000000000000000000000000000000000000000000000000000000000000016146105135760405163073e64fd60e21b81523360048201526001600160a01b037f00000000000000000000000000000000000000000000000000000000000000001660248201526044016103f3565b5050565b6105213382610929565b61053d5760405162461bcd60e51b81526004016103f3906111fd565b6104948383836109a8565b610494838383604051806020016040528060008152506107ad565b6000818152600260205260408120546001600160a01b0316806102c05760405162461bcd60e51b8152602060048201526018602482015277115490cdcc8c4e881a5b9d985b1a59081d1bdad95b88125160421b60448201526064016103f3565b60006001600160a01b03821661062d5760405162461bcd60e51b815260206004820152602960248201527f4552433732313a2061646472657373207a65726f206973206e6f7420612076616044820152683634b21037bbb732b960b91b60648201526084016103f3565b506001600160a01b031660009081526003602052604090205490565b6060600180546102d5906111c3565b610513338383610b44565b6040516305d3b1d360e41b81527f0000000000000000000000000000000000000000000000000000000000000000600482015267ffffffffffffffff7f00000000000000000000000000000000000000000000000000000000000000001660248201526003604482015263ffffffff7f0000000000000000000000000000000000000000000000000000000000000000166064820152600160848201526000907f00000000000000000000000000000000000000000000000000000000000000006001600160a01b031690635d3b1d309060a4016020604051808303816000875af1158015610756573d6000803e3d6000fd5b505050506040513d601f19601f8201168201806040525081019061077a919061124b565b60405190915081907ff76e87796e0d30d26631c878e060e8f2713f3ff6cbca914adc1535ca58fb26fc90600090a2505050565b6107b73383610929565b6107d35760405162461bcd60e51b81526004016103f3906111fd565b6107df84848484610c12565b50505050565b60606107f082610859565b600061080760408051602081019091526000815290565b905060008151116108275760405180602001604052806000815250610852565b8061083184610c45565b604051602001610842929190611264565b6040516020818303038152906040525b9392505050565b6000818152600260205260409020546001600160a01b03166108b85760405162461bcd60e51b8152602060048201526018602482015277115490cdcc8c4e881a5b9d985b1a59081d1bdad95b88125160421b60448201526064016103f3565b50565b600081815260046020526040902080546001600160a01b0319166001600160a01b03841690811790915581906108f082610563565b6001600160a01b03167f8c5be1e5ebec7d5bd14f71427d1e84f3dd0314c0f7b2291e5b200ac8c7c3b92560405160405180910390a45050565b60008061093583610563565b9050806001600160a01b0316846001600160a01b0316148061097c57506001600160a01b0380821660009081526005602090815260408083209388168352929052205460ff165b806109a05750836001600160a01b031661099584610358565b6001600160a01b0316145b949350505050565b826001600160a01b03166109bb82610563565b6001600160a01b031614610a1f5760405162461bcd60e51b815260206004820152602560248201527f4552433732313a207472616e736665722066726f6d20696e636f72726563742060448201526437bbb732b960d91b60648201526084016103f3565b6001600160a01b038216610a815760405162461bcd60e51b8152602060048201526024808201527f4552433732313a207472616e7366657220746f20746865207a65726f206164646044820152637265737360e01b60648201526084016103f3565b610a8c6000826108bb565b6001600160a01b0383166000908152600360205260408120805460019290610ab59084906112a9565b90915550506001600160a01b0382166000908152600360205260408120805460019290610ae39084906112c0565b909155505060008181526002602052604080822080546001600160a01b0319166001600160a01b0386811691821790925591518493918716917fddf252ad1be2c89b69c2b068fc378daa952ba7f163c4a11628f55a4df523b3ef91a4505050565b816001600160a01b0316836001600160a01b031603610ba55760405162461bcd60e51b815260206004820152601960248201527f4552433732313a20617070726f766520746f2063616c6c65720000000000000060448201526064016103f3565b6001600160a01b03838116600081815260056020908152604080832094871680845294825291829020805460ff191686151590811790915591519182527f17307eab39ab6107e8899845ad3d59bd9653f200f220920489ca2b5937696c31910160405180910390a3505050565b610c1d8484846109a8565b610c2984848484610d46565b6107df5760405162461bcd60e51b81526004016103f3906112d8565b606081600003610c6c5750506040805180820190915260018152600360fc1b602082015290565b8160005b8115610c965780610c808161132a565b9150610c8f9050600a83611359565b9150610c70565b60008167ffffffffffffffff811115610cb157610cb1610f44565b6040519080825280601f01601f191660200182016040528015610cdb576020820181803683370190505b5090505b84156109a057610cf06001836112a9565b9150610cfd600a8661136d565b610d089060306112c0565b60f81b818381518110610d1d57610d1d611381565b60200101906001600160f81b031916908160001a905350610d3f600a86611359565b9450610cdf565b60006001600160a01b0384163b15610e3c57604051630a85bd0160e11b81526001600160a01b0385169063150b7a0290610d8a903390899088908890600401611397565b6020604051808303816000875af1925050508015610dc5575060408051601f3d908101601f19168201909252610dc2918101906113d4565b60015b610e22573d808015610df3576040519150601f19603f3d011682016040523d82523d6000602084013e610df8565b606091505b508051600003610e1a5760405162461bcd60e51b81526004016103f3906112d8565b805181602001fd5b6001600160e01b031916630a85bd0160e11b1490506109a0565b506001949350505050565b6001600160e01b0319811681146108b857600080fd5b600060208284031215610e6f57600080fd5b813561085281610e47565b60005b83811015610e95578181015183820152602001610e7d565b838111156107df5750506000910152565b60008151808452610ebe816020860160208601610e7a565b601f01601f19169290920160200192915050565b6020815260006108526020830184610ea6565b600060208284031215610ef757600080fd5b5035919050565b80356001600160a01b0381168114610f1557600080fd5b919050565b60008060408385031215610f2d57600080fd5b610f3683610efe565b946020939093013593505050565b634e487b7160e01b600052604160045260246000fd5b604051601f8201601f1916810167ffffffffffffffff81118282101715610f8357610f83610f44565b604052919050565b60008060408385031215610f9e57600080fd5b8235915060208084013567ffffffffffffffff80821115610fbe57600080fd5b818601915086601f830112610fd257600080fd5b813581811115610fe457610fe4610f44565b8060051b9150610ff5848301610f5a565b818152918301840191848101908984111561100f57600080fd5b938501935b8385101561102d57843582529385019390850190611014565b8096505050505050509250929050565b60008060006060848603121561105257600080fd5b61105b84610efe565b925061106960208501610efe565b9150604084013590509250925092565b60006020828403121561108b57600080fd5b61085282610efe565b600080604083850312156110a757600080fd5b6110b083610efe565b9150602083013580151581146110c557600080fd5b809150509250929050565b600080600080608085870312156110e657600080fd5b6110ef85610efe565b935060206110fe818701610efe565b935060408601359250606086013567ffffffffffffffff8082111561112257600080fd5b818801915088601f83011261113657600080fd5b81358181111561114857611148610f44565b61115a601f8201601f19168501610f5a565b9150808252898482850101111561117057600080fd5b808484018584013760008482840101525080935050505092959194509250565b600080604083850312156111a357600080fd5b6111ac83610efe565b91506111ba60208401610efe565b90509250929050565b600181811c908216806111d757607f821691505b6020821081036111f757634e487b7160e01b600052602260045260246000fd5b50919050565b6020808252602e908201527f4552433732313a2063616c6c6572206973206e6f7420746f6b656e206f776e6560408201526d1c881b9bdc88185c1c1c9bdd995960921b606082015260800190565b60006020828403121561125d57600080fd5b5051919050565b60008351611276818460208801610e7a565b83519083019061128a818360208801610e7a565b01949350505050565b634e487b7160e01b600052601160045260246000fd5b6000828210156112bb576112bb611293565b500390565b600082198211156112d3576112d3611293565b500190565b60208082526032908201527f4552433732313a207472616e7366657220746f206e6f6e20455243373231526560408201527131b2b4bb32b91034b6b83632b6b2b73a32b960711b606082015260800190565b60006001820161133c5761133c611293565b5060010190565b634e487b7160e01b600052601260045260246000fd5b60008261136857611368611343565b500490565b60008261137c5761137c611343565b500690565b634e487b7160e01b600052603260045260246000fd5b6001600160a01b03858116825284166020820152604081018390526080606082018190526000906113ca90830184610ea6565b9695505050505050565b6000602082840312156113e657600080fd5b815161085281610e4756fea2646970667358221220840830f9d3f27804c62fa0e78dd2382a683666f598e954ce7c78350c827ca85364736f6c634300080f0033",
  "bytecodeSha1": "40c0cb8603d473c768a9306fef10cf437a4913d8",
  "compiler": {
    "evm_version": "istanbul",
    "optimizer": {
      "enabled": true,
      "runs": 200
    },
    "version": "0.8.15+commit.e14f2714"
  },
  "contractName": "FrogxVerse",
  "language": "Solidity",
  "natspec": {
    "kind": "dev",
    "methods": {
      "approve(address,uint256)": {
        "details": "See {IERC721-approve}."
      },
      "balanceOf(address)": {
        "details": "See {IERC721-balanceOf}."
      },
      "getApproved(uint256)": {
        "details": "See {IERC721-getApproved}."
      },
      "isApprovedForAll(address,address)": {
        "details": "See {IERC721-isApprovedForAll}."
      },
      "name()": {
        "details": "See {IERC721Metadata-name}."
      },
      "ownerOf(uint256)": {
        "details": "See {IERC721-ownerOf}."
      },
      "safeTransferFrom(address,address,uint256)": {
        "details": "See {IERC721-safeTransferFrom}."
      },
      "safeTransferFrom(address,address,uint256,bytes)": {
        "details": "See {IERC721-safeTransferFrom}."
      },
      "setApprovalForAll(address,bool)": {
        "details": "See {IERC721-setApprovalForAll}."
      },
      "supportsInterface(bytes4)": {
        "details": "See {IERC165-supportsInterface}."
      },
      "symbol()": {
        "details": "See {IERC721Metadata-symbol}."
      },
      "tokenURI(uint256)": {
        "details": "See {IERC721Metadata-tokenURI}."
      },
      "transferFrom(address,address,uint256)": {
        "details": "See {IERC721-transferFrom}."
      }
    },
    "version": 1
  },
  "opcodes": "PUSH1 0x80 PUSH1 0x40 MSTORE CALLVALUE DUP1 ISZERO PUSH2 0x10 JUMPI PUSH1 0x0 DUP1 REVERT JUMPDEST POP PUSH1 0x4 CALLDATASIZE LT PUSH2 0xF5 JUMPI PUSH1 0x0 CALLDATALOAD PUSH1 0xE0 SHR DUP1 PUSH4 0x6352211E GT PUSH2 0x97 JUMPI DUP1 PUSH4 0xAB853090 GT PUSH2 0x66 JUMPI DUP1 PUSH4 0xAB853090 EQ PUSH2 0x1FF JUMPI DUP1 PUSH4 0xB88D4FDE EQ PUSH2 0x212 JUMPI DUP1 PUSH4 0xC87B56DD EQ PUSH2 0x225 JUMPI DUP1 PUSH4 0xE985E9C5 EQ PUSH2 0x238 JUMPI PUSH1 0x0 DUP1 REVERT JUMPDEST DUP1 PUSH4 0x6352211E EQ PUSH2 0x1B0 JUMPI DUP1 PUSH4 0x70A08231 EQ PUSH2 0x1C3 JUMPI DUP1 PUSH4 0x95D89B41 EQ PUSH2 0x1E4 JUMPI DUP1 PUSH4 0xA22CB465 EQ PUSH2 0x1EC JUMPI PUSH1 0x0 DUP1 REVERT JUMPDEST DUP1 PUSH4 0x95EA7B3 GT PUSH2 0xD3 JUMPI DUP1 PUSH4 0x95EA7B3 EQ PUSH2 0x162 JUMPI DUP1 PUSH4 0x1FE543E3 EQ PUSH2 0x177 JUMPI DUP1 PUSH4 0x23B872DD EQ PUSH2 0x18A JUMPI DUP1 PUSH4 0x42842E0E EQ PUSH2 0x19D JUMPI PUSH1 0x0 DUP1 REVERT JUMPDEST DUP1 PUSH4 0x1FFC9A7 EQ PUSH2 0xFA JUMPI DUP1 PUSH4 0x6FDDE03 EQ PUSH2 0x122 JUMPI DUP1 PUSH4 0x81812FC EQ PUSH2 0x137 JUMPI JUMPDEST PUSH1 0x0 DUP1 REVERT JUMPDEST PUSH2 0x10D PUSH2 0x108 CALLDATASIZE PUSH1 0x4 PUSH2 0xE5D JUMP JUMPDEST PUSH2 0x274 JUMP JUMPDEST PUSH1 0x40 MLOAD SWAP1 ISZERO ISZERO DUP2 MSTORE PUSH1 0x20 ADD JUMPDEST PUSH1 0x40 MLOAD DUP1 SWAP2 SUB SWAP1 RETURN JUMPDEST PUSH2 0x12A PUSH2 0x2C6 JUMP JUMPDEST PUSH1 0x40 MLOAD PUSH2 0x119 SWAP2 SWAP1 PUSH2 0xED2 JUMP JUMPDEST PUSH2 0x14A PUSH2 0x145 CALLDATASIZE PUSH1 0x4 PUSH2 0xEE5 JUMP JUMPDEST PUSH2 0x358 JUMP JUMPDEST PUSH1 0x40 MLOAD PUSH1 0x1 PUSH1 0x1 PUSH1 0xA0 SHL SUB SWAP1 SWAP2 AND DUP2 MSTORE PUSH1 0x20 ADD PUSH2 0x119 JUMP JUMPDEST PUSH2 0x175 PUSH2 0x170 CALLDATASIZE PUSH1 0x4 PUSH2 0xF1A JUMP JUMPDEST PUSH2 0x37F JUMP JUMPDEST STOP JUMPDEST PUSH2 0x175 PUSH2 0x185 CALLDATASIZE PUSH1 0x4 PUSH2 0xF8B JUMP JUMPDEST PUSH2 0x499 JUMP JUMPDEST PUSH2 0x175 PUSH2 0x198 CALLDATASIZE PUSH1 0x4 PUSH2 0x103D JUMP JUMPDEST PUSH2 0x517 JUMP JUMPDEST PUSH2 0x175 PUSH2 0x1AB CALLDATASIZE PUSH1 0x4 PUSH2 0x103D JUMP JUMPDEST PUSH2 0x548 JUMP JUMPDEST PUSH2 0x14A PUSH2 0x1BE CALLDATASIZE PUSH1 0x4 PUSH2 0xEE5 JUMP JUMPDEST PUSH2 0x563 JUMP JUMPDEST PUSH2 0x1D6 PUSH2 0x1D1 CALLDATASIZE PUSH1 0x4 PUSH2 0x1079 JUMP JUMPDEST PUSH2 0x5C3 JUMP JUMPDEST PUSH1 0x40 MLOAD SWAP1 DUP2 MSTORE PUSH1 0x20 ADD PUSH2 0x119 JUMP JUMPDEST PUSH2 0x12A PUSH2 0x649 JUMP JUMPDEST PUSH2 0x175 PUSH2 0x1FA CALLDATASIZE PUSH1 0x4 PUSH2 0x1094 JUMP JUMPDEST PUSH2 0x658 JUMP JUMPDEST PUSH2 0x175 PUSH2 0x20D CALLDATASIZE PUSH1 0x4 PUSH2 0xF1A JUMP JUMPDEST PUSH2 0x663 JUMP JUMPDEST PUSH2 0x175 PUSH2 0x220 CALLDATASIZE PUSH1 0x4 PUSH2 0x10D0 JUMP JUMPDEST PUSH2 0x7AD JUMP JUMPDEST PUSH2 0x12A PUSH2 0x233 CALLDATASIZE PUSH1 0x4 PUSH2 0xEE5 JUMP JUMPDEST PUSH2 0x7E5 JUMP JUMPDEST PUSH2 0x10D PUSH2 0x246 CALLDATASIZE PUSH1 0x4 PUSH2 0x1190 JUMP JUMPDEST PUSH1 0x1 PUSH1 0x1 PUSH1 0xA0 SHL SUB SWAP2 DUP3 AND PUSH1 0x0 SWAP1 DUP2 MSTORE PUSH1 0x5 PUSH1 0x20 SWAP1 DUP2 MSTORE PUSH1 0x40 DUP1 DUP4 KECCAK256 SWAP4 SWAP1 SWAP5 AND DUP3 MSTORE SWAP2 SWAP1 SWAP2 MSTORE KECCAK256 SLOAD PUSH1 0xFF AND SWAP1 JUMP JUMPDEST PUSH1 0x0 PUSH1 0x1 PUSH1 0x1 PUSH1 0xE0 SHL SUB NOT DUP3 AND PUSH4 0x80AC58CD PUSH1 0xE0 SHL EQ DUP1 PUSH2 0x2A5 JUMPI POP PUSH1 0x1 PUSH1 0x1 PUSH1 0xE0 SHL SUB NOT DUP3 AND PUSH4 0x5B5E139F PUSH1 0xE0 SHL EQ JUMPDEST DUP1 PUSH2 0x2C0 JUMPI POP PUSH4 0x1FFC9A7 PUSH1 0xE0 SHL PUSH1 0x1 PUSH1 0x1 PUSH1 0xE0 SHL SUB NOT DUP4 AND EQ JUMPDEST SWAP3 SWAP2 POP POP JUMP JUMPDEST PUSH1 0x60 PUSH1 0x0 DUP1 SLOAD PUSH2 0x2D5 SWAP1 PUSH2 0x11C3 JUMP JUMPDEST DUP1 PUSH1 0x1F ADD PUSH1 0x20 DUP1 SWAP2 DIV MUL PUSH1 0x20 ADD PUSH1 0x40 MLOAD SWAP1 DUP2 ADD PUSH1 0x40 MSTORE DUP1 SWAP3 SWAP2 SWAP1 DUP2 DUP2 MSTORE PUSH1 0x20 ADD DUP3 DUP1 SLOAD PUSH2 0x301 SWAP1 PUSH2 0x11C3 JUMP JUMPDEST DUP1 ISZERO PUSH2 0x34E JUMPI DUP1 PUSH1 0x1F LT PUSH2 0x323 JUMPI PUSH2 0x100 DUP1 DUP4 SLOAD DIV MUL DUP4 MSTORE SWAP2 PUSH1 0x20 ADD SWAP2 PUSH2 0x34E JUMP JUMPDEST DUP3 ADD SWAP2 SWAP1 PUSH1 0x0 MSTORE PUSH1 0x20 PUSH1 0x0 KECCAK256 SWAP1 JUMPDEST DUP2 SLOAD DUP2 MSTORE SWAP1 PUSH1 0x1 ADD SWAP1 PUSH1 0x20 ADD DUP1 DUP4 GT PUSH2 0x331 JUMPI DUP3 SWAP1 SUB PUSH1 0x1F AND DUP3 ADD SWAP2 JUMPDEST POP POP POP POP POP SWAP1 POP SWAP1 JUMP JUMPDEST PUSH1 0x0 PUSH2 0x363 DUP3 PUSH2 0x859 JUMP JUMPDEST POP PUSH1 0x0 SWAP1 DUP2 MSTORE PUSH1 0x4 PUSH1 0x20 MSTORE PUSH1 0x40 SWAP1 KECCAK256 SLOAD PUSH1 0x1 PUSH1 0x1 PUSH1 0xA0 SHL SUB AND SWAP1 JUMP JUMPDEST PUSH1 0x0 PUSH2 0x38A DUP3 PUSH2 0x563 JUMP JUMPDEST SWAP1 POP DUP1 PUSH1 0x1 PUSH1 0x1 PUSH1 0xA0 SHL SUB AND DUP4 PUSH1 0x1 PUSH1 0x1 PUSH1 0xA0 SHL SUB AND SUB PUSH2 0x3FC JUMPI PUSH1 0x40 MLOAD PUSH3 0x461BCD PUSH1 0xE5 SHL DUP2 MSTORE PUSH1 0x20 PUSH1 0x4 DUP3 ADD MSTORE PUSH1 0x21 PUSH1 0x24 DUP3 ADD MSTORE PUSH32 0x4552433732313A20617070726F76616C20746F2063757272656E74206F776E65 PUSH1 0x44 DUP3 ADD MSTORE PUSH1 0x39 PUSH1 0xF9 SHL PUSH1 0x64 DUP3 ADD MSTORE PUSH1 0x84 ADD JUMPDEST PUSH1 0x40 MLOAD DUP1 SWAP2 SUB SWAP1 REVERT JUMPDEST CALLER PUSH1 0x1 PUSH1 0x1 PUSH1 0xA0 SHL SUB DUP3 AND EQ DUP1 PUSH2 0x418 JUMPI POP PUSH2 0x418 DUP2 CALLER PUSH2 0x246 JUMP JUMPDEST PUSH2 0x48A JUMPI PUSH1 0x40 MLOAD PUSH3 0x461BCD PUSH1 0xE5 SHL DUP2 MSTORE PUSH1 0x20 PUSH1 0x4 DUP3 ADD MSTORE PUSH1 0x3E PUSH1 0x24 DUP3 ADD MSTORE PUSH32 0x4552433732313A20617070726F76652063616C6C6572206973206E6F7420746F PUSH1 0x44 DUP3 ADD MSTORE PUSH32 0x6B656E206F776E6572206E6F7220617070726F76656420666F7220616C6C0000 PUSH1 0x64 DUP3 ADD MSTORE PUSH1 0x84 ADD PUSH2 0x3F3 JUMP JUMPDEST PUSH2 0x494 DUP4 DUP4 PUSH2 0x8BB JUMP JUMPDEST POP POP POP JUMP JUMPDEST CALLER PUSH1 0x1 PUSH1 0x1 PUSH1 0xA0 SHL SUB PUSH32 0x0 AND EQ PUSH2 0x513 JUMPI PUSH1 0x40 MLOAD PUSH4 0x73E64FD PUSH1 0xE2 SHL DUP2 MSTORE CALLER PUSH1 0x4 DUP3 ADD MSTORE PUSH1 0x1 PUSH1 0x1 PUSH1 0xA0 SHL SUB PUSH32 0x0 AND PUSH1 0x24 DUP3 ADD MSTORE PUSH1 0x44 ADD PUSH2 0x3F3 JUMP JUMPDEST POP POP JUMP JUMPDEST PUSH2 0x521 CALLER DUP3 PUSH2 0x929 JUMP JUMPDEST PUSH2 0x53D JUMPI PUSH1 0x40 MLOAD PUSH3 0x461BCD PUSH1 0xE5 SHL DUP2 MSTORE PUSH1 0x4 ADD PUSH2 0x3F3 SWAP1 PUSH2 0x11FD JUMP JUMPDEST PUSH2 0x494 DUP4 DUP4 DUP4 PUSH2 0x9A8 JUMP JUMPDEST PUSH2 0x494 DUP4 DUP4 DUP4 PUSH1 0x40 MLOAD DUP1 PUSH1 0x20 ADD PUSH1 0x40 MSTORE DUP1 PUSH1 0x0 DUP2 MSTORE POP PUSH2 0x7AD JUMP JUMPDEST PUSH1 0x0 DUP2 DUP2 MSTORE PUSH1 0x2 PUSH1 0x20 MSTORE PUSH1 0x40 DUP2 KECCAK256 SLOAD PUSH1 0x1 PUSH1 0x1 PUSH1 0xA0 SHL SUB AND DUP1 PUSH2 0x2C0 JUMPI PUSH1 0x40 MLOAD PUSH3 0x461BCD PUSH1 0xE5 SHL DUP2 MSTORE PUSH1 0x20 PUSH1 0x4 DUP3 ADD MSTORE PUSH1 0x18 PUSH1 0x24 DUP3 ADD MSTORE PUSH24 0x115490CDCC8C4E881A5B9D985B1A59081D1BDAD95B881251 PUSH1 0x42 SHL PUSH1 0x44 DUP3 ADD MSTORE PUSH1 0x64 ADD PUSH2 0x3F3 JUMP JUMPDEST PUSH1 0x0 PUSH1 0x1 PUSH1 0x1 PUSH1 0xA0 SHL SUB DUP3 AND PUSH2 0x62D JUMPI PUSH1 0x40 MLOAD PUSH3 0x461BCD PUSH1 0xE5 SHL DUP2 MSTORE PUSH1 0x20 PUSH1 0x4 DUP3 ADD MSTORE PUSH1 0x29 PUSH1 0x24 DUP3 ADD MSTORE PUSH32 0x4552433732313A2061646472657373207A65726F206973206E6F742061207661 PUSH1 0x44 DUP3 ADD MSTORE PUSH9 0x3634B21037BBB732B9 PUSH1 0xB9 SHL PUSH1 0x64 DUP3 ADD MSTORE PUSH1 0x84 ADD PUSH2 0x3F3 JUMP JUMPDEST POP PUSH1 0x1 PUSH1 0x1 PUSH1 0xA0 SHL SUB AND PUSH1 0x0 SWAP1 DUP2 MSTORE PUSH1 0x3 PUSH1 0x20 MSTORE PUSH1 0x40 SWAP1 KECCAK256 SLOAD SWAP1 JUMP JUMPDEST PUSH1 0x60 PUSH1 0x1 DUP1 SLOAD PUSH2 0x2D5 SWAP1 PUSH2 0x11C3 JUMP JUMPDEST PUSH2 0x513 CALLER DUP4 DUP4 PUSH2 0xB44 JUMP JUMPDEST PUSH1 0x40 MLOAD PUSH4 0x5D3B1D3 PUSH1 0xE4 SHL DUP2 MSTORE PUSH32 0x0 PUSH1 0x4 DUP3 ADD MSTORE PUSH8 0xFFFFFFFFFFFFFFFF PUSH32 0x0 AND PUSH1 0x24 DUP3 ADD MSTORE PUSH1 0x3 PUSH1 0x44 DUP3 ADD MSTORE PUSH4 0xFFFFFFFF PUSH32 0x0 AND PUSH1 0x64 DUP3 ADD MSTORE PUSH1 0x1 PUSH1 0x84 DUP3 ADD MSTORE PUSH1 0x0 SWAP1 PUSH32 0x0 PUSH1 0x1 PUSH1 0x1 PUSH1 0xA0 SHL SUB AND SWAP1 PUSH4 0x5D3B1D30 SWAP1 PUSH1 0xA4 ADD PUSH1 0x20 PUSH1 0x40 MLOAD DUP1 DUP4 SUB DUP2 PUSH1 0x0 DUP8 GAS CALL ISZERO DUP1 ISZERO PUSH2 0x756 JUMPI RETURNDATASIZE PUSH1 0x0 DUP1 RETURNDATACOPY RETURNDATASIZE PUSH1 0x0 REVERT JUMPDEST POP POP POP POP PUSH1 0x40 MLOAD RETURNDATASIZE PUSH1 0x1F NOT PUSH1 0x1F DUP3 ADD AND DUP3 ADD DUP1 PUSH1 0x40 MSTORE POP DUP2 ADD SWAP1 PUSH2 0x77A SWAP2 SWAP1 PUSH2 0x124B JUMP JUMPDEST PUSH1 0x40 MLOAD SWAP1 SWAP2 POP DUP2 SWAP1 PUSH32 0xF76E87796E0D30D26631C878E060E8F2713F3FF6CBCA914ADC1535CA58FB26FC SWAP1 PUSH1 0x0 SWAP1 LOG2 POP POP POP JUMP JUMPDEST PUSH2 0x7B7 CALLER DUP4 PUSH2 0x929 JUMP JUMPDEST PUSH2 0x7D3 JUMPI PUSH1 0x40 MLOAD PUSH3 0x461BCD PUSH1 0xE5 SHL DUP2 MSTORE PUSH1 0x4 ADD PUSH2 0x3F3 SWAP1 PUSH2 0x11FD JUMP JUMPDEST PUSH2 0x7DF DUP5 DUP5 DUP5 DUP5 PUSH2 0xC12 JUMP JUMPDEST POP POP POP POP JUMP JUMPDEST PUSH1 0x60 PUSH2 0x7F0 DUP3 PUSH2 0x859 JUMP JUMPDEST PUSH1 0x0 PUSH2 0x807 PUSH1 0x40 DUP1 MLOAD PUSH1 0x20 DUP2 ADD SWAP1 SWAP2 MSTORE PUSH1 0x0 DUP2 MSTORE SWAP1 JUMP JUMPDEST SWAP1 POP PUSH1 0x0 DUP2 MLOAD GT PUSH2 0x827 JUMPI PUSH1 0x40 MLOAD DUP1 PUSH1 0x20 ADD PUSH1 0x40 MSTORE DUP1 PUSH1 0x0 DUP2 MSTORE POP PUSH2 0x852 JUMP JUMPDEST DUP1 PUSH2 0x831 DUP5 PUSH2 0xC45 JUMP JUMPDEST PUSH1 0x40 MLOAD PUSH1 0x20 ADD PUSH2 0x842 SWAP3 SWAP2 SWAP1 PUSH2 0x1264 JUMP JUMPDEST PUSH1 0x40 MLOAD PUSH1 0x20 DUP2 DUP4 SUB SUB DUP2 MSTORE SWAP1 PUSH1 0x40 MSTORE JUMPDEST SWAP4 SWAP3 POP POP POP JUMP JUMPDEST PUSH1 0x0 DUP2 DUP2 MSTORE PUSH1 0x2 PUSH1 0x20 MSTORE PUSH1 0x40 SWAP1 KECCAK256 SLOAD PUSH1 0x1 PUSH1 0x1 PUSH1 0xA0 SHL SUB AND PUSH2 0x8B8 JUMPI PUSH1 0x40 MLOAD PUSH3 0x461BCD PUSH1 0xE5 SHL DUP2 MSTORE PUSH1 0x20 PUSH1 0x4 DUP3 ADD MSTORE PUSH1 0x18 PUSH1 0x24 DUP3 ADD MSTORE PUSH24 0x115490CDCC8C4E881A5B9D985B1A59081D1BDAD95B881251 PUSH1 0x42 SHL PUSH1 0x44 DUP3 ADD MSTORE PUSH1 0x64 ADD PUSH2 0x3F3 JUMP JUMPDEST POP JUMP JUMPDEST PUSH1 0x0 DUP2 DUP2 MSTORE PUSH1 0x4 PUSH1 0x20 MSTORE PUSH1 0x40 SWAP1 KECCAK256 DUP1 SLOAD PUSH1 0x1 PUSH1 0x1 PUSH1 0xA0 SHL SUB NOT AND PUSH1 0x1 PUSH1 0x1 PUSH1 0xA0 SHL SUB DUP5 AND SWAP1 DUP2 OR SWAP1 SWAP2 SSTORE DUP2 SWAP1 PUSH2 0x8F0 DUP3 PUSH2 0x563 JUMP JUMPDEST PUSH1 0x1 PUSH1 0x1 PUSH1 0xA0 SHL SUB AND PUSH32 0x8C5BE1E5EBEC7D5BD14F71427D1E84F3DD0314C0F7B2291E5B200AC8C7C3B925 PUSH1 0x40 MLOAD PUSH1 0x40 MLOAD DUP1 SWAP2 SUB SWAP1 LOG4 POP POP JUMP JUMPDEST PUSH1 0x0 DUP1 PUSH2 0x935 DUP4 PUSH2 0x563 JUMP JUMPDEST SWAP1 POP DUP1 PUSH1 0x1 PUSH1 0x1 PUSH1 0xA0 SHL SUB AND DUP5 PUSH1 0x1 PUSH1 0x1 PUSH1 0xA0 SHL SUB AND EQ DUP1 PUSH2 0x97C JUMPI POP PUSH1 0x1 PUSH1 0x1 PUSH1 0xA0 SHL SUB DUP1 DUP3 AND PUSH1 0x0 SWAP1 DUP2 MSTORE PUSH1 0x5 PUSH1 0x20 SWAP1 DUP2 MSTORE PUSH1 0x40 DUP1 DUP4 KECCAK256 SWAP4 DUP9 AND DUP4 MSTORE SWAP3 SWAP1 MSTORE KECCAK256 SLOAD PUSH1 0xFF AND JUMPDEST DUP1 PUSH2 0x9A0 JUMPI POP DUP4 PUSH1 0x1 PUSH1 0x1 PUSH1 0xA0 SHL SUB AND PUSH2 0x995 DUP5 PUSH2 0x358 JUMP JUMPDEST PUSH1 0x1 PUSH1 0x1 PUSH1 0xA0 SHL SUB AND EQ JUMPDEST SWAP5 SWAP4 POP POP POP POP JUMP JUMPDEST DUP3 PUSH1 0x1 PUSH1 0x1 PUSH1 0xA0 SHL SUB AND PUSH2 0x9BB DUP3 PUSH2 0x563 JUMP JUMPDEST PUSH1 0x1 PUSH1 0x1 PUSH1 0xA0 SHL SUB AND EQ PUSH2 0xA1F JUMPI PUSH1 0x40 MLOAD PUSH3 0x461BCD PUSH1 0xE5 SHL DUP2 MSTORE PUSH1 0x20 PUSH1 0x4 DUP3 ADD MSTORE PUSH1 0x25 PUSH1 0x24 DUP3 ADD MSTORE PUSH32 0x4552433732313A207472616E736665722066726F6D20696E636F727265637420 PUSH1 0x44 DUP3 ADD MSTORE PUSH5 0x37BBB732B9 PUSH1 0xD9 SHL PUSH1 0x64 DUP3 ADD MSTORE PUSH1 0x84 ADD PUSH2 0x3F3 JUMP JUMPDEST PUSH1 0x1 PUSH1 0x1 PUSH1 0xA0 SHL SUB DUP3 AND PUSH2 0xA81 JUMPI PUSH1 0x40 MLOAD PUSH3 0x461BCD PUSH1 0xE5 SHL DUP2 MSTORE PUSH1 0x20 PUSH1 0x4 DUP3 ADD MSTORE PUSH1 0x24 DUP1 DUP3 ADD MSTORE PUSH32 0x4552433732313A207472616E7366657220746F20746865207A65726F20616464 PUSH1 0x44 DUP3 ADD MSTORE PUSH4 0x72657373 PUSH1 0xE0 SHL PUSH1 0x64 DUP3 ADD MSTORE PUSH1 0x84 ADD PUSH2 0x3F3 JUMP JUMPDEST PUSH2 0xA8C PUSH1 0x0 DUP3 PUSH2 0x8BB JUMP JUMPDEST PUSH1 0x1 PUSH1 0x1 PUSH1 0xA0 SHL SUB DUP4 AND PUSH1 0x0 SWAP1 DUP2 MSTORE PUSH1 0x3 PUSH1 0x20 MSTORE PUSH1 0x40 DUP2 KECCAK256 DUP1 SLOAD PUSH1 0x1 SWAP3 SWAP1 PUSH2 0xAB5 SWAP1 DUP5 SWAP1 PUSH2 0x12A9 JUMP JUMPDEST SWAP1 SWAP2 SSTORE POP POP PUSH1 0x1 PUSH1 0x1 PUSH1 0xA0 SHL SUB DUP3 AND PUSH1 0x0 SWAP1 DUP2 MSTORE PUSH1 0x3 PUSH1 0x20 MSTORE PUSH1 0x40 DUP2 KECCAK256 DUP1 SLOAD PUSH1 0x1 SWAP3 SWAP1 PUSH2 0xAE3 SWAP1 DUP5 SWAP1 PUSH2 0x12C0 JUMP JUMPDEST SWAP1 SWAP2 SSTORE POP POP PUSH1 0x0 DUP2 DUP2 MSTORE PUSH1 0x2 PUSH1 0x20 MSTORE PUSH1 0x40 DUP1 DUP3 KECCAK256 DUP1 SLOAD PUSH1 0x1 PUSH1 0x1 PUSH1 0xA0 SHL SUB NOT AND PUSH1 0x1 PUSH1 0x1 PUSH1 0xA0 SHL SUB DUP7 DUP2 AND SWAP2 DUP3 OR SWAP1 SWAP3 SSTORE SWAP2 MLOAD DUP5 SWAP4 SWAP2 DUP8 AND SWAP2 PUSH32 0xDDF252AD1BE2C89B69C2B068FC378DAA952BA7F163C4A11628F55A4DF523B3EF SWAP2 LOG4 POP POP POP JUMP JUMPDEST DUP2 PUSH1 0x1 PUSH1 0x1 PUSH1 0xA0 SHL SUB AND DUP4 PUSH1 0x1 PUSH1 0x1 PUSH1 0xA0 SHL SUB AND SUB PUSH2 0xBA5 JUMPI PUSH1 0x40 MLOAD PUSH3 0x461BCD PUSH1 0xE5 SHL DUP2 MSTORE PUSH1 0x20 PUSH1 0x4 DUP3 ADD MSTORE PUSH1 0x19 PUSH1 0x24 DUP3 ADD MSTORE PUSH32 0x4552433732313A20617070726F766520746F2063616C6C657200000000000000 PUSH1 0x44 DUP3 ADD MSTORE PUSH1 0x64 ADD PUSH2 0x3F3 JUMP JUMPDEST PUSH1 0x1 PUSH1 0x1 PUSH1 0xA0 SHL SUB DUP4 DUP2 AND PUSH1 0x0 DUP2 DUP2 MSTORE PUSH1 0x5 PUSH1 0x20 SWAP1 DUP2 MSTORE PUSH1 0x40 DUP1 DUP4 KECCAK256 SWAP5 DUP8 AND DUP1 DUP5 MSTORE SWAP5 DUP3 MSTORE SWAP2 DUP3 SWAP1 KECCAK256 DUP1 SLOAD PUSH1 0xFF NOT AND DUP7 ISZERO ISZERO SWAP1 DUP2 OR SWAP1 SWAP2 SSTORE SWAP2 MLOAD SWAP2 DUP3 MSTORE PUSH32 0x17307EAB39AB6107E8899845AD3D59BD9653F200F220920489CA2B5937696C31 SWAP2 ADD PUSH1 0x40 MLOAD DUP1 SWAP2 SUB SWAP1 LOG3 POP POP POP JUMP JUMPDEST PUSH2 0xC1D DUP5 DUP5 DUP5 PUSH2 0x9A8 JUMP JUMPDEST PUSH2 0xC29 DUP5 DUP5 DUP5 DUP5 PUSH2 0xD46 JUMP JUMPDEST PUSH2 0x7DF JUMPI PUSH1 0x40 MLOAD PUSH3 0x461BCD PUSH1 0xE5 SHL DUP2 MSTORE PUSH1 0x4 ADD PUSH2 0x3F3 SWAP1 PUSH2 0x12D8 JUMP JUMPDEST PUSH1 0x60 DUP2 PUSH1 0x0 SUB PUSH2 0xC6C JUMPI POP POP PUSH1 0x40 DUP1 MLOAD DUP1 DUP3 ADD SWAP1 SWAP2 MSTORE PUSH1 0x1 DUP2 MSTORE PUSH1 0x3 PUSH1 0xFC SHL PUSH1 0x20 DUP3 ADD MSTORE SWAP1 JUMP JUMPDEST DUP2 PUSH1 0x0 JUMPDEST DUP2 ISZERO PUSH2 0xC96 JUMPI DUP1 PUSH2 0xC80 DUP2 PUSH2 0x132A JUMP JUMPDEST SWAP2 POP PUSH2 0xC8F SWAP1 POP PUSH1 0xA DUP4 PUSH2 0x1359 JUMP JUMPDEST SWAP2 POP PUSH2 0xC70 JUMP JUMPDEST PUSH1 0x0 DUP2 PUSH8 0xFFFFFFFFFFFFFFFF DUP2 GT ISZERO PUSH2 0xCB1 JUMPI PUSH2 0xCB1 PUSH2 0xF44 JUMP JUMPDEST PUSH1 0x40 MLOAD SWAP1 DUP1 DUP3 MSTORE DUP1 PUSH1 0x1F ADD PUSH1 0x1F NOT AND PUSH1 0x20 ADD DUP3 ADD PUSH1 0x40 MSTORE DUP1 ISZERO PUSH2 0xCDB JUMPI PUSH1 0x20 DUP3 ADD DUP2 DUP1 CALLDATASIZE DUP4 CALLDATACOPY ADD SWAP1 POP JUMPDEST POP SWAP1 POP JUMPDEST DUP5 ISZERO PUSH2 0x9A0 JUMPI PUSH2 0xCF0 PUSH1 0x1 DUP4 PUSH2 0x12A9 JUMP JUMPDEST SWAP2 POP PUSH2 0xCFD PUSH1 0xA DUP7 PUSH2 0x136D JUMP JUMPDEST PUSH2 0xD08 SWAP1 PUSH1 0x30 PUSH2 0x12C0 JUMP JUMPDEST PUSH1 0xF8 SHL DUP2 DUP4 DUP2 MLOAD DUP2 LT PUSH2 0xD1D JUMPI PUSH2 0xD1D PUSH2 0x1381 JUMP JUMPDEST PUSH1 0x20 ADD ADD SWAP1 PUSH1 0x1 PUSH1 0x1 PUSH1 0xF8 SHL SUB NOT AND SWAP1 DUP2 PUSH1 0x0 BYTE SWAP1 MSTORE8 POP PUSH2 0xD3F PUSH1 0xA DUP7 PUSH2 0x1359 JUMP JUMPDEST SWAP5 POP PUSH2 0xCDF JUMP JUMPDEST PUSH1 0x0 PUSH1 0x1 PUSH1 0x1 PUSH1 0xA0 SHL SUB DUP5 AND EXTCODESIZE ISZERO PUSH2 0xE3C JUMPI PUSH1 0x40 MLOAD PUSH4 0xA85BD01 PUSH1 0xE1 SHL DUP2 MSTORE PUSH1 0x1 PUSH1 0x1 PUSH1 0xA0 SHL SUB DUP6 AND SWAP1 PUSH4 0x150B7A02 SWAP1 PUSH2 0xD8A SWAP1 CALLER SWAP1 DUP10 SWAP1 DUP9 SWAP1 DUP9 SWAP1 PUSH1 0x4 ADD PUSH2 0x1397 JUMP JUMPDEST PUSH1 0x20 PUSH1 0x40 MLOAD DUP1 DUP4 SUB DUP2 PUSH1 0x0 DUP8 GAS CALL SWAP3 POP POP POP DUP1 ISZERO PUSH2 0xDC5 JUMPI POP PUSH1 0x40 DUP1 MLOAD PUSH1 0x1F RETURNDATASIZE SWAP1 DUP2 ADD PUSH1 0x1F NOT AND DUP3 ADD SWAP1 SWAP3 MSTORE PUSH2 0xDC2 SWAP2 DUP2 ADD SWAP1 PUSH2 0x13D4 JUMP JUMPDEST PUSH1 0x1 JUMPDEST PUSH2 0xE22 JUMPI RETURNDATASIZE DUP1 DUP1 ISZERO PUSH2 0xDF3 JUMPI PUSH1 0x40 MLOAD SWAP2 POP PUSH1 0x1F NOT PUSH1 0x3F RETURNDATASIZE ADD AND DUP3 ADD PUSH1 0x40 MSTORE RETURNDATASIZE DUP3 MSTORE RETURNDATASIZE PUSH1 0x0 PUSH1 0x20 DUP5 ADD RETURNDATACOPY PUSH2 0xDF8 JUMP JUMPDEST PUSH1 0x60 SWAP2 POP JUMPDEST POP DUP1 MLOAD PUSH1 0x0 SUB PUSH2 0xE1A JUMPI PUSH1 0x40 MLOAD PUSH3 0x461BCD PUSH1 0xE5 SHL DUP2 MSTORE PUSH1 0x4 ADD PUSH2 0x3F3 SWAP1 PUSH2 0x12D8 JUMP JUMPDEST DUP1 MLOAD DUP2 PUSH1 0x20 ADD REVERT JUMPDEST PUSH1 0x1 PUSH1 0x1 PUSH1 0xE0 SHL SUB NOT AND PUSH4 0xA85BD01 PUSH1 0xE1 SHL EQ SWAP1 POP PUSH2 0x9A0 JUMP JUMPDEST POP PUSH1 0x1 SWAP5 SWAP4 POP POP POP POP JUMP JUMPDEST PUSH1 0x1 PUSH1 0x1 PUSH1 0xE0 SHL SUB NOT DUP2 AND DUP2 EQ PUSH2 0x8B8 JUMPI PUSH1 0x0 DUP1 REVERT JUMPDEST PUSH1 0x0 PUSH1 0x20 DUP3 DUP5 SUB SLT ISZERO PUSH2 0xE6F JUMPI PUSH1 0x0 DUP1 REVERT JUMPDEST DUP2 CALLDATALOAD PUSH2 0x852 DUP2 PUSH2 0xE47 JUMP JUMPDEST PUSH1 0x0 JUMPDEST DUP4 DUP2 LT ISZERO PUSH2 0xE95 JUMPI DUP2 DUP2 ADD MLOAD DUP4 DUP3 ADD MSTORE PUSH1 0x20 ADD PUSH2 0xE7D JUMP JUMPDEST DUP4 DUP2 GT ISZERO PUSH2 0x7DF JUMPI POP POP PUSH1 0x0 SWAP2 ADD MSTORE JUMP JUMPDEST PUSH1 0x0 DUP2 MLOAD DUP1 DUP5 MSTORE PUSH2 0xEBE DUP2 PUSH1 0x20 DUP7 ADD PUSH1 0x20 DUP7 ADD PUSH2 0xE7A JUMP JUMPDEST PUSH1 0x1F ADD PUSH1 0x1F NOT AND SWAP3 SWAP1 SWAP3 ADD PUSH1 0x20 ADD SWAP3 SWAP2 POP POP JUMP JUMPDEST PUSH1 0x20 DUP2 MSTORE PUSH1 0x0 PUSH2 0x852 PUSH1 0x20 DUP4 ADD DUP5 PUSH2 0xEA6 JUMP JUMPDEST PUSH1 0x0 PUSH1 0x20 DUP3 DUP5 SUB SLT ISZERO PUSH2 0xEF7 JUMPI PUSH1 0x0 DUP1 REVERT JUMPDEST POP CALLDATALOAD SWAP2 SWAP1 POP JUMP JUMPDEST DUP1 CALLDATALOAD PUSH1 0x1 PUSH1 0x1 PUSH1 0xA0 SHL SUB DUP2 AND DUP2 EQ PUSH2 0xF15 JUMPI PUSH1 0x0 DUP1 REVERT JUMPDEST SWAP2 SWAP1 POP JUMP JUMPDEST PUSH1 0x0 DUP1 PUSH1 0x40 DUP4 DUP6 SUB SLT ISZERO PUSH2 0xF2D JUMPI PUSH1 0x0 DUP1 REVERT JUMPDEST PUSH2 0xF36 DUP4 PUSH2 0xEFE JUMP JUMPDEST SWAP5 PUSH1 0x20 SWAP4 SWAP1 SWAP4 ADD CALLDATALOAD SWAP4 POP POP POP JUMP JUMPDEST PUSH4 0x4E487B71 PUSH1 0xE0 SHL PUSH1 0x0 MSTORE PUSH1 0x41 PUSH1 0x4 MSTORE PUSH1 0x24 PUSH1 0x0 REVERT JUMPDEST PUSH1 0x40 MLOAD PUSH1 0x1F DUP3 ADD PUSH1 0x1F NOT AND DUP2 ADD PUSH8 0xFFFFFFFFFFFFFFFF DUP2 GT DUP3 DUP3 LT OR ISZERO PUSH2 0xF83 JUMPI PUSH2 0xF83 PUSH2 0xF44 JUMP JUMPDEST PUSH1 0x40 MSTORE SWAP2 SWAP1 POP JUMP JUMPDEST PUSH1 0x0 DUP1 PUSH1 0x40 DUP4 DUP6 SUB SLT ISZERO PUSH2 0xF9E JUMPI PUSH1 0x0 DUP1 REVERT JUMPDEST DUP3 CALLDATALOAD SWAP2 POP PUSH1 0x20 DUP1 DUP5 ADD CALLDATALOAD PUSH8 0xFFFFFFFFFFFFFFFF DUP1 DUP3 GT ISZERO PUSH2 0xFBE JUMPI PUSH1 0x0 DUP1 REVERT JUMPDEST DUP2 DUP7 ADD SWAP2 POP DUP7 PUSH1 0x1F DUP4 ADD SLT PUSH2 0xFD2 JUMPI PUSH1 0x0 DUP1 REVERT JUMPDEST DUP2 CALLDATALOAD DUP2 DUP2 GT ISZERO PUSH2 0xFE4 JUMPI PUSH2 0xFE4 PUSH2 0xF44 JUMP JUMPDEST DUP1 PUSH1 0x5 SHL SWAP2 POP PUSH2 0xFF5 DUP5 DUP4 ADD PUSH2 0xF5A JUMP JUMPDEST DUP2 DUP2 MSTORE SWAP2 DUP4 ADD DUP5 ADD SWAP2 DUP5 DUP2 ADD SWAP1 DUP10 DUP5 GT ISZERO PUSH2 0x100F JUMPI PUSH1 0x0 DUP1 REVERT JUMPDEST SWAP4 DUP6 ADD SWAP4 JUMPDEST DUP4 DUP6 LT ISZERO PUSH2 0x102D JUMPI DUP5 CALLDATALOAD DUP3 MSTORE SWAP4 DUP6 ADD SWAP4 SWAP1 DUP6 ADD SWAP1 PUSH2 0x1014 JUMP JUMPDEST DUP1 SWAP7 POP POP POP POP POP POP POP SWAP3 POP SWAP3 SWAP1 POP JUMP JUMPDEST PUSH1 0x0 DUP1 PUSH1 0x0 PUSH1 0x60 DUP5 DUP7 SUB SLT ISZERO PUSH2 0x1052 JUMPI PUSH1 0x0 DUP1 REVERT JUMPDEST PUSH2 0x105B DUP5 PUSH2 0xEFE JUMP JUMPDEST SWAP3 POP PUSH2 0x1069 PUSH1 0x20 DUP6 ADD PUSH2 0xEFE JUMP JUMPDEST SWAP2 POP PUSH1 0x40 DUP5 ADD CALLDATALOAD SWAP1 POP SWAP3 POP SWAP3 POP SWAP3 JUMP JUMPDEST PUSH1 0x0 PUSH1 0x20 DUP3 DUP5 SUB SLT ISZERO PUSH2 0x108B JUMPI PUSH1 0x0 DUP1 REVERT JUMPDEST PUSH2 0x852 DUP3 PUSH2 0xEFE JUMP JUMPDEST PUSH1 0x0 DUP1 PUSH1 0x40 DUP4 DUP6 SUB SLT ISZERO PUSH2 0x10A7 JUMPI PUSH1 0x0 DUP1 REVERT JUMPDEST PUSH2 0x10B0 DUP4 PUSH2 0xEFE JUMP JUMPDEST SWAP2 POP PUSH1 0x20 DUP4 ADD CALLDATALOAD DUP1 ISZERO ISZERO DUP2 EQ PUSH2 0x10C5 JUMPI PUSH1 0x0 DUP1 REVERT JUMPDEST DUP1 SWAP2 POP POP SWAP3 POP SWAP3 SWAP1 POP JUMP JUMPDEST PUSH1 0x0 DUP1 PUSH1 0x0 DUP1 PUSH1 0x80 DUP6 DUP8 SUB SLT ISZERO PUSH2 0x10E6 JUMPI PUSH1 0x0 DUP1 REVERT JUMPDEST PUSH2 0x10EF DUP6 PUSH2 0xEFE JUMP JUMPDEST SWAP4 POP PUSH1 0x20 PUSH2 0x10FE DUP2 DUP8 ADD PUSH2 0xEFE JUMP JUMPDEST SWAP4 POP PUSH1 0x40 DUP7 ADD CALLDATALOAD SWAP3 POP PUSH1 0x60 DUP7 ADD CALLDATALOAD PUSH8 0xFFFFFFFFFFFFFFFF DUP1 DUP3 GT ISZERO PUSH2 0x1122 JUMPI PUSH1 0x0 DUP1 REVERT JUMPDEST DUP2 DUP9 ADD SWAP2 POP DUP9 PUSH1 0x1F DUP4 ADD SLT PUSH2 0x1136 JUMPI PUSH1 0x0 DUP1 REVERT JUMPDEST DUP2 CALLDATALOAD DUP2 DUP2 GT ISZERO PUSH2 0x1148 JUMPI PUSH2 0x1148 PUSH2 0xF44 JUMP JUMPDEST PUSH2 0x115A PUSH1 0x1F DUP3 ADD PUSH1 0x1F NOT AND DUP6 ADD PUSH2 0xF5A JUMP JUMPDEST SWAP2 POP DUP1 DUP3 MSTORE DUP10 DUP5 DUP3 DUP6 ADD ADD GT ISZERO PUSH2 0x1170 JUMPI PUSH1 0x0 DUP1 REVERT JUMPDEST DUP1 DUP5 DUP5 ADD DUP6 DUP5 ADD CALLDATACOPY PUSH1 0x0 DUP5 DUP3 DUP5 ADD ADD MSTORE POP DUP1 SWAP4 POP POP POP POP SWAP3 SWAP6 SWAP2 SWAP5 POP SWAP3 POP JUMP JUMPDEST PUSH1 0x0 DUP1 PUSH1 0x40 DUP4 DUP6 SUB SLT ISZERO PUSH2 0x11A3 JUMPI PUSH1 0x0 DUP1 REVERT JUMPDEST PUSH2 0x11AC DUP4 PUSH2 0xEFE JUMP JUMPDEST SWAP2 POP PUSH2 0x11BA PUSH1 0x20 DUP5 ADD PUSH2 0xEFE JUMP JUMPDEST SWAP1 POP SWAP3 POP SWAP3 SWAP1 POP JUMP JUMPDEST PUSH1 0x1 DUP2 DUP2 SHR SWAP1 DUP3 AND DUP1 PUSH2 0x11D7 JUMPI PUSH1 0x7F DUP3 AND SWAP2 POP JUMPDEST PUSH1 0x20 DUP3 LT DUP2 SUB PUSH2 0x11F7 JUMPI PUSH4 0x4E487B71 PUSH1 0xE0 SHL PUSH1 0x0 MSTORE PUSH1 0x22 PUSH1 0x4 MSTORE PUSH1 0x24 PUSH1 0x0 REVERT JUMPDEST POP SWAP2 SWAP1 POP JUMP JUMPDEST PUSH1 0x20 DUP1 DUP3 MSTORE PUSH1 0x2E SWAP1 DUP3 ADD MSTORE PUSH32 0x4552433732313A2063616C6C6572206973206E6F7420746F6B656E206F776E65 PUSH1 0x40 DUP3 ADD MSTORE PUSH14 0x1C881B9BDC88185C1C1C9BDD9959 PUSH1 0x92 SHL PUSH1 0x60 DUP3 ADD MSTORE PUSH1 0x80 ADD SWAP1 JUMP JUMPDEST PUSH1 0x0 PUSH1 0x20 DUP3 DUP5 SUB SLT ISZERO PUSH2 0x125D JUMPI PUSH1 0x0 DUP1 REVERT JUMPDEST POP MLOAD SWAP2 SWAP1 POP JUMP JUMPDEST PUSH1 0x0 DUP4 MLOAD PUSH2 0x1276 DUP2 DUP5 PUSH1 0x20 DUP9 ADD PUSH2 0xE7A JUMP JUMPDEST DUP4 MLOAD SWAP1 DUP4 ADD SWAP1 PUSH2 0x128A DUP2 DUP4 PUSH1 0x20 DUP9 ADD PUSH2 0xE7A JUMP JUMPDEST ADD SWAP5 SWAP4 POP POP POP POP JUMP JUMPDEST PUSH4 0x4E487B71 PUSH1 0xE0 SHL PUSH1 0x0 MSTORE PUSH1 0x11 PUSH1 0x4 MSTORE PUSH1 0x24 PUSH1 0x0 REVERT JUMPDEST PUSH1 0x0 DUP3 DUP3 LT ISZERO PUSH2 0x12BB JUMPI PUSH2 0x12BB PUSH2 0x1293 JUMP JUMPDEST POP SUB SWAP1 JUMP JUMPDEST PUSH1 0x0 DUP3 NOT DUP3 GT ISZERO PUSH2 0x12D3 JUMPI PUSH2 0x12D3 PUSH2 0x1293 JUMP JUMPDEST POP ADD SWAP1 JUMP JUMPDEST PUSH1 0x20 DUP1 DUP3 MSTORE PUSH1 0x32 SWAP1 DUP3 ADD MSTORE PUSH32 0x4552433732313A207472616E7366657220746F206E6F6E204552433732315265 PUSH1 0x40 DUP3 ADD MSTORE PUSH18 0x31B2B4BB32B91034B6B83632B6B2B73A32B9 PUSH1 0x71 SHL PUSH1 0x60 DUP3 ADD MSTORE PUSH1 0x80 ADD SWAP1 JUMP JUMPDEST PUSH1 0x0 PUSH1 0x1 DUP3 ADD PUSH2 0x133C JUMPI PUSH2 0x133C PUSH2 0x1293 JUMP JUMPDEST POP PUSH1 0x1 ADD SWAP1 JUMP JUMPDEST PUSH4 0x4E487B71 PUSH1 0xE0 SHL PUSH1 0x0 MSTORE PUSH1 0x12 PUSH1 0x4 MSTORE PUSH1 0x24 PUSH1 0x0 REVERT JUMPDEST PUSH1 0x0 DUP3 PUSH2 0x1368 JUMPI PUSH2 0x1368 PUSH2 0x1343 JUMP JUMPDEST POP DIV SWAP1 JUMP JUMPDEST PUSH1 0x0 DUP3 PUSH2 0x137C JUMPI PUSH2 0x137C PUSH2 0x1343 JUMP JUMPDEST POP MOD SWAP1 JUMP JUMPDEST PUSH4 0x4E487B71 PUSH1 0xE0 SHL PUSH1 0x0 MSTORE PUSH1 0x32 PUSH1 0x4 MSTORE PUSH1 0x24 PUSH1 0x0 REVERT JUMPDEST PUSH1 0x1 PUSH1 0x1 PUSH1 0xA0 SHL SUB DUP6 DUP2 AND DUP3 MSTORE DUP5 AND PUSH1 0x20 DUP3 ADD MSTORE PUSH1 0x40 DUP2 ADD DUP4 SWAP1 MSTORE PUSH1 0x80 PUSH1 0x60 DUP3 ADD DUP2 SWAP1 MSTORE PUSH1 0x0 SWAP1 PUSH2 0x13CA SWAP1 DUP4 ADD DUP5 PUSH2 0xEA6 JUMP JUMPDEST SWAP7 SWAP6 POP POP POP POP POP POP JUMP JUMPDEST PUSH1 0x0 PUSH1 0x20 DUP3 DUP5 SUB SLT ISZERO PUSH2 0x13E6 JUMPI PUSH1 0x0 DUP1 REVERT JUMPDEST DUP2 MLOAD PUSH2 0x852 DUP2 PUSH2 0xE47 JUMP INVALID LOG2 PUSH5 0x6970667358 0x22 SLT KECCAK256 DUP5 ADDMOD ADDRESS 0xF9 0xD3 CALLCODE PUSH25 0x4C62FA0E78DD2382A683666F598E954CE7C78350C827CA853 PUSH5 0x736F6C6343 STOP ADDMOD 0xF STOP CALLER ",
  "sha1": "8ffe7a92e0d9bf21e6577cd7b4d580cc3211fb93",
  "source": "//SPDX-License-Identifier: MIT\n\npragma solidity >=0.8.10 <0.9.0;\n\nimport \"@openzeppelin/contracts/token/ERC721/ERC721.sol\";\nimport \"@chainlink/contracts/src/v0.8/VRFConsumerBaseV2.sol\";\nimport \"@chainlink/contracts/src/v0.8/interfaces/VRFCoordinatorV2Interface.sol\";\n\ncontract FrogxVerse is ERC721, VRFConsumerBaseV2 {\n    VRFCoordinatorV2Interface private immutable i_vrfCoordinator;\n    bytes32 private immutable i_gasLane;\n    uint64 private immutable i_subscriptionId;\n    uint32 private immutable i_callbackGasLimit;\n    uint16 private constant REQUEST_CONFIRMATIONS = 3;\n    uint32 private constant NUM_WORDS = 1;\n\n    event RequestedMint(uint256 indexed requestId);\n\n    constructor(\n        address _VRFCoordinator,\n        bytes32 _gasLane,\n        uint64 _subscriptionId,\n        uint32 _callbackGasLimit\n    )\n    ERC721(\"FrogxVerse\", \"FROGXEL\")\n    VRFConsumerBaseV2(_VRFCoordinator){\n        i_vrfCoordinator = VRFCoordinatorV2Interface(_VRFCoordinator);\n        i_gasLane = _gasLane;\n        i_subscriptionId = _subscriptionId;\n        i_callbackGasLimit = _callbackGasLimit;\n    }\n\n    function mintFrogxel(address to, uint256 tokenId) external {\n        uint256 requestId = i_vrfCoordinator.requestRandomWords(i_gasLane, i_subscriptionId, REQUEST_CONFIRMATIONS, i_callbackGasLimit, NUM_WORDS);\n        emit RequestedMint(requestId);\n    }\n\n    function fulfillRandomWords(uint256 requestId, uint256[] memory randomWords) internal override {\n\n    }\n}",
  "sourcePath": "contracts/FrogxVerse.sol",
  "type": "contract"
}