{
  "abi": [
    {
      "inputs": [
        {
          "internalType": "address",
          "name": "_VRFCoordinator",
          "type": "address"
        },
        {
          "internalType": "bytes32",
          "name": "_gasLane",
          "type": "bytes32"
        },
        {
          "internalType": "uint64",
          "name": "_subscriptionId",
          "type": "uint64"
        },
        {
          "internalType": "uint32",
          "name": "_callbackGasLimit",
          "type": "uint32"
        },
        {
          "internalType": "address payable",
          "name": "beneficiary",
          "type": "address"
        }
      ],
      "stateMutability": "nonpayable",
      "type": "constructor"
    },
    {
      "inputs": [
        {
          "internalType": "address",
          "name": "have",
          "type": "address"
        },
        {
          "internalType": "address",
          "name": "want",
          "type": "address"
        }
      ],
      "name": "OnlyCoordinatorCanFulfill",
      "type": "error"
    },
    {
      "anonymous": false,
      "inputs": [
        {
          "indexed": true,
          "internalType": "address",
          "name": "owner",
          "type": "address"
        },
        {
          "indexed": true,
          "internalType": "address",
          "name": "approved",
          "type": "address"
        },
        {
          "indexed": true,
          "internalType": "uint256",
          "name": "tokenId",
          "type": "uint256"
        }
      ],
      "name": "Approval",
      "type": "event"
    },
    {
      "anonymous": false,
      "inputs": [
        {
          "indexed": true,
          "internalType": "address",
          "name": "owner",
          "type": "address"
        },
        {
          "indexed": true,
          "internalType": "address",
          "name": "operator",
          "type": "address"
        },
        {
          "indexed": false,
          "internalType": "bool",
          "name": "approved",
          "type": "bool"
        }
      ],
      "name": "ApprovalForAll",
      "type": "event"
    },
    {
      "anonymous": false,
      "inputs": [
        {
          "indexed": true,
          "internalType": "uint256",
          "name": "tokenId",
          "type": "uint256"
        }
      ],
      "name": "FrogxelMinted",
      "type": "event"
    },
    {
      "anonymous": false,
      "inputs": [
        {
          "indexed": true,
          "internalType": "address",
          "name": "previousOwner",
          "type": "address"
        },
        {
          "indexed": true,
          "internalType": "address",
          "name": "newOwner",
          "type": "address"
        }
      ],
      "name": "OwnershipTransferred",
      "type": "event"
    },
    {
      "anonymous": false,
      "inputs": [
        {
          "indexed": false,
          "internalType": "address",
          "name": "account",
          "type": "address"
        }
      ],
      "name": "Paused",
      "type": "event"
    },
    {
      "anonymous": false,
      "inputs": [
        {
          "indexed": true,
          "internalType": "address",
          "name": "buyer",
          "type": "address"
        },
        {
          "indexed": false,
          "internalType": "uint256",
          "name": "amount",
          "type": "uint256"
        }
      ],
      "name": "Refund",
      "type": "event"
    },
    {
      "anonymous": false,
      "inputs": [
        {
          "indexed": true,
          "internalType": "uint256",
          "name": "requestId",
          "type": "uint256"
        }
      ],
      "name": "RequestedMint",
      "type": "event"
    },
    {
      "anonymous": false,
      "inputs": [
        {
          "indexed": true,
          "internalType": "address",
          "name": "beneficiary",
          "type": "address"
        },
        {
          "indexed": false,
          "internalType": "uint256",
          "name": "numPurchased",
          "type": "uint256"
        },
        {
          "indexed": false,
          "internalType": "uint256",
          "name": "amount",
          "type": "uint256"
        }
      ],
      "name": "Revenue",
      "type": "event"
    },
    {
      "anonymous": false,
      "inputs": [
        {
          "indexed": true,
          "internalType": "address",
          "name": "from",
          "type": "address"
        },
        {
          "indexed": true,
          "internalType": "address",
          "name": "to",
          "type": "address"
        },
        {
          "indexed": true,
          "internalType": "uint256",
          "name": "tokenId",
          "type": "uint256"
        }
      ],
      "name": "Transfer",
      "type": "event"
    },
    {
      "anonymous": false,
      "inputs": [
        {
          "indexed": false,
          "internalType": "address",
          "name": "account",
          "type": "address"
        }
      ],
      "name": "Unpaused",
      "type": "event"
    },
    {
      "inputs": [
        {
          "internalType": "address",
          "name": "to",
          "type": "address"
        },
        {
          "internalType": "uint256",
          "name": "tokenId",
          "type": "uint256"
        }
      ],
      "name": "approve",
      "outputs": [],
      "stateMutability": "nonpayable",
      "type": "function"
    },
    {
      "inputs": [
        {
          "internalType": "address",
          "name": "owner",
          "type": "address"
        }
      ],
      "name": "balanceOf",
      "outputs": [
        {
          "internalType": "uint256",
          "name": "",
          "type": "uint256"
        }
      ],
      "stateMutability": "view",
      "type": "function"
    },
    {
      "inputs": [],
      "name": "baseTokenURI",
      "outputs": [
        {
          "internalType": "string",
          "name": "",
          "type": "string"
        }
      ],
      "stateMutability": "view",
      "type": "function"
    },
    {
      "inputs": [],
      "name": "beneficiary",
      "outputs": [
        {
          "internalType": "address payable",
          "name": "",
          "type": "address"
        }
      ],
      "stateMutability": "view",
      "type": "function"
    },
    {
      "inputs": [
        {
          "internalType": "uint256",
          "name": "n",
          "type": "uint256"
        },
        {
          "internalType": "uint256",
          "name": "",
          "type": "uint256"
        }
      ],
      "name": "cost",
      "outputs": [
        {
          "internalType": "uint256",
          "name": "",
          "type": "uint256"
        }
      ],
      "stateMutability": "view",
      "type": "function"
    },
    {
      "inputs": [
        {
          "internalType": "uint256",
          "name": "tokenId",
          "type": "uint256"
        }
      ],
      "name": "getApproved",
      "outputs": [
        {
          "internalType": "address",
          "name": "",
          "type": "address"
        }
      ],
      "stateMutability": "view",
      "type": "function"
    },
    {
      "inputs": [
        {
          "internalType": "uint256",
          "name": "",
          "type": "uint256"
        }
      ],
      "name": "ids",
      "outputs": [
        {
          "internalType": "uint16",
          "name": "",
          "type": "uint16"
        }
      ],
      "stateMutability": "view",
      "type": "function"
    },
    {
      "inputs": [
        {
          "internalType": "address",
          "name": "owner",
          "type": "address"
        },
        {
          "internalType": "address",
          "name": "operator",
          "type": "address"
        }
      ],
      "name": "isApprovedForAll",
      "outputs": [
        {
          "internalType": "bool",
          "name": "",
          "type": "bool"
        }
      ],
      "stateMutability": "view",
      "type": "function"
    },
    {
      "inputs": [
        {
          "internalType": "address",
          "name": "to",
          "type": "address"
        }
      ],
      "name": "mintFrogxel",
      "outputs": [],
      "stateMutability": "payable",
      "type": "function"
    },
    {
      "inputs": [],
      "name": "name",
      "outputs": [
        {
          "internalType": "string",
          "name": "",
          "type": "string"
        }
      ],
      "stateMutability": "view",
      "type": "function"
    },
    {
      "inputs": [],
      "name": "owner",
      "outputs": [
        {
          "internalType": "address",
          "name": "",
          "type": "address"
        }
      ],
      "stateMutability": "view",
      "type": "function"
    },
    {
      "inputs": [
        {
          "internalType": "uint256",
          "name": "tokenId",
          "type": "uint256"
        }
      ],
      "name": "ownerOf",
      "outputs": [
        {
          "internalType": "address",
          "name": "",
          "type": "address"
        }
      ],
      "stateMutability": "view",
      "type": "function"
    },
    {
      "inputs": [],
      "name": "pause",
      "outputs": [],
      "stateMutability": "nonpayable",
      "type": "function"
    },
    {
      "inputs": [],
      "name": "paused",
      "outputs": [
        {
          "internalType": "bool",
          "name": "",
          "type": "bool"
        }
      ],
      "stateMutability": "view",
      "type": "function"
    },
    {
      "inputs": [],
      "name": "price",
      "outputs": [
        {
          "internalType": "uint256",
          "name": "",
          "type": "uint256"
        }
      ],
      "stateMutability": "view",
      "type": "function"
    },
    {
      "inputs": [
        {
          "internalType": "address",
          "name": "to",
          "type": "address"
        },
        {
          "internalType": "uint256",
          "name": "n",
          "type": "uint256"
        }
      ],
      "name": "purchaseFreeOfCharge",
      "outputs": [],
      "stateMutability": "nonpayable",
      "type": "function"
    },
    {
      "inputs": [
        {
          "internalType": "uint256",
          "name": "requestId",
          "type": "uint256"
        },
        {
          "internalType": "uint256[]",
          "name": "randomWords",
          "type": "uint256[]"
        }
      ],
      "name": "rawFulfillRandomWords",
      "outputs": [],
      "stateMutability": "nonpayable",
      "type": "function"
    },
    {
      "inputs": [],
      "name": "renounceOwnership",
      "outputs": [],
      "stateMutability": "nonpayable",
      "type": "function"
    },
    {
      "inputs": [
        {
          "internalType": "uint256",
          "name": "",
          "type": "uint256"
        }
      ],
      "name": "requestIdToMinter",
      "outputs": [
        {
          "internalType": "address",
          "name": "",
          "type": "address"
        }
      ],
      "stateMutability": "view",
      "type": "function"
    },
    {
      "inputs": [
        {
          "internalType": "address",
          "name": "from",
          "type": "address"
        },
        {
          "internalType": "address",
          "name": "to",
          "type": "address"
        },
        {
          "internalType": "uint256",
          "name": "tokenId",
          "type": "uint256"
        }
      ],
      "name": "safeTransferFrom",
      "outputs": [],
      "stateMutability": "nonpayable",
      "type": "function"
    },
    {
      "inputs": [
        {
          "internalType": "address",
          "name": "from",
          "type": "address"
        },
        {
          "internalType": "address",
          "name": "to",
          "type": "address"
        },
        {
          "internalType": "uint256",
          "name": "tokenId",
          "type": "uint256"
        },
        {
          "internalType": "bytes",
          "name": "data",
          "type": "bytes"
        }
      ],
      "name": "safeTransferFrom",
      "outputs": [],
      "stateMutability": "nonpayable",
      "type": "function"
    },
    {
      "inputs": [],
      "name": "sellerConfig",
      "outputs": [
        {
          "internalType": "uint256",
          "name": "totalInventory",
          "type": "uint256"
        },
        {
          "internalType": "uint256",
          "name": "maxPerAddress",
          "type": "uint256"
        },
        {
          "internalType": "uint256",
          "name": "maxPerTx",
          "type": "uint256"
        },
        {
          "internalType": "uint248",
          "name": "freeQuota",
          "type": "uint248"
        },
        {
          "internalType": "bool",
          "name": "reserveFreeQuota",
          "type": "bool"
        },
        {
          "internalType": "bool",
          "name": "lockFreeQuota",
          "type": "bool"
        },
        {
          "internalType": "bool",
          "name": "lockTotalInventory",
          "type": "bool"
        }
      ],
      "stateMutability": "view",
      "type": "function"
    },
    {
      "inputs": [
        {
          "internalType": "address",
          "name": "operator",
          "type": "address"
        },
        {
          "internalType": "bool",
          "name": "approved",
          "type": "bool"
        }
      ],
      "name": "setApprovalForAll",
      "outputs": [],
      "stateMutability": "nonpayable",
      "type": "function"
    },
    {
      "inputs": [
        {
          "internalType": "string",
          "name": "_baseTokenURI",
          "type": "string"
        }
      ],
      "name": "setBaseTokenURI",
      "outputs": [],
      "stateMutability": "nonpayable",
      "type": "function"
    },
    {
      "inputs": [
        {
          "internalType": "address payable",
          "name": "_beneficiary",
          "type": "address"
        }
      ],
      "name": "setBeneficiary",
      "outputs": [],
      "stateMutability": "nonpayable",
      "type": "function"
    },
    {
      "inputs": [
        {
          "internalType": "uint256",
          "name": "_price",
          "type": "uint256"
        }
      ],
      "name": "setPrice",
      "outputs": [],
      "stateMutability": "nonpayable",
      "type": "function"
    },
    {
      "inputs": [
        {
          "components": [
            {
              "internalType": "uint256",
              "name": "totalInventory",
              "type": "uint256"
            },
            {
              "internalType": "uint256",
              "name": "maxPerAddress",
              "type": "uint256"
            },
            {
              "internalType": "uint256",
              "name": "maxPerTx",
              "type": "uint256"
            },
            {
              "internalType": "uint248",
              "name": "freeQuota",
              "type": "uint248"
            },
            {
              "internalType": "bool",
              "name": "reserveFreeQuota",
              "type": "bool"
            },
            {
              "internalType": "bool",
              "name": "lockFreeQuota",
              "type": "bool"
            },
            {
              "internalType": "bool",
              "name": "lockTotalInventory",
              "type": "bool"
            }
          ],
          "internalType": "struct Seller.SellerConfig",
          "name": "config",
          "type": "tuple"
        }
      ],
      "name": "setSellerConfig",
      "outputs": [],
      "stateMutability": "nonpayable",
      "type": "function"
    },
    {
      "inputs": [
        {
          "internalType": "bytes4",
          "name": "interfaceId",
          "type": "bytes4"
        }
      ],
      "name": "supportsInterface",
      "outputs": [
        {
          "internalType": "bool",
          "name": "",
          "type": "bool"
        }
      ],
      "stateMutability": "view",
      "type": "function"
    },
    {
      "inputs": [],
      "name": "symbol",
      "outputs": [
        {
          "internalType": "string",
          "name": "",
          "type": "string"
        }
      ],
      "stateMutability": "view",
      "type": "function"
    },
    {
      "inputs": [
        {
          "internalType": "uint256",
          "name": "tokenId",
          "type": "uint256"
        }
      ],
      "name": "tokenURI",
      "outputs": [
        {
          "internalType": "string",
          "name": "",
          "type": "string"
        }
      ],
      "stateMutability": "view",
      "type": "function"
    },
    {
      "inputs": [],
      "name": "totalSold",
      "outputs": [
        {
          "internalType": "uint256",
          "name": "",
          "type": "uint256"
        }
      ],
      "stateMutability": "view",
      "type": "function"
    },
    {
      "inputs": [
        {
          "internalType": "address",
          "name": "from",
          "type": "address"
        },
        {
          "internalType": "address",
          "name": "to",
          "type": "address"
        },
        {
          "internalType": "uint256",
          "name": "tokenId",
          "type": "uint256"
        }
      ],
      "name": "transferFrom",
      "outputs": [],
      "stateMutability": "nonpayable",
      "type": "function"
    },
    {
      "inputs": [
        {
          "internalType": "address",
          "name": "newOwner",
          "type": "address"
        }
      ],
      "name": "transferOwnership",
      "outputs": [],
      "stateMutability": "nonpayable",
      "type": "function"
    },
    {
      "inputs": [],
      "name": "unpause",
      "outputs": [],
      "stateMutability": "nonpayable",
      "type": "function"
    }
  ],
  "bytecode": "6101206040523480156200001257600080fd5b5060405162003442380380620034428339810160408190526200003591620004b9565b60405180602001604052806000815250662386f26fc100006040518060e0016040528060058152602001600581526020016001815260200160016001600160f81b03168152602001600115158152602001600015158152602001600115158152508381818a6040518060400160405280600a81526020016946726f6778566572736560b01b81525060405180604001604052806007815260200166119493d1d6115360ca1b8152508160009081620000ee9190620005e5565b506001620000fd8282620005e5565b5050506001600160a01b0316608052620001173362000193565b6006805460ff60a01b1916905560016007556200013482620001e5565b6200013f81620003e7565b506200014d90508362000413565b50505062000161816200042260201b60201c565b50506001600160a01b0390931660a05260c0919091526001600160401b031660e05263ffffffff1661010052620006b1565b600680546001600160a01b038381166001600160a01b0319831681179093556040519116919082907f8be0079c531659141344cd1fd0a4f28419497f9722a3daafe3b4186f6b6457e090600090a35050565b620001ef6200043e565b80606001516001600160f81b031681600001511015620002565760405162461bcd60e51b815260206004820152601c60248201527f53656c6c65723a2065786365737369766520667265652071756f74610000000060448201526064015b60405180910390fd5b6200026d600e6200049c60201b62000ffd1760201c565b81511015620002bf5760405162461bcd60e51b815260206004820181905260248201527f53656c6c65723a20696e76656e746f7279203c20616c726561647920736f6c6460448201526064016200024d565b620002d660106200049c60201b62000ffd1760201c565b81606001516001600160f81b031610156200033e5760405162461bcd60e51b815260206004820152602160248201527f53656c6c65723a20667265652071756f7461203c20616c7265616479207573656044820152601960fa1b60648201526084016200024d565b600c54610100900460ff16156200035c57600160c082015260085481525b600c5460ff16156200038157600160a0820152600b546001600160f81b031660608201525b805160085560208101516009556040810151600a55606081015160808201511515600160f81b026001600160f81b0390911617600b5560a0810151600c805460c09093015115156101000261ff00199215159290921661ffff1990931692909217179055565b620003f16200043e565b600d80546001600160a01b0319166001600160a01b0392909216919091179055565b6200041d6200043e565b601155565b6200042c6200043e565b60126200043a8282620005e5565b5050565b6006546001600160a01b031633146200049a5760405162461bcd60e51b815260206004820181905260248201527f4f776e61626c653a2063616c6c6572206973206e6f7420746865206f776e657260448201526064016200024d565b565b5490565b6001600160a01b0381168114620004b657600080fd5b50565b600080600080600060a08688031215620004d257600080fd5b8551620004df81620004a0565b6020870151604088015191965094506001600160401b03811681146200050457600080fd5b606087015190935063ffffffff811681146200051f57600080fd5b60808701519092506200053281620004a0565b809150509295509295909350565b634e487b7160e01b600052604160045260246000fd5b600181811c908216806200056b57607f821691505b6020821081036200058c57634e487b7160e01b600052602260045260246000fd5b50919050565b601f821115620005e057600081815260208120601f850160051c81016020861015620005bb5750805b601f850160051c820191505b81811015620005dc57828155600101620005c7565b5050505b505050565b81516001600160401b0381111562000601576200060162000540565b620006198162000612845462000556565b8462000592565b602080601f831160018114620006515760008415620006385750858301515b600019600386901b1c1916600185901b178555620005dc565b600085815260208120601f198616915b82811015620006825788860151825594840194600190910190840162000661565b5085821015620006a15787850151600019600388901b60f8161c191681555b5050505050600190811b01905550565b60805160a05160c05160e05161010051612d45620006fd60003960006118b80152600061188501526000611856015260006118e9015260008181610938015261097a0152612d456000f3fe6080604052600436106101f95760003560e01c806370a082311161010d578063a22cb465116100a0578063c87b56dd1161006f578063c87b56dd1461060d578063d547cfb71461062d578063e985e9c514610642578063f2fde38b1461068b578063fac333ac146106ab57600080fd5b8063a22cb46514610522578063b88d4fde14610542578063bb69b7ef14610562578063bf62e21d146105ed57600080fd5b80639106d7ba116100dc5780639106d7ba146104c257806391b7f5ed146104d757806395d89b41146104f7578063a035b1fe1461050c57600080fd5b806370a082311461045a578063715018a61461047a5780638456cb591461048f5780638da5cb5b146104a457600080fd5b80632f274bd4116101905780633f4ba83a1161015f5780633f4ba83a146103b057806342842e0e146103c55780635c975abb146103e55780635e2fcca5146104045780636352211e1461043a57600080fd5b80632f274bd41461032257806330176e131461034257806338af3eed146103625780633ec02e141461038257600080fd5b80631c31f710116101cc5780631c31f710146102af5780631fe543e3146102cf57806323b872dd146102ef5780632961cd031461030f57600080fd5b806301ffc9a7146101fe57806306fdde0314610233578063081812fc14610255578063095ea7b31461028d575b600080fd5b34801561020a57600080fd5b5061021e610219366004612455565b6106de565b60405190151581526020015b60405180910390f35b34801561023f57600080fd5b50610248610730565b60405161022a91906124ca565b34801561026157600080fd5b506102756102703660046124dd565b6107c2565b6040516001600160a01b03909116815260200161022a565b34801561029957600080fd5b506102ad6102a836600461250b565b6107e9565b005b3480156102bb57600080fd5b506102ad6102ca366004612537565b610903565b3480156102db57600080fd5b506102ad6102ea3660046125c4565b61092d565b3480156102fb57600080fd5b506102ad61030a366004612676565b6109b5565b6102ad61031d366004612537565b6109e6565b34801561032e57600080fd5b506102ad61033d3660046126cc565b6109f4565b34801561034e57600080fd5b506102ad61035d3660046127af565b610bc0565b34801561036e57600080fd5b50600d54610275906001600160a01b031681565b34801561038e57600080fd5b506103a261039d3660046127f8565b610bd4565b60405190815260200161022a565b3480156103bc57600080fd5b506102ad610beb565b3480156103d157600080fd5b506102ad6103e0366004612676565b610bfd565b3480156103f157600080fd5b50600654600160a01b900460ff1661021e565b34801561041057600080fd5b5061027561041f3660046124dd565b6015602052600090815260409020546001600160a01b031681565b34801561044657600080fd5b506102756104553660046124dd565b610c18565b34801561046657600080fd5b506103a2610475366004612537565b610c78565b34801561048657600080fd5b506102ad610cfe565b34801561049b57600080fd5b506102ad610d10565b3480156104b057600080fd5b506006546001600160a01b0316610275565b3480156104ce57600080fd5b506103a2610d20565b3480156104e357600080fd5b506102ad6104f23660046124dd565b610d30565b34801561050357600080fd5b50610248610d3d565b34801561051857600080fd5b506103a260115481565b34801561052e57600080fd5b506102ad61053d36600461281a565b610d4c565b34801561054e57600080fd5b506102ad61055d36600461284f565b610d57565b34801561056e57600080fd5b50600854600954600a54600b54600c546105aa949392916001600160f81b0381169160ff600160f81b9092048216918181169161010090041687565b604080519788526020880196909652948601939093526001600160f81b03909116606085015215156080840152151560a0830152151560c082015260e00161022a565b3480156105f957600080fd5b506102ad61060836600461250b565b610d8f565b34801561061957600080fd5b506102486106283660046124dd565b610ec0565b34801561063957600080fd5b50610248610ecb565b34801561064e57600080fd5b5061021e61065d3660046128cf565b6001600160a01b03918216600090815260056020908152604080832093909416825291909152205460ff1690565b34801561069757600080fd5b506102ad6106a6366004612537565b610f59565b3480156106b757600080fd5b506106cb6106c63660046124dd565b610fcf565b60405161ffff909116815260200161022a565b60006001600160e01b031982166380ac58cd60e01b148061070f57506001600160e01b03198216635b5e139f60e01b145b8061072a57506301ffc9a760e01b6001600160e01b03198316145b92915050565b60606000805461073f90612908565b80601f016020809104026020016040519081016040528092919081815260200182805461076b90612908565b80156107b85780601f1061078d576101008083540402835291602001916107b8565b820191906000526020600020905b81548152906001019060200180831161079b57829003601f168201915b5050505050905090565b60006107cd82611001565b506000908152600460205260409020546001600160a01b031690565b60006107f482610c18565b9050806001600160a01b0316836001600160a01b0316036108665760405162461bcd60e51b815260206004820152602160248201527f4552433732313a20617070726f76616c20746f2063757272656e74206f776e656044820152603960f91b60648201526084015b60405180910390fd5b336001600160a01b03821614806108825750610882813361065d565b6108f45760405162461bcd60e51b815260206004820152603e60248201527f4552433732313a20617070726f76652063616c6c6572206973206e6f7420746f60448201527f6b656e206f776e6572206e6f7220617070726f76656420666f7220616c6c0000606482015260840161085d565b6108fe8383611060565b505050565b61090b6110ce565b600d80546001600160a01b0319166001600160a01b0392909216919091179055565b336001600160a01b037f000000000000000000000000000000000000000000000000000000000000000016146109a75760405163073e64fd60e21b81523360048201526001600160a01b037f000000000000000000000000000000000000000000000000000000000000000016602482015260440161085d565b6109b18282611128565b5050565b6109bf33826113b5565b6109db5760405162461bcd60e51b815260040161085d90612942565b6108fe838383611434565b6109f18160016115d0565b50565b6109fc6110ce565b80606001516001600160f81b031681600001511015610a5d5760405162461bcd60e51b815260206004820152601c60248201527f53656c6c65723a2065786365737369766520667265652071756f746100000000604482015260640161085d565b600e5481511015610ab05760405162461bcd60e51b815260206004820181905260248201527f53656c6c65723a20696e76656e746f7279203c20616c726561647920736f6c64604482015260640161085d565b60105481606001516001600160f81b03161015610b195760405162461bcd60e51b815260206004820152602160248201527f53656c6c65723a20667265652071756f7461203c20616c7265616479207573656044820152601960fa1b606482015260840161085d565b600c54610100900460ff1615610b3657600160c082015260085481525b600c5460ff1615610b5a57600160a0820152600b546001600160f81b031660608201525b805160085560208101516009556040810151600a55606081015160808201511515600160f81b026001600160f81b0390911617600b5560a0810151600c805460c09093015115156101000261ff00199215159290921661ffff1990931692909217179055565b610bc86110ce565b60126109b182826129de565b600060115483610be49190612ab4565b9392505050565b610bf36110ce565b610bfb6115dc565b565b6108fe83838360405180602001604052806000815250610d57565b6000818152600260205260408120546001600160a01b03168061072a5760405162461bcd60e51b8152602060048201526018602482015277115490cdcc8c4e881a5b9d985b1a59081d1bdad95b88125160421b604482015260640161085d565b60006001600160a01b038216610ce25760405162461bcd60e51b815260206004820152602960248201527f4552433732313a2061646472657373207a65726f206973206e6f7420612076616044820152683634b21037bbb732b960b91b606482015260840161085d565b506001600160a01b031660009081526003602052604090205490565b610d066110ce565b610bfb6000611631565b610d186110ce565b610bfb611683565b6000610d2b600e5490565b905090565b610d386110ce565b601155565b60606001805461073f90612908565b6109b13383836116c6565b610d6133836113b5565b610d7d5760405162461bcd60e51b815260040161085d90612942565b610d8984848484611794565b50505050565b610d976110ce565b610d9f6117c7565b600b546001600160f81b0316610dc782610db860105490565b610dc29084612ad3565b611814565b915060008211610e195760405162461bcd60e51b815260206004820152601b60248201527f53656c6c65723a20467265652071756f74612065786365656465640000000000604482015260640161085d565b600854610e2983610db8600e5490565b925060008311610e6e5760405162461bcd60e51b815260206004820152601060248201526f14d95b1b195c8e8814dbdb19081bdd5d60821b604482015260640161085d565b610e79600e8461182a565b610e8460108461182a565b610e9084846001611847565b80610e9a600e5490565b1115610ea857610ea8612aea565b81610eb260105490565b1115610d8957610d89612aea565b606061072a826119b6565b60128054610ed890612908565b80601f0160208091040260200160405190810160405280929190818152602001828054610f0490612908565b8015610f515780601f10610f2657610100808354040283529160200191610f51565b820191906000526020600020905b815481529060010190602001808311610f3457829003601f168201915b505050505081565b610f616110ce565b6001600160a01b038116610fc65760405162461bcd60e51b815260206004820152602660248201527f4f776e61626c653a206e6577206f776e657220697320746865207a65726f206160448201526564647265737360d01b606482015260840161085d565b6109f181611631565b60138160058110610fdf57600080fd5b60109182820401919006600202915054906101000a900461ffff1681565b5490565b6000818152600260205260409020546001600160a01b03166109f15760405162461bcd60e51b8152602060048201526018602482015277115490cdcc8c4e881a5b9d985b1a59081d1bdad95b88125160421b604482015260640161085d565b600081815260046020526040902080546001600160a01b0319166001600160a01b038416908117909155819061109582610c18565b6001600160a01b03167f8c5be1e5ebec7d5bd14f71427d1e84f3dd0314c0f7b2291e5b200ac8c7c3b92560405160405180910390a45050565b6006546001600160a01b03163314610bfb5760405162461bcd60e51b815260206004820181905260248201527f4f776e61626c653a2063616c6c6572206973206e6f7420746865206f776e6572604482015260640161085d565b6014805460009161ffff909116908261114083612b00565b91906101000a81548161ffff021916908361ffff16021790555061ffff16600561116a9190612ad3565b9050600081116111af5760405162461bcd60e51b815260206004820152601060248201526f139bc8119c9bd9de195b1cc81b19599d60821b604482015260640161085d565b600081836000815181106111c5576111c5612b21565b60200260200101516111d79190612b4d565b90506000601382600581106111ee576111ee612b21565b601091828204019190066002029054906101000a900461ffff1661ffff16600003611219578161124b565b6013826005811061122c5761122c612b21565b601091828204019190066002029054906101000a900461ffff1661ffff165b9050601361125a600185612ad3565b6005811061126a5761126a612b21565b601081049190910154600f9091166002026101000a900461ffff16156112ca576013611297600185612ad3565b600581106112a7576112a7612b21565b601091828204019190066002029054906101000a900461ffff1661ffff166112d5565b6112d5600184612ad3565b601383600581106112e8576112e8612b21565b601091828204019190066002026101000a81548161ffff021916908361ffff1602179055506000601360018561131e9190612ad3565b6005811061132e5761132e612b21565b601091828204019190066002026101000a81548161ffff021916908361ffff1602179055506113836015600087815260200190815260200160002060009054906101000a90046001600160a01b031682611a1c565b60405181907ffa129704cd590eed28accb1bac82f9ba5617ad81e6af279ae13b5ac63a5b322490600090a25050505050565b6000806113c183610c18565b9050806001600160a01b0316846001600160a01b0316148061140857506001600160a01b0380821660009081526005602090815260408083209388168352929052205460ff165b8061142c5750836001600160a01b0316611421846107c2565b6001600160a01b0316145b949350505050565b826001600160a01b031661144782610c18565b6001600160a01b0316146114ab5760405162461bcd60e51b815260206004820152602560248201527f4552433732313a207472616e736665722066726f6d20696e636f72726563742060448201526437bbb732b960d91b606482015260840161085d565b6001600160a01b03821661150d5760405162461bcd60e51b8152602060048201526024808201527f4552433732313a207472616e7366657220746f20746865207a65726f206164646044820152637265737360e01b606482015260840161085d565b611518600082611060565b6001600160a01b0383166000908152600360205260408120805460019290611541908490612ad3565b90915550506001600160a01b038216600090815260036020526040812080546001929061156f908490612b61565b909155505060008181526002602052604080822080546001600160a01b0319166001600160a01b0386811691821790925591518493918716917fddf252ad1be2c89b69c2b068fc378daa952ba7f163c4a11628f55a4df523b3ef91a4505050565b6109b182826000611a36565b6115e4611ef1565b6006805460ff60a01b191690557f5db9ee0a495bf2e6ff9c91a7834c1ba4fdd244a5e8aa4e537bd38aeae4b073aa335b6040516001600160a01b03909116815260200160405180910390a1565b600680546001600160a01b038381166001600160a01b0319831681179093556040519116919082907f8be0079c531659141344cd1fd0a4f28419497f9722a3daafe3b4186f6b6457e090600090a35050565b61168b6117c7565b6006805460ff60a01b1916600160a01b1790557f62e78cea01bee320cd4e420270b5ea74000d11b0c9f74754ebdbfc544b05a2586116143390565b816001600160a01b0316836001600160a01b0316036117275760405162461bcd60e51b815260206004820152601960248201527f4552433732313a20617070726f766520746f2063616c6c657200000000000000604482015260640161085d565b6001600160a01b03838116600081815260056020908152604080832094871680845294825291829020805460ff191686151590811790915591519182527f17307eab39ab6107e8899845ad3d59bd9653f200f220920489ca2b5937696c31910160405180910390a3505050565b61179f848484611434565b6117ab84848484611f41565b610d895760405162461bcd60e51b815260040161085d90612b79565b600654600160a01b900460ff1615610bfb5760405162461bcd60e51b815260206004820152601060248201526f14185d5cd8589b194e881c185d5cd95960821b604482015260640161085d565b60008183106118235781610be4565b5090919050565b8082600001600082825461183e9190612b61565b90915550505050565b6040516305d3b1d360e41b81527f0000000000000000000000000000000000000000000000000000000000000000600482015267ffffffffffffffff7f00000000000000000000000000000000000000000000000000000000000000001660248201526003604482015263ffffffff7f0000000000000000000000000000000000000000000000000000000000000000166064820152600160848201526000907f00000000000000000000000000000000000000000000000000000000000000006001600160a01b031690635d3b1d309060a4016020604051808303816000875af115801561193a573d6000803e3d6000fd5b505050506040513d601f19601f8201168201806040525081019061195e9190612bcb565b60008181526015602052604080822080546001600160a01b0319166001600160a01b0389161790555191925082917ff76e87796e0d30d26631c878e060e8f2713f3ff6cbca914adc1535ca58fb26fc9190a250505050565b60606119c182611001565b60006119cb612042565b905060008151116119eb5760405180602001604052806000815250610be4565b806119f58461204c565b604051602001611a06929190612be4565b6040516020818303038152906040529392505050565b6109b182826040518060200160405280600081525061214d565b600260075403611a885760405162461bcd60e51b815260206004820152601f60248201527f5265656e7472616e637947756172643a207265656e7472616e742063616c6c00604482015260640161085d565b6002600755611a956117c7565b6040805160e08101825260085481526009546020820152600a54918101829052600b546001600160f81b038116606083015260ff600160f81b909104811615156080830152600c54808216151560a0840152610100900416151560c08201529060009015611b1057611b0b848360400151611814565b611b12565b835b9050600080836080015115611b5a5760608401518451611b3b916001600160f81b031690612ad3565b9150611b4660105490565b600e54611b539190612ad3565b9050611b6a565b83519150611b67600e5490565b90505b611b7883610dc28385612ad3565b925060008311611bbd5760405162461bcd60e51b815260206004820152601060248201526f14d95b1b195c8e8814dbdb19081bdd5d60821b604482015260640161085d565b602084015115611d1957336001600160a01b038816811415906000903214801590611bf15750326001600160a01b038a1614155b9050611c21858a6040518060400160405280600b81526020016a109d5e595c881b1a5b5a5d60aa1b815250612180565b94508115611c5b57611c5885336040518060400160405280600c81526020016b14d95b99195c881b1a5b5a5d60a21b815250612180565b94505b8015611c9357611c9085326040518060400160405280600c81526020016b13dc9a59da5b881b1a5b5a5d60a21b815250612180565b94505b6001600160a01b0389166000908152600f602052604081208054879290611cbb908490612b61565b90915550508115611ceb57336000908152600f602052604081208054879290611ce5908490612b61565b90915550505b8015611d1657326000908152600f602052604081208054879290611d10908490612b61565b90915550505b50505b6000611d258487610bd4565b905080341015611d7b57611d45611d40633b9aca0083612c13565b61204c565b604051602001611d559190612c27565b60408051601f198184030181529082905262461bcd60e51b825261085d916004016124ca565b611d86600e8561182a565b8451600e541115611d9957611d99612aea565b611da588856000611847565b8015611e0a57600d54611dc1906001600160a01b0316826121d5565b600d5460408051868152602081018490526001600160a01b03909216917f01f51b99bd1c3cca301836178e5dee13aadfe44eff06dc3ddcbf3c9d058454f8910160405180910390a25b80341115611ee257336000611e1f8334612ad3565b9050600080836001600160a01b03168360405160006040518083038185875af1925050503d8060008114611e6f576040519150601f19603f3d011682016040523d82523d6000602084013e611e74565b606091505b5091509150818190611e995760405162461bcd60e51b815260040161085d91906124ca565b50836001600160a01b03167fbb28353e4598c3b9199101a66e0989549b659a59a54d2c27fbb183f1932c8e6d84604051611ed591815260200190565b60405180910390a2505050505b50506001600755505050505050565b600654600160a01b900460ff16610bfb5760405162461bcd60e51b815260206004820152601460248201527314185d5cd8589b194e881b9bdd081c185d5cd95960621b604482015260640161085d565b60006001600160a01b0384163b1561203757604051630a85bd0160e11b81526001600160a01b0385169063150b7a0290611f85903390899088908890600401612c6c565b6020604051808303816000875af1925050508015611fc0575060408051601f3d908101601f19168201909252611fbd91810190612ca9565b60015b61201d573d808015611fee576040519150601f19603f3d011682016040523d82523d6000602084013e611ff3565b606091505b5080516000036120155760405162461bcd60e51b815260040161085d90612b79565b805181602001fd5b6001600160e01b031916630a85bd0160e11b14905061142c565b506001949350505050565b6060610d2b6122ee565b6060816000036120735750506040805180820190915260018152600360fc1b602082015290565b8160005b811561209d578061208781612cc6565b91506120969050600a83612c13565b9150612077565b60008167ffffffffffffffff8111156120b8576120b8612554565b6040519080825280601f01601f1916602001820160405280156120e2576020820181803683370190505b5090505b841561142c576120f7600183612ad3565b9150612104600a86612b4d565b61210f906030612b61565b60f81b81838151811061212457612124612b21565b60200101906001600160f81b031916908160001a905350612146600a86612c13565b94506120e6565b61215783836122fd565b6121646000848484611f41565b6108fe5760405162461bcd60e51b815260040161085d90612b79565b6001600160a01b0382166000908152600f602052604081205460095482916121a791612ad3565b9050806000036121c25782604051602001611d559190612cdf565b6121cc8582611814565b95945050505050565b804710156122255760405162461bcd60e51b815260206004820152601d60248201527f416464726573733a20696e73756666696369656e742062616c616e6365000000604482015260640161085d565b6000826001600160a01b03168260405160006040518083038185875af1925050503d8060008114612272576040519150601f19603f3d011682016040523d82523d6000602084013e612277565b606091505b50509050806108fe5760405162461bcd60e51b815260206004820152603a60248201527f416464726573733a20756e61626c6520746f2073656e642076616c75652c207260448201527f6563697069656e74206d61792068617665207265766572746564000000000000606482015260840161085d565b60606012805461073f90612908565b6001600160a01b0382166123535760405162461bcd60e51b815260206004820181905260248201527f4552433732313a206d696e7420746f20746865207a65726f2061646472657373604482015260640161085d565b6000818152600260205260409020546001600160a01b0316156123b85760405162461bcd60e51b815260206004820152601c60248201527f4552433732313a20746f6b656e20616c7265616479206d696e74656400000000604482015260640161085d565b6001600160a01b03821660009081526003602052604081208054600192906123e1908490612b61565b909155505060008181526002602052604080822080546001600160a01b0319166001600160a01b03861690811790915590518392907fddf252ad1be2c89b69c2b068fc378daa952ba7f163c4a11628f55a4df523b3ef908290a45050565b6001600160e01b0319811681146109f157600080fd5b60006020828403121561246757600080fd5b8135610be48161243f565b60005b8381101561248d578181015183820152602001612475565b83811115610d895750506000910152565b600081518084526124b6816020860160208601612472565b601f01601f19169290920160200192915050565b602081526000610be4602083018461249e565b6000602082840312156124ef57600080fd5b5035919050565b6001600160a01b03811681146109f157600080fd5b6000806040838503121561251e57600080fd5b8235612529816124f6565b946020939093013593505050565b60006020828403121561254957600080fd5b8135610be4816124f6565b634e487b7160e01b600052604160045260246000fd5b60405160e0810167ffffffffffffffff8111828210171561258d5761258d612554565b60405290565b604051601f8201601f1916810167ffffffffffffffff811182821017156125bc576125bc612554565b604052919050565b600080604083850312156125d757600080fd5b8235915060208084013567ffffffffffffffff808211156125f757600080fd5b818601915086601f83011261260b57600080fd5b81358181111561261d5761261d612554565b8060051b915061262e848301612593565b818152918301840191848101908984111561264857600080fd5b938501935b838510156126665784358252938501939085019061264d565b8096505050505050509250929050565b60008060006060848603121561268b57600080fd5b8335612696816124f6565b925060208401356126a6816124f6565b929592945050506040919091013590565b803580151581146126c757600080fd5b919050565b600060e082840312156126de57600080fd5b6126e661256a565b82358152602080840135908201526040808401359082015260608301356001600160f81b038116811461271857600080fd5b6060820152612729608084016126b7565b608082015261273a60a084016126b7565b60a082015261274b60c084016126b7565b60c08201529392505050565b600067ffffffffffffffff83111561277157612771612554565b612784601f8401601f1916602001612593565b905082815283838301111561279857600080fd5b828260208301376000602084830101529392505050565b6000602082840312156127c157600080fd5b813567ffffffffffffffff8111156127d857600080fd5b8201601f810184136127e957600080fd5b61142c84823560208401612757565b6000806040838503121561280b57600080fd5b50508035926020909101359150565b6000806040838503121561282d57600080fd5b8235612838816124f6565b9150612846602084016126b7565b90509250929050565b6000806000806080858703121561286557600080fd5b8435612870816124f6565b93506020850135612880816124f6565b925060408501359150606085013567ffffffffffffffff8111156128a357600080fd5b8501601f810187136128b457600080fd5b6128c387823560208401612757565b91505092959194509250565b600080604083850312156128e257600080fd5b82356128ed816124f6565b915060208301356128fd816124f6565b809150509250929050565b600181811c9082168061291c57607f821691505b60208210810361293c57634e487b7160e01b600052602260045260246000fd5b50919050565b6020808252602e908201527f4552433732313a2063616c6c6572206973206e6f7420746f6b656e206f776e6560408201526d1c881b9bdc88185c1c1c9bdd995960921b606082015260800190565b601f8211156108fe57600081815260208120601f850160051c810160208610156129b75750805b601f850160051c820191505b818110156129d6578281556001016129c3565b505050505050565b815167ffffffffffffffff8111156129f8576129f8612554565b612a0c81612a068454612908565b84612990565b602080601f831160018114612a415760008415612a295750858301515b600019600386901b1c1916600185901b1785556129d6565b600085815260208120601f198616915b82811015612a7057888601518255948401946001909101908401612a51565b5085821015612a8e5787850151600019600388901b60f8161c191681555b5050505050600190811b01905550565b634e487b7160e01b600052601160045260246000fd5b6000816000190483118215151615612ace57612ace612a9e565b500290565b600082821015612ae557612ae5612a9e565b500390565b634e487b7160e01b600052600160045260246000fd5b600061ffff808316818103612b1757612b17612a9e565b6001019392505050565b634e487b7160e01b600052603260045260246000fd5b634e487b7160e01b600052601260045260246000fd5b600082612b5c57612b5c612b37565b500690565b60008219821115612b7457612b74612a9e565b500190565b60208082526032908201527f4552433732313a207472616e7366657220746f206e6f6e20455243373231526560408201527131b2b4bb32b91034b6b83632b6b2b73a32b960711b606082015260800190565b600060208284031215612bdd57600080fd5b5051919050565b60008351612bf6818460208801612472565b835190830190612c0a818360208801612472565b01949350505050565b600082612c2257612c22612b37565b500490565b6d029b2b63632b91d1021b7b9ba39960951b815260008251612c5081600e850160208701612472565b64204757656960d81b600e939091019283015250601301919050565b6001600160a01b0385811682528416602082015260408101839052608060608201819052600090612c9f9083018461249e565b9695505050505050565b600060208284031215612cbb57600080fd5b8151610be48161243f565b600060018201612cd857612cd8612a9e565b5060010190565b67029b2b63632b91d160c51b815260008251612d02816008850160208701612472565b919091016008019291505056fea26469706673582212207da6c6fd399bd74fe6043839d688430164c53f0ab2a929cc1c1b36ab16b6f54764736f6c634300080f0033",
  "bytecodeSha1": "87f64b5fc69b40a651807423cdfa98a89a454f39",
  "compiler": {
    "evm_version": "istanbul",
    "optimizer": {
      "enabled": true,
      "runs": 200
    },
    "version": "0.8.15+commit.e14f2714"
  },
  "contractName": "FrogxVerse",
  "language": "Solidity",
  "natspec": {
    "kind": "dev",
    "methods": {
      "approve(address,uint256)": {
        "details": "See {IERC721-approve}."
      },
      "balanceOf(address)": {
        "details": "See {IERC721-balanceOf}."
      },
      "baseTokenURI()": {
        "notice": "Base token URI used as a prefix by tokenURI()."
      },
      "beneficiary()": {
        "notice": "Recipient of revenues."
      },
      "cost(uint256,uint256)": {
        "details": "The second parameter, metadata propagated from the call to _purchase(), is ignored.",
        "notice": "Override of Seller.cost() with fixed price."
      },
      "getApproved(uint256)": {
        "details": "See {IERC721-getApproved}."
      },
      "isApprovedForAll(address,address)": {
        "details": "See {IERC721-isApprovedForAll}."
      },
      "name()": {
        "details": "See {IERC721Metadata-name}."
      },
      "owner()": {
        "details": "Returns the address of the current owner."
      },
      "ownerOf(uint256)": {
        "details": "See {IERC721-ownerOf}."
      },
      "pause()": {
        "notice": "Pauses the contract."
      },
      "paused()": {
        "details": "Returns true if the contract is paused, and false otherwise."
      },
      "price()": {
        "notice": "The fixed per-item price."
      },
      "purchaseFreeOfCharge(address,uint256)": {
        "notice": "Allows the contract owner to purchase without payment, within the quota enforced by the SellerConfig."
      },
      "renounceOwnership()": {
        "details": "Leaves the contract without owner. It will not be possible to call `onlyOwner` functions anymore. Can only be called by the current owner. NOTE: Renouncing ownership will leave the contract without an owner, thereby removing any functionality that is only available to the owner."
      },
      "safeTransferFrom(address,address,uint256)": {
        "details": "See {IERC721-safeTransferFrom}."
      },
      "safeTransferFrom(address,address,uint256,bytes)": {
        "details": "See {IERC721-safeTransferFrom}."
      },
      "sellerConfig()": {
        "notice": "Configuration of purchase limits."
      },
      "setApprovalForAll(address,bool)": {
        "details": "See {IERC721-setApprovalForAll}."
      },
      "setBaseTokenURI(string)": {
        "notice": "Sets the base token URI prefix."
      },
      "setBeneficiary(address)": {
        "notice": "Sets the recipient of revenues."
      },
      "setPrice(uint256)": {
        "notice": "Sets the per-item price."
      },
      "setSellerConfig((uint256,uint256,uint256,uint248,bool,bool,bool))": {
        "notice": "Sets the seller config."
      },
      "supportsInterface(bytes4)": {
        "details": "See {IERC165-supportsInterface}."
      },
      "symbol()": {
        "details": "See {IERC721Metadata-symbol}."
      },
      "tokenURI(uint256)": {
        "details": "See {IERC721Metadata-tokenURI}."
      },
      "totalSold()": {
        "notice": "Returns the total number of items sold by this contract."
      },
      "transferFrom(address,address,uint256)": {
        "details": "See {IERC721-transferFrom}."
      },
      "transferOwnership(address)": {
        "details": "Transfers ownership of the contract to a new account (`newOwner`). Can only be called by the current owner."
      },
      "unpause()": {
        "notice": "Unpauses the contract."
      }
    },
    "version": 1
  },
  "opcodes": "PUSH1 0x80 PUSH1 0x40 MSTORE PUSH1 0x4 CALLDATASIZE LT PUSH2 0x1F9 JUMPI PUSH1 0x0 CALLDATALOAD PUSH1 0xE0 SHR DUP1 PUSH4 0x70A08231 GT PUSH2 0x10D JUMPI DUP1 PUSH4 0xA22CB465 GT PUSH2 0xA0 JUMPI DUP1 PUSH4 0xC87B56DD GT PUSH2 0x6F JUMPI DUP1 PUSH4 0xC87B56DD EQ PUSH2 0x60D JUMPI DUP1 PUSH4 0xD547CFB7 EQ PUSH2 0x62D JUMPI DUP1 PUSH4 0xE985E9C5 EQ PUSH2 0x642 JUMPI DUP1 PUSH4 0xF2FDE38B EQ PUSH2 0x68B JUMPI DUP1 PUSH4 0xFAC333AC EQ PUSH2 0x6AB JUMPI PUSH1 0x0 DUP1 REVERT JUMPDEST DUP1 PUSH4 0xA22CB465 EQ PUSH2 0x522 JUMPI DUP1 PUSH4 0xB88D4FDE EQ PUSH2 0x542 JUMPI DUP1 PUSH4 0xBB69B7EF EQ PUSH2 0x562 JUMPI DUP1 PUSH4 0xBF62E21D EQ PUSH2 0x5ED JUMPI PUSH1 0x0 DUP1 REVERT JUMPDEST DUP1 PUSH4 0x9106D7BA GT PUSH2 0xDC JUMPI DUP1 PUSH4 0x9106D7BA EQ PUSH2 0x4C2 JUMPI DUP1 PUSH4 0x91B7F5ED EQ PUSH2 0x4D7 JUMPI DUP1 PUSH4 0x95D89B41 EQ PUSH2 0x4F7 JUMPI DUP1 PUSH4 0xA035B1FE EQ PUSH2 0x50C JUMPI PUSH1 0x0 DUP1 REVERT JUMPDEST DUP1 PUSH4 0x70A08231 EQ PUSH2 0x45A JUMPI DUP1 PUSH4 0x715018A6 EQ PUSH2 0x47A JUMPI DUP1 PUSH4 0x8456CB59 EQ PUSH2 0x48F JUMPI DUP1 PUSH4 0x8DA5CB5B EQ PUSH2 0x4A4 JUMPI PUSH1 0x0 DUP1 REVERT JUMPDEST DUP1 PUSH4 0x2F274BD4 GT PUSH2 0x190 JUMPI DUP1 PUSH4 0x3F4BA83A GT PUSH2 0x15F JUMPI DUP1 PUSH4 0x3F4BA83A EQ PUSH2 0x3B0 JUMPI DUP1 PUSH4 0x42842E0E EQ PUSH2 0x3C5 JUMPI DUP1 PUSH4 0x5C975ABB EQ PUSH2 0x3E5 JUMPI DUP1 PUSH4 0x5E2FCCA5 EQ PUSH2 0x404 JUMPI DUP1 PUSH4 0x6352211E EQ PUSH2 0x43A JUMPI PUSH1 0x0 DUP1 REVERT JUMPDEST DUP1 PUSH4 0x2F274BD4 EQ PUSH2 0x322 JUMPI DUP1 PUSH4 0x30176E13 EQ PUSH2 0x342 JUMPI DUP1 PUSH4 0x38AF3EED EQ PUSH2 0x362 JUMPI DUP1 PUSH4 0x3EC02E14 EQ PUSH2 0x382 JUMPI PUSH1 0x0 DUP1 REVERT JUMPDEST DUP1 PUSH4 0x1C31F710 GT PUSH2 0x1CC JUMPI DUP1 PUSH4 0x1C31F710 EQ PUSH2 0x2AF JUMPI DUP1 PUSH4 0x1FE543E3 EQ PUSH2 0x2CF JUMPI DUP1 PUSH4 0x23B872DD EQ PUSH2 0x2EF JUMPI DUP1 PUSH4 0x2961CD03 EQ PUSH2 0x30F JUMPI PUSH1 0x0 DUP1 REVERT JUMPDEST DUP1 PUSH4 0x1FFC9A7 EQ PUSH2 0x1FE JUMPI DUP1 PUSH4 0x6FDDE03 EQ PUSH2 0x233 JUMPI DUP1 PUSH4 0x81812FC EQ PUSH2 0x255 JUMPI DUP1 PUSH4 0x95EA7B3 EQ PUSH2 0x28D JUMPI JUMPDEST PUSH1 0x0 DUP1 REVERT JUMPDEST CALLVALUE DUP1 ISZERO PUSH2 0x20A JUMPI PUSH1 0x0 DUP1 REVERT JUMPDEST POP PUSH2 0x21E PUSH2 0x219 CALLDATASIZE PUSH1 0x4 PUSH2 0x2455 JUMP JUMPDEST PUSH2 0x6DE JUMP JUMPDEST PUSH1 0x40 MLOAD SWAP1 ISZERO ISZERO DUP2 MSTORE PUSH1 0x20 ADD JUMPDEST PUSH1 0x40 MLOAD DUP1 SWAP2 SUB SWAP1 RETURN JUMPDEST CALLVALUE DUP1 ISZERO PUSH2 0x23F JUMPI PUSH1 0x0 DUP1 REVERT JUMPDEST POP PUSH2 0x248 PUSH2 0x730 JUMP JUMPDEST PUSH1 0x40 MLOAD PUSH2 0x22A SWAP2 SWAP1 PUSH2 0x24CA JUMP JUMPDEST CALLVALUE DUP1 ISZERO PUSH2 0x261 JUMPI PUSH1 0x0 DUP1 REVERT JUMPDEST POP PUSH2 0x275 PUSH2 0x270 CALLDATASIZE PUSH1 0x4 PUSH2 0x24DD JUMP JUMPDEST PUSH2 0x7C2 JUMP JUMPDEST PUSH1 0x40 MLOAD PUSH1 0x1 PUSH1 0x1 PUSH1 0xA0 SHL SUB SWAP1 SWAP2 AND DUP2 MSTORE PUSH1 0x20 ADD PUSH2 0x22A JUMP JUMPDEST CALLVALUE DUP1 ISZERO PUSH2 0x299 JUMPI PUSH1 0x0 DUP1 REVERT JUMPDEST POP PUSH2 0x2AD PUSH2 0x2A8 CALLDATASIZE PUSH1 0x4 PUSH2 0x250B JUMP JUMPDEST PUSH2 0x7E9 JUMP JUMPDEST STOP JUMPDEST CALLVALUE DUP1 ISZERO PUSH2 0x2BB JUMPI PUSH1 0x0 DUP1 REVERT JUMPDEST POP PUSH2 0x2AD PUSH2 0x2CA CALLDATASIZE PUSH1 0x4 PUSH2 0x2537 JUMP JUMPDEST PUSH2 0x903 JUMP JUMPDEST CALLVALUE DUP1 ISZERO PUSH2 0x2DB JUMPI PUSH1 0x0 DUP1 REVERT JUMPDEST POP PUSH2 0x2AD PUSH2 0x2EA CALLDATASIZE PUSH1 0x4 PUSH2 0x25C4 JUMP JUMPDEST PUSH2 0x92D JUMP JUMPDEST CALLVALUE DUP1 ISZERO PUSH2 0x2FB JUMPI PUSH1 0x0 DUP1 REVERT JUMPDEST POP PUSH2 0x2AD PUSH2 0x30A CALLDATASIZE PUSH1 0x4 PUSH2 0x2676 JUMP JUMPDEST PUSH2 0x9B5 JUMP JUMPDEST PUSH2 0x2AD PUSH2 0x31D CALLDATASIZE PUSH1 0x4 PUSH2 0x2537 JUMP JUMPDEST PUSH2 0x9E6 JUMP JUMPDEST CALLVALUE DUP1 ISZERO PUSH2 0x32E JUMPI PUSH1 0x0 DUP1 REVERT JUMPDEST POP PUSH2 0x2AD PUSH2 0x33D CALLDATASIZE PUSH1 0x4 PUSH2 0x26CC JUMP JUMPDEST PUSH2 0x9F4 JUMP JUMPDEST CALLVALUE DUP1 ISZERO PUSH2 0x34E JUMPI PUSH1 0x0 DUP1 REVERT JUMPDEST POP PUSH2 0x2AD PUSH2 0x35D CALLDATASIZE PUSH1 0x4 PUSH2 0x27AF JUMP JUMPDEST PUSH2 0xBC0 JUMP JUMPDEST CALLVALUE DUP1 ISZERO PUSH2 0x36E JUMPI PUSH1 0x0 DUP1 REVERT JUMPDEST POP PUSH1 0xD SLOAD PUSH2 0x275 SWAP1 PUSH1 0x1 PUSH1 0x1 PUSH1 0xA0 SHL SUB AND DUP2 JUMP JUMPDEST CALLVALUE DUP1 ISZERO PUSH2 0x38E JUMPI PUSH1 0x0 DUP1 REVERT JUMPDEST POP PUSH2 0x3A2 PUSH2 0x39D CALLDATASIZE PUSH1 0x4 PUSH2 0x27F8 JUMP JUMPDEST PUSH2 0xBD4 JUMP JUMPDEST PUSH1 0x40 MLOAD SWAP1 DUP2 MSTORE PUSH1 0x20 ADD PUSH2 0x22A JUMP JUMPDEST CALLVALUE DUP1 ISZERO PUSH2 0x3BC JUMPI PUSH1 0x0 DUP1 REVERT JUMPDEST POP PUSH2 0x2AD PUSH2 0xBEB JUMP JUMPDEST CALLVALUE DUP1 ISZERO PUSH2 0x3D1 JUMPI PUSH1 0x0 DUP1 REVERT JUMPDEST POP PUSH2 0x2AD PUSH2 0x3E0 CALLDATASIZE PUSH1 0x4 PUSH2 0x2676 JUMP JUMPDEST PUSH2 0xBFD JUMP JUMPDEST CALLVALUE DUP1 ISZERO PUSH2 0x3F1 JUMPI PUSH1 0x0 DUP1 REVERT JUMPDEST POP PUSH1 0x6 SLOAD PUSH1 0x1 PUSH1 0xA0 SHL SWAP1 DIV PUSH1 0xFF AND PUSH2 0x21E JUMP JUMPDEST CALLVALUE DUP1 ISZERO PUSH2 0x410 JUMPI PUSH1 0x0 DUP1 REVERT JUMPDEST POP PUSH2 0x275 PUSH2 0x41F CALLDATASIZE PUSH1 0x4 PUSH2 0x24DD JUMP JUMPDEST PUSH1 0x15 PUSH1 0x20 MSTORE PUSH1 0x0 SWAP1 DUP2 MSTORE PUSH1 0x40 SWAP1 KECCAK256 SLOAD PUSH1 0x1 PUSH1 0x1 PUSH1 0xA0 SHL SUB AND DUP2 JUMP JUMPDEST CALLVALUE DUP1 ISZERO PUSH2 0x446 JUMPI PUSH1 0x0 DUP1 REVERT JUMPDEST POP PUSH2 0x275 PUSH2 0x455 CALLDATASIZE PUSH1 0x4 PUSH2 0x24DD JUMP JUMPDEST PUSH2 0xC18 JUMP JUMPDEST CALLVALUE DUP1 ISZERO PUSH2 0x466 JUMPI PUSH1 0x0 DUP1 REVERT JUMPDEST POP PUSH2 0x3A2 PUSH2 0x475 CALLDATASIZE PUSH1 0x4 PUSH2 0x2537 JUMP JUMPDEST PUSH2 0xC78 JUMP JUMPDEST CALLVALUE DUP1 ISZERO PUSH2 0x486 JUMPI PUSH1 0x0 DUP1 REVERT JUMPDEST POP PUSH2 0x2AD PUSH2 0xCFE JUMP JUMPDEST CALLVALUE DUP1 ISZERO PUSH2 0x49B JUMPI PUSH1 0x0 DUP1 REVERT JUMPDEST POP PUSH2 0x2AD PUSH2 0xD10 JUMP JUMPDEST CALLVALUE DUP1 ISZERO PUSH2 0x4B0 JUMPI PUSH1 0x0 DUP1 REVERT JUMPDEST POP PUSH1 0x6 SLOAD PUSH1 0x1 PUSH1 0x1 PUSH1 0xA0 SHL SUB AND PUSH2 0x275 JUMP JUMPDEST CALLVALUE DUP1 ISZERO PUSH2 0x4CE JUMPI PUSH1 0x0 DUP1 REVERT JUMPDEST POP PUSH2 0x3A2 PUSH2 0xD20 JUMP JUMPDEST CALLVALUE DUP1 ISZERO PUSH2 0x4E3 JUMPI PUSH1 0x0 DUP1 REVERT JUMPDEST POP PUSH2 0x2AD PUSH2 0x4F2 CALLDATASIZE PUSH1 0x4 PUSH2 0x24DD JUMP JUMPDEST PUSH2 0xD30 JUMP JUMPDEST CALLVALUE DUP1 ISZERO PUSH2 0x503 JUMPI PUSH1 0x0 DUP1 REVERT JUMPDEST POP PUSH2 0x248 PUSH2 0xD3D JUMP JUMPDEST CALLVALUE DUP1 ISZERO PUSH2 0x518 JUMPI PUSH1 0x0 DUP1 REVERT JUMPDEST POP PUSH2 0x3A2 PUSH1 0x11 SLOAD DUP2 JUMP JUMPDEST CALLVALUE DUP1 ISZERO PUSH2 0x52E JUMPI PUSH1 0x0 DUP1 REVERT JUMPDEST POP PUSH2 0x2AD PUSH2 0x53D CALLDATASIZE PUSH1 0x4 PUSH2 0x281A JUMP JUMPDEST PUSH2 0xD4C JUMP JUMPDEST CALLVALUE DUP1 ISZERO PUSH2 0x54E JUMPI PUSH1 0x0 DUP1 REVERT JUMPDEST POP PUSH2 0x2AD PUSH2 0x55D CALLDATASIZE PUSH1 0x4 PUSH2 0x284F JUMP JUMPDEST PUSH2 0xD57 JUMP JUMPDEST CALLVALUE DUP1 ISZERO PUSH2 0x56E JUMPI PUSH1 0x0 DUP1 REVERT JUMPDEST POP PUSH1 0x8 SLOAD PUSH1 0x9 SLOAD PUSH1 0xA SLOAD PUSH1 0xB SLOAD PUSH1 0xC SLOAD PUSH2 0x5AA SWAP5 SWAP4 SWAP3 SWAP2 PUSH1 0x1 PUSH1 0x1 PUSH1 0xF8 SHL SUB DUP2 AND SWAP2 PUSH1 0xFF PUSH1 0x1 PUSH1 0xF8 SHL SWAP1 SWAP3 DIV DUP3 AND SWAP2 DUP2 DUP2 AND SWAP2 PUSH2 0x100 SWAP1 DIV AND DUP8 JUMP JUMPDEST PUSH1 0x40 DUP1 MLOAD SWAP8 DUP9 MSTORE PUSH1 0x20 DUP9 ADD SWAP7 SWAP1 SWAP7 MSTORE SWAP5 DUP7 ADD SWAP4 SWAP1 SWAP4 MSTORE PUSH1 0x1 PUSH1 0x1 PUSH1 0xF8 SHL SUB SWAP1 SWAP2 AND PUSH1 0x60 DUP6 ADD MSTORE ISZERO ISZERO PUSH1 0x80 DUP5 ADD MSTORE ISZERO ISZERO PUSH1 0xA0 DUP4 ADD MSTORE ISZERO ISZERO PUSH1 0xC0 DUP3 ADD MSTORE PUSH1 0xE0 ADD PUSH2 0x22A JUMP JUMPDEST CALLVALUE DUP1 ISZERO PUSH2 0x5F9 JUMPI PUSH1 0x0 DUP1 REVERT JUMPDEST POP PUSH2 0x2AD PUSH2 0x608 CALLDATASIZE PUSH1 0x4 PUSH2 0x250B JUMP JUMPDEST PUSH2 0xD8F JUMP JUMPDEST CALLVALUE DUP1 ISZERO PUSH2 0x619 JUMPI PUSH1 0x0 DUP1 REVERT JUMPDEST POP PUSH2 0x248 PUSH2 0x628 CALLDATASIZE PUSH1 0x4 PUSH2 0x24DD JUMP JUMPDEST PUSH2 0xEC0 JUMP JUMPDEST CALLVALUE DUP1 ISZERO PUSH2 0x639 JUMPI PUSH1 0x0 DUP1 REVERT JUMPDEST POP PUSH2 0x248 PUSH2 0xECB JUMP JUMPDEST CALLVALUE DUP1 ISZERO PUSH2 0x64E JUMPI PUSH1 0x0 DUP1 REVERT JUMPDEST POP PUSH2 0x21E PUSH2 0x65D CALLDATASIZE PUSH1 0x4 PUSH2 0x28CF JUMP JUMPDEST PUSH1 0x1 PUSH1 0x1 PUSH1 0xA0 SHL SUB SWAP2 DUP3 AND PUSH1 0x0 SWAP1 DUP2 MSTORE PUSH1 0x5 PUSH1 0x20 SWAP1 DUP2 MSTORE PUSH1 0x40 DUP1 DUP4 KECCAK256 SWAP4 SWAP1 SWAP5 AND DUP3 MSTORE SWAP2 SWAP1 SWAP2 MSTORE KECCAK256 SLOAD PUSH1 0xFF AND SWAP1 JUMP JUMPDEST CALLVALUE DUP1 ISZERO PUSH2 0x697 JUMPI PUSH1 0x0 DUP1 REVERT JUMPDEST POP PUSH2 0x2AD PUSH2 0x6A6 CALLDATASIZE PUSH1 0x4 PUSH2 0x2537 JUMP JUMPDEST PUSH2 0xF59 JUMP JUMPDEST CALLVALUE DUP1 ISZERO PUSH2 0x6B7 JUMPI PUSH1 0x0 DUP1 REVERT JUMPDEST POP PUSH2 0x6CB PUSH2 0x6C6 CALLDATASIZE PUSH1 0x4 PUSH2 0x24DD JUMP JUMPDEST PUSH2 0xFCF JUMP JUMPDEST PUSH1 0x40 MLOAD PUSH2 0xFFFF SWAP1 SWAP2 AND DUP2 MSTORE PUSH1 0x20 ADD PUSH2 0x22A JUMP JUMPDEST PUSH1 0x0 PUSH1 0x1 PUSH1 0x1 PUSH1 0xE0 SHL SUB NOT DUP3 AND PUSH4 0x80AC58CD PUSH1 0xE0 SHL EQ DUP1 PUSH2 0x70F JUMPI POP PUSH1 0x1 PUSH1 0x1 PUSH1 0xE0 SHL SUB NOT DUP3 AND PUSH4 0x5B5E139F PUSH1 0xE0 SHL EQ JUMPDEST DUP1 PUSH2 0x72A JUMPI POP PUSH4 0x1FFC9A7 PUSH1 0xE0 SHL PUSH1 0x1 PUSH1 0x1 PUSH1 0xE0 SHL SUB NOT DUP4 AND EQ JUMPDEST SWAP3 SWAP2 POP POP JUMP JUMPDEST PUSH1 0x60 PUSH1 0x0 DUP1 SLOAD PUSH2 0x73F SWAP1 PUSH2 0x2908 JUMP JUMPDEST DUP1 PUSH1 0x1F ADD PUSH1 0x20 DUP1 SWAP2 DIV MUL PUSH1 0x20 ADD PUSH1 0x40 MLOAD SWAP1 DUP2 ADD PUSH1 0x40 MSTORE DUP1 SWAP3 SWAP2 SWAP1 DUP2 DUP2 MSTORE PUSH1 0x20 ADD DUP3 DUP1 SLOAD PUSH2 0x76B SWAP1 PUSH2 0x2908 JUMP JUMPDEST DUP1 ISZERO PUSH2 0x7B8 JUMPI DUP1 PUSH1 0x1F LT PUSH2 0x78D JUMPI PUSH2 0x100 DUP1 DUP4 SLOAD DIV MUL DUP4 MSTORE SWAP2 PUSH1 0x20 ADD SWAP2 PUSH2 0x7B8 JUMP JUMPDEST DUP3 ADD SWAP2 SWAP1 PUSH1 0x0 MSTORE PUSH1 0x20 PUSH1 0x0 KECCAK256 SWAP1 JUMPDEST DUP2 SLOAD DUP2 MSTORE SWAP1 PUSH1 0x1 ADD SWAP1 PUSH1 0x20 ADD DUP1 DUP4 GT PUSH2 0x79B JUMPI DUP3 SWAP1 SUB PUSH1 0x1F AND DUP3 ADD SWAP2 JUMPDEST POP POP POP POP POP SWAP1 POP SWAP1 JUMP JUMPDEST PUSH1 0x0 PUSH2 0x7CD DUP3 PUSH2 0x1001 JUMP JUMPDEST POP PUSH1 0x0 SWAP1 DUP2 MSTORE PUSH1 0x4 PUSH1 0x20 MSTORE PUSH1 0x40 SWAP1 KECCAK256 SLOAD PUSH1 0x1 PUSH1 0x1 PUSH1 0xA0 SHL SUB AND SWAP1 JUMP JUMPDEST PUSH1 0x0 PUSH2 0x7F4 DUP3 PUSH2 0xC18 JUMP JUMPDEST SWAP1 POP DUP1 PUSH1 0x1 PUSH1 0x1 PUSH1 0xA0 SHL SUB AND DUP4 PUSH1 0x1 PUSH1 0x1 PUSH1 0xA0 SHL SUB AND SUB PUSH2 0x866 JUMPI PUSH1 0x40 MLOAD PUSH3 0x461BCD PUSH1 0xE5 SHL DUP2 MSTORE PUSH1 0x20 PUSH1 0x4 DUP3 ADD MSTORE PUSH1 0x21 PUSH1 0x24 DUP3 ADD MSTORE PUSH32 0x4552433732313A20617070726F76616C20746F2063757272656E74206F776E65 PUSH1 0x44 DUP3 ADD MSTORE PUSH1 0x39 PUSH1 0xF9 SHL PUSH1 0x64 DUP3 ADD MSTORE PUSH1 0x84 ADD JUMPDEST PUSH1 0x40 MLOAD DUP1 SWAP2 SUB SWAP1 REVERT JUMPDEST CALLER PUSH1 0x1 PUSH1 0x1 PUSH1 0xA0 SHL SUB DUP3 AND EQ DUP1 PUSH2 0x882 JUMPI POP PUSH2 0x882 DUP2 CALLER PUSH2 0x65D JUMP JUMPDEST PUSH2 0x8F4 JUMPI PUSH1 0x40 MLOAD PUSH3 0x461BCD PUSH1 0xE5 SHL DUP2 MSTORE PUSH1 0x20 PUSH1 0x4 DUP3 ADD MSTORE PUSH1 0x3E PUSH1 0x24 DUP3 ADD MSTORE PUSH32 0x4552433732313A20617070726F76652063616C6C6572206973206E6F7420746F PUSH1 0x44 DUP3 ADD MSTORE PUSH32 0x6B656E206F776E6572206E6F7220617070726F76656420666F7220616C6C0000 PUSH1 0x64 DUP3 ADD MSTORE PUSH1 0x84 ADD PUSH2 0x85D JUMP JUMPDEST PUSH2 0x8FE DUP4 DUP4 PUSH2 0x1060 JUMP JUMPDEST POP POP POP JUMP JUMPDEST PUSH2 0x90B PUSH2 0x10CE JUMP JUMPDEST PUSH1 0xD DUP1 SLOAD PUSH1 0x1 PUSH1 0x1 PUSH1 0xA0 SHL SUB NOT AND PUSH1 0x1 PUSH1 0x1 PUSH1 0xA0 SHL SUB SWAP3 SWAP1 SWAP3 AND SWAP2 SWAP1 SWAP2 OR SWAP1 SSTORE JUMP JUMPDEST CALLER PUSH1 0x1 PUSH1 0x1 PUSH1 0xA0 SHL SUB PUSH32 0x0 AND EQ PUSH2 0x9A7 JUMPI PUSH1 0x40 MLOAD PUSH4 0x73E64FD PUSH1 0xE2 SHL DUP2 MSTORE CALLER PUSH1 0x4 DUP3 ADD MSTORE PUSH1 0x1 PUSH1 0x1 PUSH1 0xA0 SHL SUB PUSH32 0x0 AND PUSH1 0x24 DUP3 ADD MSTORE PUSH1 0x44 ADD PUSH2 0x85D JUMP JUMPDEST PUSH2 0x9B1 DUP3 DUP3 PUSH2 0x1128 JUMP JUMPDEST POP POP JUMP JUMPDEST PUSH2 0x9BF CALLER DUP3 PUSH2 0x13B5 JUMP JUMPDEST PUSH2 0x9DB JUMPI PUSH1 0x40 MLOAD PUSH3 0x461BCD PUSH1 0xE5 SHL DUP2 MSTORE PUSH1 0x4 ADD PUSH2 0x85D SWAP1 PUSH2 0x2942 JUMP JUMPDEST PUSH2 0x8FE DUP4 DUP4 DUP4 PUSH2 0x1434 JUMP JUMPDEST PUSH2 0x9F1 DUP2 PUSH1 0x1 PUSH2 0x15D0 JUMP JUMPDEST POP JUMP JUMPDEST PUSH2 0x9FC PUSH2 0x10CE JUMP JUMPDEST DUP1 PUSH1 0x60 ADD MLOAD PUSH1 0x1 PUSH1 0x1 PUSH1 0xF8 SHL SUB AND DUP2 PUSH1 0x0 ADD MLOAD LT ISZERO PUSH2 0xA5D JUMPI PUSH1 0x40 MLOAD PUSH3 0x461BCD PUSH1 0xE5 SHL DUP2 MSTORE PUSH1 0x20 PUSH1 0x4 DUP3 ADD MSTORE PUSH1 0x1C PUSH1 0x24 DUP3 ADD MSTORE PUSH32 0x53656C6C65723A2065786365737369766520667265652071756F746100000000 PUSH1 0x44 DUP3 ADD MSTORE PUSH1 0x64 ADD PUSH2 0x85D JUMP JUMPDEST PUSH1 0xE SLOAD DUP2 MLOAD LT ISZERO PUSH2 0xAB0 JUMPI PUSH1 0x40 MLOAD PUSH3 0x461BCD PUSH1 0xE5 SHL DUP2 MSTORE PUSH1 0x20 PUSH1 0x4 DUP3 ADD DUP2 SWAP1 MSTORE PUSH1 0x24 DUP3 ADD MSTORE PUSH32 0x53656C6C65723A20696E76656E746F7279203C20616C726561647920736F6C64 PUSH1 0x44 DUP3 ADD MSTORE PUSH1 0x64 ADD PUSH2 0x85D JUMP JUMPDEST PUSH1 0x10 SLOAD DUP2 PUSH1 0x60 ADD MLOAD PUSH1 0x1 PUSH1 0x1 PUSH1 0xF8 SHL SUB AND LT ISZERO PUSH2 0xB19 JUMPI PUSH1 0x40 MLOAD PUSH3 0x461BCD PUSH1 0xE5 SHL DUP2 MSTORE PUSH1 0x20 PUSH1 0x4 DUP3 ADD MSTORE PUSH1 0x21 PUSH1 0x24 DUP3 ADD MSTORE PUSH32 0x53656C6C65723A20667265652071756F7461203C20616C726561647920757365 PUSH1 0x44 DUP3 ADD MSTORE PUSH1 0x19 PUSH1 0xFA SHL PUSH1 0x64 DUP3 ADD MSTORE PUSH1 0x84 ADD PUSH2 0x85D JUMP JUMPDEST PUSH1 0xC SLOAD PUSH2 0x100 SWAP1 DIV PUSH1 0xFF AND ISZERO PUSH2 0xB36 JUMPI PUSH1 0x1 PUSH1 0xC0 DUP3 ADD MSTORE PUSH1 0x8 SLOAD DUP2 MSTORE JUMPDEST PUSH1 0xC SLOAD PUSH1 0xFF AND ISZERO PUSH2 0xB5A JUMPI PUSH1 0x1 PUSH1 0xA0 DUP3 ADD MSTORE PUSH1 0xB SLOAD PUSH1 0x1 PUSH1 0x1 PUSH1 0xF8 SHL SUB AND PUSH1 0x60 DUP3 ADD MSTORE JUMPDEST DUP1 MLOAD PUSH1 0x8 SSTORE PUSH1 0x20 DUP2 ADD MLOAD PUSH1 0x9 SSTORE PUSH1 0x40 DUP2 ADD MLOAD PUSH1 0xA SSTORE PUSH1 0x60 DUP2 ADD MLOAD PUSH1 0x80 DUP3 ADD MLOAD ISZERO ISZERO PUSH1 0x1 PUSH1 0xF8 SHL MUL PUSH1 0x1 PUSH1 0x1 PUSH1 0xF8 SHL SUB SWAP1 SWAP2 AND OR PUSH1 0xB SSTORE PUSH1 0xA0 DUP2 ADD MLOAD PUSH1 0xC DUP1 SLOAD PUSH1 0xC0 SWAP1 SWAP4 ADD MLOAD ISZERO ISZERO PUSH2 0x100 MUL PUSH2 0xFF00 NOT SWAP3 ISZERO ISZERO SWAP3 SWAP1 SWAP3 AND PUSH2 0xFFFF NOT SWAP1 SWAP4 AND SWAP3 SWAP1 SWAP3 OR OR SWAP1 SSTORE JUMP JUMPDEST PUSH2 0xBC8 PUSH2 0x10CE JUMP JUMPDEST PUSH1 0x12 PUSH2 0x9B1 DUP3 DUP3 PUSH2 0x29DE JUMP JUMPDEST PUSH1 0x0 PUSH1 0x11 SLOAD DUP4 PUSH2 0xBE4 SWAP2 SWAP1 PUSH2 0x2AB4 JUMP JUMPDEST SWAP4 SWAP3 POP POP POP JUMP JUMPDEST PUSH2 0xBF3 PUSH2 0x10CE JUMP JUMPDEST PUSH2 0xBFB PUSH2 0x15DC JUMP JUMPDEST JUMP JUMPDEST PUSH2 0x8FE DUP4 DUP4 DUP4 PUSH1 0x40 MLOAD DUP1 PUSH1 0x20 ADD PUSH1 0x40 MSTORE DUP1 PUSH1 0x0 DUP2 MSTORE POP PUSH2 0xD57 JUMP JUMPDEST PUSH1 0x0 DUP2 DUP2 MSTORE PUSH1 0x2 PUSH1 0x20 MSTORE PUSH1 0x40 DUP2 KECCAK256 SLOAD PUSH1 0x1 PUSH1 0x1 PUSH1 0xA0 SHL SUB AND DUP1 PUSH2 0x72A JUMPI PUSH1 0x40 MLOAD PUSH3 0x461BCD PUSH1 0xE5 SHL DUP2 MSTORE PUSH1 0x20 PUSH1 0x4 DUP3 ADD MSTORE PUSH1 0x18 PUSH1 0x24 DUP3 ADD MSTORE PUSH24 0x115490CDCC8C4E881A5B9D985B1A59081D1BDAD95B881251 PUSH1 0x42 SHL PUSH1 0x44 DUP3 ADD MSTORE PUSH1 0x64 ADD PUSH2 0x85D JUMP JUMPDEST PUSH1 0x0 PUSH1 0x1 PUSH1 0x1 PUSH1 0xA0 SHL SUB DUP3 AND PUSH2 0xCE2 JUMPI PUSH1 0x40 MLOAD PUSH3 0x461BCD PUSH1 0xE5 SHL DUP2 MSTORE PUSH1 0x20 PUSH1 0x4 DUP3 ADD MSTORE PUSH1 0x29 PUSH1 0x24 DUP3 ADD MSTORE PUSH32 0x4552433732313A2061646472657373207A65726F206973206E6F742061207661 PUSH1 0x44 DUP3 ADD MSTORE PUSH9 0x3634B21037BBB732B9 PUSH1 0xB9 SHL PUSH1 0x64 DUP3 ADD MSTORE PUSH1 0x84 ADD PUSH2 0x85D JUMP JUMPDEST POP PUSH1 0x1 PUSH1 0x1 PUSH1 0xA0 SHL SUB AND PUSH1 0x0 SWAP1 DUP2 MSTORE PUSH1 0x3 PUSH1 0x20 MSTORE PUSH1 0x40 SWAP1 KECCAK256 SLOAD SWAP1 JUMP JUMPDEST PUSH2 0xD06 PUSH2 0x10CE JUMP JUMPDEST PUSH2 0xBFB PUSH1 0x0 PUSH2 0x1631 JUMP JUMPDEST PUSH2 0xD18 PUSH2 0x10CE JUMP JUMPDEST PUSH2 0xBFB PUSH2 0x1683 JUMP JUMPDEST PUSH1 0x0 PUSH2 0xD2B PUSH1 0xE SLOAD SWAP1 JUMP JUMPDEST SWAP1 POP SWAP1 JUMP JUMPDEST PUSH2 0xD38 PUSH2 0x10CE JUMP JUMPDEST PUSH1 0x11 SSTORE JUMP JUMPDEST PUSH1 0x60 PUSH1 0x1 DUP1 SLOAD PUSH2 0x73F SWAP1 PUSH2 0x2908 JUMP JUMPDEST PUSH2 0x9B1 CALLER DUP4 DUP4 PUSH2 0x16C6 JUMP JUMPDEST PUSH2 0xD61 CALLER DUP4 PUSH2 0x13B5 JUMP JUMPDEST PUSH2 0xD7D JUMPI PUSH1 0x40 MLOAD PUSH3 0x461BCD PUSH1 0xE5 SHL DUP2 MSTORE PUSH1 0x4 ADD PUSH2 0x85D SWAP1 PUSH2 0x2942 JUMP JUMPDEST PUSH2 0xD89 DUP5 DUP5 DUP5 DUP5 PUSH2 0x1794 JUMP JUMPDEST POP POP POP POP JUMP JUMPDEST PUSH2 0xD97 PUSH2 0x10CE JUMP JUMPDEST PUSH2 0xD9F PUSH2 0x17C7 JUMP JUMPDEST PUSH1 0xB SLOAD PUSH1 0x1 PUSH1 0x1 PUSH1 0xF8 SHL SUB AND PUSH2 0xDC7 DUP3 PUSH2 0xDB8 PUSH1 0x10 SLOAD SWAP1 JUMP JUMPDEST PUSH2 0xDC2 SWAP1 DUP5 PUSH2 0x2AD3 JUMP JUMPDEST PUSH2 0x1814 JUMP JUMPDEST SWAP2 POP PUSH1 0x0 DUP3 GT PUSH2 0xE19 JUMPI PUSH1 0x40 MLOAD PUSH3 0x461BCD PUSH1 0xE5 SHL DUP2 MSTORE PUSH1 0x20 PUSH1 0x4 DUP3 ADD MSTORE PUSH1 0x1B PUSH1 0x24 DUP3 ADD MSTORE PUSH32 0x53656C6C65723A20467265652071756F74612065786365656465640000000000 PUSH1 0x44 DUP3 ADD MSTORE PUSH1 0x64 ADD PUSH2 0x85D JUMP JUMPDEST PUSH1 0x8 SLOAD PUSH2 0xE29 DUP4 PUSH2 0xDB8 PUSH1 0xE SLOAD SWAP1 JUMP JUMPDEST SWAP3 POP PUSH1 0x0 DUP4 GT PUSH2 0xE6E JUMPI PUSH1 0x40 MLOAD PUSH3 0x461BCD PUSH1 0xE5 SHL DUP2 MSTORE PUSH1 0x20 PUSH1 0x4 DUP3 ADD MSTORE PUSH1 0x10 PUSH1 0x24 DUP3 ADD MSTORE PUSH16 0x14D95B1B195C8E8814DBDB19081BDD5D PUSH1 0x82 SHL PUSH1 0x44 DUP3 ADD MSTORE PUSH1 0x64 ADD PUSH2 0x85D JUMP JUMPDEST PUSH2 0xE79 PUSH1 0xE DUP5 PUSH2 0x182A JUMP JUMPDEST PUSH2 0xE84 PUSH1 0x10 DUP5 PUSH2 0x182A JUMP JUMPDEST PUSH2 0xE90 DUP5 DUP5 PUSH1 0x1 PUSH2 0x1847 JUMP JUMPDEST DUP1 PUSH2 0xE9A PUSH1 0xE SLOAD SWAP1 JUMP JUMPDEST GT ISZERO PUSH2 0xEA8 JUMPI PUSH2 0xEA8 PUSH2 0x2AEA JUMP JUMPDEST DUP2 PUSH2 0xEB2 PUSH1 0x10 SLOAD SWAP1 JUMP JUMPDEST GT ISZERO PUSH2 0xD89 JUMPI PUSH2 0xD89 PUSH2 0x2AEA JUMP JUMPDEST PUSH1 0x60 PUSH2 0x72A DUP3 PUSH2 0x19B6 JUMP JUMPDEST PUSH1 0x12 DUP1 SLOAD PUSH2 0xED8 SWAP1 PUSH2 0x2908 JUMP JUMPDEST DUP1 PUSH1 0x1F ADD PUSH1 0x20 DUP1 SWAP2 DIV MUL PUSH1 0x20 ADD PUSH1 0x40 MLOAD SWAP1 DUP2 ADD PUSH1 0x40 MSTORE DUP1 SWAP3 SWAP2 SWAP1 DUP2 DUP2 MSTORE PUSH1 0x20 ADD DUP3 DUP1 SLOAD PUSH2 0xF04 SWAP1 PUSH2 0x2908 JUMP JUMPDEST DUP1 ISZERO PUSH2 0xF51 JUMPI DUP1 PUSH1 0x1F LT PUSH2 0xF26 JUMPI PUSH2 0x100 DUP1 DUP4 SLOAD DIV MUL DUP4 MSTORE SWAP2 PUSH1 0x20 ADD SWAP2 PUSH2 0xF51 JUMP JUMPDEST DUP3 ADD SWAP2 SWAP1 PUSH1 0x0 MSTORE PUSH1 0x20 PUSH1 0x0 KECCAK256 SWAP1 JUMPDEST DUP2 SLOAD DUP2 MSTORE SWAP1 PUSH1 0x1 ADD SWAP1 PUSH1 0x20 ADD DUP1 DUP4 GT PUSH2 0xF34 JUMPI DUP3 SWAP1 SUB PUSH1 0x1F AND DUP3 ADD SWAP2 JUMPDEST POP POP POP POP POP DUP2 JUMP JUMPDEST PUSH2 0xF61 PUSH2 0x10CE JUMP JUMPDEST PUSH1 0x1 PUSH1 0x1 PUSH1 0xA0 SHL SUB DUP2 AND PUSH2 0xFC6 JUMPI PUSH1 0x40 MLOAD PUSH3 0x461BCD PUSH1 0xE5 SHL DUP2 MSTORE PUSH1 0x20 PUSH1 0x4 DUP3 ADD MSTORE PUSH1 0x26 PUSH1 0x24 DUP3 ADD MSTORE PUSH32 0x4F776E61626C653A206E6577206F776E657220697320746865207A65726F2061 PUSH1 0x44 DUP3 ADD MSTORE PUSH6 0x646472657373 PUSH1 0xD0 SHL PUSH1 0x64 DUP3 ADD MSTORE PUSH1 0x84 ADD PUSH2 0x85D JUMP JUMPDEST PUSH2 0x9F1 DUP2 PUSH2 0x1631 JUMP JUMPDEST PUSH1 0x13 DUP2 PUSH1 0x5 DUP2 LT PUSH2 0xFDF JUMPI PUSH1 0x0 DUP1 REVERT JUMPDEST PUSH1 0x10 SWAP2 DUP3 DUP3 DIV ADD SWAP2 SWAP1 MOD PUSH1 0x2 MUL SWAP2 POP SLOAD SWAP1 PUSH2 0x100 EXP SWAP1 DIV PUSH2 0xFFFF AND DUP2 JUMP JUMPDEST SLOAD SWAP1 JUMP JUMPDEST PUSH1 0x0 DUP2 DUP2 MSTORE PUSH1 0x2 PUSH1 0x20 MSTORE PUSH1 0x40 SWAP1 KECCAK256 SLOAD PUSH1 0x1 PUSH1 0x1 PUSH1 0xA0 SHL SUB AND PUSH2 0x9F1 JUMPI PUSH1 0x40 MLOAD PUSH3 0x461BCD PUSH1 0xE5 SHL DUP2 MSTORE PUSH1 0x20 PUSH1 0x4 DUP3 ADD MSTORE PUSH1 0x18 PUSH1 0x24 DUP3 ADD MSTORE PUSH24 0x115490CDCC8C4E881A5B9D985B1A59081D1BDAD95B881251 PUSH1 0x42 SHL PUSH1 0x44 DUP3 ADD MSTORE PUSH1 0x64 ADD PUSH2 0x85D JUMP JUMPDEST PUSH1 0x0 DUP2 DUP2 MSTORE PUSH1 0x4 PUSH1 0x20 MSTORE PUSH1 0x40 SWAP1 KECCAK256 DUP1 SLOAD PUSH1 0x1 PUSH1 0x1 PUSH1 0xA0 SHL SUB NOT AND PUSH1 0x1 PUSH1 0x1 PUSH1 0xA0 SHL SUB DUP5 AND SWAP1 DUP2 OR SWAP1 SWAP2 SSTORE DUP2 SWAP1 PUSH2 0x1095 DUP3 PUSH2 0xC18 JUMP JUMPDEST PUSH1 0x1 PUSH1 0x1 PUSH1 0xA0 SHL SUB AND PUSH32 0x8C5BE1E5EBEC7D5BD14F71427D1E84F3DD0314C0F7B2291E5B200AC8C7C3B925 PUSH1 0x40 MLOAD PUSH1 0x40 MLOAD DUP1 SWAP2 SUB SWAP1 LOG4 POP POP JUMP JUMPDEST PUSH1 0x6 SLOAD PUSH1 0x1 PUSH1 0x1 PUSH1 0xA0 SHL SUB AND CALLER EQ PUSH2 0xBFB JUMPI PUSH1 0x40 MLOAD PUSH3 0x461BCD PUSH1 0xE5 SHL DUP2 MSTORE PUSH1 0x20 PUSH1 0x4 DUP3 ADD DUP2 SWAP1 MSTORE PUSH1 0x24 DUP3 ADD MSTORE PUSH32 0x4F776E61626C653A2063616C6C6572206973206E6F7420746865206F776E6572 PUSH1 0x44 DUP3 ADD MSTORE PUSH1 0x64 ADD PUSH2 0x85D JUMP JUMPDEST PUSH1 0x14 DUP1 SLOAD PUSH1 0x0 SWAP2 PUSH2 0xFFFF SWAP1 SWAP2 AND SWAP1 DUP3 PUSH2 0x1140 DUP4 PUSH2 0x2B00 JUMP JUMPDEST SWAP2 SWAP1 PUSH2 0x100 EXP DUP2 SLOAD DUP2 PUSH2 0xFFFF MUL NOT AND SWAP1 DUP4 PUSH2 0xFFFF AND MUL OR SWAP1 SSTORE POP PUSH2 0xFFFF AND PUSH1 0x5 PUSH2 0x116A SWAP2 SWAP1 PUSH2 0x2AD3 JUMP JUMPDEST SWAP1 POP PUSH1 0x0 DUP2 GT PUSH2 0x11AF JUMPI PUSH1 0x40 MLOAD PUSH3 0x461BCD PUSH1 0xE5 SHL DUP2 MSTORE PUSH1 0x20 PUSH1 0x4 DUP3 ADD MSTORE PUSH1 0x10 PUSH1 0x24 DUP3 ADD MSTORE PUSH16 0x139BC8119C9BD9DE195B1CC81B19599D PUSH1 0x82 SHL PUSH1 0x44 DUP3 ADD MSTORE PUSH1 0x64 ADD PUSH2 0x85D JUMP JUMPDEST PUSH1 0x0 DUP2 DUP4 PUSH1 0x0 DUP2 MLOAD DUP2 LT PUSH2 0x11C5 JUMPI PUSH2 0x11C5 PUSH2 0x2B21 JUMP JUMPDEST PUSH1 0x20 MUL PUSH1 0x20 ADD ADD MLOAD PUSH2 0x11D7 SWAP2 SWAP1 PUSH2 0x2B4D JUMP JUMPDEST SWAP1 POP PUSH1 0x0 PUSH1 0x13 DUP3 PUSH1 0x5 DUP2 LT PUSH2 0x11EE JUMPI PUSH2 0x11EE PUSH2 0x2B21 JUMP JUMPDEST PUSH1 0x10 SWAP2 DUP3 DUP3 DIV ADD SWAP2 SWAP1 MOD PUSH1 0x2 MUL SWAP1 SLOAD SWAP1 PUSH2 0x100 EXP SWAP1 DIV PUSH2 0xFFFF AND PUSH2 0xFFFF AND PUSH1 0x0 SUB PUSH2 0x1219 JUMPI DUP2 PUSH2 0x124B JUMP JUMPDEST PUSH1 0x13 DUP3 PUSH1 0x5 DUP2 LT PUSH2 0x122C JUMPI PUSH2 0x122C PUSH2 0x2B21 JUMP JUMPDEST PUSH1 0x10 SWAP2 DUP3 DUP3 DIV ADD SWAP2 SWAP1 MOD PUSH1 0x2 MUL SWAP1 SLOAD SWAP1 PUSH2 0x100 EXP SWAP1 DIV PUSH2 0xFFFF AND PUSH2 0xFFFF AND JUMPDEST SWAP1 POP PUSH1 0x13 PUSH2 0x125A PUSH1 0x1 DUP6 PUSH2 0x2AD3 JUMP JUMPDEST PUSH1 0x5 DUP2 LT PUSH2 0x126A JUMPI PUSH2 0x126A PUSH2 0x2B21 JUMP JUMPDEST PUSH1 0x10 DUP2 DIV SWAP2 SWAP1 SWAP2 ADD SLOAD PUSH1 0xF SWAP1 SWAP2 AND PUSH1 0x2 MUL PUSH2 0x100 EXP SWAP1 DIV PUSH2 0xFFFF AND ISZERO PUSH2 0x12CA JUMPI PUSH1 0x13 PUSH2 0x1297 PUSH1 0x1 DUP6 PUSH2 0x2AD3 JUMP JUMPDEST PUSH1 0x5 DUP2 LT PUSH2 0x12A7 JUMPI PUSH2 0x12A7 PUSH2 0x2B21 JUMP JUMPDEST PUSH1 0x10 SWAP2 DUP3 DUP3 DIV ADD SWAP2 SWAP1 MOD PUSH1 0x2 MUL SWAP1 SLOAD SWAP1 PUSH2 0x100 EXP SWAP1 DIV PUSH2 0xFFFF AND PUSH2 0xFFFF AND PUSH2 0x12D5 JUMP JUMPDEST PUSH2 0x12D5 PUSH1 0x1 DUP5 PUSH2 0x2AD3 JUMP JUMPDEST PUSH1 0x13 DUP4 PUSH1 0x5 DUP2 LT PUSH2 0x12E8 JUMPI PUSH2 0x12E8 PUSH2 0x2B21 JUMP JUMPDEST PUSH1 0x10 SWAP2 DUP3 DUP3 DIV ADD SWAP2 SWAP1 MOD PUSH1 0x2 MUL PUSH2 0x100 EXP DUP2 SLOAD DUP2 PUSH2 0xFFFF MUL NOT AND SWAP1 DUP4 PUSH2 0xFFFF AND MUL OR SWAP1 SSTORE POP PUSH1 0x0 PUSH1 0x13 PUSH1 0x1 DUP6 PUSH2 0x131E SWAP2 SWAP1 PUSH2 0x2AD3 JUMP JUMPDEST PUSH1 0x5 DUP2 LT PUSH2 0x132E JUMPI PUSH2 0x132E PUSH2 0x2B21 JUMP JUMPDEST PUSH1 0x10 SWAP2 DUP3 DUP3 DIV ADD SWAP2 SWAP1 MOD PUSH1 0x2 MUL PUSH2 0x100 EXP DUP2 SLOAD DUP2 PUSH2 0xFFFF MUL NOT AND SWAP1 DUP4 PUSH2 0xFFFF AND MUL OR SWAP1 SSTORE POP PUSH2 0x1383 PUSH1 0x15 PUSH1 0x0 DUP8 DUP2 MSTORE PUSH1 0x20 ADD SWAP1 DUP2 MSTORE PUSH1 0x20 ADD PUSH1 0x0 KECCAK256 PUSH1 0x0 SWAP1 SLOAD SWAP1 PUSH2 0x100 EXP SWAP1 DIV PUSH1 0x1 PUSH1 0x1 PUSH1 0xA0 SHL SUB AND DUP3 PUSH2 0x1A1C JUMP JUMPDEST PUSH1 0x40 MLOAD DUP2 SWAP1 PUSH32 0xFA129704CD590EED28ACCB1BAC82F9BA5617AD81E6AF279AE13B5AC63A5B3224 SWAP1 PUSH1 0x0 SWAP1 LOG2 POP POP POP POP POP JUMP JUMPDEST PUSH1 0x0 DUP1 PUSH2 0x13C1 DUP4 PUSH2 0xC18 JUMP JUMPDEST SWAP1 POP DUP1 PUSH1 0x1 PUSH1 0x1 PUSH1 0xA0 SHL SUB AND DUP5 PUSH1 0x1 PUSH1 0x1 PUSH1 0xA0 SHL SUB AND EQ DUP1 PUSH2 0x1408 JUMPI POP PUSH1 0x1 PUSH1 0x1 PUSH1 0xA0 SHL SUB DUP1 DUP3 AND PUSH1 0x0 SWAP1 DUP2 MSTORE PUSH1 0x5 PUSH1 0x20 SWAP1 DUP2 MSTORE PUSH1 0x40 DUP1 DUP4 KECCAK256 SWAP4 DUP9 AND DUP4 MSTORE SWAP3 SWAP1 MSTORE KECCAK256 SLOAD PUSH1 0xFF AND JUMPDEST DUP1 PUSH2 0x142C JUMPI POP DUP4 PUSH1 0x1 PUSH1 0x1 PUSH1 0xA0 SHL SUB AND PUSH2 0x1421 DUP5 PUSH2 0x7C2 JUMP JUMPDEST PUSH1 0x1 PUSH1 0x1 PUSH1 0xA0 SHL SUB AND EQ JUMPDEST SWAP5 SWAP4 POP POP POP POP JUMP JUMPDEST DUP3 PUSH1 0x1 PUSH1 0x1 PUSH1 0xA0 SHL SUB AND PUSH2 0x1447 DUP3 PUSH2 0xC18 JUMP JUMPDEST PUSH1 0x1 PUSH1 0x1 PUSH1 0xA0 SHL SUB AND EQ PUSH2 0x14AB JUMPI PUSH1 0x40 MLOAD PUSH3 0x461BCD PUSH1 0xE5 SHL DUP2 MSTORE PUSH1 0x20 PUSH1 0x4 DUP3 ADD MSTORE PUSH1 0x25 PUSH1 0x24 DUP3 ADD MSTORE PUSH32 0x4552433732313A207472616E736665722066726F6D20696E636F727265637420 PUSH1 0x44 DUP3 ADD MSTORE PUSH5 0x37BBB732B9 PUSH1 0xD9 SHL PUSH1 0x64 DUP3 ADD MSTORE PUSH1 0x84 ADD PUSH2 0x85D JUMP JUMPDEST PUSH1 0x1 PUSH1 0x1 PUSH1 0xA0 SHL SUB DUP3 AND PUSH2 0x150D JUMPI PUSH1 0x40 MLOAD PUSH3 0x461BCD PUSH1 0xE5 SHL DUP2 MSTORE PUSH1 0x20 PUSH1 0x4 DUP3 ADD MSTORE PUSH1 0x24 DUP1 DUP3 ADD MSTORE PUSH32 0x4552433732313A207472616E7366657220746F20746865207A65726F20616464 PUSH1 0x44 DUP3 ADD MSTORE PUSH4 0x72657373 PUSH1 0xE0 SHL PUSH1 0x64 DUP3 ADD MSTORE PUSH1 0x84 ADD PUSH2 0x85D JUMP JUMPDEST PUSH2 0x1518 PUSH1 0x0 DUP3 PUSH2 0x1060 JUMP JUMPDEST PUSH1 0x1 PUSH1 0x1 PUSH1 0xA0 SHL SUB DUP4 AND PUSH1 0x0 SWAP1 DUP2 MSTORE PUSH1 0x3 PUSH1 0x20 MSTORE PUSH1 0x40 DUP2 KECCAK256 DUP1 SLOAD PUSH1 0x1 SWAP3 SWAP1 PUSH2 0x1541 SWAP1 DUP5 SWAP1 PUSH2 0x2AD3 JUMP JUMPDEST SWAP1 SWAP2 SSTORE POP POP PUSH1 0x1 PUSH1 0x1 PUSH1 0xA0 SHL SUB DUP3 AND PUSH1 0x0 SWAP1 DUP2 MSTORE PUSH1 0x3 PUSH1 0x20 MSTORE PUSH1 0x40 DUP2 KECCAK256 DUP1 SLOAD PUSH1 0x1 SWAP3 SWAP1 PUSH2 0x156F SWAP1 DUP5 SWAP1 PUSH2 0x2B61 JUMP JUMPDEST SWAP1 SWAP2 SSTORE POP POP PUSH1 0x0 DUP2 DUP2 MSTORE PUSH1 0x2 PUSH1 0x20 MSTORE PUSH1 0x40 DUP1 DUP3 KECCAK256 DUP1 SLOAD PUSH1 0x1 PUSH1 0x1 PUSH1 0xA0 SHL SUB NOT AND PUSH1 0x1 PUSH1 0x1 PUSH1 0xA0 SHL SUB DUP7 DUP2 AND SWAP2 DUP3 OR SWAP1 SWAP3 SSTORE SWAP2 MLOAD DUP5 SWAP4 SWAP2 DUP8 AND SWAP2 PUSH32 0xDDF252AD1BE2C89B69C2B068FC378DAA952BA7F163C4A11628F55A4DF523B3EF SWAP2 LOG4 POP POP POP JUMP JUMPDEST PUSH2 0x9B1 DUP3 DUP3 PUSH1 0x0 PUSH2 0x1A36 JUMP JUMPDEST PUSH2 0x15E4 PUSH2 0x1EF1 JUMP JUMPDEST PUSH1 0x6 DUP1 SLOAD PUSH1 0xFF PUSH1 0xA0 SHL NOT AND SWAP1 SSTORE PUSH32 0x5DB9EE0A495BF2E6FF9C91A7834C1BA4FDD244A5E8AA4E537BD38AEAE4B073AA CALLER JUMPDEST PUSH1 0x40 MLOAD PUSH1 0x1 PUSH1 0x1 PUSH1 0xA0 SHL SUB SWAP1 SWAP2 AND DUP2 MSTORE PUSH1 0x20 ADD PUSH1 0x40 MLOAD DUP1 SWAP2 SUB SWAP1 LOG1 JUMP JUMPDEST PUSH1 0x6 DUP1 SLOAD PUSH1 0x1 PUSH1 0x1 PUSH1 0xA0 SHL SUB DUP4 DUP2 AND PUSH1 0x1 PUSH1 0x1 PUSH1 0xA0 SHL SUB NOT DUP4 AND DUP2 OR SWAP1 SWAP4 SSTORE PUSH1 0x40 MLOAD SWAP2 AND SWAP2 SWAP1 DUP3 SWAP1 PUSH32 0x8BE0079C531659141344CD1FD0A4F28419497F9722A3DAAFE3B4186F6B6457E0 SWAP1 PUSH1 0x0 SWAP1 LOG3 POP POP JUMP JUMPDEST PUSH2 0x168B PUSH2 0x17C7 JUMP JUMPDEST PUSH1 0x6 DUP1 SLOAD PUSH1 0xFF PUSH1 0xA0 SHL NOT AND PUSH1 0x1 PUSH1 0xA0 SHL OR SWAP1 SSTORE PUSH32 0x62E78CEA01BEE320CD4E420270B5EA74000D11B0C9F74754EBDBFC544B05A258 PUSH2 0x1614 CALLER SWAP1 JUMP JUMPDEST DUP2 PUSH1 0x1 PUSH1 0x1 PUSH1 0xA0 SHL SUB AND DUP4 PUSH1 0x1 PUSH1 0x1 PUSH1 0xA0 SHL SUB AND SUB PUSH2 0x1727 JUMPI PUSH1 0x40 MLOAD PUSH3 0x461BCD PUSH1 0xE5 SHL DUP2 MSTORE PUSH1 0x20 PUSH1 0x4 DUP3 ADD MSTORE PUSH1 0x19 PUSH1 0x24 DUP3 ADD MSTORE PUSH32 0x4552433732313A20617070726F766520746F2063616C6C657200000000000000 PUSH1 0x44 DUP3 ADD MSTORE PUSH1 0x64 ADD PUSH2 0x85D JUMP JUMPDEST PUSH1 0x1 PUSH1 0x1 PUSH1 0xA0 SHL SUB DUP4 DUP2 AND PUSH1 0x0 DUP2 DUP2 MSTORE PUSH1 0x5 PUSH1 0x20 SWAP1 DUP2 MSTORE PUSH1 0x40 DUP1 DUP4 KECCAK256 SWAP5 DUP8 AND DUP1 DUP5 MSTORE SWAP5 DUP3 MSTORE SWAP2 DUP3 SWAP1 KECCAK256 DUP1 SLOAD PUSH1 0xFF NOT AND DUP7 ISZERO ISZERO SWAP1 DUP2 OR SWAP1 SWAP2 SSTORE SWAP2 MLOAD SWAP2 DUP3 MSTORE PUSH32 0x17307EAB39AB6107E8899845AD3D59BD9653F200F220920489CA2B5937696C31 SWAP2 ADD PUSH1 0x40 MLOAD DUP1 SWAP2 SUB SWAP1 LOG3 POP POP POP JUMP JUMPDEST PUSH2 0x179F DUP5 DUP5 DUP5 PUSH2 0x1434 JUMP JUMPDEST PUSH2 0x17AB DUP5 DUP5 DUP5 DUP5 PUSH2 0x1F41 JUMP JUMPDEST PUSH2 0xD89 JUMPI PUSH1 0x40 MLOAD PUSH3 0x461BCD PUSH1 0xE5 SHL DUP2 MSTORE PUSH1 0x4 ADD PUSH2 0x85D SWAP1 PUSH2 0x2B79 JUMP JUMPDEST PUSH1 0x6 SLOAD PUSH1 0x1 PUSH1 0xA0 SHL SWAP1 DIV PUSH1 0xFF AND ISZERO PUSH2 0xBFB JUMPI PUSH1 0x40 MLOAD PUSH3 0x461BCD PUSH1 0xE5 SHL DUP2 MSTORE PUSH1 0x20 PUSH1 0x4 DUP3 ADD MSTORE PUSH1 0x10 PUSH1 0x24 DUP3 ADD MSTORE PUSH16 0x14185D5CD8589B194E881C185D5CD959 PUSH1 0x82 SHL PUSH1 0x44 DUP3 ADD MSTORE PUSH1 0x64 ADD PUSH2 0x85D JUMP JUMPDEST PUSH1 0x0 DUP2 DUP4 LT PUSH2 0x1823 JUMPI DUP2 PUSH2 0xBE4 JUMP JUMPDEST POP SWAP1 SWAP2 SWAP1 POP JUMP JUMPDEST DUP1 DUP3 PUSH1 0x0 ADD PUSH1 0x0 DUP3 DUP3 SLOAD PUSH2 0x183E SWAP2 SWAP1 PUSH2 0x2B61 JUMP JUMPDEST SWAP1 SWAP2 SSTORE POP POP POP POP JUMP JUMPDEST PUSH1 0x40 MLOAD PUSH4 0x5D3B1D3 PUSH1 0xE4 SHL DUP2 MSTORE PUSH32 0x0 PUSH1 0x4 DUP3 ADD MSTORE PUSH8 0xFFFFFFFFFFFFFFFF PUSH32 0x0 AND PUSH1 0x24 DUP3 ADD MSTORE PUSH1 0x3 PUSH1 0x44 DUP3 ADD MSTORE PUSH4 0xFFFFFFFF PUSH32 0x0 AND PUSH1 0x64 DUP3 ADD MSTORE PUSH1 0x1 PUSH1 0x84 DUP3 ADD MSTORE PUSH1 0x0 SWAP1 PUSH32 0x0 PUSH1 0x1 PUSH1 0x1 PUSH1 0xA0 SHL SUB AND SWAP1 PUSH4 0x5D3B1D30 SWAP1 PUSH1 0xA4 ADD PUSH1 0x20 PUSH1 0x40 MLOAD DUP1 DUP4 SUB DUP2 PUSH1 0x0 DUP8 GAS CALL ISZERO DUP1 ISZERO PUSH2 0x193A JUMPI RETURNDATASIZE PUSH1 0x0 DUP1 RETURNDATACOPY RETURNDATASIZE PUSH1 0x0 REVERT JUMPDEST POP POP POP POP PUSH1 0x40 MLOAD RETURNDATASIZE PUSH1 0x1F NOT PUSH1 0x1F DUP3 ADD AND DUP3 ADD DUP1 PUSH1 0x40 MSTORE POP DUP2 ADD SWAP1 PUSH2 0x195E SWAP2 SWAP1 PUSH2 0x2BCB JUMP JUMPDEST PUSH1 0x0 DUP2 DUP2 MSTORE PUSH1 0x15 PUSH1 0x20 MSTORE PUSH1 0x40 DUP1 DUP3 KECCAK256 DUP1 SLOAD PUSH1 0x1 PUSH1 0x1 PUSH1 0xA0 SHL SUB NOT AND PUSH1 0x1 PUSH1 0x1 PUSH1 0xA0 SHL SUB DUP10 AND OR SWAP1 SSTORE MLOAD SWAP2 SWAP3 POP DUP3 SWAP2 PUSH32 0xF76E87796E0D30D26631C878E060E8F2713F3FF6CBCA914ADC1535CA58FB26FC SWAP2 SWAP1 LOG2 POP POP POP POP JUMP JUMPDEST PUSH1 0x60 PUSH2 0x19C1 DUP3 PUSH2 0x1001 JUMP JUMPDEST PUSH1 0x0 PUSH2 0x19CB PUSH2 0x2042 JUMP JUMPDEST SWAP1 POP PUSH1 0x0 DUP2 MLOAD GT PUSH2 0x19EB JUMPI PUSH1 0x40 MLOAD DUP1 PUSH1 0x20 ADD PUSH1 0x40 MSTORE DUP1 PUSH1 0x0 DUP2 MSTORE POP PUSH2 0xBE4 JUMP JUMPDEST DUP1 PUSH2 0x19F5 DUP5 PUSH2 0x204C JUMP JUMPDEST PUSH1 0x40 MLOAD PUSH1 0x20 ADD PUSH2 0x1A06 SWAP3 SWAP2 SWAP1 PUSH2 0x2BE4 JUMP JUMPDEST PUSH1 0x40 MLOAD PUSH1 0x20 DUP2 DUP4 SUB SUB DUP2 MSTORE SWAP1 PUSH1 0x40 MSTORE SWAP4 SWAP3 POP POP POP JUMP JUMPDEST PUSH2 0x9B1 DUP3 DUP3 PUSH1 0x40 MLOAD DUP1 PUSH1 0x20 ADD PUSH1 0x40 MSTORE DUP1 PUSH1 0x0 DUP2 MSTORE POP PUSH2 0x214D JUMP JUMPDEST PUSH1 0x2 PUSH1 0x7 SLOAD SUB PUSH2 0x1A88 JUMPI PUSH1 0x40 MLOAD PUSH3 0x461BCD PUSH1 0xE5 SHL DUP2 MSTORE PUSH1 0x20 PUSH1 0x4 DUP3 ADD MSTORE PUSH1 0x1F PUSH1 0x24 DUP3 ADD MSTORE PUSH32 0x5265656E7472616E637947756172643A207265656E7472616E742063616C6C00 PUSH1 0x44 DUP3 ADD MSTORE PUSH1 0x64 ADD PUSH2 0x85D JUMP JUMPDEST PUSH1 0x2 PUSH1 0x7 SSTORE PUSH2 0x1A95 PUSH2 0x17C7 JUMP JUMPDEST PUSH1 0x40 DUP1 MLOAD PUSH1 0xE0 DUP2 ADD DUP3 MSTORE PUSH1 0x8 SLOAD DUP2 MSTORE PUSH1 0x9 SLOAD PUSH1 0x20 DUP3 ADD MSTORE PUSH1 0xA SLOAD SWAP2 DUP2 ADD DUP3 SWAP1 MSTORE PUSH1 0xB SLOAD PUSH1 0x1 PUSH1 0x1 PUSH1 0xF8 SHL SUB DUP2 AND PUSH1 0x60 DUP4 ADD MSTORE PUSH1 0xFF PUSH1 0x1 PUSH1 0xF8 SHL SWAP1 SWAP2 DIV DUP2 AND ISZERO ISZERO PUSH1 0x80 DUP4 ADD MSTORE PUSH1 0xC SLOAD DUP1 DUP3 AND ISZERO ISZERO PUSH1 0xA0 DUP5 ADD MSTORE PUSH2 0x100 SWAP1 DIV AND ISZERO ISZERO PUSH1 0xC0 DUP3 ADD MSTORE SWAP1 PUSH1 0x0 SWAP1 ISZERO PUSH2 0x1B10 JUMPI PUSH2 0x1B0B DUP5 DUP4 PUSH1 0x40 ADD MLOAD PUSH2 0x1814 JUMP JUMPDEST PUSH2 0x1B12 JUMP JUMPDEST DUP4 JUMPDEST SWAP1 POP PUSH1 0x0 DUP1 DUP4 PUSH1 0x80 ADD MLOAD ISZERO PUSH2 0x1B5A JUMPI PUSH1 0x60 DUP5 ADD MLOAD DUP5 MLOAD PUSH2 0x1B3B SWAP2 PUSH1 0x1 PUSH1 0x1 PUSH1 0xF8 SHL SUB AND SWAP1 PUSH2 0x2AD3 JUMP JUMPDEST SWAP2 POP PUSH2 0x1B46 PUSH1 0x10 SLOAD SWAP1 JUMP JUMPDEST PUSH1 0xE SLOAD PUSH2 0x1B53 SWAP2 SWAP1 PUSH2 0x2AD3 JUMP JUMPDEST SWAP1 POP PUSH2 0x1B6A JUMP JUMPDEST DUP4 MLOAD SWAP2 POP PUSH2 0x1B67 PUSH1 0xE SLOAD SWAP1 JUMP JUMPDEST SWAP1 POP JUMPDEST PUSH2 0x1B78 DUP4 PUSH2 0xDC2 DUP4 DUP6 PUSH2 0x2AD3 JUMP JUMPDEST SWAP3 POP PUSH1 0x0 DUP4 GT PUSH2 0x1BBD JUMPI PUSH1 0x40 MLOAD PUSH3 0x461BCD PUSH1 0xE5 SHL DUP2 MSTORE PUSH1 0x20 PUSH1 0x4 DUP3 ADD MSTORE PUSH1 0x10 PUSH1 0x24 DUP3 ADD MSTORE PUSH16 0x14D95B1B195C8E8814DBDB19081BDD5D PUSH1 0x82 SHL PUSH1 0x44 DUP3 ADD MSTORE PUSH1 0x64 ADD PUSH2 0x85D JUMP JUMPDEST PUSH1 0x20 DUP5 ADD MLOAD ISZERO PUSH2 0x1D19 JUMPI CALLER PUSH1 0x1 PUSH1 0x1 PUSH1 0xA0 SHL SUB DUP9 AND DUP2 EQ ISZERO SWAP1 PUSH1 0x0 SWAP1 ORIGIN EQ DUP1 ISZERO SWAP1 PUSH2 0x1BF1 JUMPI POP ORIGIN PUSH1 0x1 PUSH1 0x1 PUSH1 0xA0 SHL SUB DUP11 AND EQ ISZERO JUMPDEST SWAP1 POP PUSH2 0x1C21 DUP6 DUP11 PUSH1 0x40 MLOAD DUP1 PUSH1 0x40 ADD PUSH1 0x40 MSTORE DUP1 PUSH1 0xB DUP2 MSTORE PUSH1 0x20 ADD PUSH11 0x109D5E595C881B1A5B5A5D PUSH1 0xAA SHL DUP2 MSTORE POP PUSH2 0x2180 JUMP JUMPDEST SWAP5 POP DUP2 ISZERO PUSH2 0x1C5B JUMPI PUSH2 0x1C58 DUP6 CALLER PUSH1 0x40 MLOAD DUP1 PUSH1 0x40 ADD PUSH1 0x40 MSTORE DUP1 PUSH1 0xC DUP2 MSTORE PUSH1 0x20 ADD PUSH12 0x14D95B99195C881B1A5B5A5D PUSH1 0xA2 SHL DUP2 MSTORE POP PUSH2 0x2180 JUMP JUMPDEST SWAP5 POP JUMPDEST DUP1 ISZERO PUSH2 0x1C93 JUMPI PUSH2 0x1C90 DUP6 ORIGIN PUSH1 0x40 MLOAD DUP1 PUSH1 0x40 ADD PUSH1 0x40 MSTORE DUP1 PUSH1 0xC DUP2 MSTORE PUSH1 0x20 ADD PUSH12 0x13DC9A59DA5B881B1A5B5A5D PUSH1 0xA2 SHL DUP2 MSTORE POP PUSH2 0x2180 JUMP JUMPDEST SWAP5 POP JUMPDEST PUSH1 0x1 PUSH1 0x1 PUSH1 0xA0 SHL SUB DUP10 AND PUSH1 0x0 SWAP1 DUP2 MSTORE PUSH1 0xF PUSH1 0x20 MSTORE PUSH1 0x40 DUP2 KECCAK256 DUP1 SLOAD DUP8 SWAP3 SWAP1 PUSH2 0x1CBB SWAP1 DUP5 SWAP1 PUSH2 0x2B61 JUMP JUMPDEST SWAP1 SWAP2 SSTORE POP POP DUP2 ISZERO PUSH2 0x1CEB JUMPI CALLER PUSH1 0x0 SWAP1 DUP2 MSTORE PUSH1 0xF PUSH1 0x20 MSTORE PUSH1 0x40 DUP2 KECCAK256 DUP1 SLOAD DUP8 SWAP3 SWAP1 PUSH2 0x1CE5 SWAP1 DUP5 SWAP1 PUSH2 0x2B61 JUMP JUMPDEST SWAP1 SWAP2 SSTORE POP POP JUMPDEST DUP1 ISZERO PUSH2 0x1D16 JUMPI ORIGIN PUSH1 0x0 SWAP1 DUP2 MSTORE PUSH1 0xF PUSH1 0x20 MSTORE PUSH1 0x40 DUP2 KECCAK256 DUP1 SLOAD DUP8 SWAP3 SWAP1 PUSH2 0x1D10 SWAP1 DUP5 SWAP1 PUSH2 0x2B61 JUMP JUMPDEST SWAP1 SWAP2 SSTORE POP POP JUMPDEST POP POP JUMPDEST PUSH1 0x0 PUSH2 0x1D25 DUP5 DUP8 PUSH2 0xBD4 JUMP JUMPDEST SWAP1 POP DUP1 CALLVALUE LT ISZERO PUSH2 0x1D7B JUMPI PUSH2 0x1D45 PUSH2 0x1D40 PUSH4 0x3B9ACA00 DUP4 PUSH2 0x2C13 JUMP JUMPDEST PUSH2 0x204C JUMP JUMPDEST PUSH1 0x40 MLOAD PUSH1 0x20 ADD PUSH2 0x1D55 SWAP2 SWAP1 PUSH2 0x2C27 JUMP JUMPDEST PUSH1 0x40 DUP1 MLOAD PUSH1 0x1F NOT DUP2 DUP5 SUB ADD DUP2 MSTORE SWAP1 DUP3 SWAP1 MSTORE PUSH3 0x461BCD PUSH1 0xE5 SHL DUP3 MSTORE PUSH2 0x85D SWAP2 PUSH1 0x4 ADD PUSH2 0x24CA JUMP JUMPDEST PUSH2 0x1D86 PUSH1 0xE DUP6 PUSH2 0x182A JUMP JUMPDEST DUP5 MLOAD PUSH1 0xE SLOAD GT ISZERO PUSH2 0x1D99 JUMPI PUSH2 0x1D99 PUSH2 0x2AEA JUMP JUMPDEST PUSH2 0x1DA5 DUP9 DUP6 PUSH1 0x0 PUSH2 0x1847 JUMP JUMPDEST DUP1 ISZERO PUSH2 0x1E0A JUMPI PUSH1 0xD SLOAD PUSH2 0x1DC1 SWAP1 PUSH1 0x1 PUSH1 0x1 PUSH1 0xA0 SHL SUB AND DUP3 PUSH2 0x21D5 JUMP JUMPDEST PUSH1 0xD SLOAD PUSH1 0x40 DUP1 MLOAD DUP7 DUP2 MSTORE PUSH1 0x20 DUP2 ADD DUP5 SWAP1 MSTORE PUSH1 0x1 PUSH1 0x1 PUSH1 0xA0 SHL SUB SWAP1 SWAP3 AND SWAP2 PUSH32 0x1F51B99BD1C3CCA301836178E5DEE13AADFE44EFF06DC3DDCBF3C9D058454F8 SWAP2 ADD PUSH1 0x40 MLOAD DUP1 SWAP2 SUB SWAP1 LOG2 JUMPDEST DUP1 CALLVALUE GT ISZERO PUSH2 0x1EE2 JUMPI CALLER PUSH1 0x0 PUSH2 0x1E1F DUP4 CALLVALUE PUSH2 0x2AD3 JUMP JUMPDEST SWAP1 POP PUSH1 0x0 DUP1 DUP4 PUSH1 0x1 PUSH1 0x1 PUSH1 0xA0 SHL SUB AND DUP4 PUSH1 0x40 MLOAD PUSH1 0x0 PUSH1 0x40 MLOAD DUP1 DUP4 SUB DUP2 DUP6 DUP8 GAS CALL SWAP3 POP POP POP RETURNDATASIZE DUP1 PUSH1 0x0 DUP2 EQ PUSH2 0x1E6F JUMPI PUSH1 0x40 MLOAD SWAP2 POP PUSH1 0x1F NOT PUSH1 0x3F RETURNDATASIZE ADD AND DUP3 ADD PUSH1 0x40 MSTORE RETURNDATASIZE DUP3 MSTORE RETURNDATASIZE PUSH1 0x0 PUSH1 0x20 DUP5 ADD RETURNDATACOPY PUSH2 0x1E74 JUMP JUMPDEST PUSH1 0x60 SWAP2 POP JUMPDEST POP SWAP2 POP SWAP2 POP DUP2 DUP2 SWAP1 PUSH2 0x1E99 JUMPI PUSH1 0x40 MLOAD PUSH3 0x461BCD PUSH1 0xE5 SHL DUP2 MSTORE PUSH1 0x4 ADD PUSH2 0x85D SWAP2 SWAP1 PUSH2 0x24CA JUMP JUMPDEST POP DUP4 PUSH1 0x1 PUSH1 0x1 PUSH1 0xA0 SHL SUB AND PUSH32 0xBB28353E4598C3B9199101A66E0989549B659A59A54D2C27FBB183F1932C8E6D DUP5 PUSH1 0x40 MLOAD PUSH2 0x1ED5 SWAP2 DUP2 MSTORE PUSH1 0x20 ADD SWAP1 JUMP JUMPDEST PUSH1 0x40 MLOAD DUP1 SWAP2 SUB SWAP1 LOG2 POP POP POP POP JUMPDEST POP POP PUSH1 0x1 PUSH1 0x7 SSTORE POP POP POP POP POP POP JUMP JUMPDEST PUSH1 0x6 SLOAD PUSH1 0x1 PUSH1 0xA0 SHL SWAP1 DIV PUSH1 0xFF AND PUSH2 0xBFB JUMPI PUSH1 0x40 MLOAD PUSH3 0x461BCD PUSH1 0xE5 SHL DUP2 MSTORE PUSH1 0x20 PUSH1 0x4 DUP3 ADD MSTORE PUSH1 0x14 PUSH1 0x24 DUP3 ADD MSTORE PUSH20 0x14185D5CD8589B194E881B9BDD081C185D5CD959 PUSH1 0x62 SHL PUSH1 0x44 DUP3 ADD MSTORE PUSH1 0x64 ADD PUSH2 0x85D JUMP JUMPDEST PUSH1 0x0 PUSH1 0x1 PUSH1 0x1 PUSH1 0xA0 SHL SUB DUP5 AND EXTCODESIZE ISZERO PUSH2 0x2037 JUMPI PUSH1 0x40 MLOAD PUSH4 0xA85BD01 PUSH1 0xE1 SHL DUP2 MSTORE PUSH1 0x1 PUSH1 0x1 PUSH1 0xA0 SHL SUB DUP6 AND SWAP1 PUSH4 0x150B7A02 SWAP1 PUSH2 0x1F85 SWAP1 CALLER SWAP1 DUP10 SWAP1 DUP9 SWAP1 DUP9 SWAP1 PUSH1 0x4 ADD PUSH2 0x2C6C JUMP JUMPDEST PUSH1 0x20 PUSH1 0x40 MLOAD DUP1 DUP4 SUB DUP2 PUSH1 0x0 DUP8 GAS CALL SWAP3 POP POP POP DUP1 ISZERO PUSH2 0x1FC0 JUMPI POP PUSH1 0x40 DUP1 MLOAD PUSH1 0x1F RETURNDATASIZE SWAP1 DUP2 ADD PUSH1 0x1F NOT AND DUP3 ADD SWAP1 SWAP3 MSTORE PUSH2 0x1FBD SWAP2 DUP2 ADD SWAP1 PUSH2 0x2CA9 JUMP JUMPDEST PUSH1 0x1 JUMPDEST PUSH2 0x201D JUMPI RETURNDATASIZE DUP1 DUP1 ISZERO PUSH2 0x1FEE JUMPI PUSH1 0x40 MLOAD SWAP2 POP PUSH1 0x1F NOT PUSH1 0x3F RETURNDATASIZE ADD AND DUP3 ADD PUSH1 0x40 MSTORE RETURNDATASIZE DUP3 MSTORE RETURNDATASIZE PUSH1 0x0 PUSH1 0x20 DUP5 ADD RETURNDATACOPY PUSH2 0x1FF3 JUMP JUMPDEST PUSH1 0x60 SWAP2 POP JUMPDEST POP DUP1 MLOAD PUSH1 0x0 SUB PUSH2 0x2015 JUMPI PUSH1 0x40 MLOAD PUSH3 0x461BCD PUSH1 0xE5 SHL DUP2 MSTORE PUSH1 0x4 ADD PUSH2 0x85D SWAP1 PUSH2 0x2B79 JUMP JUMPDEST DUP1 MLOAD DUP2 PUSH1 0x20 ADD REVERT JUMPDEST PUSH1 0x1 PUSH1 0x1 PUSH1 0xE0 SHL SUB NOT AND PUSH4 0xA85BD01 PUSH1 0xE1 SHL EQ SWAP1 POP PUSH2 0x142C JUMP JUMPDEST POP PUSH1 0x1 SWAP5 SWAP4 POP POP POP POP JUMP JUMPDEST PUSH1 0x60 PUSH2 0xD2B PUSH2 0x22EE JUMP JUMPDEST PUSH1 0x60 DUP2 PUSH1 0x0 SUB PUSH2 0x2073 JUMPI POP POP PUSH1 0x40 DUP1 MLOAD DUP1 DUP3 ADD SWAP1 SWAP2 MSTORE PUSH1 0x1 DUP2 MSTORE PUSH1 0x3 PUSH1 0xFC SHL PUSH1 0x20 DUP3 ADD MSTORE SWAP1 JUMP JUMPDEST DUP2 PUSH1 0x0 JUMPDEST DUP2 ISZERO PUSH2 0x209D JUMPI DUP1 PUSH2 0x2087 DUP2 PUSH2 0x2CC6 JUMP JUMPDEST SWAP2 POP PUSH2 0x2096 SWAP1 POP PUSH1 0xA DUP4 PUSH2 0x2C13 JUMP JUMPDEST SWAP2 POP PUSH2 0x2077 JUMP JUMPDEST PUSH1 0x0 DUP2 PUSH8 0xFFFFFFFFFFFFFFFF DUP2 GT ISZERO PUSH2 0x20B8 JUMPI PUSH2 0x20B8 PUSH2 0x2554 JUMP JUMPDEST PUSH1 0x40 MLOAD SWAP1 DUP1 DUP3 MSTORE DUP1 PUSH1 0x1F ADD PUSH1 0x1F NOT AND PUSH1 0x20 ADD DUP3 ADD PUSH1 0x40 MSTORE DUP1 ISZERO PUSH2 0x20E2 JUMPI PUSH1 0x20 DUP3 ADD DUP2 DUP1 CALLDATASIZE DUP4 CALLDATACOPY ADD SWAP1 POP JUMPDEST POP SWAP1 POP JUMPDEST DUP5 ISZERO PUSH2 0x142C JUMPI PUSH2 0x20F7 PUSH1 0x1 DUP4 PUSH2 0x2AD3 JUMP JUMPDEST SWAP2 POP PUSH2 0x2104 PUSH1 0xA DUP7 PUSH2 0x2B4D JUMP JUMPDEST PUSH2 0x210F SWAP1 PUSH1 0x30 PUSH2 0x2B61 JUMP JUMPDEST PUSH1 0xF8 SHL DUP2 DUP4 DUP2 MLOAD DUP2 LT PUSH2 0x2124 JUMPI PUSH2 0x2124 PUSH2 0x2B21 JUMP JUMPDEST PUSH1 0x20 ADD ADD SWAP1 PUSH1 0x1 PUSH1 0x1 PUSH1 0xF8 SHL SUB NOT AND SWAP1 DUP2 PUSH1 0x0 BYTE SWAP1 MSTORE8 POP PUSH2 0x2146 PUSH1 0xA DUP7 PUSH2 0x2C13 JUMP JUMPDEST SWAP5 POP PUSH2 0x20E6 JUMP JUMPDEST PUSH2 0x2157 DUP4 DUP4 PUSH2 0x22FD JUMP JUMPDEST PUSH2 0x2164 PUSH1 0x0 DUP5 DUP5 DUP5 PUSH2 0x1F41 JUMP JUMPDEST PUSH2 0x8FE JUMPI PUSH1 0x40 MLOAD PUSH3 0x461BCD PUSH1 0xE5 SHL DUP2 MSTORE PUSH1 0x4 ADD PUSH2 0x85D SWAP1 PUSH2 0x2B79 JUMP JUMPDEST PUSH1 0x1 PUSH1 0x1 PUSH1 0xA0 SHL SUB DUP3 AND PUSH1 0x0 SWAP1 DUP2 MSTORE PUSH1 0xF PUSH1 0x20 MSTORE PUSH1 0x40 DUP2 KECCAK256 SLOAD PUSH1 0x9 SLOAD DUP3 SWAP2 PUSH2 0x21A7 SWAP2 PUSH2 0x2AD3 JUMP JUMPDEST SWAP1 POP DUP1 PUSH1 0x0 SUB PUSH2 0x21C2 JUMPI DUP3 PUSH1 0x40 MLOAD PUSH1 0x20 ADD PUSH2 0x1D55 SWAP2 SWAP1 PUSH2 0x2CDF JUMP JUMPDEST PUSH2 0x21CC DUP6 DUP3 PUSH2 0x1814 JUMP JUMPDEST SWAP6 SWAP5 POP POP POP POP POP JUMP JUMPDEST DUP1 SELFBALANCE LT ISZERO PUSH2 0x2225 JUMPI PUSH1 0x40 MLOAD PUSH3 0x461BCD PUSH1 0xE5 SHL DUP2 MSTORE PUSH1 0x20 PUSH1 0x4 DUP3 ADD MSTORE PUSH1 0x1D PUSH1 0x24 DUP3 ADD MSTORE PUSH32 0x416464726573733A20696E73756666696369656E742062616C616E6365000000 PUSH1 0x44 DUP3 ADD MSTORE PUSH1 0x64 ADD PUSH2 0x85D JUMP JUMPDEST PUSH1 0x0 DUP3 PUSH1 0x1 PUSH1 0x1 PUSH1 0xA0 SHL SUB AND DUP3 PUSH1 0x40 MLOAD PUSH1 0x0 PUSH1 0x40 MLOAD DUP1 DUP4 SUB DUP2 DUP6 DUP8 GAS CALL SWAP3 POP POP POP RETURNDATASIZE DUP1 PUSH1 0x0 DUP2 EQ PUSH2 0x2272 JUMPI PUSH1 0x40 MLOAD SWAP2 POP PUSH1 0x1F NOT PUSH1 0x3F RETURNDATASIZE ADD AND DUP3 ADD PUSH1 0x40 MSTORE RETURNDATASIZE DUP3 MSTORE RETURNDATASIZE PUSH1 0x0 PUSH1 0x20 DUP5 ADD RETURNDATACOPY PUSH2 0x2277 JUMP JUMPDEST PUSH1 0x60 SWAP2 POP JUMPDEST POP POP SWAP1 POP DUP1 PUSH2 0x8FE JUMPI PUSH1 0x40 MLOAD PUSH3 0x461BCD PUSH1 0xE5 SHL DUP2 MSTORE PUSH1 0x20 PUSH1 0x4 DUP3 ADD MSTORE PUSH1 0x3A PUSH1 0x24 DUP3 ADD MSTORE PUSH32 0x416464726573733A20756E61626C6520746F2073656E642076616C75652C2072 PUSH1 0x44 DUP3 ADD MSTORE PUSH32 0x6563697069656E74206D61792068617665207265766572746564000000000000 PUSH1 0x64 DUP3 ADD MSTORE PUSH1 0x84 ADD PUSH2 0x85D JUMP JUMPDEST PUSH1 0x60 PUSH1 0x12 DUP1 SLOAD PUSH2 0x73F SWAP1 PUSH2 0x2908 JUMP JUMPDEST PUSH1 0x1 PUSH1 0x1 PUSH1 0xA0 SHL SUB DUP3 AND PUSH2 0x2353 JUMPI PUSH1 0x40 MLOAD PUSH3 0x461BCD PUSH1 0xE5 SHL DUP2 MSTORE PUSH1 0x20 PUSH1 0x4 DUP3 ADD DUP2 SWAP1 MSTORE PUSH1 0x24 DUP3 ADD MSTORE PUSH32 0x4552433732313A206D696E7420746F20746865207A65726F2061646472657373 PUSH1 0x44 DUP3 ADD MSTORE PUSH1 0x64 ADD PUSH2 0x85D JUMP JUMPDEST PUSH1 0x0 DUP2 DUP2 MSTORE PUSH1 0x2 PUSH1 0x20 MSTORE PUSH1 0x40 SWAP1 KECCAK256 SLOAD PUSH1 0x1 PUSH1 0x1 PUSH1 0xA0 SHL SUB AND ISZERO PUSH2 0x23B8 JUMPI PUSH1 0x40 MLOAD PUSH3 0x461BCD PUSH1 0xE5 SHL DUP2 MSTORE PUSH1 0x20 PUSH1 0x4 DUP3 ADD MSTORE PUSH1 0x1C PUSH1 0x24 DUP3 ADD MSTORE PUSH32 0x4552433732313A20746F6B656E20616C7265616479206D696E74656400000000 PUSH1 0x44 DUP3 ADD MSTORE PUSH1 0x64 ADD PUSH2 0x85D JUMP JUMPDEST PUSH1 0x1 PUSH1 0x1 PUSH1 0xA0 SHL SUB DUP3 AND PUSH1 0x0 SWAP1 DUP2 MSTORE PUSH1 0x3 PUSH1 0x20 MSTORE PUSH1 0x40 DUP2 KECCAK256 DUP1 SLOAD PUSH1 0x1 SWAP3 SWAP1 PUSH2 0x23E1 SWAP1 DUP5 SWAP1 PUSH2 0x2B61 JUMP JUMPDEST SWAP1 SWAP2 SSTORE POP POP PUSH1 0x0 DUP2 DUP2 MSTORE PUSH1 0x2 PUSH1 0x20 MSTORE PUSH1 0x40 DUP1 DUP3 KECCAK256 DUP1 SLOAD PUSH1 0x1 PUSH1 0x1 PUSH1 0xA0 SHL SUB NOT AND PUSH1 0x1 PUSH1 0x1 PUSH1 0xA0 SHL SUB DUP7 AND SWAP1 DUP2 OR SWAP1 SWAP2 SSTORE SWAP1 MLOAD DUP4 SWAP3 SWAP1 PUSH32 0xDDF252AD1BE2C89B69C2B068FC378DAA952BA7F163C4A11628F55A4DF523B3EF SWAP1 DUP3 SWAP1 LOG4 POP POP JUMP JUMPDEST PUSH1 0x1 PUSH1 0x1 PUSH1 0xE0 SHL SUB NOT DUP2 AND DUP2 EQ PUSH2 0x9F1 JUMPI PUSH1 0x0 DUP1 REVERT JUMPDEST PUSH1 0x0 PUSH1 0x20 DUP3 DUP5 SUB SLT ISZERO PUSH2 0x2467 JUMPI PUSH1 0x0 DUP1 REVERT JUMPDEST DUP2 CALLDATALOAD PUSH2 0xBE4 DUP2 PUSH2 0x243F JUMP JUMPDEST PUSH1 0x0 JUMPDEST DUP4 DUP2 LT ISZERO PUSH2 0x248D JUMPI DUP2 DUP2 ADD MLOAD DUP4 DUP3 ADD MSTORE PUSH1 0x20 ADD PUSH2 0x2475 JUMP JUMPDEST DUP4 DUP2 GT ISZERO PUSH2 0xD89 JUMPI POP POP PUSH1 0x0 SWAP2 ADD MSTORE JUMP JUMPDEST PUSH1 0x0 DUP2 MLOAD DUP1 DUP5 MSTORE PUSH2 0x24B6 DUP2 PUSH1 0x20 DUP7 ADD PUSH1 0x20 DUP7 ADD PUSH2 0x2472 JUMP JUMPDEST PUSH1 0x1F ADD PUSH1 0x1F NOT AND SWAP3 SWAP1 SWAP3 ADD PUSH1 0x20 ADD SWAP3 SWAP2 POP POP JUMP JUMPDEST PUSH1 0x20 DUP2 MSTORE PUSH1 0x0 PUSH2 0xBE4 PUSH1 0x20 DUP4 ADD DUP5 PUSH2 0x249E JUMP JUMPDEST PUSH1 0x0 PUSH1 0x20 DUP3 DUP5 SUB SLT ISZERO PUSH2 0x24EF JUMPI PUSH1 0x0 DUP1 REVERT JUMPDEST POP CALLDATALOAD SWAP2 SWAP1 POP JUMP JUMPDEST PUSH1 0x1 PUSH1 0x1 PUSH1 0xA0 SHL SUB DUP2 AND DUP2 EQ PUSH2 0x9F1 JUMPI PUSH1 0x0 DUP1 REVERT JUMPDEST PUSH1 0x0 DUP1 PUSH1 0x40 DUP4 DUP6 SUB SLT ISZERO PUSH2 0x251E JUMPI PUSH1 0x0 DUP1 REVERT JUMPDEST DUP3 CALLDATALOAD PUSH2 0x2529 DUP2 PUSH2 0x24F6 JUMP JUMPDEST SWAP5 PUSH1 0x20 SWAP4 SWAP1 SWAP4 ADD CALLDATALOAD SWAP4 POP POP POP JUMP JUMPDEST PUSH1 0x0 PUSH1 0x20 DUP3 DUP5 SUB SLT ISZERO PUSH2 0x2549 JUMPI PUSH1 0x0 DUP1 REVERT JUMPDEST DUP2 CALLDATALOAD PUSH2 0xBE4 DUP2 PUSH2 0x24F6 JUMP JUMPDEST PUSH4 0x4E487B71 PUSH1 0xE0 SHL PUSH1 0x0 MSTORE PUSH1 0x41 PUSH1 0x4 MSTORE PUSH1 0x24 PUSH1 0x0 REVERT JUMPDEST PUSH1 0x40 MLOAD PUSH1 0xE0 DUP2 ADD PUSH8 0xFFFFFFFFFFFFFFFF DUP2 GT DUP3 DUP3 LT OR ISZERO PUSH2 0x258D JUMPI PUSH2 0x258D PUSH2 0x2554 JUMP JUMPDEST PUSH1 0x40 MSTORE SWAP1 JUMP JUMPDEST PUSH1 0x40 MLOAD PUSH1 0x1F DUP3 ADD PUSH1 0x1F NOT AND DUP2 ADD PUSH8 0xFFFFFFFFFFFFFFFF DUP2 GT DUP3 DUP3 LT OR ISZERO PUSH2 0x25BC JUMPI PUSH2 0x25BC PUSH2 0x2554 JUMP JUMPDEST PUSH1 0x40 MSTORE SWAP2 SWAP1 POP JUMP JUMPDEST PUSH1 0x0 DUP1 PUSH1 0x40 DUP4 DUP6 SUB SLT ISZERO PUSH2 0x25D7 JUMPI PUSH1 0x0 DUP1 REVERT JUMPDEST DUP3 CALLDATALOAD SWAP2 POP PUSH1 0x20 DUP1 DUP5 ADD CALLDATALOAD PUSH8 0xFFFFFFFFFFFFFFFF DUP1 DUP3 GT ISZERO PUSH2 0x25F7 JUMPI PUSH1 0x0 DUP1 REVERT JUMPDEST DUP2 DUP7 ADD SWAP2 POP DUP7 PUSH1 0x1F DUP4 ADD SLT PUSH2 0x260B JUMPI PUSH1 0x0 DUP1 REVERT JUMPDEST DUP2 CALLDATALOAD DUP2 DUP2 GT ISZERO PUSH2 0x261D JUMPI PUSH2 0x261D PUSH2 0x2554 JUMP JUMPDEST DUP1 PUSH1 0x5 SHL SWAP2 POP PUSH2 0x262E DUP5 DUP4 ADD PUSH2 0x2593 JUMP JUMPDEST DUP2 DUP2 MSTORE SWAP2 DUP4 ADD DUP5 ADD SWAP2 DUP5 DUP2 ADD SWAP1 DUP10 DUP5 GT ISZERO PUSH2 0x2648 JUMPI PUSH1 0x0 DUP1 REVERT JUMPDEST SWAP4 DUP6 ADD SWAP4 JUMPDEST DUP4 DUP6 LT ISZERO PUSH2 0x2666 JUMPI DUP5 CALLDATALOAD DUP3 MSTORE SWAP4 DUP6 ADD SWAP4 SWAP1 DUP6 ADD SWAP1 PUSH2 0x264D JUMP JUMPDEST DUP1 SWAP7 POP POP POP POP POP POP POP SWAP3 POP SWAP3 SWAP1 POP JUMP JUMPDEST PUSH1 0x0 DUP1 PUSH1 0x0 PUSH1 0x60 DUP5 DUP7 SUB SLT ISZERO PUSH2 0x268B JUMPI PUSH1 0x0 DUP1 REVERT JUMPDEST DUP4 CALLDATALOAD PUSH2 0x2696 DUP2 PUSH2 0x24F6 JUMP JUMPDEST SWAP3 POP PUSH1 0x20 DUP5 ADD CALLDATALOAD PUSH2 0x26A6 DUP2 PUSH2 0x24F6 JUMP JUMPDEST SWAP3 SWAP6 SWAP3 SWAP5 POP POP POP PUSH1 0x40 SWAP2 SWAP1 SWAP2 ADD CALLDATALOAD SWAP1 JUMP JUMPDEST DUP1 CALLDATALOAD DUP1 ISZERO ISZERO DUP2 EQ PUSH2 0x26C7 JUMPI PUSH1 0x0 DUP1 REVERT JUMPDEST SWAP2 SWAP1 POP JUMP JUMPDEST PUSH1 0x0 PUSH1 0xE0 DUP3 DUP5 SUB SLT ISZERO PUSH2 0x26DE JUMPI PUSH1 0x0 DUP1 REVERT JUMPDEST PUSH2 0x26E6 PUSH2 0x256A JUMP JUMPDEST DUP3 CALLDATALOAD DUP2 MSTORE PUSH1 0x20 DUP1 DUP5 ADD CALLDATALOAD SWAP1 DUP3 ADD MSTORE PUSH1 0x40 DUP1 DUP5 ADD CALLDATALOAD SWAP1 DUP3 ADD MSTORE PUSH1 0x60 DUP4 ADD CALLDATALOAD PUSH1 0x1 PUSH1 0x1 PUSH1 0xF8 SHL SUB DUP2 AND DUP2 EQ PUSH2 0x2718 JUMPI PUSH1 0x0 DUP1 REVERT JUMPDEST PUSH1 0x60 DUP3 ADD MSTORE PUSH2 0x2729 PUSH1 0x80 DUP5 ADD PUSH2 0x26B7 JUMP JUMPDEST PUSH1 0x80 DUP3 ADD MSTORE PUSH2 0x273A PUSH1 0xA0 DUP5 ADD PUSH2 0x26B7 JUMP JUMPDEST PUSH1 0xA0 DUP3 ADD MSTORE PUSH2 0x274B PUSH1 0xC0 DUP5 ADD PUSH2 0x26B7 JUMP JUMPDEST PUSH1 0xC0 DUP3 ADD MSTORE SWAP4 SWAP3 POP POP POP JUMP JUMPDEST PUSH1 0x0 PUSH8 0xFFFFFFFFFFFFFFFF DUP4 GT ISZERO PUSH2 0x2771 JUMPI PUSH2 0x2771 PUSH2 0x2554 JUMP JUMPDEST PUSH2 0x2784 PUSH1 0x1F DUP5 ADD PUSH1 0x1F NOT AND PUSH1 0x20 ADD PUSH2 0x2593 JUMP JUMPDEST SWAP1 POP DUP3 DUP2 MSTORE DUP4 DUP4 DUP4 ADD GT ISZERO PUSH2 0x2798 JUMPI PUSH1 0x0 DUP1 REVERT JUMPDEST DUP3 DUP3 PUSH1 0x20 DUP4 ADD CALLDATACOPY PUSH1 0x0 PUSH1 0x20 DUP5 DUP4 ADD ADD MSTORE SWAP4 SWAP3 POP POP POP JUMP JUMPDEST PUSH1 0x0 PUSH1 0x20 DUP3 DUP5 SUB SLT ISZERO PUSH2 0x27C1 JUMPI PUSH1 0x0 DUP1 REVERT JUMPDEST DUP2 CALLDATALOAD PUSH8 0xFFFFFFFFFFFFFFFF DUP2 GT ISZERO PUSH2 0x27D8 JUMPI PUSH1 0x0 DUP1 REVERT JUMPDEST DUP3 ADD PUSH1 0x1F DUP2 ADD DUP5 SGT PUSH2 0x27E9 JUMPI PUSH1 0x0 DUP1 REVERT JUMPDEST PUSH2 0x142C DUP5 DUP3 CALLDATALOAD PUSH1 0x20 DUP5 ADD PUSH2 0x2757 JUMP JUMPDEST PUSH1 0x0 DUP1 PUSH1 0x40 DUP4 DUP6 SUB SLT ISZERO PUSH2 0x280B JUMPI PUSH1 0x0 DUP1 REVERT JUMPDEST POP POP DUP1 CALLDATALOAD SWAP3 PUSH1 0x20 SWAP1 SWAP2 ADD CALLDATALOAD SWAP2 POP JUMP JUMPDEST PUSH1 0x0 DUP1 PUSH1 0x40 DUP4 DUP6 SUB SLT ISZERO PUSH2 0x282D JUMPI PUSH1 0x0 DUP1 REVERT JUMPDEST DUP3 CALLDATALOAD PUSH2 0x2838 DUP2 PUSH2 0x24F6 JUMP JUMPDEST SWAP2 POP PUSH2 0x2846 PUSH1 0x20 DUP5 ADD PUSH2 0x26B7 JUMP JUMPDEST SWAP1 POP SWAP3 POP SWAP3 SWAP1 POP JUMP JUMPDEST PUSH1 0x0 DUP1 PUSH1 0x0 DUP1 PUSH1 0x80 DUP6 DUP8 SUB SLT ISZERO PUSH2 0x2865 JUMPI PUSH1 0x0 DUP1 REVERT JUMPDEST DUP5 CALLDATALOAD PUSH2 0x2870 DUP2 PUSH2 0x24F6 JUMP JUMPDEST SWAP4 POP PUSH1 0x20 DUP6 ADD CALLDATALOAD PUSH2 0x2880 DUP2 PUSH2 0x24F6 JUMP JUMPDEST SWAP3 POP PUSH1 0x40 DUP6 ADD CALLDATALOAD SWAP2 POP PUSH1 0x60 DUP6 ADD CALLDATALOAD PUSH8 0xFFFFFFFFFFFFFFFF DUP2 GT ISZERO PUSH2 0x28A3 JUMPI PUSH1 0x0 DUP1 REVERT JUMPDEST DUP6 ADD PUSH1 0x1F DUP2 ADD DUP8 SGT PUSH2 0x28B4 JUMPI PUSH1 0x0 DUP1 REVERT JUMPDEST PUSH2 0x28C3 DUP8 DUP3 CALLDATALOAD PUSH1 0x20 DUP5 ADD PUSH2 0x2757 JUMP JUMPDEST SWAP2 POP POP SWAP3 SWAP6 SWAP2 SWAP5 POP SWAP3 POP JUMP JUMPDEST PUSH1 0x0 DUP1 PUSH1 0x40 DUP4 DUP6 SUB SLT ISZERO PUSH2 0x28E2 JUMPI PUSH1 0x0 DUP1 REVERT JUMPDEST DUP3 CALLDATALOAD PUSH2 0x28ED DUP2 PUSH2 0x24F6 JUMP JUMPDEST SWAP2 POP PUSH1 0x20 DUP4 ADD CALLDATALOAD PUSH2 0x28FD DUP2 PUSH2 0x24F6 JUMP JUMPDEST DUP1 SWAP2 POP POP SWAP3 POP SWAP3 SWAP1 POP JUMP JUMPDEST PUSH1 0x1 DUP2 DUP2 SHR SWAP1 DUP3 AND DUP1 PUSH2 0x291C JUMPI PUSH1 0x7F DUP3 AND SWAP2 POP JUMPDEST PUSH1 0x20 DUP3 LT DUP2 SUB PUSH2 0x293C JUMPI PUSH4 0x4E487B71 PUSH1 0xE0 SHL PUSH1 0x0 MSTORE PUSH1 0x22 PUSH1 0x4 MSTORE PUSH1 0x24 PUSH1 0x0 REVERT JUMPDEST POP SWAP2 SWAP1 POP JUMP JUMPDEST PUSH1 0x20 DUP1 DUP3 MSTORE PUSH1 0x2E SWAP1 DUP3 ADD MSTORE PUSH32 0x4552433732313A2063616C6C6572206973206E6F7420746F6B656E206F776E65 PUSH1 0x40 DUP3 ADD MSTORE PUSH14 0x1C881B9BDC88185C1C1C9BDD9959 PUSH1 0x92 SHL PUSH1 0x60 DUP3 ADD MSTORE PUSH1 0x80 ADD SWAP1 JUMP JUMPDEST PUSH1 0x1F DUP3 GT ISZERO PUSH2 0x8FE JUMPI PUSH1 0x0 DUP2 DUP2 MSTORE PUSH1 0x20 DUP2 KECCAK256 PUSH1 0x1F DUP6 ADD PUSH1 0x5 SHR DUP2 ADD PUSH1 0x20 DUP7 LT ISZERO PUSH2 0x29B7 JUMPI POP DUP1 JUMPDEST PUSH1 0x1F DUP6 ADD PUSH1 0x5 SHR DUP3 ADD SWAP2 POP JUMPDEST DUP2 DUP2 LT ISZERO PUSH2 0x29D6 JUMPI DUP3 DUP2 SSTORE PUSH1 0x1 ADD PUSH2 0x29C3 JUMP JUMPDEST POP POP POP POP POP POP JUMP JUMPDEST DUP2 MLOAD PUSH8 0xFFFFFFFFFFFFFFFF DUP2 GT ISZERO PUSH2 0x29F8 JUMPI PUSH2 0x29F8 PUSH2 0x2554 JUMP JUMPDEST PUSH2 0x2A0C DUP2 PUSH2 0x2A06 DUP5 SLOAD PUSH2 0x2908 JUMP JUMPDEST DUP5 PUSH2 0x2990 JUMP JUMPDEST PUSH1 0x20 DUP1 PUSH1 0x1F DUP4 GT PUSH1 0x1 DUP2 EQ PUSH2 0x2A41 JUMPI PUSH1 0x0 DUP5 ISZERO PUSH2 0x2A29 JUMPI POP DUP6 DUP4 ADD MLOAD JUMPDEST PUSH1 0x0 NOT PUSH1 0x3 DUP7 SWAP1 SHL SHR NOT AND PUSH1 0x1 DUP6 SWAP1 SHL OR DUP6 SSTORE PUSH2 0x29D6 JUMP JUMPDEST PUSH1 0x0 DUP6 DUP2 MSTORE PUSH1 0x20 DUP2 KECCAK256 PUSH1 0x1F NOT DUP7 AND SWAP2 JUMPDEST DUP3 DUP2 LT ISZERO PUSH2 0x2A70 JUMPI DUP9 DUP7 ADD MLOAD DUP3 SSTORE SWAP5 DUP5 ADD SWAP5 PUSH1 0x1 SWAP1 SWAP2 ADD SWAP1 DUP5 ADD PUSH2 0x2A51 JUMP JUMPDEST POP DUP6 DUP3 LT ISZERO PUSH2 0x2A8E JUMPI DUP8 DUP6 ADD MLOAD PUSH1 0x0 NOT PUSH1 0x3 DUP9 SWAP1 SHL PUSH1 0xF8 AND SHR NOT AND DUP2 SSTORE JUMPDEST POP POP POP POP POP PUSH1 0x1 SWAP1 DUP2 SHL ADD SWAP1 SSTORE POP JUMP JUMPDEST PUSH4 0x4E487B71 PUSH1 0xE0 SHL PUSH1 0x0 MSTORE PUSH1 0x11 PUSH1 0x4 MSTORE PUSH1 0x24 PUSH1 0x0 REVERT JUMPDEST PUSH1 0x0 DUP2 PUSH1 0x0 NOT DIV DUP4 GT DUP3 ISZERO ISZERO AND ISZERO PUSH2 0x2ACE JUMPI PUSH2 0x2ACE PUSH2 0x2A9E JUMP JUMPDEST POP MUL SWAP1 JUMP JUMPDEST PUSH1 0x0 DUP3 DUP3 LT ISZERO PUSH2 0x2AE5 JUMPI PUSH2 0x2AE5 PUSH2 0x2A9E JUMP JUMPDEST POP SUB SWAP1 JUMP JUMPDEST PUSH4 0x4E487B71 PUSH1 0xE0 SHL PUSH1 0x0 MSTORE PUSH1 0x1 PUSH1 0x4 MSTORE PUSH1 0x24 PUSH1 0x0 REVERT JUMPDEST PUSH1 0x0 PUSH2 0xFFFF DUP1 DUP4 AND DUP2 DUP2 SUB PUSH2 0x2B17 JUMPI PUSH2 0x2B17 PUSH2 0x2A9E JUMP JUMPDEST PUSH1 0x1 ADD SWAP4 SWAP3 POP POP POP JUMP JUMPDEST PUSH4 0x4E487B71 PUSH1 0xE0 SHL PUSH1 0x0 MSTORE PUSH1 0x32 PUSH1 0x4 MSTORE PUSH1 0x24 PUSH1 0x0 REVERT JUMPDEST PUSH4 0x4E487B71 PUSH1 0xE0 SHL PUSH1 0x0 MSTORE PUSH1 0x12 PUSH1 0x4 MSTORE PUSH1 0x24 PUSH1 0x0 REVERT JUMPDEST PUSH1 0x0 DUP3 PUSH2 0x2B5C JUMPI PUSH2 0x2B5C PUSH2 0x2B37 JUMP JUMPDEST POP MOD SWAP1 JUMP JUMPDEST PUSH1 0x0 DUP3 NOT DUP3 GT ISZERO PUSH2 0x2B74 JUMPI PUSH2 0x2B74 PUSH2 0x2A9E JUMP JUMPDEST POP ADD SWAP1 JUMP JUMPDEST PUSH1 0x20 DUP1 DUP3 MSTORE PUSH1 0x32 SWAP1 DUP3 ADD MSTORE PUSH32 0x4552433732313A207472616E7366657220746F206E6F6E204552433732315265 PUSH1 0x40 DUP3 ADD MSTORE PUSH18 0x31B2B4BB32B91034B6B83632B6B2B73A32B9 PUSH1 0x71 SHL PUSH1 0x60 DUP3 ADD MSTORE PUSH1 0x80 ADD SWAP1 JUMP JUMPDEST PUSH1 0x0 PUSH1 0x20 DUP3 DUP5 SUB SLT ISZERO PUSH2 0x2BDD JUMPI PUSH1 0x0 DUP1 REVERT JUMPDEST POP MLOAD SWAP2 SWAP1 POP JUMP JUMPDEST PUSH1 0x0 DUP4 MLOAD PUSH2 0x2BF6 DUP2 DUP5 PUSH1 0x20 DUP9 ADD PUSH2 0x2472 JUMP JUMPDEST DUP4 MLOAD SWAP1 DUP4 ADD SWAP1 PUSH2 0x2C0A DUP2 DUP4 PUSH1 0x20 DUP9 ADD PUSH2 0x2472 JUMP JUMPDEST ADD SWAP5 SWAP4 POP POP POP POP JUMP JUMPDEST PUSH1 0x0 DUP3 PUSH2 0x2C22 JUMPI PUSH2 0x2C22 PUSH2 0x2B37 JUMP JUMPDEST POP DIV SWAP1 JUMP JUMPDEST PUSH14 0x29B2B63632B91D1021B7B9BA399 PUSH1 0x95 SHL DUP2 MSTORE PUSH1 0x0 DUP3 MLOAD PUSH2 0x2C50 DUP2 PUSH1 0xE DUP6 ADD PUSH1 0x20 DUP8 ADD PUSH2 0x2472 JUMP JUMPDEST PUSH5 0x2047576569 PUSH1 0xD8 SHL PUSH1 0xE SWAP4 SWAP1 SWAP2 ADD SWAP3 DUP4 ADD MSTORE POP PUSH1 0x13 ADD SWAP2 SWAP1 POP JUMP JUMPDEST PUSH1 0x1 PUSH1 0x1 PUSH1 0xA0 SHL SUB DUP6 DUP2 AND DUP3 MSTORE DUP5 AND PUSH1 0x20 DUP3 ADD MSTORE PUSH1 0x40 DUP2 ADD DUP4 SWAP1 MSTORE PUSH1 0x80 PUSH1 0x60 DUP3 ADD DUP2 SWAP1 MSTORE PUSH1 0x0 SWAP1 PUSH2 0x2C9F SWAP1 DUP4 ADD DUP5 PUSH2 0x249E JUMP JUMPDEST SWAP7 SWAP6 POP POP POP POP POP POP JUMP JUMPDEST PUSH1 0x0 PUSH1 0x20 DUP3 DUP5 SUB SLT ISZERO PUSH2 0x2CBB JUMPI PUSH1 0x0 DUP1 REVERT JUMPDEST DUP2 MLOAD PUSH2 0xBE4 DUP2 PUSH2 0x243F JUMP JUMPDEST PUSH1 0x0 PUSH1 0x1 DUP3 ADD PUSH2 0x2CD8 JUMPI PUSH2 0x2CD8 PUSH2 0x2A9E JUMP JUMPDEST POP PUSH1 0x1 ADD SWAP1 JUMP JUMPDEST PUSH8 0x29B2B63632B91D1 PUSH1 0xC5 SHL DUP2 MSTORE PUSH1 0x0 DUP3 MLOAD PUSH2 0x2D02 DUP2 PUSH1 0x8 DUP6 ADD PUSH1 0x20 DUP8 ADD PUSH2 0x2472 JUMP JUMPDEST SWAP2 SWAP1 SWAP2 ADD PUSH1 0x8 ADD SWAP3 SWAP2 POP POP JUMP INVALID LOG2 PUSH5 0x6970667358 0x22 SLT KECCAK256 PUSH30 0xA6C6FD399BD74FE6043839D688430164C53F0AB2A929CC1C1B36AB16B6F5 SELFBALANCE PUSH5 0x736F6C6343 STOP ADDMOD 0xF STOP CALLER ",
  "sha1": "e6b5fb5395e77b93848f3d0d69e8e22936147a6b",
  "source": "//SPDX-License-Identifier: MIT\n\npragma solidity >=0.8.10 <0.9.0;\n\nimport \"@openzeppelin/contracts/token/ERC721/ERC721.sol\";\nimport \"@chainlink/contracts/src/v0.8/VRFConsumerBaseV2.sol\";\nimport \"@chainlink/contracts/src/v0.8/interfaces/VRFCoordinatorV2Interface.sol\";\nimport \"@divergencetech/contracts/sales/FixedPriceSeller.sol\";\nimport \"@divergencetech/contracts/erc721/BaseTokenURI.sol\";\n\ncontract FrogxVerse is ERC721, VRFConsumerBaseV2, FixedPriceSeller, BaseTokenURI {\n    VRFCoordinatorV2Interface private immutable i_vrfCoordinator;\n    bytes32 private immutable i_gasLane;\n    uint64 private immutable i_subscriptionId;\n    uint32 private immutable i_callbackGasLimit;\n    uint16 private constant REQUEST_CONFIRMATIONS = 3;\n    uint32 private constant NUM_WORDS = 1;\n    uint16[5] public ids;\n    uint16 private index;\n    mapping(uint256 => address) public requestIdToMinter;\n\n    event RequestedMint(uint256 indexed requestId);\n    event FrogxelMinted(uint256 indexed tokenId);\n\n    constructor(\n        address _VRFCoordinator,\n        bytes32 _gasLane,\n        uint64 _subscriptionId,\n        uint32 _callbackGasLimit,\n        address payable beneficiary\n    )\n    ERC721(\"FrogxVerse\", \"FROGXEL\")\n    VRFConsumerBaseV2(_VRFCoordinator)\n    FixedPriceSeller(\n        0.01 ether,\n        Seller.SellerConfig({\n            totalInventory: 5,\n            lockTotalInventory: true,\n            maxPerAddress: 5,\n            maxPerTx: 1,\n            freeQuota: 1,\n            lockFreeQuota: false,\n            reserveFreeQuota: true\n\n        }),\n        beneficiary\n    )\n    BaseTokenURI(\"\")\n    {\n        i_vrfCoordinator = VRFCoordinatorV2Interface(_VRFCoordinator);\n        i_gasLane = _gasLane;\n        i_subscriptionId = _subscriptionId;\n        i_callbackGasLimit = _callbackGasLimit;\n    }\n\n    function mintFrogxel(address to) public payable {\n        _purchase(to, 1);\n    }\n\n    function fulfillRandomWords(uint256 requestId, uint256[] memory randomWords) internal override{\n        uint256 len = ids.length - index++;\n        require(len > 0, \"No Frogxels left\");\n        uint256 randomIndex = randomWords[0] % len;\n        uint256 tokenId = ids[randomIndex] != 0 ? ids[randomIndex] : randomIndex;\n        ids[randomIndex] = uint16(ids[len - 1] == 0 ? len - 1 : ids[len - 1]);\n        ids[len - 1] = 0;\n        _safeMint(requestIdToMinter[requestId], tokenId);\n        emit FrogxelMinted(tokenId);\n    }\n\n    function _handlePurchase(address to, uint256 n, bool) internal override {\n        uint256 requestId = i_vrfCoordinator.requestRandomWords(i_gasLane, i_subscriptionId, REQUEST_CONFIRMATIONS, i_callbackGasLimit, NUM_WORDS);\n        requestIdToMinter[requestId] = to;\n        emit RequestedMint(requestId);\n    }\n\n    function _baseURI() internal view override (BaseTokenURI, ERC721) returns (string memory) {\n        return BaseTokenURI._baseURI();\n    }\n    \n    function tokenURI(uint256 tokenId) public view override returns (string memory) {\n        return super.tokenURI(tokenId);\n    }\n}",
  "sourcePath": "contracts/FrogxVerse.sol",
  "type": "contract"
}